:020000040800F2
:1000000000000520251300084112000843120008D3
:1000100045120008471200084912000800000000BD
:10002000000000000000000000000000B185000892
:100030004B1200080000000051860008B586000839
:100040007513000875130008751300087513000870
:100050007513000875130008751300087513000860
:100060007513000875130008751300087513000850
:100070007513000875130008751300087513000840
:100080007513000875130008751300087513000830
:100090007513000875130008751300087513000820
:1000A0007513000875130008751300087513000810
:1000B0007513000875130008751300087513000800
:1000C00075130008751300087513000875130008F0
:1000D00075130008751300087513000875130008E0
:1000E00075130008751300087513000875130008D0
:1000F00075130008751300087513000875130008C0
:1001000075130008751300087513000875130008AF
:1001100075130008751300084D12000875130008C8
:10012000751300087513000875130008751300088F
:10013000751300087513000875130008751300087F
:10014000751300087513000875130008751300086F
:10015000751300087513000875130008751300085F
:10016000751300087513000875130008751300084F
:1001700075130008751300087513000800000000CF
:100180007513000875130008A544000875130008CE
:10019000751300087513000875130008751300081F
:1001A000591200087513000865120008751300083D
:1001B00075130008751300087513000875130008FF
:0801C000751300087513000817
:1001D00010B5054C237833B9044B13B10448AFF381
:1001E00000800123237010BD2401002000000000C6
:1001F000C0F7010808B5034B1BB103490348AFF32F
:10020000008008BD0000000028010020C0F70108A0
:1002100001F0FF01102A2BDB10F0070F08D010F8B7
:10022000013B013A8B422DD010F0070F42B3F6D1BB
:10023000F0B441EA012141EA014122F007047FF0D4
:1002400000070023F0E80256083C85EA010586EA2B
:10025000010685FA47F5A3FA87F586FA47F6A5FA67
:1002600087F68EB9EED1F0BC01F0FF0102F0070273
:1002700032B110F8013B013A83EA010313B1F8D11E
:100280000020704701387047002D06BF35460338FF
:10029000073815F0010F07D1013015F4807F02BF38
:1002A000013015F4C03F0130F0BC0138704700BF89
:1002B00053B94AB9002908BF00281CBF4FF0FF31CD
:1002C0004FF0FF3000F06AB9ADF1080C6DE904CED3
:1002D00000F006F8DDF804E0DDE9022304B0704721
:1002E0002DE9F047089D0C46002B4ED194468C45D5
:1002F0008646B2FA82F262D94AB1C2F12003914035
:1003000020FA03F30CFA02FC194300FA02FE4FEA4A
:100310001C471FFA8CF6B1FBF7F44FEA1E4307FBAC
:10032000141143EA014304FB06F199420AD91CEB7C
:10033000030304F1FF3080F01281994240F20F81F3
:10034000023C6344591A1FFA8EF3B1FBF7F007FB26
:10035000101143EA014300FB06F69E420AD91CEB4A
:10036000030300F1FF3180F0FC809E4240F2F980EF
:10037000634402389B1B40EA044000211DB1D34076
:100380000022C5E90032BDE8F0878B4205D90DB1E6
:10039000C5E9000100210846F5E7B3FA83F1002919
:1003A00046D1A34202D39042C0F0F080861A64EB9B
:1003B00003030120002DE6D0C5E90063E3E7002A2E
:1003C00040F09080A1EB0C044FEA1C481FFA8CF718
:1003D0000121B4FBF8F64FEA1E4308FB164443EA3A
:1003E000044307FB06F0984208D91CEB030306F10F
:1003F000FF3402D2984200F2CD8026461C1A1FFA22
:100400008EF3B4FBF8F008FB104443EA044300FB0E
:1004100007F79F4208D91CEB030300F1FF3402D217
:100420009F4200F2B0802046DB1B40EA0640A5E771
:10043000C1F120068B4022FA06F71F4320FA06FC82
:1004400004FA01F343EA0C03F44000FA01F8380C13
:100450004FEA1349B4FBF0FE1FFA87FC00FB1E4471
:1004600049EA04440EFB0CF9A14502FA01F20AD94B
:100470003C190EF1FF3A80F08480A14540F2818062
:10048000AEF1020E3C44A4EB09041FFA83F9B4FB5D
:10049000F0F300FB134449EA044403FB0CFCA445BD
:1004A00007D93C1903F1FF3067D2A44565D9023B57
:1004B0003C4443EA0E40A0FB0293A4EB0C049C4294
:1004C000CE469C4651D34ED055B1B8EB0E0364EBEB
:1004D0000C0404FA06F6CB401E43CC40C5E9006488
:1004E000002150E7C2F1200320FA03F10CFA02FCCC
:1004F00024FA03F394400C434FEA1C4800FA02FE2E
:100500001FFA8CF7B3FBF8F008FB1031230C43EA19
:10051000014300FB07F1994208D91CEB030300F1EA
:10052000FF362CD299422AD9023863445B1AA4B20E
:10053000B3FBF8F108FB113344EA034401FB07F372
:10054000A34208D91CEB040401F1FF3613D2A342E5
:1005500011D902396444E41A41EA004139E70446FA
:10056000F0E6084606E7C845AED2B9EB020E63EBEB
:10057000070C0138A8E73146EDE7034699E7304616
:10058000D4E7D6467FE7634402384DE70646234664
:1005900008460FE7023E634430E700BF704700BFE4
:1005A0000149002009F002BA2118000808B5094BDA
:1005B0001A790AB91A7B1A710822074907481EF0EE
:1005C0006FFB4FF4807200210348BDE808401EF025
:1005D0004DBB00BFF41C0020F81C0020400100208F
:1005E00008B5642007F0F4FBFBE700000A4C0B4D54
:1005F0000B4A0A49084808B50A4B03F0F9FEB4F85B
:100600000411012228460431214407F0ABFA1920D5
:1006100007F0DEFBF3E700BFF41C0020940200208B
:10062000AD050008290600087047000010B594B019
:100630001022002102240AA81EF018FB1422002117
:1006400003A81EF013FB1D4B192108A81A6C42F0D9
:1006500080521A641B6C03F080530193019B184B6A
:100660001A6842F440421A6001221B6803F44043B6
:100670000293029B4FF48033CDE908234FF48003AB
:10068000CDE90E434FF4D873CDE91244CDE91013F0
:1006900005F050FE05F0ECFA0F2300200721CDE90C
:1006A00003344FF4A053CDE905034FF4805303A85E
:1006B000079306F027F814B010BD00BF00380240C1
:1006C000007000402DE980489BB0102200210125D8
:1006D0000DA84FF0104A1EF0C9FA002404F01CFACD
:1006E000C74B0DA8ADF834501094CDE90EA304F01B
:1006F00031FA17230DA88DF835508DF83C308DF860
:10070000425004F027FA042004F014FABFF34F8F8C
:10071000BFF36F8FBB4AC2F85042BFF34F8FBFF396
:100720006F8F536943F400335361BFF34F8FBFF3AF
:100730006F8FC2F88440BFF34F8FD2F8803043F6FA
:10074000E074C3F3C900C3F34E335B0103EA04064C
:10075000014646EA81750139C2F86052F9D2203B60
:1007600013F1200FF2D1BFF34F8F536943F480335D
:100770005361BFF34F8FBFF36F8F04F033F9002441
:10078000FFF754FF142200210DA81EF06FFA9E4BB4
:1007900010219E481A6B01274FF010084FF0030BF1
:1007A00042F010024FF4805A994D4FF004091A6339
:1007B0001A6B984E02F010020292029A1A6B42F0E3
:1007C00002021A631A6B02F002020392039A1A6B76
:1007D00042F001021A631A6B02F001020492049AB9
:1007E0001A6B42F040021A631A6B02F04002059243
:1007F000059A1A6B42F400721A631A6B02F40072C3
:100800000692069A1A6B42F008021A631A6B02F0FB
:1008100008020792079A1A6B42F480621A631A6BF5
:1008200002F480620892089A1A6B42F020021A635E
:100830001A6B02F020020992099A1A6B42F4807234
:100840001A631A6B02F480720A920A9A1A6B42F0C7
:1008500080021A631A6B02F080020B920B9A1A6BD9
:1008600042F004021A6300221B6B03F004030C9392
:100870000C9B04F0CDFC01220821674804F0C8FC61
:1008800001224FF48051654804F0C2FC0022C021CF
:10089000634804F0BDFC00224021624804F0B8FC2B
:1008A0000DA95A48CDE90D87CDE90F4B04F02CFB7B
:1008B00008230DA95848CDE90D37CDE90F4404F0C0
:1008C00023FB0DA95548CDE90DA7CDE90F4404F050
:1008D0001BFBC0220DA95248CDE90D27CDE90F4BD6
:1008E00004F012FB40220DA94E48CDE90D27CDE9B9
:1008F0000F4B04F009FB4C484C49848001600762AF
:10090000C0E9054404F052F949492846C5E90014F4
:10091000C5E90244C5E90A44C5E90C4404F0F5F907
:1009200039462846434D04F0A9FA40234FF4C072DB
:1009300041493046B460F461B462C6E905324FF40F
:100940000062C6E9082A4FF0020A0722C6E900142D
:100950000DA9CDF84CA0C6E90398CDE90F92CDE9D9
:100960000DA2CDE911BA06F033FA29464FF6FF720F
:1009700030460194C5E90078C5E9027406F048FAEA
:10098000384604F053F829464FF6FF723046C5E961
:1009900000A8C5E9027406F03BFA082329464FF681
:1009A000FF723046C5E900B8C5E9023406F030FAF6
:1009B0004FF40C734FF6FF72294601933046019BAA
:1009C000AF60EB60C5E9009806F022FA40F22B71A7
:1009D00030461A4D06F03BFA4FF0204343F2D20264
:1009E000642040F215261A6004F020F8144B154AD2
:1009F00028462C62C5E90023C5E9024724E000BF70
:100A00001B00000300ED00E000380240000402403B
:100A10006404002060020020002802400020024000
:100A20000008024000180240A404002000300240E8
:100A300000B0024040020020400100A0100400204D
:100A400068474020005C0040C5E90444C5E906440D
:100A500004F006FD2146284604F024FF21462846DE
:100A60004A4D04F045FF342221460DEB02001EF0F2
:100A7000FDF8474B2821352040F2352C2C61AC86FF
:100A800085F83640C5E900340923C5E905130B2371
:100A9000C5E9070340F21B132846C5E9096340F284
:100AA0001D13C5E90244C5E90BC304F0CDFFFF21C6
:100AB0004FF4806E4FF4F0724FF4887328460D9413
:100AC0001893ADF864408DF86640CDE91214052105
:100AD000CDE914E14FF04041CDE90E24CDE91612E5
:100AE00022460DA9CDE9103A05F079F829482A4B9C
:100AF0000462C0E90298C0E900374FF018084FF4CB
:100B0000A063DFF8C890C0E90483C0E9064405F09B
:100B1000C9F903F0E7FD03F02DFD5C2003F0EAFFC7
:100B200000F0FEFB1D484FF4E13304614462C0E96C
:100B300000930C23C0E90244C0E90534C0E907442E
:100B400006F088FF00F018FC00F015FC07F0B2F882
:100B5000134807F055F9134B134A21461860134800
:100B600007F0E2F8124B134A21461860124807F0CA
:100B7000DBF8124B124A21461860124807F0D4F8ED
:100B8000114B186007F0B0F8FEE700BF68030020C3
:100B9000006801401C030020001000A09402002007
:100BA00050F8010850020020A8F80108E1050008EB
:100BB0005C02002084F80108871300085802002016
:100BC00060F80108ED05000854020020007800409C
:100BD0000268064B9A4207D1054B012283F8062191
:100BE000D3F80C3103B11847704700BF00780040BC
:100BF000F41C00200268034B9A4202D1024803F021
:100C000029BC704700780040F41C002013B50C4C40
:100C10004FF0FF31206807F035F950B9094B072232
:100C2000694618689B8800900748ADF8043003F0C7
:100C300005FC206802B0BDE8104007F053B900BFC2
:100C40005002002018F80108F41C00200268034B31
:100C50009A4201D103F0D8BE704700BF0010004097
:100C6000704700000D4B82B00F216FF001001A6C2D
:100C700042F080521A641A6C02F080520092009A7C
:100C80005A6C42F480425A6400225B6C03F4804345
:100C90000193019B02B003F0EDBE00BF003802409B
:100CA000026882B0084B9A420BD1D3F8302803F582
:100CB000006342F480521A631B6B03F48053019368
:100CC000019B02B0704700BF003002400E4B07B5D9
:100CD00002689A4215D1A3F5F04305215A201A6BF8
:100CE00042F400021A6300221B6B03F40003019319
:100CF000019B03F0BFFE5A2003B05DF804EB03F044
:100D0000EBBE03B05DF804FB00B0024010B5A8B024
:100D100004461422002102A81DF0A8FF842200210D
:100D200007A81DF0A3FF2268174B9A422AD14FF45F
:100D3000803307A8079305F0C1FD08B1FFF790FFC6
:100D4000124C4FF4C07201211148236B43F0800311
:100D50002363236B03F080030093009B1223CDE9F0
:100D600002230323CDE90413042302A9069304F00C
:100D7000CBF8236C43F400032364236C03F40003D7
:100D80000193019B28B010BD005C00400038024078
:100D9000001C0240026808B5094B9A420FD1094A6B
:100DA00080210948136C23F40003136404F090F9C4
:100DB0004FF480710448BDE8084004F089B908BDCB
:100DC000005C004000380240001C024070B5ACB02E
:100DD00004461422002106A81DF048FF84220021A9
:100DE0000BA81DF043FF2268484B9A4240F08C80CC
:100DF0000823052001240B934FF4C07310930223A2
:100E0000CDE911304FF400330BA8CDE9154305F0BF
:100E100055FD08B1FFF724FF3D4B002402250E26A7
:100E20005A6C06A93B4842F080625A645A6C02F040
:100E300080620092009A1A6B42F010021A631A6BD9
:100E400002F010020192019A1A6B42F400721A63C6
:100E50001A6B02F400720292029A1A6B42F48062D8
:100E60001A631A6B02F480620392039A1A6B42F0BF
:100E700040021A631A6B02F040020492049A1A6B41
:100E800042F480721A631B6B03F480730593059B15
:100E90001023CDE90635CDE908440A9604F034F86C
:100EA0004EF6FF7306A91C480A96CDE90635CDE932
:100EB000084404F029F8F72306A918480A96CDE952
:100EC0000635CDE9084404F01FF84FF4805306A915
:100ED0001348CDE906350923CDE908440A9304F007
:100EE00013F84FF4464306A90E480A96CDE9063595
:100EF000CDE9084404F008F858202246052103F003
:100F0000B9FD582003F0E8FD2CB070BD0068014029
:100F10000038024000100240002402400028024035
:100F20000018024000200240142200212DE9F04167
:100F30008AB004460DEB02001DF098FE22682C4B8F
:100F40009A4251D12B4B0225032409269A6B4FF06C
:100F5000040805A9284842F0020200279A639A6B08
:100F600002F002020192019A1A6B42F010021A6317
:100F70001A6B02F010020292029A1A6B42F00202FD
:100F80001A631A6B02F002020392039A1A6B42F080
:100F900008021A631B6B03F008030493049BCDE95A
:100FA0000585CDE9084603F0AFFF402305A91348A6
:100FB000CDE905350A23CDE90774099303F0A4FFB1
:100FC00005A90E480996CDE90585CDE9077403F01A
:100FD0009BFF4FF4605305A909480996CDE90535F3
:100FE000CDE9077403F090FF0AB0BDE8F08100BFBF
:100FF000001000A00038024000100240000402402F
:10100000000C0240026808B50B4B9A4213D10B4A00
:1010100004210B48936B23F00203936304F058F808
:101020004421084804F054F84FF460510648BDE8E4
:10103000084004F04DB808BD001000A00038024080
:101040000010024000040240000C024010B5A8B09D
:1010500004461422002102A81DF008FE842200216B
:1010600007A81DF003FE2268174B9A422AD14FF4BD
:10107000805307A8079305F021FC08B1FFF7F0FDA6
:10108000124B002112481A6C42F080421A641A6C0A
:1010900002F080420092009A1A6B42F020021A631A
:1010A000C0221B6B03F020030193019B0223CDE9B7
:1010B00002230323CDE9041308230DEB0301069358
:1010C00003F022FF28B010BD007800400038024035
:1010D00000140240F0B5002387B00393294B1E682B
:1010E000002E4DD10122022703250C241A6001A9EC
:1010F000254B26489A6B42F001029A639B6B03F0E2
:1011000001030093009B4FF68373CDE90454CDE9AE
:10111000013703F0F9FE48F2331301A91C48059486
:10112000CDE90137CDE9036503F0EEFE4CF2037320
:1011300001A918480594CDE90137CDE9036503F00D
:10114000E3FE4FF63F0301A913480594CDE90137AB
:10115000CDE9036503F0D8FE282301A90F480594C3
:10116000CDE90137CDE9036503F0CEFE082301A9DF
:101170000B480594CDE90137CDE9036503F0C4FEC2
:1011800007B0F0BDC8040020003802400010024043
:1011900000180240000C024000140240001C0240F3
:1011A00000080240214B1A6C42F0100270B51A641C
:1011B00088B01B6C054601A903A803F01003029335
:1011C000029B05F05DFB069B4BBB05F039FB184EFF
:1011D000184B336040F2E733F360174BB0FBF3F387
:1011E000013B3046736000233361B360B36105F0A7
:1011F0009FFF044680B9304605F042FE044658B9C8
:10120000362003F069FC0F2D0DD8224629463620E2
:1012100003F030FC094B1D60204608B070BD05F09E
:101220000FFB4000D3E70124F6E700BF003802407F
:10123000CC0400200010004040420F003C00002081
:101240007047FEE7FEE7FEE7FEE77047014805F05E
:1012500059BE00BFCC040020014804F063BC00BFAD
:1012600068030020014803F07EBD00BF6404002035
:101270000120704708B51DF0C1FD162303604FF033
:10128000FF3008BD08B51DF0B9FD16230360FEE769
:1012900070B50D4614460E46731B9C4201DC204679
:1012A00070BDAFF3008006F8010BF5E770B50D4691
:1012B00014460E46731B9C4201DC204670BD16F896
:1012C000010BAFF30080F5E74FF0FF3070474FF4AC
:1012D000005300204B60704701207047002070478A
:1012E0000B4A0346116810B509B90A491160106824
:1012F00009490A4C0344091B8B4206D91DF07EFDA7
:101300000C2303604FF0FF3010BD1360FCE700BFFB
:1013100018050020E05C012000000520000A000004
:1013200070470000DFF834D0002103E00C4B5B581D
:10133000435004310B480C4B42189A42F6D30B4AE7
:1013400002E0002342F8043B094B9A42F9D303F030
:1013500061FA1DF059FDFFF7B5F97047000005204F
:10136000AC16020800000020240100202401002007
:10137000DC5C0120FEE7704708B500F05FFDBDE8CA
:10138000084000F0EBBC00F05BBD40687047416076
:10139000704700004FF0E022D2F8FC3D43F080732C
:1013A000C2F8FC3D054B064AD3F8B01F0A43C3F808
:1013B000B02F1A6842F001021A607047001000E076
:1013C00055CEACC5521A02EB5302B2FBF3F0704794
:1013D000014B5868704700BF001000E0704710B51F
:1013E00004460C211DF078F9204610BD036810B5A5
:1013F0001B69044631B19847A26863689B1A03448D
:10140000636010BD9847A060FBE70000024B7020AE
:10141000024A1360DB681847100000201C050020FA
:10142000704710B5044604211DF056F9204610BD42
:1014300073B50E4E0D461446336813B9002002B042
:1014400070BD1B69702098470028F7D03368702062
:1014500001AA0DF106015B699847BDF8043001202F
:101460002B60BDF806302360E9E700BF1C050020B3
:101470007FB501238DF817204FF47A72CDE9013240
:101480000DF1170200920A460146054804F052F891
:1014900010B1034804F035F807B05DF804FB00BF55
:1014A000100400207FB500230A464FF47A718DF8AE
:1014B00017300123CDE901310DF1170100910146EB
:1014C000054804F011F910B1034804F01AF89DF82A
:1014D000170007B05DF804FB10040020032823D890
:1014E000DFE800F0020B131A104B102110481A68A5
:1014F000B2FA82F2520903F08BBE0C4B40215A68BB
:10150000B2FA82F252090B48F5E7084B80219A683B
:10151000B2FA82F25209F6E7044B40210648DA6833
:10152000B2FA82F25209E6E7704700BF20050020B8
:10153000000402400008024000180240032823D89B
:10154000DFE800F0020B131A104B102110481A6844
:10155000003A18BF012203F05BBE0C4B40215A68D1
:10156000003A18BF01220B48F5E7084B80219A6822
:10157000003A18BF0122F6E7044B40210648DA681A
:10158000003A18BF0122E6E7704700BF200500209F
:1015900000040240000802400018024003280FD84F
:1015A000DFE800F00206090B1021064803F035BE03
:1015B00040210548FAE78021FBE740210348F5E791
:1015C000704700BF000402400008024000180240BB
:1015D00008B5032813D8DFE800F0020A0D0F102128
:1015E000084803F00FFE431E5842584108BD4021F1
:1015F0000548F6E78021FBE740210448F1E7002099
:10160000F1E700BF00040240000802400018024059
:1016100070B5084D00240126E0B2FFF7D9FF18B1DC
:101620002B68012B18BF2E6001340435052CF3D133
:1016300070BD00BF20050020012380F8781080F8DD
:10164000793070470020704741640039024B18BF61
:1016500001211970704700BFAB5001200020704776
:10166000836B0BB10846184770474FF6FF70704701
:10167000406803689B6918477047000038B5044606
:1016800000F0A6FC084923682046084DD3F88C30AA
:1016900098470023284684F84A30FFF77BFE012351
:1016A000256184F8703038BD000000C0300500208E
:1016B00000F058BC00F05CBC70B500F0A7FC10490D
:1016C0000023C1F88430BFF34F8FD1F8803043F648
:1016D000E074C3F3C900C3F34E335B0103EA0406AD
:1016E000024646EA8275013AC1F87452F9D2203BAB
:1016F00013F1200FF2D1BFF34F8FBFF36F8F70BD87
:1017000000ED00E000F084BC00F008BC00F082BCFA
:1017100000F08ABC00F00CBC10B5044609F022FEB3
:1017200023682046D3F8AC30BDE81040184709F0D4
:1017300077B810B504467C211CF0CEFF204610BDC2
:1017400090F834100D4B10B590F878401A788C4210
:1017500009D03AB90A490B4A088814881080012236
:101760000C801A7010BD002AFCD0064A0449148867
:1017700008880C8010800022F3E700BFA4500120ED
:10178000A2500120A050012070B50D46194635B970
:10179000094B40F2D221094A09481CF0CBFFC0E9AD
:1017A0000F52003A074B18BF01221A700368BDE8B8
:1017B0007040D3F88C3018470CF9010844F901083F
:1017C00092F90108AA50012008B5094B1B888B42E9
:1017D00003D8084B1B88934205D9074B9E21074A23
:1017E00007481CF0A7FF074B1980074B1A8008BD5C
:1017F000A0500120A2500120D7F901083AFA0108AF
:1018000092F90108A6500120A8500120034690F843
:101810007A0018B1586803681B68184770470000C1
:10182000014608B5034B186801B1012109F0B4FD68
:10183000012008BDAC500120034B00225A609A6081
:10184000024A1A60704700BF30050020D4F8010832
:101850000121002208B5084606F070FB0A4B18600B
:1018600028B90A4B28210A4A0A481CF063FF0022C3
:101870000421012006F02CFC074B186018B9074B17
:101880002C21034AF0E708BD4005002058FB010861
:10189000A1FB0108D0FB01083C0500201EFC01084B
:1018A000024B4FF0FF31186806F0A0BB4005002046
:1018B000014B186806F0D6BB40050020024B002102
:1018C000186806F093BB00BF40050020FFF7F0BF8B
:1018D0000023034803491A46006806F03FBC00BFD6
:1018E0003C0500200400002013B50023074C01A98B
:1018F0001A46206806F074FC4FF0FF33002201A95D
:10190000206806F06DFC02B010BD00BF3C05002051
:1019100003685B6C18470120704703689B6A18478F
:101920000D4B82B01A6B42F400021A631A6B02F478
:1019300000020192019A1A6942F400021A611A69BE
:1019400022F400021A61054B054A1A614FF08062C9
:10195000044B9A6002B070470038024064040020D3
:10196000F11B000800E100E040F2EF30704700009A
:10197000054B4FF080620360044BC3F88820BFF32F
:101980004F8FBFF36F8F7047BCFD010800E100E08F
:1019900010B504464FF45A61FFF7EAFF20461CF0E9
:1019A0009BFE204610BD000008B50A2809D8DFE8D4
:1019B00000F006100E080808081010101000022091
:1019C00008BD054B8621054A05481CF0B3FE0020E2
:1019D000F6E70120F4E700BF60FC01087BFC01088A
:1019E000C6FC010838B50C46887FFFF7DDFF174BB2
:1019F000A58AE28A586342EA054221695A64628BE9
:101A0000D963521B1A642568082D0ED19A611A6198
:101A100058620F4A207F42EA0062DA61E2681A6285
:101A20000C4A5961D9601A6038BD0022D8611A6128
:101A3000E1680A0A4809C1F3C40102F4784200F4DB
:101A4000FC6002430A439A63034AECE700B0024099
:101A500009000100010202000102030008B50B2881
:101A60000BD8DFE800F00612100A0A0A0A08080874
:101A70000808022008BD0520FCE7054B6521054A42
:101A800005481CF057FE0020F4E70120F2E700BFF4
:101A900060FC010812FD0108C6FC01082DE9F041B7
:101AA00091F81D800C464046FFF7D8FFA77F0546FA
:101AB0003846FFF7D3FF06463846FFF775FFA18A81
:101AC000628B434B521A1A649A61228B521A1A6122
:101AD000E28A586342EA014221695A646268D96322
:101AE000DA602068802828D0227F0FD8202866D08E
:101AF000402864D004281AD045EA0265344BB84522
:101B000045F40035DD6160D0324A44E0B0F5807FB5
:101B100004D0B0F5007FEFD12F4800E02F4840EA15
:101B20000262DA61E2681A625E62596132E045EA95
:101B3000026242F40032DA61F6E7A068021DDA625E
:101B4000227F45EA026545F40035DD615E62596138
:101B5000017841B1012921D0214B4FF48871214AEC
:101B600021481CF0E7FDDA69418822F47F420139FF
:101B700022F0100242EA01220121DA61144BDA69F3
:101B800042F02002DA61DA699206FCD410229A60EF
:101B90000029B9D0154A1A60BDE8F081B2F1FF0101
:101BA000DA69408822F47F4218BF0121013822F00F
:101BB000100242EA002242F01002DA61DEE745EA52
:101BC0000262034B42F40032B5E740F20122E2E741
:101BD00000B0024001020100090002000A000200F8
:101BE0005CFD010876FD0108C6FC01080102020047
:101BF000024B1B68586803685B691847AC500120AA
:101C000070B504460A4B0C30002625466022606001
:101C10002672667245F8203B294609F0F9FC04F566
:101C20005A63EE6024359D42FBD1204670BD00BF53
:101C3000BCFD0108012070470C2070470C2303FBFA
:101C40000100083070470C2303FB01000830704787
:101C5000012070474FF4D56070474FF4D56303FB04
:101C60000100083070474FF4D56303FB01000830D2
:101C70007047012070471020704700EB01100830BA
:101C8000704700EB011008307047084600F0CCBBED
:101C9000034B10B50446036008F01BFB204610BD43
:101CA00074FE010810B50446FFF7F2FF1421204628
:101CB0001CF012FD204610BD034B10B50446036016
:101CC00008F007FB204610BD40FE010810B5044691
:101CD000FFF7F2FF4FF4D66120461CF0FDFC2046D2
:101CE00010BD0000034B10B50446036008F0F1FA84
:101CF000204610BD0CFE010810B50446FFF7F2FFA8
:101D0000182120461CF0E8FC204610BD084B10B5F9
:101D10000446036000F2DC60FFF7BAFF04F12C0018
:101D2000FFF7CAFF04F11400FFF7DCFF204610BDE7
:101D3000A8FE010808B50248FFF7E8FF08BD00BF8C
:101D4000F413002010B50446FFF7E0FF4FF40561DF
:101D500020461CF0C1FC204610BD00002DE9F341D7
:101D600000F0C4F90024054600F0C4F923460146FA
:101D70002246284600940FF02BF8254B254A204692
:101D8000254D1A6001F09AF924480EF089FF2B685E
:101D9000BFF35B8FDB0735D428461CF09FFC88B36C
:101DA0001F4C204B04F2F46604F1140004F12C08DB
:101DB00004F2DC6723606060C4F80880E760266195
:101DC00008F088FA184B4046636108F083FA174B15
:101DD0003846E36208F07EFA154B04F5DE60C4F87D
:101DE000DC3602F0FBF8224604F5DE61304602F0F4
:101DF00099F8304600F018FB0E481CF0B9FC284654
:101E00001CF078FC0C4802B0BDE8F041FFF736BC8E
:101E100008510120C0050020F01300200800002018
:101E2000F4130020A8FE01080CFE010840FE010882
:101E300074FE0108351D00084405002070470000AD
:101E4000014808F056BD00BF4405002070B5224E81
:101E5000224B234C3046234D2360FFF7D1FE28460A
:101E600013F090FA204B00224FF480711F481A861D
:101E700083F858205A6683F870205A67DC60C3E9FB
:101E800012121B49C3E91A121A4999671A490B60C1
:101E90004FF4F0710180194801804FF4887118489F
:101EA000C3E90422C3E90622C3E90822C3E90A22DE
:101EB000C3E90E22C3E91022C3E91422C3E91722A1
:101EC000C3E9016501800F4883F8342001800E4981
:101ED0000A700E4A1A6070BD4C060020FCF801081A
:101EE000EC130020C405002044050020A050012070
:101EF0000100000100000101AC500120A6500120AA
:101F0000A2500120A8500120A450012088FA010805
:101F10000148FFF72DBD00BF4C060020034B902267
:101F200083F85A2383F85823704700BF00E100E08C
:101F3000094A0A49D3680A48C3F30A03013B9BB222
:101F40000B801169C1F30A01013901801364536BDD
:101F500043F001035363704700680140461C0020B2
:101F6000441C0020014BD3F8AC00704700680140CE
:101F7000024B0122C3F8AC105A627047006801405E
:101F8000124A5369DB0370B51ED50023C2F88430B2
:101F9000BFF34F8FD2F8803043F6E074C3F3C9002B
:101FA000C3F34E335B0103EA0406014646EA81753A
:101FB0000139C2F87452F9D2203B13F1200FF2D14B
:101FC000BFF34F8FBFF36F8F70BD00BF00ED00E018
:101FD00070B5044608F079FC23685D6E0BF09CFE3A
:101FE00001462046A8472368054A2046D3F8885072
:101FF0000023A2F57F31AC46BDE87040604700BFCA
:1020000000F807C008F048BC08F052BC08F00EBC4D
:1020100008F07DBD034B4FF080629A604FF08072F4
:102020009A60704700E100E0084B4FF08062C3F80F
:102030008820BFF34F8FBFF36F8F4FF08072C3F8CC
:102040008820BFF34F8FBFF36F8F704700E100E030
:1020500010B5144C236823B3134B144A1B6C11881E
:102060008B4213D1124B198803F0E6FD226892F8D7
:102070006A30013382F86A30FFF72AFC206809F0E1
:1020800071F90020BDE81040FFF728BA03F0D4FD35
:10209000206803681B6A98470020BDE81040FFF7DE
:1020A0004DBA10BDAC50012000680140461C002014
:1020B000441C0020704710B5044604211CF00CFBA2
:1020C000204610BD012908B506D0022908D059B90B
:1020D00001F040F8006808BD01F03CF84068FAE7FC
:1020E00001F038F88068F6E70020F4E70048704710
:1020F000C8FE01080920704713B5002451B10368D8
:1021000001AA01948DF803409C680DF10303A047D8
:1021100002B010BD0846FBE7C0897047008A7047CF
:10212000C088704780887047807A00F07F007047D1
:10213000807AC00970470020704700009FED010AB7
:10214000704700BF0000000000207047818070478A
:10215000C180704701817047418170477047704767
:1021600070477047704710B4C4880368121B848896
:102170005B6D091B12B25DF8044B09B218474FF6AC
:10218000FF7383814FF0FF3303621368C3611060F4
:102190007047806A70477047704710B504468421C5
:1021A0001CF09AFA204610BD90F8252012B1036861
:1021B0005B691847704790F825201AB190F82420E1
:1021C00002B118607047036870B504461B6B154672
:1021D00098472368204629465B6BBDE87040184746
:1021E000002310B5C0E90133C0E90333C0E9073368
:1021F000C0E905334FF4807304468384054B0360C4
:102200000B88C384FF2380F8283009F034FF204670
:1022100010BD00BFD81002084FF480732DE9F743BA
:102220000446002506468384244B04F158074FF6E4
:10223000FF78856201A94FF00709ADF80480C0E975
:102240000155C0E90355C0E90555C0E9075546F8F1
:102250002C3B3046FFF7C4FF01A93846ADF8048097
:10226000FFF7BEFF164B36222946A36030464FF0DB
:102270009608FFF7A8FF01A93046ADF8049009F0D1
:10228000FAFE3146204684F8548008F035F86FF0A5
:10229000010229463846FFF796FF01A93846ADF8F6
:1022A000049009F0E8FE2046394684F8808008F062
:1022B00023F8204603B0BDE8F08300BF84FF010887
:1022C00082006E00704710B5044608211CF004FA25
:1022D000204610BD7047704700F59873086849683C
:1022E00003C37047704770474160704770470000F4
:1022F000064BC0F84801C0F84C310023C0F85031FB
:1023000000F5A273C0F84031704700BF892800086B
:102310000123037270477047704710B44168034649
:10232000C2689B68541001EB6200D20748BF0A598B
:102330005DF8044B48BFD35818470346406830B196
:102340009A681AB9D86800F00100704701207047F8
:1023500010B504460C211CF0BFF9204610BD10B585
:10236000044610211CF0B8F9204610BD10B50446F3
:102370004FF4AE711CF0B0F9204610BD10B50BF053
:10238000CBFC0368BDE81040DB6B184710B5044672
:10239000D0F8400158B10368DB68984738B1D4F8E9
:1023A000400103689B6898470023C4F8403110BD82
:1023B000044B1B6893F858200AB1D86C00B9986890
:1023C000704700BFAC500120F8B5044617460E46D2
:1023D0000BF068FD104B00251C6029460F4B236055
:1023E0000F4BC4E951350F4B1868C4E953550368C6
:1023F000C4E94F559B68C4E955769847284600F0D4
:102400005DFEFFF7D5FF14F0EEFDFFF7D1FF14F0EE
:1024100065FE2046F8BD00BFF8500120980502086F
:1024200080050208AC500120064BC0F84801C0F8F6
:102430004C310023C0F8503100F5A273C0F8403190
:10244000704700BF89280008064BC0F84801C0F853
:102450004C310023C0F8503100F5A273C0F8403170
:10246000704700BF41270008064BC0F84801C0F87C
:102470004C310023C0F8503100F5A273C0F8403150
:10248000704700BFF9250008064BC0F84801C0F8A6
:102490004C310023C0F8503100F5A273C0F8403130
:1024A000704700BFB124000803685B6A184700004A
:1024B0002DE9F14FD0E9556A0746B06803681B6AF9
:1024C0009847DB2805D8444BA321444A44481CF0D4
:1024D00031F9706803681B6A98470F2803D8414B8D
:1024E000A4213E4AF2E7F06803681B6A98470B286C
:1024F00003D83D4BA521394AE8E7DFF8F4900BF00B
:102500000BFC04300BF02DFCD9F8000010B103686F
:10251000DB689847D9F8000010B103681B6898473A
:10252000DFF8D080D8F8000010B103685B699847E5
:10253000D7F83C0110B103685B689847D8F80000F1
:1025400010B103681B689847D7F83C0110B10368C5
:102550009B6898470021F068FFF7A6FF4FF0000B3B
:10256000224B0446C0F804B0594680F808B0036016
:10257000B06803685B6A9847054601F063FD7068C0
:10258000594603685B6A98470646294601F03AFDBA
:10259000331DC7F83C612846C9F80040C8F8005010
:1025A000CAF800302B68C6F808A0DB68EE639847CD
:1025B000336830461B689847214628460DF078F866
:1025C000236820461B699847236820465B6901B051
:1025D000BDE8F04F184700BF20000208AE00020817
:1025E0007E010208C501020868020208EC05020823
:1025F000EC500120E85001202DE9F14FD0E9556A57
:102600000746B06803681B6A9847DB2805D8444B27
:10261000A321444A44481CF08DF8706803681B6A83
:1026200098470F2803D8414BA4213E4AF2E7F068AF
:1026300003681B6A98470B2803D83D4BA521394AEC
:10264000E8E7DFF8F4900BF067FB04300BF089FB50
:10265000D9F8000010B10368DB689847D9F800008A
:1026600010B103681B689847DFF8D080D8F80000E5
:1026700010B103685B699847D7F83C0110B1036853
:102680005B689847D8F8000010B103681B6898474A
:10269000D7F83C0110B103689B6898470021F068A7
:1026A000FFF702FF4FF0000B224B0446C0F804B0C6
:1026B000594680F808B00360B06803685B6A9847C1
:1026C000054601F0F9FC7068594603685B6A984753
:1026D0000646294601F0D0FC331DC7F83C61284668
:1026E000C9F80040C8F80050CAF800302B68C6F896
:1026F00008A0DB68EE639847336830461B6898474C
:10270000214628460CF0D4FF236820461B699847D1
:10271000236820465B6901B0BDE8F04F184700BF51
:10272000200002080B0302087E010208C50102080E
:1027300068020208EC050208EC500120E850012074
:102740002DE9F14FD0E9556A0746B06803681B6A66
:102750009847B0F5D56F05D2434BA321434A44486F
:102760001BF0E8FF706803681B6A98470F2803D8BE
:10277000404BA4213D4AF2E7F06803681B6A984782
:102780000B2803D83C4BA521384AE8E7DFF8F09046
:102790000BF0C2FA04300BF0E4FAD9F8000010B1E3
:1027A0000368DB689847D9F8000010B103681B681C
:1027B0009847DFF8D080D8F8000010B103685B6953
:1027C0009847D7F83C0110B103685B689847D8F880
:1027D000000010B103681B689847D7F83C0110B19E
:1027E00003689B6898470021F068FFF75DFE4FF093
:1027F000000B224B0446C0F804B0594680F808B0DC
:102800000360B06803685B6A9847054601F026FDDF
:102810007068594603685B6A98470646294601F086
:10282000F3FC331DC7F83C612846C9F80040C8F8DE
:102830000050CAF800302B68C6F808A0DB68EE63C9
:102840009847336830461B689847214628460CF065
:102850002FFF236820461B699847236820465B6941
:1028600001B0BDE8F04F184720000208D903020864
:102870007E010208C501020868020208EC05020890
:10288000EC500120E85001202DE9F14FD0E9556AC4
:102890000746B06803681B6A9847B0F5DC7F05D22D
:1028A000434BA321434A44481BF044FF706803682C
:1028B0001B6A98470F2803D8404BA4213D4AF2E7F2
:1028C000F06803681B6A98470B2803D83C4BA52186
:1028D000384AE8E7DFF8F0900BF01EFA04300BF00E
:1028E00040FAD9F8000010B10368DB689847D9F8BE
:1028F000000010B103681B689847DFF8D080D8F853
:10290000000010B103685B699847D7F83C0110B12B
:1029100003685B689847D8F8000010B103681B682B
:102920009847D7F83C0110B103689B68984700218D
:10293000F068FFF7B9FD4FF0000B224B0446C0F8DA
:1029400004B0594680F808B00360B06803685B6A59
:102950009847054601F032FB7068594603685B6A88
:1029600098470646294601F0F9FA331DC7F83C613D
:102970002846C9F80040C8F80050CAF800302B6853
:10298000C6F808A0DB68EE639847336830461B68DA
:102990009847214628460CF08BFE236820461B6989
:1029A0009847236820465B6901B0BDE8F04F18479F
:1029B00020000208A90402087E010208C5010208DD
:1029C00068020208EC050208EC500120E8500120E2
:1029D000406A7047806A704770478B88C069DB0A1D
:1029E0000A6850F823001044704710B50446BAB185
:1029F000107B68B1537BD27A1B0203F4E0631A4365
:102A0000236A03EB82031A888A4202D193F90200F7
:102A100010BD05D80138043380B20028F3D1F7E7A0
:102A20000020F5E710B504462C211BF055FE20468A
:102A300010BD000030B58BB00446BDF8605008955D
:102A4000BDF85C5007959DF8505006959DF84C5088
:102A500005959DF8485004959DF8445003959DF8C0
:102A6000405002959DF83C500195BDF838500095B6
:102A70000CF078FA064B20462360159BE361169B09
:102A80002362199B63621A9BA3620BB030BD00BF27
:102A900010060208704770477047704770477047CC
:102AA0007047704730B444680346C2689B6855104D
:102AB00004EB6200D20748BF625930BC48BFD3580C
:102AC00018470346406830B19A681AB9D86800F0D0
:102AD000010070470120704710B5044610211BF01B
:102AE000FBFD204610BD10B504464FF4DA711BF013
:102AF000F3FD204610BD38B500F5947304460D462D
:102B0000994203D10BF008F9FFF7AEFC04F1E003A2
:102B10009D4203D10BF000F9FFF796FC04F5B87461
:102B2000A54205D10BF0F8F8BDE83840FFF7ACBC82
:102B300038BD00000022C0E90122C0E90322C0E93B
:102B40000522C0E907224FF480728284014A0260A4
:102B5000704700BF3C070208F8B5194B0646018FC5
:102B60001B888B422AD9174B1B682BB9164B6C213B
:102B7000164A17481BF0DEFD13F81120154B1B6891
:102B800053F82250144B186800F0D4FA2B6807460B
:102B900028469B6B98472B68044639469B6C284611
:102BA000984714FB00F42B683946A4B228465B6AA8
:102BB000984723181BB2A6F84630F8BD0023FAE761
:102BC00000510120FC50012070060208B2060208E4
:102BD000ED06020804510120085101202DE9F04FB3
:102BE00004468BB000250CF0B7FB26464FF02608B4
:102BF000934B29464246E56346F8403B30461CF07D
:102C000035F83046FFF796FF8E4B04F16C0AFF272C
:102C100023644FF6FF734246294684F86670504697
:102C2000A56604F19809ADF820301CF01FF8504655
:102C300004F1E00BFFF77EFF834A08A95046E266E5
:102C4000BDF8202084F894704FF0FF37A4F892204C
:102C500009F011FA2946424648461CF007F8484652
:102C6000FFF768FF794A7A4B5846C4F898204FF42A
:102C70007F02C4F8C0304FF6FF73C4F8C850A4F800
:102C8000C430C4F8CC20A4F8D050C4F8D450C4E95F
:102C9000367509F031FB04F594721046009209F084
:102CA0002BFB04F5B872294601924246019804F1C3
:102CB00004081BF0DBFF0198FFF73CFF4FF6FF73A2
:102CC0004FF001022946A4F8A031304684F8A23121
:102CD000604B84F89421604AC4F8985184F89C5160
:102CE000C4F870212A46A4F89E71C4E969345B4B8C
:102CF000C4E96B35FFF767FA30464FF4F071FFF720
:102D000029FA30464FF48871FFF726FA4FF07F43D7
:102D100031464046A36602AE07F0EEFA2A4629463F
:102D20005046FFF750FA08A95046ADF8205009F078
:102D3000A2F9514640464FF0070A07F0DDFA572244
:102D400048465421FFF73FFA49463046A4F8CC5094
:102D5000C4F8C87008F050FD04F1D40396E80700E9
:102D6000ADF82450962504F5D27683E80700384B59
:102D700008A94846089308F0E7FF4946404684F80A
:102D8000CE504FF0060907F0B7FA5846AF225A2145
:102D9000FFF719FA08AA07A95846ADF81CA0ADF824
:102DA000209009F02FF817235846A4F81831FFF7A0
:102DB000D3FE5946404684F81251C4F80861C4E96C
:102DC000477707F099FA0098AF224FF48771FFF721
:102DD000FAF908AA07A90098ADF81CA0ADF8209050
:102DE00009F010F84FF001030098A4F86031FFF7E4
:102DF000B3FE0099404684F85A51C4F85061C4E9C2
:102E0000597707F079FA0198052240F2A911FFF7E6
:102E1000DAF9082308AA07A90198ADF81C30ADF823
:102E2000203008F0EFFF4046019984F8A251C4F821
:102E3000986107F061FA20460BB0BDE8F08F00BF43
:102E4000BC070208FC0F0208D81002086C0F020829
:102E500018000208A407020864100208F72A0008F4
:102E60007047000030B5164D8FB02C68BFF35B8FF4
:102E700014F0010420D128461BF030FCE0B13F23C0
:102E8000012210490993104B10480893104B0A94E3
:102E90000594CDE906430423CDE903320C23CDE9A3
:102EA0000B440093CDE90144FFF7C4FD09481BF032
:102EB0005FFC28461BF01EFC04480FB030BD00BF6D
:102EC000481C0020984E09902C1602084C1C00202B
:102ED00078160208612E00087047000030B5174DC3
:102EE0008FB02C68BFF35B8F14F0010422D1284609
:102EF0001BF0F4FBF0B13F23212211490993114B40
:102F000011480893114B0A940793012301940493E9
:102F1000CDE905430423CDE902431223CDE90B4457
:102F200000931623FFF786FD09481BF021FC284675
:102F30001BF0E0FB04480FB030BD00BF781C002040
:102F4000A84E0990301602087C1C00207C1602084E
:102F5000D92E00087047000030B5174D8FB02C688F
:102F6000BFF35B8F14F0010422D128461BF0B6FB9F
:102F7000F0B13F230B2211490993114B11480893DB
:102F8000114B0A940793012301940493CDE905336F
:102F90000423CDE902432823CDE90B4400932E23DB
:102FA000FFF748FD09481BF0E3FB28461BF0A2FB96
:102FB00004480FB030BD00BFA81C00207850099015
:102FC00068160208AC1C002080160208552F000865
:102FD00000207047002070470EB403B503AB0021FA
:102FE00053F8042B01930BF0E5FD02B05DF804EB00
:102FF00003B070470CB407B504AB53F8042B01932E
:103000000BF0D8FD03B05DF804EB02B07047000090
:10301000436C10B5044673B3038F2BB9184BC5210D
:10302000184A19481BF086FBC38E00EB43035B8CE8
:103030000BB30DF06DF8238F012B03D8134BCB216D
:10304000134AEEE7E28E40F63F10531C9BB2092B69
:10305000194688BFA3F10A0104EB4101498C814262
:1030600009D10A2B04EB420228BF0023508C04EB49
:103070004303588451842046BDE810400CF04ABFF9
:10308000E8070208F10702089C080208E60802089F
:10309000F40802080CF007BF10B586B002AC84E853
:1030A00006001A460AAB214605930193099B00933B
:1030B000089B0AF0CFF906B010BD000038B518BB68
:1030C000124B13481C681349B4B1226822440260B1
:1030D000626822440A60A26814440F4B00221A80DE
:1030E00000F038F8054600F033F80C4B1C600C4B30
:1030F0001D600C4B188007E00B4B03600B4B0B6003
:103100000B4B1C68002CE8D138BD00BFE41C00202C
:10311000DC1C0020D81C0020E01C0020FC500120FA
:10312000045101200051012074510990145109905B
:1031300060520990044B1B6853F82100034B1B6835
:1031400003EB4000704700BFD81C0020DC1C0020AF
:103150001820704700487047E81C002010B5054C47
:10316000FFF780FE2060FFF7B9FE6060FFF7F4FE16
:10317000A06010BDE81C002070477047704730B455
:1031800044680346C2689B68551004EB6200D2078E
:1031900048BF625930BC48BFD358184703464068FF
:1031A00030B19A681AB9D86800F001007047012060
:1031B000704710B5044610211BF08EFA204610BD52
:1031C00010B50446DC211BF087FA204610BD98306C
:1031D000884208B505D10AF09FFDBDE80840FFF719
:1031E00023B908BD2DE9F347044600250CF0B4F8D7
:1031F0004FF0260A2646494B52462946E56304F11C
:103200006C0746F8403B30461BF030FD3046FFF778
:1032100091FC4FF0FF08424B4FF6FF79524629468A
:103220002364384684F86680A566ADF804901BF0E8
:103230001DFD3846FFF77EFC3A4B84F8948004F17C
:103240009808E36601A9BDF804303846A4F8923026
:1032500008F011FF5246294640461BF007FD404644
:10326000FFF768FC304B4FF0010A2A46C4F898304B
:1032700029462E4B3046A4F8C690A4F8C89084F88E
:10328000CA9004F10409C4F8C05084F8C45084F80A
:10329000BCA0C4E93334264BC4E93535FEF793FFAF
:1032A00030464FF4F071FEF755FF30464FF4887109
:1032B000FEF752FF4FF07F4331464846A36607F0C2
:1032C0001BF82A4629463846FEF77DFF01A93846F5
:1032D000ADF8045008F0CFFE3946484607F00CF828
:1032E0004046052240F2A911FEF76DFF01AA69468A
:1032F0004046ADF800A0ADF804A008F083FD962389
:103300004846414684F8CA3004F1CC03C4F8C030C2
:1033100006F0F2FF204602B0BDE8F087E809020897
:10332000FC0F0208D810020864100208D009020835
:10333000CF31000870477047704730B44468034687
:10334000C2689B68551004EB6200D20748BF6259FF
:1033500030BC48BFD35818470346406830B19A681C
:103360001AB9D86800F0010070470120704710B505
:10337000044610211BF0B0F9204610BD10B50446DC
:10338000DC211BF0A9F9204610BD9830884208B511
:1033900005D10AF0C1FCBDE80840FFF745B808BDFB
:1033A0002DE9F347044600250BF0D6FF4FF0260A1F
:1033B0002646494B52462946E56304F16C0746F818
:1033C000403B30461BF052FC3046FFF7B3FB4FF05A
:1033D000FF08424B4FF6FF79524629462364384690
:1033E00084F86680A566ADF804901BF03FFC384673
:1033F000FFF7A0FB3A4B84F8948004F19808E36649
:1034000001A9BDF804303846A4F8923008F033FE24
:103410005246294640461BF029FC4046FFF78AFBEE
:10342000304B4FF0010A2A46C4F8983029462E4BFB
:103430003046A4F8C690A4F8C89084F8CA9004F165
:103440000409C4F8C05084F8C45084F8BCA0C4E98E
:103450003334264BC4E93535FEF7B5FE30464FF41C
:10346000F071FEF777FE30464FF48871FEF774FE78
:103470004FF07F4331464846A36606F03DFF2A469B
:1034800029463846FEF79FFE01A93846ADF804509C
:1034900008F0F1FD3946484606F02EFF4046052269
:1034A00040F2A911FEF78FFE01AA69464046ADF829
:1034B00000A0ADF804A008F0A5FC962348464146BC
:1034C00084F8CA3004F1CC03C4F8C03006F014FF0D
:1034D000204602B0BDE8F087340A0208FC0F02085B
:1034E000D8100208641002081C0A02088B33000876
:1034F00030B585B00368044601816D460146D3F8B6
:1035000084303C342846984795E8070084E8070053
:1035100005B030BD30B585B00368044641816D46C5
:103520000146D3F884303C342846984795E8070094
:1035300084E8070005B030BD00220280428082800E
:10354000C280704780F836107047036870B5044633
:103550001B6B154698472368204629465B6EBDE8DD
:1035600070401847806C7047C06C70477047704758
:1035700030B444680346C2689B68551004EB62008F
:10358000D20748BF625930BC48BFD35818470346DA
:10359000406830B19A681AB9D86800F001007047E5
:1035A0000120704710B5044650211BF095F82046C5
:1035B00010BD10B5044610211BF08EF8204610BD3A
:1035C00010B50446983000F097FC04F58E7000F0BA
:1035D00093FC04F5D07000F08FFC04F5097000F046
:1035E0008BFC04F52A70BDE8104000F085BC08B5DE
:1035F000FEF7DAFD08BD0000036870B55E6B044697
:10360000114B8DB21B682BB9104B6C21104A11481D
:103610001BF090F81049828D0988914203D80F4B16
:103620006D210B4AF3E713F812200D4B1B6853F87A
:10363000220003681B6B9847291A3346204609B2BB
:10364000BDE87040184700BFFC500120700602081A
:10365000B2060208ED06020800510120600A0208C5
:103660000451012000F22460884208B505D10AF017
:1036700053FBBDE80840FEF7D7BE08BD00224FF05F
:10368000FF318260C0E90021704770B504461D46D5
:10369000BDF91060FEF797FD2368294620469B6B15
:1036A0009847236831462046DB6BBDE870401847D9
:1036B000034B10B504460360FEF76DFD204610BDB8
:1036C000D00B02080C4B10B50446036000F52A70BD
:1036D000FFF7EEFF04F50970FFF7EAFF04F5D0707D
:1036E000FFF7E6FF04F58E70FFF7E2FF04F19800A4
:1036F000FFF7DEFF204610BD9C0B020810B5044604
:10370000FFF7E0FF40F2A46120461AF0E5FF2046F3
:1037100010BD10B50446FFF7CBFF842120461AF0F8
:10372000DBFF204610BD000010B504462622002114
:103730001BF09CFA2046FFF7FDF90A4B4FF47F027D
:1037400020462360084BA3624FF6FF73A385002336
:10375000C4E90C324FF0FF322387E363C4E910233E
:1037600010BD00BF6C0F02081800020810B5044617
:10377000FFF7DAFF034B204623600023C4E912332E
:1037800010BD00BFF40A02082DE9F04F044699B0BD
:1037900000260BF0E1FD2746E04B26223146E6638A
:1037A00004F16C0547F8403B38461BF05FFA384699
:1037B000FFF7C0F94FF0FF08D94B4FF6FF7A2622EA
:1037C00031462364284684F8668004F58E79A6661F
:1037D00004F5097BADF858A01BF048FA2846FFF71E
:1037E000A9F9D04A16A92846E266BDF8582084F8FF
:1037F000948004F5D078A4F8922008F03CFC04F101
:10380000980318460E9300F06DFB484600F06AFBE3
:10381000404600F067FB584600F064FB04F52A734D
:1038200018460F9300F05EFB04F54B7318460393A4
:10383000FFF77AFF04F55D7318460493FFF774FFF2
:1038400004F56F7318460593FFF76EFF04F2044307
:1038500018460693FFF768FF04F24C431846079397
:10386000FFF762FF04F2944318460893FFF77EFFC8
:1038700004F2E44318460993FFF778FF04F2345347
:1038800018460B93FFF772FF04F2845318460C930B
:10389000FFF76CFF04F2D45318460D93FFF766FF51
:1038A00004F224632622314618460A931BF0DEF9FF
:1038B0000A98FFF73FF99C4B01223846C4F894362A
:1038C00031469A4B84F84826C4F89C364FF48873E6
:1038D000974AA4F852A6C4F824263246A4F854A65F
:1038E00084F856A604F1040AC4F84C6684F85066BD
:1038F000C4F89846C4F8A06600934FF4F073FFF73D
:10390000C4FE4FF07F4339465046A366962706F023
:10391000F3FC324628463146FEF755FC284616A9E8
:10392000ADF8586008F0A7FB2946504610AD06F0E8
:10393000E3FC0F2264210E98FEF745FC0E995046D9
:1039400006F0DAFC0F224846FA21FEF73CFC494615
:103950005046DFF8E09106F0CFFC91224046192155
:10396000FEF731FC414650464FF0280806F0C4FCF3
:1039700091225846AF21FEF726FC594650464FF09B
:10398000FF3B06F0B9FC912240F245110F98FEF77B
:103990001AFC0F99504606F0AFFC782313226A21D7
:1039A0000398CDF80080FFF770FE03992846C4F80D
:1039B0005CB3A4F8606307F01FFF04F55A7395E841
:1039C000070083E80700142316A90398ADF85C30BC
:1039D000CDF8589008F0B8F90399504684F862730E
:1039E00006F08AFC782313224FF480710498CDF8F6
:1039F0000080FFF74AFE04992846C4F8A4B3A4F84F
:103A0000A86307F0F9FE04F56C7395E8070083E8F6
:103A10000700132316A90498ADF85C30CDF8589030
:103A200008F092F90499504684F8AA7306F064FCF1
:103A3000782395221D210598CDF80080FFF725FEFB
:103A400005992846C4F8ECB3A4F8F06307F0D4FE57
:103A500004F57E7395E8070083E80700122316A992
:103A60000598ADF85C30CDF8589008F06DF90599DF
:103A7000504684F8F27306F03FFC78239522B52176
:103A80000698CDF80080FFF700FE06992846C4F896
:103A900034B4A4F8386407F0AFFE04F5886395E801
:103AA000070083E80700112316A90698ADF85C30DB
:103AB000CDF8589008F048F90699504684F83A74C1
:103AC00006F01AFC7823952240F24B110798CDF8A6
:103AD0000080FFF7DAFD07992846C4F87CB4A4F803
:103AE000806407F089FE04F59163DFF84C8095E867
:103AF000070083E80700102316A90798ADF85C308B
:103B0000CDF8589008F020F90799504684F882744F
:103B100006F0F2FB192355228C210FE09C0B0208C2
:103B2000FC0F0208D8100208840B02086536000852
:103B30006410020818000208FC5001200898009345
:103B40003223FFF7A2FDD4F8943408992846D3F81D
:103B50008430C4F8C4B4A4F8C864984704F59A63E0
:103B600095E8070083E8070004F5CB630393D8F8D2
:103B700000302BB9064B6021064A07481AF0DAFDDF
:103B8000064F3B88062B0DD8054B6121014AF4E70F
:103B9000700602089E0A0208ED0602080051012084
:103BA000600A0208CA4B06211868FFF7C3FAC94A1F
:103BB0000346032103980DF065F8039AD8F8003006
:103BC000C4F8DC2404F25E620392002BD2D03B885E
:103BD000072BD9D9BE4B07211868FFF7ABFABD4AAE
:103BE0000346032103980DF04DF8039A162316A9F6
:103BF000C4F8E0240898ADF85C30CDF8589008F08F
:103C0000A3F80899504606F077FB192232234FF4A7
:103C10009171099800925522FFF737FDD4F8E434EA
:103C200028460999D3F88430C4F814B5A4F8186567
:103C3000984704F5A46395E8070083E80700D8F8DF
:103C4000003004F26465002B94D03B88052B9BD98F
:103C50009F4B05211868FFF76DFA9E4A0346032122
:103C600028460DF00FF8D8F80030C4F82C5504F2AF
:103C70006A65002B3FF47EAF3B880E2B84D9944BB2
:103C80000E211868FFF756FA924A03460321284688
:103C90000CF0F8FF0F2316A90998C4F8305504F565
:103CA000CE65ADF85C30CDF8589008F04DF8099924
:103CB000504606F021FB1923D722412100933223DD
:103CC0000B98FFF7E2FCD8F80030C4F864B5A4F80C
:103CD0006865C4F87065C4F874B5C4F87865002BDD
:103CE0003FF448AF3B88042B7FF64EAFDFF8E0810E
:103CF0000421794FD8F80000FFF71CFA754A0346F3
:103D0000032128460CF0BEFF3B68C4F87C5504F242
:103D10007665002B3FF42EAF704E33880C2B7FF668
:103D200033AF0C21D8F80000FFF704FA694A0346C4
:103D3000032128464FF0FF390CF0A4FF684B16A969
:103D40000B9816930D23C4F880550025ADF85C3010
:103D500007F0FAFF0B99504606F0CEFA19223223EB
:103D60000C980092D72204F27C6B1146FFF78DFC71
:103D70003B68C4F8B495A4F8B855C4F8C055C4F865
:103D8000C495C4F8C855002B3FF4F4AE3388032B18
:103D90007FF6FAAE0321D8F80000FFF7CBF94D4AC1
:103DA0000346032158460CF06DFF3B68C4F8CCB5C0
:103DB00004F2826B002B3FF4DDAE33880A2B7FF6D2
:103DC000E3AE0A21D8F80000FFF7B4F9414A0346F0
:103DD000032158460CF056FF414B16A90C98169338
:103DE0000B23C4F8D0B5ADF85C3007F0ADFF0C99EB
:103DF000504606F081FA1923D7224FF4B771009389
:103E000032230D98FFF741FC3B68A4F80856C4F82C
:103E10001056C4F8185604F5D165C4F80496C4F8D1
:103E20001496002B3FF4A6AE3388022B7FF6ACAE7F
:103E30000221D8F80000FFF77DF9264A0346032146
:103E400028460CF01FFF3B68C4F81C5604F28E6530
:103E5000002B3FF48FAE3388082B7FF695AE0821F8
:103E6000D8F80000FFF766F91A4A034603212846EE
:103E70000CF008FF1A4B16A90D9816930923C4F8E5
:103E80002056ADF85C3007F05FFF0D99504606F004
:103E900033FA0A98052240F2A911FEF794F901239A
:103EA00016AA15A90A98ADF85430ADF8583007F0A5
:103EB000A9FF962350460A9984F8563604F2946373
:103EC000C4F84C3606F018FA204619B0BDE8F08F59
:103ED00008510120E90A0208FC500120005101208C
:103EE0001800020810B50446FEF796F9014B20466B
:103EF000236010BDD00B0208FEF74EB9704710B515
:103F000004464FF4AE711AF0E7FB204610BD10B521
:103F10000446D0F8580100F064F82046BDE810408F
:103F200009F07CBF10B50446FEF74EFA014B20465F
:103F3000236010BD640C0208704704387047704756
:103F400010B5044610211AF0C7FB204610BDA0F1A1
:103F50000400F5E7806800F045B800000022C16069
:103F60008260024A0260203242607047B80C020848
:103F70007047D0F8B4310133C0F8B431C06B036876
:103F80001B6918477047C06B03685B6918470000DE
:103F9000034B10B504460360FEF781FD204610BDBB
:103FA000E80C020810B50446FFF7F2FF4FF4DC718D
:103FB00020461AF091FB204610BD000010B50446C3
:103FC000FEF70CFE034B204623600023C4F8B431F7
:103FD00010BD00BFE80C0208FEF762BD00220260BF
:103FE00070477047FCF712BE70470438704770473F
:103FF00010B5044610211AF06FFB204610BDA0F149
:104000000400F5E70022C1608260024A02601832B3
:1040100042607047240D020870470000034B10B542
:1040200004460360FFF7A8F8204610BD4C0D0208B7
:1040300010B50446FFF7F2FFDC2120461AF04CFBD6
:10404000204610BD10B50446FFF7CCF8014B2046C2
:10405000236010BD4C0D0208FFF78FB8704704387D
:104060007047704710B5044610211AF035FB204602
:1040700010BDA0F10400F5E70022C1608260024A91
:104080000260183242607047800D020870470000DD
:10409000034B10B504460360FFF74CF9204610BDF2
:1040A000A80D020810B50446FFF7F2FFDC212046F8
:1040B0001AF012FB204610BD10B50446FFF770F948
:1040C000014B2046236010BDA80D0208FFF733B94D
:1040D000704704387047704710B5044610211AF035
:1040E000FBFA204610BDA0F10400F5E737B5404CBF
:1040F000054602223F4920461AF0C0FD98B9A37830
:104100000422E8688DF804300DEB0201E3788DF8A5
:10411000053023798DF8063063798DF8073000F08B
:10412000ADF803B030BD0222334920461AF0A6FD97
:1041300090B9A3780422E8688DF804300DEB0201F1
:10414000E3788DF8053023798DF8063063798DF8A2
:10415000073000F0B8F8E4E70222284920461AF0B8
:104160008DFD90B9A3780422E8688DF804300DEB3A
:104170000201E3788DF8053023798DF806306379F4
:104180008DF8073000F0C4F8CBE702221C49204626
:104190001AF074FD90B9A3780422E8688DF8043011
:1041A0000DEB0201E3788DF8053023798DF80630A8
:1041B00063798DF8073000F0D0F8B2E70222114998
:1041C00020461AF05BFD0028ABD1A3780422E868F2
:1041D0008DF804300DEB0201E3788DF8053023797A
:1041E0008DF8063063798DF8073000F0DBF898E73A
:1041F00040010020D40D0208D70D0208DA0D020894
:10420000DD0D0208E00D02080022C1608260024A52
:1042100002601C3242607047EC0D0208D0F8A436F0
:104220000133C0F8A436C06B03681B691847704798
:10423000034B10B504460360FFF744FA204610BD57
:10424000180E020810B50446FFF7F2FF4FF4D561CF
:1042500020461AF041FA204610BD000010B5044671
:10426000FFF792FA034B204623600023C4F8A436DC
:1042700010BD00BF180E0208FFF7A2B913B50B78E6
:104280000446032200F5CB60ADF800304B78ADF862
:1042900002308B78ADF80430CB786946ADF8063043
:1042A0000CF07FF9032201A904F25E600CF079F9A9
:1042B000002304F29440A4F85C36A4F862360AF0B5
:1042C000A4FD02B010BD13B50B780446032200F222
:1042D0006460ADF800304B78ADF802308B78ADF803
:1042E0000430CB786946ADF806300CF05AF9032259
:1042F00001A904F26A600CF054F9002304F2E440CE
:10430000A4F86836A4F86E360AF07FFD02B010BD3E
:1043100013B50B780446032200F5CE60ADF80030EB
:104320004B78ADF802308B78ADF80430CB78694625
:10433000ADF806300CF035F9032201A904F27660DD
:104340000CF02FF9002304F23450A4F87436A4F8CA
:104350007A360AF05AFD02B010BD13B50B78044648
:10436000032200F27C60ADF800304B78ADF80230EB
:104370008B78ADF80430CB786946ADF806300CF098
:1043800010F9032201A904F282600CF00AF900235B
:1043900004F28450A4F88036A4F886360AF035FD7D
:1043A00002B010BD13B50B780446032200F5D160AE
:1043B000ADF800304B78ADF802308B78ADF80430B2
:1043C000CB786946ADF806300CF0EBF8032201A972
:1043D00004F28E600CF0E5F8002304F2D450A4F847
:1043E0008C36A4F892360AF010FD02B010BD000021
:1043F00070B505460024012608462960A5F8044149
:1044000085F80661C5E942230B4A4FF416530C6147
:10441000CC61C1E900230C23C1E90244C1E90534A0
:1044200003F018FB32462146522000F023FB5220B5
:10443000BDE8704000F050BB0078004008B5002394
:1044400080F806314FF0FF33006803F090FA00B1B6
:10445000FEE708BDB0F804310122FF2B88BF00231E
:1044600010B588BFA0F804310446B0F8041101313A
:1044700089B2A0F8041104310144006803F072FB12
:10448000B4F804116318DA780A2A0AD19B780D2B44
:1044900007D1D4F808310BB1201D98470023A4F8A8
:1044A000043110BD014B186802F0AABEF41C0020B4
:1044B00000B54FF4807295B04FF0807103460C92B6
:1044C00005220F9101210692002201910B92139275
:1044D00000920B48CDE90312CDE90D22CDE911225E
:1044E000102206A902924FF4800205926A4601F05A
:1044F00083FD003818BF012015B05DF804FB00BF34
:10450000041E002000B54FF4807395B041F288324C
:1045100017480C93062306A906930023CDE90D3313
:104520000F930B931393CDE9113301F020FDE0B904
:10453000022301224FF4800104900D48CDE900339D
:104540001023CDE9023205236A46CDE905134FF069
:10455000807306A90F9341F2883301F04DFD0038B6
:1045600018BF012015B05DF804FB0120FAE700BF79
:10457000041E002000B54FF4807391B04FF04072DC
:104580000E480893EB2302A902934FF4406309936A
:104590004FF4005305930023CDE90A320A220F930A
:1045A00007926A46CDE90D33CDE9003301F075FD80
:1045B000003818BF012011B05DF804FB041E002074
:1045C000454B01219A6B42F00202F0B59A638DB01F
:1045D0009A6B0924414D042702F002020026284666
:1045E0000092009A9A6942F002029A619A6922F056
:1045F00002029A611A6B42F002021A631A6B02F00D
:1046000002020192019A1A6B42F002021A631A6BBB
:1046100002F002020292029A1A6B42F008021A6336
:104620001A6B02F008020392039A1A6B42F0080216
:104630001A631A6B02F008020492049A1A6B42F091
:1046400010021A631A6B02F010020592059A1A6B97
:1046500042F008021A6340221B6B03F00803069322
:10466000069B0223CDE907230323CDE909130A237F
:1046700007A90B9300F048FC07A92846079709965D
:104680000B9400F041FC4FF4006307A90B941D4408
:104690000793284600F038FC4FF4805307A92846BA
:1046A00007930B9400F030FC07A90D4807970B9473
:1046B00000F02AFC4FF4005307A928460B940793F7
:1046C00000F022FC32460F215C2000F0D3F95C2080
:1046D00000F002FA0DB0F0BD0038024000040240C4
:1046E00000100240F0B5494C91B0494B2046236080
:1046F00001F02AFC054610B1012011B0F0BD0146C1
:104700002046FFF75DFF012604234FF08077C4E9C0
:1047100001631023E36097FAA7F3B3FA83F320460B
:10472000013B23614FF4A063C4E90755C4E9053593
:1047300001F0B8FB0028DFD14FF4807566230B90A1
:1047400041F28832079002A90F9008950293CDE9B3
:104750000900CDE90D00204601F009FC08B1042054
:10476000CBE7992341F2883202A92046029301F057
:10477000FEFB0028F3D141F28830FFF799FE0028B4
:10478000EDD18523079041F2883202A90895029362
:104790000B97CDE90900CDE90C60CDE90E0020466C
:1047A00001F0E5FB0028DAD141F288320DF1070172
:1047B000204601F05CFD0028D1D1FFF7A3FE0028C0
:1047C000CDD18123F022029392FAA2F20A219DF820
:1047D0000730B2FA82F2204603F00F0301FA02F228
:1047E00002A9134341F288328DF8073001F0BFFB74
:1047F0000028B4D141F288320DF10701204601F0C2
:10480000D7FC00283FF479AFA9E700BF041E0020C1
:10481000001000A00F490020D1F8883043F4700345
:10482000C1F888300C4B1A6842F001021A60986097
:104830001A6822F0847222F480321A60074A5A60A1
:104840001A6822F480221A60D8604FF000638B60EF
:10485000704700BF00ED00E0003802401030002437
:104860007047002070470000002337B58DF80730EF
:104870000C4B1A780AB901221A700324C5B2013C04
:10488000A8212846FCF70EFE14F0FF048DF807005F
:104890009DF80730DBB201D0512BF0D19DF8070015
:1048A00003B030BD521E002013B500240221C0B257
:1048B0008DF80740FCF7F6FD8DF807009DF80730EE
:1048C00003F00F038DF807309DF80730052B01D951
:1048D0008DF807409DF80720034B9DF807005A709C
:1048E00000229A7002B010BD521E00202DE9F74F31
:1048F0002F4C15464FF000080F46A37862788DF8CC
:1049000007809A424DD9092B4ED803EB43035B0035
:10491000DBB2191D03F1030B03F1060A0533C9B21B
:104920005FFA8BFB5FFA8AFA5FFA83F8C6B2DFF8A8
:1049300084903046FCF7B6FD8DF807009DF80730EF
:1049400059463046A9F80030FCF7ACFD8DF8070059
:1049500051469DF807303046B9F800201B0203F499
:10496000706313433B80A9F80030FCF79BFD8DF882
:10497000070041469DF807303046A9F80030FCF7A3
:1049800091FD8DF807009DF80730B9F800201B0253
:1049900003F470631343A9F800302B80A37801332C
:1049A000A37003B0BDE8F08FC246C3464146BDE7E1
:1049B000521E0020501E00200122A421C0B2FCF78C
:1049C00057BD0022A421C0B2FCF752BDFFF7F9BFCA
:1049D00070470000024B1A780AB901221A7070471A
:1049E000521E0020074A032008B5136843F4807361
:1049F000136000F02DF80020FCF7D4FBFCF732F92F
:104A0000002008BD003C0240034A044B11681B789B
:104A10000B441360704700BF581E00203800002070
:104A2000014B1868704700BF581E002038B5044677
:104A3000FFF7F6FF0546631C1EBF044B1B78E41806
:104A4000FFF7EEFF431BA342FAD338BD3800002026
:104A500007490302CA6803F4E06322F4E062120427
:104A6000120C134343F0BF6343F40033CB60704731
:104A700000ED00E0164B30B5DC68C4F30224C4F14D
:104A80000703251D042B28BF0423062D4FF0FF35F7
:104A90008CBF033C002405FA03F3002805FA04F553
:104AA00021EA030322EA050203FA04F343EA0203BC
:104AB0004FEA0313DBB206DB00F1604000F5614012
:104AC00080F8003330BD00F00F00024A1354F9E7BC
:104AD00000ED00E014ED00E0002807DB41090123B0
:104AE00000F01F00024A834042F82130704700BFA7
:104AF00000E100E000280CDB4309012200F01F0068
:104B000004492033824041F82320BFF34F8FBFF385
:104B10006F8F704700E100E0BFF35F8F044B5A6A6C
:104B200022F480325A620022C3F89420704700BFFA
:104B300000ED00E0064B40F00100C3F894005A6A13
:104B400042F480325A62BFF34F8FBFF36F8F7047CA
:104B500000ED00E04378144A10B5C2F898300178AF
:104B6000E9B14368C2F89C30C37A047B1B0643EA70
:104B700004730B43817A43EAC143417B43EA814397
:104B8000817B43EA4143C17B43EA0143417A43EAE3
:104B90000123017A43EA4103C2F8A03010BDC2F8F4
:104BA0009C10C2F8A010F9E700ED00E010B5044633
:104BB00008B9012010BD437F03F0FF0213B902774B
:104BC000FCF76EF8022363772379E3B92368134A6D
:104BD0005A619A6822F018029A6062792368D2B901
:104BE0004FF0FF321A6100209A68616922F060027A
:104BF0000A43A1699A609A6822F080020A439A6087
:104C000001236377D6E7D4E90212204600F008F8C2
:104C10000028E2D0CDE72269E4E700BFB71DC10458
:104C20001F2310B5013B1DD321FA03F4E407F9D586
:104C3000102A13D0102A04D83AB1082A10D0012023
:104C40000BE0182AFBD1062BF9D800684161836874
:104C500023F0180313438360002010BD072BF3E7F4
:104C60000F2BF1E7102AE5D1E9E770B50446866D10
:104C7000FFF7D6FE054694F83530022B06D0802388
:104C800001206365002384F8343070BD23681A68FE
:104C900022F016021A605A6922F080025A61226CD0
:104CA0000AB9A26C1AB11A6822F008021A601A68CE
:104CB00022F001021A602368186810F0010007D181
:104CC000E26D3F239340B360012384F83530D9E788
:104CD000FFF7A6FE401B0528EDD9202303206365BE
:104CE00084F83500CEE790F83530022B03D08023CE
:104CF0004365012070470268052380F835300020A5
:104D0000136823F001031360704710B5044630B3F5
:104D100090F8393003F0FF021BB980F83820FBF718
:104D2000D5FF226802236168002084F839301368B7
:104D300023F440330B43A1681360536B23F0070344
:104D40000B43E1685363136C23F47F5323F03F0359
:104D50000B4313640123E06384F8393010BD012054
:104D6000FCE770477047036870B55E6804461D68CD
:104D7000F20714D5E90512D51A6822F480721A6078
:104D8000C26B42F00102C26301229A60042380F8E0
:104D90003930002380F83830436903B19847B206B0
:104DA00016D5AB0414D523681A6822F400521A6091
:104DB00020229A60E36B43F00203E363042384F848
:104DC0003930002384F8383063690BB120469847A6
:104DD000300716D5290514D523681A6822F4006215
:104DE0001A6008229A60E36B43F00403E363042330
:104DF00084F83930002384F8383063690BB12046D9
:104E0000984772070BD56B0509D5236820461A68A9
:104E100022F480621A6004229A60FFF7A2FFB007B2
:104E200014D5A90512D523681A6822F400721A60F5
:104E300002229A60E36BE363012384F83930002394
:104E400084F8383023690BB120469847F20613D511
:104E5000EB0411D5236820461A6822F480521A60A8
:104E600010229A60E36BE363012384F83930002356
:104E700084F83830FFF776FF70BD0000F0B590F889
:104E8000382003460220012A2BD0012283F8390062
:104E90000E011C4F83F8382003EB0112D2E90740C2
:104EA000556A44EA0040093C012C96BF05F07F4258
:104EB00040EA056010431A68A1B9516A012C01EA61
:104EC000070141EA000151629969916103D8596A69
:104ED00021F07F4191620122002083F8392083F87C
:104EE0003800F0BDD169012C01EA070141EA000157
:104EF000D16103EB060189691161ECD825F07F458A
:104F00001562E8E7F0FFFC002DE9F74F0023DFF81A
:104F1000BC916C4A01240D689C4004EA0506AC4330
:104F200040F0B7804D6803274FEA430E05F00304B5
:104F300007FA0EFC671E6FEA0C0C012F34D8876845
:104F400007EA0C08CF6807FA0EF747EA08078760F8
:104F5000476827EA0608C5F300179F4047EA080795
:104F60004760C768022C07EA0C088F6807FA0EF73B
:104F700047EA0807C76019D14FEAD30803F0070AC8
:104F80004FF00F0B00EB88084FEA8A0AD8F8207020
:104F90000BFA0AFB27EA0B0B0F6907FA0AF747EA35
:104FA0000B07C8F8207001E0032CDAD1076804FA77
:104FB0000EF415F4403F07EA0C0744EA07040460C6
:104FC00067D0D9F8444023F0030703F0030C4FF0F7
:104FD0000F0E44F4804407F180474FEA8C0CC9F867
:104FE000444007F59C37D9F844400EFA0CFE04F40F
:104FF00080440194019CBC6824EA0E0E324CA0420D
:105000004ED004F58064A0424CD004F58064A042E8
:105010004AD004F58064A04248D004F58064A042E0
:1050200046D004F58064A04244D004F58064A042D8
:1050300042D004F58064A04240D004F58064A042D0
:105040003ED004F58064A04214BF0A24092404FA67
:105050000CF415F4801F44EA0E04BC606FEA0607E6
:1050600094680CBF3C40344315F4001F9460D4682E
:105070000CBF3C40344315F4003FD46054680CBF6F
:105080003C403443ED035460146854BF3C40344307
:1050900014600133102B7FF43DAF03B0BDE8F08FF7
:1050A0000024D4E70124D2E70224D0E70324CEE78A
:1050B0000424CCE70524CAE70624C8E70724C6E78A
:1050C0000824C4E7003C01400000024000380240D0
:1050D0002DE9F04F00224FF0010A4FF00F084FF07A
:1050E000030B464C0AFA02FC3CEA01030CEA0106F7
:1050F0006CD122F0030502F0030705F18045BF00E3
:1051000005F59C3508FA07F9AB6809EA030E3C4B34
:10511000984260D003F5806398425ED003F58063C7
:1051200098425CD003F5806398425AD003F58063BF
:10513000984258D003F58063984256D003F58063B7
:10514000984254D003F58063984252D003F58063AF
:10515000984250D003F5806398420CBF09230A237C
:10516000BB40734513D1236823EA060323606368B9
:1051700023EA06036360E36823EA0603E360A368A7
:1051800023EA0603A360AB6823EA0903AB6053007C
:105190000568D6080BFA03F300EB860625EA03053B
:1051A000056002F00705376AAD0008FA05F527EA41
:1051B00005073762C56825EA0305C560456825EA25
:1051C0000C054560856825EA030383600132102AD7
:1051D00088D1BDE8F08F0023C2E70123C0E7022396
:1051E000BEE70323BCE70423BAE70523B8E7062399
:1051F000B6E70723B4E70823B2E700BF003C01404D
:10520000000002400369194214BF012000207047CA
:105210000AB1816170470904FBE7436901EA0302AF
:1052200021EA030141EA02418161704703689A69FA
:10523000910701D500229A629A69D20703D49A692C
:1052400042F001029A61704730B5039DC1F3090134
:1052500004682B43606843EA0243054A0B4342EA71
:10526000555223F0004320EA02000343636030BD3F
:10527000FF63FF0303682DE9F0419C6905460F4673
:10528000164614F010046FD000241022A046DA61F4
:105290002B689A69900661D4B8F1000F35D044F0BC
:1052A000040401202E68B369D90505D54FF4807236
:1052B00044F001040120F2615A0505D54FF48062E3
:1052C00044F008040120F2619B054FD54FF40073B0
:1052D00044F00204F3612846FFF7A8FF7368012039
:1052E00023F0FF7323F48B3323F4FF7323F00103C4
:1052F00073606B6C23436B64202385F8413000237B
:1053000085F8423085F8403032E07A1CC1D0FFF792
:1053100087FB801BB84201D8002FB9D12B68596890
:1053200095F842209869D2B200040AD5490408D4FD
:10533000202A06D05A6842F480425A60FFF770FB78
:1053400006462B689B699B06A2D4FFF769FB801B6E
:105350001928F6D920244FF0010899E7B8F1000F79
:105360009DD12022DA619AE720469BE70028B2D13E
:10537000BDE8F08170B504460D46164623689B696A
:105380009B0701D500201BE0324629462046FFF747
:1053900071FFA0B96A1CF1D0FFF742FB801BA84245
:1053A00001D8002DEAD1636C43F02003636420230D
:1053B00084F84130002384F8423084F840300120E2
:1053C00070BD70B504460D46164623689B699B0662
:1053D00001D5002019E0324629462046FFF74AFF52
:1053E00090B9FFF71DFB801BA84201D8002DECD11E
:1053F000636C43F020036364202384F8413000236E
:1054000084F8423084F84030012070BD2DE9F0412D
:10541000069F0446884616461D462268936938EA68
:1054200003030CBF01230023B34201D0002015E089
:105430006B1CF3D0FFF7F4FAC01BA84201D8002D73
:10544000EBD1636C012043F020036364202384F8D4
:105450004130002384F8423084F84030BDE8F081C8
:1054600010B5044600284AD090F8413003F0FF02FE
:105470001BB980F84020FBF749FC242384F8413015
:1054800023681A6822F001021A60626822F07062D2
:105490001A619A6822F400429A60D4E90221012933
:1054A00024D142F400429A605A68002042F000720F
:1054B00042F400425A60DA6822F40042DA60D4E929
:1054C00004210A43A16942EA0122DA60D4E90721F2
:1054D0000A431A601A6842F001021A6020236064CD
:1054E00084F84130206384F8420010BD42F4044245
:1054F00002299A60D8D14FF400625A60D4E70120A3
:10550000F3E710B5044698B10268242380F84130CF
:10551000136823F001031360FBF73CFC0020606478
:1055200084F8400084F84100206384F8420010BDF4
:105530000120FCE72DE9F74F994690F841300446E9
:105540000F46202B1646BDF834A0DDF8388040F019
:10555000C6800C9B13B1BAF1000F06D14FF4007353
:105560006364012003B0BDE8F08F90F84030012B58
:1055700000F0B5804FF0010B80F840B0FFF750FA13
:105580001923054600905A464FF400412046FFF784
:105590003DFF0028E5D1212360635FFA89F2394697
:1055A00084F84130402384F842300C9B60642046EC
:1055B00063624C4BA4F82AA000934FF08073FFF76E
:1055C00043FE2A4641462046FFF7D4FE18BBB9F1F8
:1055D000010F236815D1F6B20022802120469E6279
:1055E00043460095FFF712FFA8B9638D9BB2FF2BCE
:1055F00015D8628D4FF0007392B22285D2B200901E
:1056000012E0320A414620469A622A46FFF7B2FE6D
:1056100008B92368DFE7002384F84030A1E7FF22C0
:105620004FF080732285009039462046FFF70CFE2C
:105630002A4641462046FFF79DFE002891D1636A25
:10564000226813F8011B91626362638D228D013B16
:10565000013A9BB292B26385638D22859BB2B3B14E
:10566000AAB94346802120460095FFF7CFFE0028C7
:105670007FF477AF638D9BB2FF2B28D9FF224FF0C9
:1056800080732285009039462046FFF7DDFD638D4B
:105690009BB2002BCCD12A4641462046FFF791FE13
:1056A00000287FF45EAF23682021D9615A6822F078
:1056B000FF7222F48B3222F4FF7222F001025A6050
:1056C00084F8411084F8400084F842004AE7628D73
:1056D0004FF0007392B22285D2B20090D3E702203D
:1056E00040E700BF002000802DE9F74F994690F871
:1056F000413004460F46202B1646BDF834A0DDF895
:10570000388040F0C9800C9B13B1BAF1000F06D16C
:105710004FF400736364012003B0BDE8F08F90F88C
:105720004030012B00F0B8804FF0010B80F840B002
:10573000FFF776F91923009005465A464FF40041C9
:105740002046FFF763FE03460028E4D1222260636F
:10575000394684F84120402284F842200C9A606443
:10576000204662624D4AA4F82AA000925FFA89F2AC
:10577000FFF76AFD2A4641462046FFF7FBFD20BBA6
:10578000B9F1010F236816D1F6B20022402120465C
:105790009E6243460095FFF739FEB0B9638D9BB218
:1057A000FF2B3F4B15D8628D92B22285D2B2009367
:1057B0004FF0007312E0320A414620469A622A46B0
:1057C000FFF7D8FD08B92368DEE7002384F84030EE
:1057D000A1E7FF22228500934FF0807339462046CF
:1057E000FFF732FD43460022042120460095FFF7D3
:1057F0000DFE00288FD123685A6A636A1A70636AA3
:10580000228D0133013A6362638D92B2013B22859E
:105810009BB26385638D9BB2B3B1AAB94346802125
:1058200020460095FFF7F2FD00287FF474AF638DEA
:105830009BB2FF2B28D9FF224FF080732285009066
:1058400039462046FFF700FD638D9BB2002BC9D17E
:105850002A4641462046FFF7B4FD00287FF45BAF9F
:1058600023682021D9615A6822F0FF7222F48B321A
:1058700022F4FF7222F001025A6084F8411084F889
:10588000400084F8420047E7628D4FF0007392B207
:105890002285D2B20090D3E702203DE700200080AD
:1058A0000024008010B590F841200346202AD4B28D
:1058B0001CD190F84020012A18D0242280F84120E1
:1058C0000268106820F001001060106820F4805019
:1058D00010601068014300201160116841F001015F
:1058E000116083F8414083F8400010BD0220FCE7BE
:1058F00010B590F841200346202AD4B21BD190F86D
:105900004020012A17D0242280F841200268106824
:1059100020F001001060106820F4706040EA01215E
:1059200000201160116841F00101116083F84140CD
:1059300083F8400010BD0220FCE7D2010068D1F8D6
:1059400000C0843283182DE9F043C6680CF10107CA
:105950005D684FF0000E4C68C6F30B4605F47045C9
:10596000D1F8189026445D60C568C5F30B453D44E9
:1059700045EA06455D60C668CD68C6F30A062E4452
:105980009D6805F470459D608D68C7680135C7F353
:105990000A073D4445EA06450E699D601D6925F0EC
:1059A00007051D611E619D6991F8327091F8318083
:1059B000C3F818E091F8305045EA096545EA082532
:1059C00045EA07459D615D6925F0FF055D614D690B
:1059D0005D61DD6925F4E06525F00705DD61D1E94C
:1059E00007573D43DD619D6A4D6AC3F828E09D621B
:1059F0001EB3012E23D0B51E022D22D9072E14BFAF
:105A000001250225DE6AA4EB0C0406F0E0266C43B7
:105A1000DE6203348E6AC96A6E4344EA0644DC627D
:105A20001C6B24F4FF6424F007041C63196383587F
:105A300043F001038350BDE8F0830425E2E703252A
:105A4000E0E70225DEE7000038B50446002863D011
:105A500090F8A13003F0FF021BB980F8A020FBF7FB
:105A6000B5F9022384F8A13023689A6922F07042C4
:105A70009A619969D4E901200243E06802432069F0
:105A8000024360690A4325499A619A680A409A600C
:105A90009A6842EA0042A0690243E0699A60DA68C3
:105AA0000A40DA60DA6842EA0042206A0243606A29
:105AB000DA601A690A401A611A6942EA0042A06A69
:105AC00002431A615A690A40E16A5A615A6942EA14
:105AD0000142216B0A435A61DA6A94F8350002F0F8
