:020000040800F2
:1000000000000520191300083512000837120008F7
:10001000391200083B1200083D12000800000000E1
:10002000000000000000000000000000F17C00085B
:100030003F12000800000000917D0008F57D0008D7
:1000400069130008691300086913000869130008A0
:100050006913000869130008691300086913000890
:100060006913000869130008691300086913000880
:100070006913000869130008691300086913000870
:100080006913000869130008691300086913000860
:100090006913000869130008691300086913000850
:1000A0006913000869130008691300086913000840
:1000B0006913000869130008691300086913000830
:1000C0006913000869130008691300086913000820
:1000D0006913000869130008691300086913000810
:1000E0006913000869130008691300086913000800
:1000F00069130008691300086913000869130008F0
:1001000069130008691300086913000869130008DF
:1001100069130008691300084112000869130008F8
:1001200069130008691300086913000869130008BF
:1001300069130008691300086913000869130008AF
:10014000691300086913000869130008691300089F
:10015000691300086913000869130008691300088F
:10016000691300086913000869130008691300087F
:1001700069130008691300086913000800000000F3
:100180006913000869130008E13B000869130008BF
:10019000691300086913000869130008691300084F
:1001A0004D1200086913000859120008691300086D
:1001B000691300086913000869130008691300082F
:0801C00069130008691300082F
:1001D00010B5054C237833B9044B13B10448AFF381
:1001E00000800123237010BD2401002000000000C6
:1001F000602A020808B5034B1BB103490348AFF35B
:10020000008008BD0000000028010020602A0208CC
:1002100001F0FF01102A2BDB10F0070F08D010F8B7
:10022000013B013A8B422DD010F0070F42B3F6D1BB
:10023000F0B441EA012141EA014122F007047FF0D4
:1002400000070023F0E80256083C85EA010586EA2B
:10025000010685FA47F5A3FA87F586FA47F6A5FA67
:1002600087F68EB9EED1F0BC01F0FF0102F0070273
:1002700032B110F8013B013A83EA010313B1F8D11E
:100280000020704701387047002D06BF35460338FF
:10029000073815F0010F07D1013015F4807F02BF38
:1002A000013015F4C03F0130F0BC0138704700BF89
:1002B00053B94AB9002908BF00281CBF4FF0FF31CD
:1002C0004FF0FF3000F06AB9ADF1080C6DE904CED3
:1002D00000F006F8DDF804E0DDE9022304B0704721
:1002E0002DE9F047089D0C46002B4ED194468C45D5
:1002F0008646B2FA82F262D94AB1C2F12003914035
:1003000020FA03F30CFA02FC194300FA02FE4FEA4A
:100310001C471FFA8CF6B1FBF7F44FEA1E4307FBAC
:10032000141143EA014304FB06F199420AD91CEB7C
:10033000030304F1FF3080F01281994240F20F81F3
:10034000023C6344591A1FFA8EF3B1FBF7F007FB26
:10035000101143EA014300FB06F69E420AD91CEB4A
:10036000030300F1FF3180F0FC809E4240F2F980EF
:10037000634402389B1B40EA044000211DB1D34076
:100380000022C5E90032BDE8F0878B4205D90DB1E6
:10039000C5E9000100210846F5E7B3FA83F1002919
:1003A00046D1A34202D39042C0F0F080861A64EB9B
:1003B00003030120002DE6D0C5E90063E3E7002A2E
:1003C00040F09080A1EB0C044FEA1C481FFA8CF718
:1003D0000121B4FBF8F64FEA1E4308FB164443EA3A
:1003E000044307FB06F0984208D91CEB030306F10F
:1003F000FF3402D2984200F2CD8026461C1A1FFA22
:100400008EF3B4FBF8F008FB104443EA044300FB0E
:1004100007F79F4208D91CEB030300F1FF3402D217
:100420009F4200F2B0802046DB1B40EA0640A5E771
:10043000C1F120068B4022FA06F71F4320FA06FC82
:1004400004FA01F343EA0C03F44000FA01F8380C13
:100450004FEA1349B4FBF0FE1FFA87FC00FB1E4471
:1004600049EA04440EFB0CF9A14502FA01F20AD94B
:100470003C190EF1FF3A80F08480A14540F2818062
:10048000AEF1020E3C44A4EB09041FFA83F9B4FB5D
:10049000F0F300FB134449EA044403FB0CFCA445BD
:1004A00007D93C1903F1FF3067D2A44565D9023B57
:1004B0003C4443EA0E40A0FB0293A4EB0C049C4294
:1004C000CE469C4651D34ED055B1B8EB0E0364EBEB
:1004D0000C0404FA06F6CB401E43CC40C5E9006488
:1004E000002150E7C2F1200320FA03F10CFA02FCCC
:1004F00024FA03F394400C434FEA1C4800FA02FE2E
:100500001FFA8CF7B3FBF8F008FB1031230C43EA19
:10051000014300FB07F1994208D91CEB030300F1EA
:10052000FF362CD299422AD9023863445B1AA4B20E
:10053000B3FBF8F108FB113344EA034401FB07F372
:10054000A34208D91CEB040401F1FF3613D2A342E5
:1005500011D902396444E41A41EA004139E70446FA
:10056000F0E6084606E7C845AED2B9EB020E63EBEB
:10057000070C0138A8E73146EDE7034699E7304616
:10058000D4E7D6467FE7634402384DE70646234664
:1005900008460FE7023E634430E700BF704700BFE4
:1005A0000149002008F0A2BD1518000810B5074C3D
:1005B00008220748214621F0C3FC20464FF48072F0
:1005C0000021BDE8104021F0A1BC00BFC0370020D1
:1005D0004001002008B5642006F098FFFBE700000A
:1005E0000A4C0B4D0B4A0A49084808B50A4B03F060
:1005F0009DFAB4F80411012228460431214406F082
:100600004FFE192006F082FFF3E700BFBC37002041
:100610009C010020AD0500081D0600087047000081
:1006200010B594B01022002102240AA821F06EFC1B
:100630001422002103A821F069FC1D4B192108A8F0
:100640001A6C42F080521A641B6C03F080530193C1
:10065000019B184B1A6842F440421A6001221B6841
:1006600003F440430293029B4FF48033CDE9082307
:100670004FF48003CDE90E434FF4D873CDE9124413
:10068000CDE9101305F0F4F904F090FE0F230020DB
:100690000721CDE903344FF4A053CDE905034FF40E
:1006A000805303A8079305F0CBFB14B010BD00BF27
:1006B00000380240007000402DE980489BB01022B5
:1006C000002101250DA84FF0104A21F01FFC002445
:1006D00003F0C0FDC74B0DA8ADF834501094CDE920
:1006E0000EA303F0D5FD17230DA88DF835508DF816
:1006F0003C308DF8425003F0CBFD042003F0B8FDF0
:10070000BFF34F8FBFF36F8FBB4AC2F85042BFF3A6
:100710004F8FBFF36F8F536943F400335361BFF3BF
:100720004F8FBFF36F8FC2F88440BFF34F8FD2F863
:10073000803043F6E074C3F3C900C3F34E335B016A
:1007400003EA0406014646EA81750139C2F860529F
:10075000F9D2203B13F1200FF2D1BFF34F8F536931
:1007600043F480335361BFF34F8FBFF36F8F03F0B8
:10077000D7FC0024FFF754FF142200210DA821F01C
:10078000C5FB9E4B10219E481A6B01274FF01008A5
:100790004FF0030B42F010024FF4805A994D4FF086
:1007A00004091A631A6B984E02F010020292029A20
:1007B0001A6B42F002021A631A6B02F002020392F1
:1007C000039A1A6B42F001021A631A6B02F00102DB
:1007D0000492049A1A6B42F040021A631A6B02F0F8
:1007E00040020592059A1A6B42F400721A631A6B62
:1007F00002F400720692069A1A6B42F008021A631B
:100800001A6B02F008020792079A1A6B42F4806290
:100810001A631A6B02F480620892089A1A6B42F00B
:1008200020021A631A6B02F020020992099A1A6BCD
:1008300042F480721A631A6B02F480720A920A9A66
:100840001A6B42F080021A631A6B02F080020B925C
:100850000B9A1A6B42F004021A6300221B6B03F01E
:1008600004030C930C9B04F071F8012208216748E3
:1008700004F06CF801224FF48051654804F066F8EA
:100880000022C021634804F061F800224021624840
:1008900004F05CF80DA95A48CDE90D87CDE90F4B5E
:1008A00003F0D0FE08230DA95848CDE90D37CDE956
:1008B0000F4403F0C7FE0DA95548CDE90DA7CDE9BA
:1008C0000F4403F0BFFEC0220DA95248CDE90D2709
:1008D000CDE90F4B03F0B6FE40220DA94E48CDE9FD
:1008E0000D27CDE90F4B03F0ADFE4C484C498480F9
:1008F00001600762C0E9054403F0F6FC4949284657
:10090000C5E90014C5E90244C5E90A44C5E90C4437
:1009100003F099FD39462846434D03F04DFE402330
:100920004FF4C07241493046B460F461B462C6E924
:1009300005324FF40062C6E9082A4FF0020A072286
:10094000C6E900140DA9CDF84CA0C6E90398CDE97D
:100950000F92CDE90DA2CDE911BA05F0D7FD2946D8
:100960004FF6FF7230460194C5E90078C5E902747C
:1009700005F0ECFD384603F0F7FB29464FF6FF7211
:100980003046C5E900A8C5E9027405F0DFFD08237B
:1009900029464FF6FF723046C5E900B8C5E9023472
:1009A00005F0D4FD4FF40C734FF6FF722946019306
:1009B0003046019BAF60EB60C5E9009805F0C6FDCD
:1009C00040F22B7130461A4D05F0DFFD4FF0204309
:1009D00043F2D202642040F215261A6003F0C4FBF1
:1009E000144B154A28462C62C5E90023C5E9024785
:1009F00024E000BF1B00000300ED00E000380240CF
:100A0000000402406C03002068010020002802401E
:100A1000002002400008024000180240AC03002001
:100A20000030024000B0024048010020400100A018
:100A30001803002068474020005C0040C5E90444DA
:100A4000C5E9064404F0AAF82146284604F0C8FA8D
:100A5000214628464A4D04F0E9FA342221460DEB9E
:100A6000020021F053FA474B2821352040F2352C63
:100A70002C61AC8685F83640C5E900340923C5E908
:100A800005130B23C5E9070340F21B132846C5E9EC
:100A9000096340F21D13C5E90244C5E90BC304F024
:100AA00071FBFF214FF4806E4FF4F0724FF48873A6
:100AB00028460D941893ADF864408DF86640CDE952
:100AC00012140521CDE914E14FF04041CDE90E2487
:100AD000CDE9161222460DA9CDE9103A04F01DFC0D
:100AE00029482A4B0462C0E90298C0E900374FF058
:100AF00018084FF4A063DFF8C890C0E90483C0E988
:100B0000064404F06DFD03F08BF903F0D1F85C208E
:100B100003F08EFB00F0FEFB1D484FF4E13304614F
:100B20004462C0E900930C23C0E90244C0E90534E3
:100B3000C0E9074406F02CFB00F018FC00F015FC9F
:100B400006F056FC134806F0F9FC134B134A2146F5
:100B50001860134806F086FC124B134A21461860B1
:100B6000124806F07FFC124B124A214618601248C8
:100B700006F078FC114B186006F054FCFEE700BF4D
:100B8000700200200068014024020020001000A034
:100B90009C010020F02A020858010020482B02087E
:100BA000D505000864010020242B02087B130008EF
:100BB00060010020002B0208E10500085C01002014
:100BC000007800400268064B9A4207D1054B01228B
:100BD00083F80621D3F80C3103B11847704700BFE2
:100BE00000780040BC3700200268034B9A4202D1D3
:100BF000024802F0CDBF704700780040BC370020AB
:100C000013B50C4C4FF0FF31206806F0D9FC50B9F9
:100C1000094B0722694618689B8800900748ADF881
:100C2000043002F0A9FF206802B0BDE8104006F0D1
:100C3000F7BC00BF58010020B82A0208BC370020CA
:100C40000268034B9A4201D103F07CBA704700BF9F
:100C500000100040704700000D4B82B00F216FF074
:100C600001001A6C42F080521A641A6C02F0805231
:100C70000092009A5A6C42F480425A6400225B6CE3
:100C800003F480430193019B02B003F091BA00BFCB
:100C900000380240026882B0084B9A420BD1D3F868
:100CA000302803F5006342F480521A631B6B03F48F
:100CB00080530193019B02B0704700BF0030024097
:100CC0000E4B07B502689A4215D1A3F5F0430521F2
:100CD0005A201A6B42F400021A6300221B6B03F4C1
:100CE00000030193019B03F063FA5A2003B05DF8FF
:100CF00004EB03F08FBA03B05DF804FB00B00240D0
:100D000010B5A8B004461422002102A821F0FEF874
:100D10008422002107A821F0F9F82268174B9A4293
:100D20002AD14FF4803307A8079305F065F908B17D
:100D3000FFF790FF124C4FF4C07201211148236B52
:100D400043F080032363236B03F080030093009B35
:100D50001223CDE902230323CDE90413042302A9BE
:100D6000069303F06FFC236C43F400032364236CAD
:100D700003F400030193019B28B010BD005C004008
:100D800000380240001C0240026808B5094B9A4234
:100D90000FD1094A80210948136C23F4000313641E
:100DA00003F034FD4FF480710448BDE8084003F0BF
:100DB0002DBD08BD005C004000380240001C024010
:100DC00070B5ACB004461422002106A821F09EF8AC
:100DD000842200210BA821F099F82268484B9A42FE
:100DE00040F08C800823052001240B934FF4C0733E
:100DF00010930223CDE911304FF400330BA8CDE955
:100E0000154305F0F9F808B1FFF724FF3D4B002426
:100E100002250E265A6C06A93B4842F080625A64AD
:100E20005A6C02F080620092009A1A6B42F0100233
:100E30001A631A6B02F010020192019A1A6B42F4C3
:100E400000721A631A6B02F400720292029A1A6B11
:100E500042F480621A631A6B02F480620392039A6E
:100E60001A6B42F040021A631A6B02F040020492BD
:100E7000049A1A6B42F480721A631B6B03F480733A
:100E80000593059B1023CDE90635CDE908440A9664
:100E900003F0D8FB4EF6FF7306A91C480A96CDE96D
:100EA0000635CDE9084403F0CDFBF72306A9184821
:100EB0000A96CDE90635CDE9084403F0C3FB4FF4AB
:100EC000805306A91348CDE906350923CDE9084426
:100ED0000A9303F0B7FB4FF4464306A90E480A965F
:100EE000CDE90635CDE9084403F0ACFB5820224695
:100EF000052103F05DF9582003F08CF92CB070BD8A
:100F00000068014000380240001002400024024006
:100F10000028024000180240002002401422002154
:100F20002DE9F0418AB004460DEB020020F0EEFFFF
:100F300022682C4B9A4251D12B4B022503240926BF
:100F40009A6B4FF0040805A9284842F002020027D6
:100F50009A639A6B02F002020192019A1A6B42F0B4
:100F600010021A631A6B02F010020292029A1A6BB4
:100F700042F002021A631A6B02F002020392039A11
:100F80001A6B42F008021A631B6B03F00803049308
:100F9000049BCDE90585CDE9084603F053FB4023CA
:100FA00005A91348CDE905350A23CDE9077409934E
:100FB00003F048FB05A90E480996CDE90585CDE962
:100FC000077403F03FFB4FF4605305A909480996E5
:100FD000CDE90535CDE9077403F034FB0AB0BDE86F
:100FE000F08100BF001000A0003802400010024055
:100FF00000040240000C0240026808B50B4B9A4204
:1010000013D10B4A04210B48936B23F00203936323
:1010100003F0FCFB4421084803F0F8FB4FF4605157
:101020000648BDE8084003F0F1BB08BD001000A071
:10103000003802400010024000040240000C024050
:1010400010B5A8B004461422002102A820F05EFFCB
:101050008422002107A820F059FF2268174B9A42EA
:101060002AD14FF4805307A8079304F0C5FF08B1B5
:10107000FFF7F0FD124B002112481A6C42F080423B
:101080001A641A6C02F080420092009A1A6B42F0C5
:1010900020021A63C0221B6B03F020030193019B03
:1010A0000223CDE902230323CDE9041308230DEB2A
:1010B0000301069303F0C6FA28B010BD0078004083
:1010C0000038024000140240F0B5002387B00393BB
:1010D000294B1E68002E4DD10122022703250C2426
:1010E0001A6001A9254B26489A6B42F001029A63C7
:1010F0009B6B03F001030093009B4FF68373CDE9D4
:101100000454CDE9013703F09DFA48F2331301A9E5
:101110001C480594CDE90137CDE9036503F092FA47
:101120004CF2037301A918480594CDE90137CDE9C4
:10113000036503F087FA4FF63F0301A913480594AE
:10114000CDE90137CDE9036503F07CFA282301A935
:101150000F480594CDE90137CDE9036503F072FA34
:10116000082301A90B480594CDE90137CDE90365B2
:1011700003F068FA07B0F0BDD00300200038024049
:101180000010024000180240000C0240001402400F
:10119000001C024000080240214B1A6C42F0100271
:1011A00070B51A6488B01B6C054601A903A803F04A
:1011B00010030293029B04F001FF069B4BBB04F05B
:1011C000DDFE184E184B336040F2E733F360174BE7
:1011D000B0FBF3F3013B3046736000233361B3602F
:1011E000B36105F043FB044680B9304605F0E6F9EB
:1011F000044658B9362003F00DF80F2D0DD82246BD
:101200002946362002F0D4FF094B1D60204608B065
:1012100070BD04F0B3FE4000D3E70124F6E700BF41
:1012200000380240D40300200010004040420F006C
:101230003C0000207047FEE7FEE7FEE7FEE7704750
:10124000014805F0FDB900BFD4030020014804F0B7
:1012500007B800BF70020020014803F022B900BFA8
:101260006C0300200120704708B520F017FF1623FB
:1012700003604FF0FF3008BD08B520F00FFF1623C4
:101280000360FEE770B50D4614460E46731B9C4284
:1012900001DC204670BDAFF3008006F8010BF5E7D6
:1012A00070B50D4614460E46731B9C4201DC204669
:1012B00070BD16F8010BAFF30080F5E74FF0FF307B
:1012C00070474FF4005300204B6070470120704777
:1012D000002070470B4A0346116810B509B90A4946
:1012E0001160106809490A4C0344091B8B4206D956
:1012F00020F0D4FE0C2303604FF0FF3010BD1360CC
:10130000FCE700BF20040020B0770120000005208A
:10131000000A000070470000DFF834D0002103E02D
:101320000C4B5B58435004310B480C4B42189A420B
:10133000F6D30B4A02E0002342F8043B094B9A42E1
:10134000F9D302F005FE20F0AFFEFFF7B5F97047C4
:10135000000005200C52020800000020240100209B
:1013600024010020AC770120FEE7704708B500F0AB
:1013700099FDBDE8084000F021BD00F095BD406832
:1013800070474160704700004FF0E022D2F8FC3D0A
:1013900043F08073C2F8FC3D054B064AD3F8B01FFA
:1013A0000A43C3F8B02F1A6842F001021A6070476E
:1013B000001000E055CEACC5521A02EB5302B2FB4E
:1013C000F3F07047014B5868704700BF001000E011
:1013D000704710B504460C211FF092FD204610BD49
:1013E000036810B51B69044631B19847A268636869
:1013F0009B1A0344636010BD9847A060FBE70000A0
:10140000024B7020024A1360DB681847100000206E
:1014100024040020704710B5044604211FF070FD1D
:10142000204610BD73B50E4E0D461446336813B9F1
:10143000002002B070BD1B69702098470028F7D0CB
:101440003368702001AA0DF106015B699847BDF869
:10145000043001202B60BDF806302360E9E700BFAF
:10146000240400207FB501238DF817204FF47A72F1
:10147000CDE901320DF1170200920A4601460548F6
:1014800003F0F6FB10B1034803F0D9FB07B05DF899
:1014900004FB00BF180300207FB500230A464FF469
:1014A0007A718DF817300123CDE901310DF1170163
:1014B00000910146054803F0B5FC10B1034803F064
:1014C000BEFB9DF8170007B05DF804FB1803002071
:1014D000032823D8DFE800F0020B131A104B102169
:1014E00010481A68B2FA82F2520903F02FBA0C4B74
:1014F00040215A68B2FA82F252090B48F5E7084BCC
:1015000080219A68B2FA82F25209F6E7044B402130
:101510000648DA68B2FA82F25209E6E7704700BF7D
:101520002804002000040240000802400018024085
:10153000032823D8DFE800F0020B131A104B102108
:1015400010481A68003A18BF012203F0FFB90C4B8B
:1015500040215A68003A18BF01220B48F5E7084BB2
:1015600080219A68003A18BF0122F6E7044B402117
:101570000648DA68003A18BF0122E6E7704700BF64
:101580002804002000040240000802400018024025
:1015900003280FD8DFE800F00206090B10210648E7
:1015A00003F0D9B940210548FAE78021FBE7402143
:1015B0000348F5E7704700BF0004024000080240FE
:1015C0000018024008B5032813D8DFE800F0020A2B
:1015D0000D0F1021084803F0B3F9431E584258413B
:1015E00008BD40210548F6E78021FBE7402104487B
:1015F000F1E70020F1E700BF0004024000080240CC
:101600000018024070B5084D00240126E0B2FFF733
:10161000D9FF18B12B68012B18BF2E600134043597
:10162000052CF3D170BD00BF28040020012380F8F1
:10163000781080F879307047002070474164003995
:10164000024B18BF01211970704700BF736B012056
:1016500000207047836B0BB10846184770474FF660
:10166000FF707047406803689B6918477047000027
:1016700038B5044600F0E0FC084923682046084DD0
:10168000D3F88C3098470023284684F84A30FFF777
:101690007BFE0123256184F8703038BD000000C056
:1016A0003804002000F092BC00F096BC70B500F049
:1016B000E1FC10490023C1F88430BFF34F8FD1F80B
:1016C000803043F6E074C3F3C900C3F34E335B01CB
:1016D00003EA0406024646EA8275013AC1F87452EA
:1016E000F9D2203B13F1200FF2D1BFF34F8FBFF39C
:1016F0006F8F70BD00ED00E000F0BEBC00F042BC9A
:1017000000F0BCBC00F0C4BC00F046BC10B5044600
:1017100009F0A0FC23682046D3F8AC30BDE81040A7
:10172000184708F0F4BE10B504467C211FF0E8FB12
:10173000204610BD90F834100D4B10B590F878404D
:101740001A788C4209D03AB90A490B4A0888148899
:10175000108001220C801A7010BD002AFCD0064AAD
:101760000449148808880C8010800022F3E700BF29
:101770006C6B01206A6B0120686B012070B50D460F
:10178000194635B9094B40F2D221094A094820F0DF
:1017900021F9C0E90F52003A074B18BF01221A7015
:1017A0000368BDE87040D3F88C301847AC2B0208B2
:1017B000E42B0208322C0208726B012008B5094B99
:1017C0001B888B4203D8084B1B88934205D9074BD3
:1017D0009E21074A074820F0FDF8074B1980074B68
:1017E0001A8008BD686B01206A6B0120772C020803
:1017F000DA2C0208322C02086E6B0120706B01207B
:10180000034690F87A0018B1586803681B681847B7
:1018100070470000014608B5034B186801B101216B
:1018200009F032FC012008BD746B0120034B00223B
:101830005A609A60024A1A60704700BF380400205C
:10184000742B02080121002208B5084605F014FF98
:101850000A4B186028B90A4B28210A4A0A4820F086
:10186000B9F800220421012005F0D0FF074B1860D1
:1018700018B9074B2C21034AF0E708BD48040020A3
:10188000F82D0208412E0208702E020844040020A0
:10189000D02E0208024B4FF0FF31186805F044BF0C
:1018A00048040020014B186805F07ABF4804002066
:1018B000024B0021186805F037BF00BF4804002024
:1018C000FFF7F0BF0023034803491A46006805F0FC
:1018D000E3BF00BF440400200400002013B5002330
:1018E000074C01A91A46206806F018F84FF0FF339C
:1018F000002201A9206806F011F802B010BD00BF57
:101900004404002003685B6C18470120704703689B
:101910009B6A18470D4B82B01A6B42F400021A639F
:101920001A6B02F400020192019A1A6942F4000251
:101930001A611A6922F400021A61054B054A1A61FC
:101940004FF08062044B9A6002B07047003802404A
:101950006C030020E51B000800E100E040F2EF30DE
:1019600070470000054B4FF080620360044BC3F8E2
:101970008820BFF34F8FBFF36F8F7047803002080E
:1019800000E100E010B504464FF45A61FFF7EAFFAA
:1019900020461FF0B5FA204610BD000008B50A2801
:1019A00009D8DFE800F006100E080808081010102B
:1019B0001000022008BD054B8621054A054820F08D
:1019C00009F80020F6E70120F4E700BF122F020813
:1019D0002D2F0208782F020838B50C46887FFFF7B4
:1019E000DDFF174BA58AE28A586342EA0542216966
:1019F0005A64628BD963521B1A642568082D0ED174
:101A00009A611A6158620F4A207F42EA0062DA61E5
:101A1000E2681A620C4A5961D9601A6038BD002226
:101A2000D8611A61E1680A0A4809C1F3C40102F4E5
:101A3000784200F4FC6002430A439A63034AECE7ED
:101A400000B002400900010001020200010203008F
:101A500008B50B280BD8DFE800F00612100A0A0AB6
:101A60000A0808080808022008BD0520FCE7054B05
:101A70006521054A05481FF0ADFF0020F4E701206D
:101A8000F2E700BF122F0208D62F0208782F0208B3
:101A90002DE9F04191F81D800C464046FFF7D8FF34
:101AA000A77F05463846FFF7D3FF06463846FFF7BF
:101AB00075FFA18A628B434B521A1A649A61228B7A
:101AC000521A1A61E28A586342EA014221695A6451
:101AD0006268D963DA602068802828D0227F0FD816
:101AE000202866D0402864D004281AD045EA026530
:101AF000344BB84545F40035DD6160D0324A44E0EE
:101B0000B0F5807F04D0B0F5007FEFD12F4800E022
:101B10002F4840EA0262DA61E2681A625E62596145
:101B200032E045EA026242F40032DA61F6E7A06888
:101B3000021DDA62227F45EA026545F40035DD6167
:101B40005E625961017841B1012921D0214B4FF4E6
:101B50008871214A21481FF03DFFDA69418822F44B
:101B60007F42013922F0100242EA01220121DA61AA
:101B7000144BDA6942F02002DA61DA699206FCD489
:101B800010229A600029B9D0154A1A60BDE8F08188
:101B9000B2F1FF01DA69408822F47F4218BF0121C7
:101BA000013822F0100242EA002242F01002DA610B
:101BB000DEE745EA0262034B42F40032B5E740F249
:101BC0000122E2E700B00240010201000900020028
:101BD0000A000200203002083A300208782F02087A
:101BE00001020200024B1B68586803685B691847D2
:101BF000746B012070B504460A4B0C300026254654
:101C0000602260602672667245F8203B294609F022
:101C100091FB04F55A63EE6024359D42FBD12046CA
:101C200070BD00BF80300208034B1A68D207FCD495
:101C300023229A60704700BF00B0024030B5104CBC
:101C40002568ED07FCD423250904FF2BA56041F08E
:101C500001014FF0020565636164E0630AD0094940
:101C6000656241EA0363E361074B22626061E06001
:101C7000236030BDE561039BA363044BF8E700BF1D
:101C800000B0024009000100010002000100030051
:101C9000012070470C2070470C2303FB0100083023
:101CA00070470C2303FB0100083070470120704788
:101CB00042F29020704742F2902303FB010008306B
:101CC000704742F2902303FB010008307047012067
:101CD00070471020704700EB01100830704700EB90
:101CE000011008307047084600F0B4BB034B10B534
:101CF0000446036007F08DFE204610BD383102080F
:101D000010B50446FFF7F2FF142120461FF0F8F843
:101D1000204610BD034B10B50446036007F079FE62
:101D2000204610BD0431020810B50446FFF7F2FF4B
:101D300042F2982120461FF0E3F8204610BD000033
:101D4000034B10B50446036007F063FE204610BD48
:101D5000D030020810B50446FFF7F2FF18212046E4
:101D60001FF0CEF8204610BD094B10B504460360A5
:101D700000F50B500430FFF7B9FF04F12C00FFF71A
:101D8000C9FF04F11400FFF7DBFF204610BD00BFC0
:101D90006C31020808B50248FFF7E6FF08BD00BF36
:101DA000FC12002010B50446FFF7DEFF42F2384176
:101DB00020461FF0A5F8204610BD00002DE9F34194
:101DC00000F0C2F90024054600F0C2F9234601469E
:101DD00022462846009411F01BF9264B264A20463D
:101DE000264D1A6001F0F4FC254811F079F82B68B3
:101DF000BFF35B8FDB0736D428461FF083F890B320
:101E0000204C214F214B04F1140007F1180604F176
:101E10002C0823606060C4F80880E760266107F042
:101E2000F9FD1B4B4046636107F0F4FD194B384642
:101E3000E36207F0EFFD04F50053174A03F536702F
:101E4000C3F8C42201F06CFE224607F114013046AB
:101E500001F02EFD304600F0FDFA10481FF0D8FDCD
:101E600028461FF05BF80E4802B0BDE8F041FFF7CE
:101E7000FFBB00BFD86B0120C8040020F81200206F
:101E800008000020FC120020C03500206C31020840
:101E9000D03002080431020838310208951D0008CC
:101EA0004C04002070470000014808F09ABB00BFB6
:101EB0004C04002070B5224E224B234C3046234D5B
:101EC0002360FFF797FE284615F07CFB204B00228D
:101ED0004FF480711F481A8683F858205A6683F899
:101EE00070205A67DC60C3E912121B49C3E91A1259
:101EF0001A4999671A490B604FF4F071018019482B
:101F000001804FF488711848C3E90422C3E906220E
:101F1000C3E90822C3E90A22C3E90E22C3E9102259
:101F2000C3E91422C3E91722C3E9016501800F4800
:101F300083F8342001800E490A700E4A1A6070BD81
:101F4000540500209C2B0208F4120020CC04002031
:101F50004C040020686B0120010000010000010119
:101F6000746B01206E6B01206A6B0120706B012085
:101F70006C6B0120282D02080148FFF7F3BC00BF5D
:101F800054050020034B902283F85A2383F85823EA
:101F9000704700BF00E100E0094A0A49D3680A48D7
:101FA000C3F30A03013B9BB20B801169C1F30A0121
:101FB000013901801364536B43F00103536370478D
:101FC000006801403637002034370020014BD3F839
:101FD000AC00704700680140024B0122C3F8AC100E
:101FE0005A62704700680140124A5369DB0370B5BA
:101FF0001ED50023C2F88430BFF34F8FD2F8803053
:1020000043F6E074C3F3C900C3F34E335B0103EA44
:102010000406014646EA81750139C2F87452F9D2C4
:10202000203B13F1200FF2D1BFF34F8FBFF36F8F1F
:1020300070BD00BF00ED00E070B5044608F0BDFAC9
:1020400023685D6E0DF0E4FE01462046A847236834
:10205000054A2046D3F888500023A2F57F31AC46CC
:10206000BDE87040604700BF00F807C008F08CBAB8
:1020700008F096BA08F051BA08F0C1BB034B4FF014
:1020800080629A604FF080729A60704700E100E0D1
:10209000084B4FF08062C3F88820BFF34F8FBFF327
:1020A0006F8F4FF08072C3F88820BFF34F8FBFF35C
:1020B0006F8F704700E100E010B5144C236823B324
:1020C000134B144A1B6C11888B4213D1124B198885
:1020D00003F050F9226892F86A30013382F86A30CE
:1020E000FFF7F0FB206808F0B5FF0020BDE81040C6
:1020F000FFF7EEB903F03EF9206803681B6A9847C2
:102100000020BDE81040FFF713BA10BD746B01202A
:10211000006801403637002034370020704710B582
:10212000044604211EF0ECFE204610BD08B519B18E
:10213000012905D0002008BD01F096FB0068FAE7F0
:1021400001F092FB4068F6E7004870478C310208C6
:102150000620704713B5002451B1036801AA019409
:102160008DF803409C680DF10303A04702B010BD39
:102170000846FBE7C0897047008A7047C0887047EF
:1021800080887047807A00F07F007047807AC009AD
:1021900070470020704700009FED010A704700BFA4
:1021A00000000000704710B5044608211EF0A8FE8C
:1021B000204610BD7047704700F59873086849685D
:1021C00003C3704770477047416070477047000015
:1021D000064BC0F84801C0F84C310023C0F850311C
:1021E00000F5A273C0F84031704700BF912200088B
:1021F0000123037270477047704710B4416803466B
:10220000C2689B68541001EB6200D20748BF0A59AC
:102210005DF8044B48BFD35818470346406830B1B7
:102220009A681AB9D86800F0010070470120704719
:1022300010B504460C211EF063FE204610BD10B5FB
:10224000044610211EF05CFE204610BD10B5044669
:102250004FF4AE711EF054FE204610BD10B50DF0C7
:10226000D7FD0368BDE81040DB6B184710B5044686
:10227000D0F8400158B10368DB68984738B1D4F80A
:10228000400103689B6898470023C4F8403110BDA3
:102290002DE9F14FD0E9556A0746B06803681B6A1B
:1022A000984742F28F23984205D8444BA321444AD1
:1022B00044481FF08FFB706803681B6A98470F281B
:1022C00003D8414BA4213E4AF2E7F06803681B6A39
:1022D00098470B2803D83D4BA521394AE8E7DFF89A
:1022E000F4900DF095FD04300DF0B7FDD9F8000025
:1022F00010B10368DB689847D9F8000010B1036893
:102300001B689847DFF8D080D8F8000010B1036848
:102310005B699847D7F83C0110B103685B68984740
:10232000D8F8000010B103681B689847D7F83C0143
:1023300010B103689B689847F06800214FF0000BCC
:1023400003685B6A9847224B0446C0F804B080F8E3
:1023500008B059460360B06803685B6A9847054651
:1023600001F090FB7068594603685B6A984706461F
:10237000294601F0FDFA331DC7F83C612846C9F82B
:102380000040C8F80050CAF800302B68C6F808A012
:10239000DB68EE639847336830461B6898472146F0
:1023A00028460FF0CFFA236820461B699847236818
:1023B00020465B6901B0BDE8F04F184714320208AF
:1023C000A23202086E330208B533020858340208FC
:1023D00070350208BC6B0120B86B0120044B1B68F0
:1023E00093F858200AB1D86C00B99868704700BFBC
:1023F000746B0120F8B5044617460E460DF0CEFD6D
:10240000104B00251C6029460F4B23600F4BC4E97D
:1024100051350F4B1868C4E953550368C4E94F554B
:102420009B68C4E955769847284601F0D1F9FFF733
:10243000D5FF16F0F8FEFFF7D1FF16F06FFF20462C
:10244000F8BD00BFC86B01201C3502080435020826
:10245000746B0120064BC0F84801C0F84C310023D2
:10246000C0F8503100F5A273C0F84031704700BF8A
:1024700091220008406A7047806A704770478B88D5
:10248000C069DB0A0A6850F823001044704710B591
:102490000446BAB1107B68B1537BD27A1B0203F4B5
:1024A000E0631A43236A03EB82031A888A4202D14B
:1024B00093F9020010BD05D80138043380B200281A
:1024C000F3D1F7E70020F5E710B504462C211EF004
:1024D00017FD204610BD000030B58BB00446BDF896
:1024E00060500895BDF85C5007959DF850500695D2
:1024F0009DF84C5005959DF8485004959DF8445022
:1025000003959DF8405002959DF83C500195BDF80B
:10251000385000950EF0A2FD064B20462360159B17
:10252000E361169B2362199B63621A9BA3620BB043
:1025300030BD00BF9435020800207047818070478D
:10254000C180704701817047418170477047704773
:1025500070477047704710B4C4880368121B8488A2
:102560005B6D091B12B25DF8044B09B218474FF6B8
:10257000FF7383814FF0FF3303621368C361106000
:102580007047806A70477047704770477047704760
:10259000002070478B88838001207047704780F847
:1025A0002C10704710B40368046BD3F8A430624356
:1025B00061435DF8044B1847D0ED0C7A0368F8EEE0
:1025C000E77A10B420EE270AD3F8A440B5EEC00A8B
:1025D000F1EE10FA1ADBB6EE007A30EE070ABDEE25
:1025E000C07A17EE101A60EEA70AF5EEC00AF1EEF7
:1025F00010FA1EDBF6EE007A70EEA70AFDEEE07A26
:1026000017EE902A23465DF8044B1847BDEEC07ABA
:10261000F8EEC76A17EE103A013B30EE660AF7EEA5
:10262000086A30EE260ABDEEC00A10EE101A1944F0
:10263000D9E7FDEEE07AB8EEE77A17EE903A013B83
:1026400070EEC70AB7EE087A70EE870AFDEEE00A70
:1026500010EE902A1A44D5E710B40368046BD3F83F
:10266000B03062435DF8044B1847D0ED0C7A036834
:10267000F8EEE77A10B427EE800AD3F8B040B5EE52
:10268000C00AF1EE10FA0BDBF6EE007A30EE270A04
:10269000FDEEC07A17EE902A23465DF8044B1847EA
:1026A000FDEEC07AB8EEE77A17EE903A013B30EED5
:1026B000470AB7EE087A30EE070ABDEEC00A10EE00
:1026C000102A1A44E8E710B40368446BD3F8BC300E
:1026D000624361435DF8044B1847D0ED0D7A0368FF
:1026E000F8EEE77A10B420EE270AD3F8BC40B5EE36
:1026F000C00AF1EE10FA1ADBB6EE007A30EE070AE5
:10270000BDEEC07A17EE101A60EEA70AF5EEC00A09
:10271000F1EE10FA1EDBF6EE007A70EEA70AFDEE7F
:10272000E07A17EE902A23465DF8044B1847BDEE79
:10273000C07AF8EEC76A17EE103A013B30EE660A2F
:10274000F7EE086A30EE260ABDEEC00A10EE101A47
:102750001944D9E7FDEEE07AB8EEE77A17EE903A41
:10276000013B70EEC70AB7EE087A70EE870AFDEEFD
:10277000E00A10EE902A1A44D5E710B40368446BBF
:10278000D3F8C03062435DF8044B1847D0ED0D7AA2
:102790000368F8EEE77A10B427EE800AD3F8C04059
:1027A000B5EEC00AF1EE10FA0BDBF6EE007A30EE71
:1027B000270AFDEEC07A17EE902A23465DF8044BF7
:1027C0001847FDEEC07AB8EEE77A17EE903A013B73
:1027D00030EE470AB7EE087A30EE070ABDEEC00ABF
:1027E00010EE102A1A44E8E7D0F82C31026B002BC7
:1027F00007DB02EB430090FBF2F000EBD0704010DF
:1028000070476FF0010101FB0320013890FBF2F0EB
:1028100000EBD070401040427047D0ED4B7A90ED05
:102820000C0AF8EEE77AB8EEC00A87EE800A704725
:10283000D0F82C017047D0F83031026B002B07DB49
:1028400002EB430090FBF2F000EBD07040107047B9
:102850006FF0010101FB0320013890FBF2F000EB67
:10286000D070401040427047D0ED4C7A90ED0C0A89
:10287000F8EEE77AB8EEC00A87EE800A7047D0F823
:1028800030017047D0F83431426B002B07DB02EB8C
:10289000430090FBF2F000EBD070401070476FF0F7
:1028A000010101FB0320013890FBF2F000EBD07036
:1028B000401040427047D0ED4D7A90ED0D0AF8EE91
:1028C000E77AB8EEC00A87EE800A7047D0F8340184
:1028D0007047D0F83831426B002B07DB02EB430026
:1028E00090FBF2F000EBD070401070476FF00101E8
:1028F00001FB0320013890FBF2F000EBD070401098
:1029000040427047D0ED4E7A90ED0D0AF8EEE77A2E
:10291000B8EEC00A87EE800A7047D0F838017047D9
:10292000036870B50446D3F888300D4616469847BC
:102930002368324629462046D3F89030BDE87040DF
:1029400018470368D3F8943018470368D3F8D43095
:1029500018470368D3F8E03018470368002A10B41A
:10296000D3F8A430046B0EDB04EB420292FBF4F1CB
:1029700001EBD1714910B0F91E215DF8044B013A09
:102980000A44494218476FF0010101FB0241013935
:1029900091FBF4F101EBD17149104942EBE7036877
:1029A000D3F83C311847026B03685143D3F84831E0
:1029B00018470368D3F844311847D0ED0C7A036800
:1029C000F8EEE77AD3F8482127EE800AB5EEC00A80
:1029D000F1EE10FA08DBF6EE007A30EE270AFDEE93
:1029E000C07A17EE901A1047FDEEC07AB8EEE77A7B
:1029F00017EE903A013B30EE470AB7EE087A30EE18
:102A0000070ABDEEC00A10EE101A1944EBE7C0F831
:102A10003C1170470368D3F850311847036810B56C
:102A2000D3F85C31044698470028236B07DB03EB9F
:102A3000400090FBF3F000EBD070401010BD6FF041
:102A4000010202FB0030013890FBF3F000EBD07084
:102A500040104042F2E70368D3F858311847036842
:102A600010B50446D3F85C31984707EE900A94ED10
:102A70000C0AF8EEE77AB8EEC00A87EE800A10BDBD
:102A8000D0F83C017047026B03685143D3F86831BA
:102A90001847D0ED0C7A0368F8EEE77AD3F868218E
:102AA00027EE800AB5EEC00AF1EE10FA08DBF6EE6A
:102AB000007A30EE270AFDEEC07A17EE901A104722
:102AC000FDEEC07AB8EEE77A17EE903A013B30EEB1
:102AD000470AB7EE087A30EE070ABDEEC00A10EEDC
:102AE000101A1944EBE7C0F840117047036810B59D
:102AF000D3F87431044698470028236B07DB03EBB7
:102B0000400090FBF3F000EBD070401010BD6FF070
:102B1000010202FB0030013890FBF3F000EBD070B3
:102B200040104042F2E7036810B50446D3F8743110
:102B3000984707EE900A94ED0C0AF8EEE77AB8EEA3
:102B4000C00A87EE800A10BDD0F8400170470846E1
:102B5000704703680029026BD3F8843110B504462E
:102B60000EDB02EB410191FBF2F101EBD171491057
:102B700009B220469847D4E94F2302FB003010BD2C
:102B80006FF0010000FB0121013991FBF2F101EB33
:102B9000D17149104942EBE7006B7047406B7047B9
:102BA0000368D3F8483118470368D3F85C311847F5
:102BB000026B03685143D3F814311847036870B5AA
:102BC000D3F818510446D0F84461D3F880319847BF
:102BD0002B4656F820102046BDE870401847D0F824
:102BE0004831B0F91E011944081A704780F82610C0
:102BF000704790F826007047002210B5B1F90840E0
:102C0000B1F90A10028042808480C18010BD002288
:102C1000028042808280C2807047C1627047C06A71
:102C200070470120704770477047C06B18B1036848
:102C3000D3F880301847704730B5B2F91651B2F862
:102C40001841B2F840102C44B2F942200580091B0B
:102C50000024C2804480818030BD02808380BDF921
:102C60000020BDF904304280C38070470B680846DD
:102C7000D3F8EC3018470B680846D3F8F8301847FB
:102C8000B1F916017047B1F81631B1F81821B1F851
:102C900040001344C01A00B27047B1F914017047E4
:102CA000B1F81431B1F81A21B1F842001344C01A36
:102CB00000B270470B6808461146D3F81831184720
:102CC00030B585B00368044601816D460146D3F8EE
:102CD00084303C342846984795E8070084E807008C
:102CE00005B030BD30B585B00368044641816D46FE
:102CF0000146D3F884303C342846984795E80700CD
:102D000084E8070005B030BD002202804280828046
:102D1000C280704780F836107047036870B504466B
:102D20001B6B154698472368204629465B6EBDE815
:102D30007040184700207047806C7047704770479C
:102D400070477047704770477047704730B44468A9
:102D50000346C2689B68551004EB6200D20748BF67
:102D6000625930BC48BFD35818470346406830B159
:102D70009A681AB9D86800F00100704701207047BE
:102D800070B445680346C4689B68661005EB640030
:102D9000E40744BFAC59E35870BC18470346406889
:102DA00030B19A681AB9D86800F001007047012064
:102DB000704710B504464C211EF0A2F8204610BD05
:102DC00010B5044640211EF09BF8204610BD10B5FA
:102DD00004464FF437711EF093F8204610BD10B52D
:102DE000044610211EF08CF8204610BD10B5044694
:102DF00010211EF085F8204610BD38B50346084660
:102E0000D3E90C540B68D3F894309847294602460E
:102E10002046BDE8384008F099BF0000034B10B5CC
:102E2000044603600BF042FB204610BDB03C020894
:102E3000064B10B5044603600BF038FB42F28C21C0
:102E400020461EF05DF8204610BD00BFB03C0208D1
:102E500090F8252012B103685B691847704708B5E0
:102E600090F82C300BB1FFF7F3FF08BD08B5FFF762
:102E7000EFFF08BD10B400F2C4448C4205D10368D2
:102E800011465DF8044BDB6A18475DF8044B704748
:102E900000F5B7628A4202D103681B6B184770477E
:102EA0000A1E10B503DBB0F91E41944206DC084B44
:102EB00040F23961074A08481EF08CFD0368D0F8DB
:102EC0004441D3F88031984754F8200010BD00BF2A
:102ED000F435020817360208663602080B1E10B5D4
:102EE000044603DBB0F91E219A4206DC074B40F290
:102EF0003361074A07481EF06DFD0368D3F884313B
:102F00009847D4E94F2302FB003010BDF435020886
:102F1000C33602086636020890F825201AB190F8E8
:102F2000242002B118607047036870B55E6B0446D8
:102F3000114B8DB21B682BB9104B6C21104A1148F4
:102F40001EF048FD1049828D0988914203D80F4B2D
:102F50006D210B4AF3E713F812200D4B1B6853F851
:102F6000220003681B6B9847291A3346204609B292
:102F7000BDE87040184700BFCC6B01201237020833
:102F8000543702088F370208D06B0120D637020869
:102F9000D46B012000224FF0FF318260C0E9002194
:102FA0007047036870B504461B6B15469847236845
:102FB000204629465B6BBDE87040184770B5044653
:102FC0001D46BDF91060FFF7ECFF23682946204637
:102FD0009B6B9847236831462046DB6BBDE8704009
:102FE000184700000022C0E90122C0E90322C0E91D
:102FF0000522C0E907224FF480728284014A0260F0
:10300000704700BF1839020810B504462622002177
:103010001EF07CFF2046FFF7E5FF044B20462360AF
:10302000FF2384F826300023A36210BD5447020812
:1030300037B501AB15460EF00FF900282A46019965
:103040004FEA40144FF0200004DB0EF024F9204436
:1030500003B030BD0EF01FF9201AF9E770B5B0F8D3
:103060001A310E46B0F91441B0F842502344ED1A1B
:103070002DB22C44691ED0E94D32013CD21AF01A0F
:10308000FFF7D6FFC0EB441070BD38B504460D46BF
:10309000B4F81631B4F818110B44B4F84010C91A3A
:1030A000D0E94B0209B2121A281A0139FFF7C0FF02
:1030B000B4F9163100EB431038BD000010B50446DA
:1030C00008F01CFA0A4A0023204622600122E3622B
:1030D00084F84030A4F84230A364C4E90C23054AC4
:1030E000A2634FF6FF72A2872E22A4F8442010BDDF
:1030F000B44602080C320208002370B5124E054691
:103100008380124B0360336893F858200AB1D86C5F
:1031100000B998680368DB6A98473368B0FA80F4AE
:10312000D86C640930B10368DB6A9847002808BF8F
:1031300044F001042CB9064B2C21064A06481EF027
:1031400049FC284670BD00BF746B0120383A020864
:103150001438020872380208AB3802082DE9F04F23
:10316000044695B000250EF041FAA246E34B04F167
:103170006C094FF026084FF6FF7BE5634AF8403BA9
:103180005046FFF741FF424629464846ADF848B051
:103190001EF0BCFE484604F1CC07FFF723FFD84BD6
:1031A00012A94846E3660126BDF8483084F894B079
:1031B000A4F892300AF074FA04F1980318460693C2
:1031C000FFF722FFCF4B64213846C4F89830C4F88B
:1031D000C450A4F8C85008F055FDCB4B29466322D3
:1031E000C4F8CC3004F506733846C4E98265C4E9F6
:1031F0008435FFF7D7F9C54BC4F8CC3004F56A73B2
:103200001846079308F07AF90A2384F8E063C4F8B3
:10321000DC33BF4BC4F8E453C4F8A83304F57A7325
:10322000C4E9F55618460893FFF748FFB94BC4F8B0
:10323000E83304F2344318460993FFF73FFFB64BD7
:10324000C4F8343404F5906318460A9308F056F92C
:10325000B24BC4F880344FF0020384F8AC3404F568
:10326000966318460B93FFF747FFAD4BC4F8BC5469
:10327000C4F8B0342433C4F8B83404F2C443184654
:10328000039307F0ABF804F5B763424629461846A6
:1032900005931EF03BFE0598FFF7A4FEA14B4246A6
:1032A0002946C4F8B83504F2EC5384F8DC6504F11F
:1032B00004081846A4F8E6B5A4F8E8B584F8EAB519
:1032C000C4F8E05584F8E45504931EF01FFE0498FA
:1032D000FFF788FE944B4FF0FF32A4F818B6C4F8FD
:1032E00014364FF47F03C4F82C2604F24C60C4F863
:1032F00020364FF4E1518D4B4FF07F4B8C4AC4F890
:10330000EC3504F50053C4F81C56A4F82456C4F850
:103310002856C4F83056C4F83456C3E99B24854A6D
:10332000C3E99D25844AC3E99F24844AC3E9A125B2
:103330000BF0B2F84FF488732A46294650460093A2
:103340004FF4F073FFF73AFE51464046C4F868B0B8
:1033500006F072FB2A4629464846FFF722FE4FF048
:10336000020212A94846ADF848200AF099F94946E8
:103370004FF0E0094046DFF8C8A106F05DFB40F2DF
:10338000851306981822CDF800900F21FFF716FE3E
:103390004FF0FF3206994046A4F8C860C4E9302BCC
:1033A00006F04AFB40F285133846CDF8009018220B
:1033B0000F21FFF703FE2A4631463846FFF7B0FAE1
:1033C000294638466422FFF7EDF8162338461C22BA
:1033D00000930A2113234FF0140908F004FC06227D
:1033E0002B4638460092022108F000FB2946384659
:1033F000B422FFF768F9D4F8D8133246C4F8D4A33E
:1034000009FB01F084F8E0630028B8BF4042C4F82B
:10341000DC0308F09BFC0799C4E9F660384608F025
:10342000F0FAD4F818143246A4F8246409FB01F029
:10343000C4F814B40028B8BF4042C4F81C0408F013
:1034400085FC0899C4F81C043846C4F8186408F0D0
:10345000FCFAD4F864143246A4F8705409FB01F065
:10346000C4F860B40028B8BF4042C4F8680408F04B
:103470006DFC0999C4F868043846C4F8646408F01F
:10348000D2FA0B9A41F2B8430A99C4F8A8244FF033
:103490000202A4F8C034384684F8AC24C4F8BCA4B2
:1034A0004FF0030A08F0ADFA394640467D2706F092
:1034B000C3FA03982F224FF4D371FFF772FD042350
:1034C00012AA10A9ADF8403005230398ADF8443096
:1034D000134611AAADF848A006F0DAFF2B46524673
:1034E00003980721CDE9005706F021FFFA2249464B
:1034F000039806F06EFD0398B42123E0B03C020867
:1035000098480208304802082C420208E83A0208AB
:10351000803902087445020814460208F44402087F
:103520007C410208BC4702080C320208583A0208E3
:10353000803C0208752E0008983C0208912E000875
:10354000C59714FF06F00DFD04F509530399404695
:103550002C33C4F8B43506F06FFA0598C922C72198
:10356000FFF71FFD12AA11A90598ADF848600CAE2F
:10357000ADF8445009F0C6FE04F5095305994046DC
:103580003C33C4F8E03506F057FA1E2309223946C9
:10359000049800939723FFF711FDD4F8EC350499B4
:1035A0003046D3F88430C4F81CB6A4F820569847A7
:1035B00004F5C56396E8070083E8070004F5C763D0
:1035C00012A90498C4F83436084BA4F8385612935C
:1035D0004FF00203ADF84C3009F036FE4046049936
:1035E00006F02AFA204615B0BDE8F08F0C3202082A
:1035F0007047000030B5174D8FB02C68BFF35B8F5C
:1036000014F0010422D128461DF07CFCF0B13F23C8
:10361000012211490993114B11480893114B0A9447
:103620000594CDE906430423CDE903320C230F2290
:1036300000930E23CDE90B44CDE90144FEF74CFF86
:1036400009481EF0E5F928461DF068FC04480FB053
:1036500030BD00BF38370020AC020690D4510208BC
:103660003C370020DC510208F135000870470000AB
:1036700030B5164D8FB02C68BFF35B8F14F001048A
:1036800021D128461DF03EFCE8B13F23012210491C
:103690000993104B10480893104B0A940594CDE9F8
:1036A00006430423CDE9033219230D220093CDE90B
:1036B0000B44CDE90144FEF70FFF09481EF0A8F9BD
:1036C00028461DF02BFC04480FB030BD68370020A1
:1036D00080030690D85102086C370020E0510208A0
:1036E0006D36000800207047002070470EB403B507
:1036F00003AB002153F8042B01930DF0D7FA02B06D
:103700005DF804EB03B070470CB407B504AB53F895
:10371000042B01930DF0CAFA03B05DF804EB02B07C
:1037200070470000436C10B5044673B3038F2BB988
:10373000184BC521184A19481EF04CF9C38E00EBEE
:1037400043035B8C0BB30EF015FE238F012B03D8C4
:10375000134BCB21134AEEE7E28E40F63F10531C89
:103760009BB2092B194688BFA3F10A0104EB410162
:10377000498C814209D10A2B04EB420228BF002365
:10378000508C04EB4303588451842046BDE810401C
:103790000EF0F2BCE43C0208ED3C0208983D020841
:1037A000E23D0208F03D02080EF0AFBC10B586B055
:1037B00002AC84E806001A460AAB21460593019341
:1037C000099B0093089B0BF007FF06B010BD00009B
:1037D00038B518BB124B13481C681349B4B12268A2
:1037E00022440260626822440A60A26814440F4BBB
:1037F00000221A8000F038F8054600F033F80C4B30
:103800001C600C4B1D600C4B188007E00B4B0360D9
:103810000B4B0B600B4B1C68002CE8D138BD00BF74
:10382000A43700209C37002098370020A0370020C4
:10383000CC6B0120D46B0120D06B01204404069096
:103840003804069050040690044B1B6853F821007E
:10385000034B1B6803EB4000704700BF9837002004
:103860009C3700200320704700487047A83700208D
:1038700010B5044CFFF7BEFE2060FFF7F9FE606054
:1038800010BD00BFA8370020704710B504464FF4A4
:10389000AE711DF035FB204610BD10B50446D0F8C2
:1038A000580100F040F92046BDE810400CF032BB52
:1038B00010B50446FEF79EFD014B2046236010BD67
:1038C000CC3E0208704704387047704710B5044674
:1038D00010211DF015FB204610BDA0F10400F5E7F6
:1038E000806800F021B900002DE9F0411B4E002155
:1038F0001B4D3488B5F804212346E8180079532875
:1039000022D101B133809A4222D9121B072A1FDD2E
:10391000DFF858800222134908EB04001EF0FEFA7B
:103920000746A8B92544AB7A0D2B11D1EB7A0A2BA7
:103930000ED1A11C0C4B08340422414418461EF041
:10394000FFFA3480077103E09A4203D200233380E8
:10395000BDE8F081013301219BB2CEE7B6370020EC
:10396000BC370020183F0208B0370020C0370020C5
:103970000022C1608260024A0260203242607047C9
:10398000243F02087047C06B03685B69184700005A
:10399000034B10B504460360FFF740FA204610BD04
:1039A000543F020810B50446FFF7F2FF42F290219F
:1039B00020461DF0A5FA204610BD000070B500F5A8
:1039C00000550446C06BD5F88C3201332DED028BC7
:1039D000C5F88C3203681B699847D5F88C52EB0701
:1039E00047D4D4F80061D4ED817A07EE106AF8EE7E
:1039F000E77AB8EEC77A87EE878A07EE905AB8EE74
:103A0000E70ADFED1D7A20EE270A1DF0A1FAF7EE96
:103A1000007A9FED1A7A4FF6FF72194930EE270AA5
:103A20000B8803F23953C8EE077A6B43B2EE047A7F
:103A300093FBF2F2C2EB02429B1A0B809BB220EE88
:103A4000270AFDEEC07A17EE901AC8EE077ABDEC91
:103A5000028BFDEEE77A17EE902A93FBF2F002FB61
:103A6000103304F1CC0019447143BDE8704008F0F4
:103A7000C6B9BDEC028B70BD0AD7A33CCDCC0C40BF
:103A8000B837002010B50446FFF768FB044B00224E
:103A90002046236004F50053C3F88C2210BD00BFFC
:103AA000543F020810B50446FFF74AF92368204640
:103AB000B4F9F214DB6ABDE81040184770B5D0F8CD
:103AC000002100F1CC0604460D464A433046002151
:103AD00007F084FD30460DF014FAC72DD4F8643495
:103AE000D4F8D82317DD32214B4304F23440002BA5
:103AF000B8BF5B42C4F8683401FB02F3002BB8BFC7
:103B00005B42C4F8DC3307F0DDFC04F56A70BDE805
:103B1000704007F0D7BC642DCCBF14210A21E3E725
:103B20000022026070477047FDF76AB870B505461D
:103B30000024012608462960A5F8044185F806619D
:103B4000C5E942230B4A4FF416530C61CC61C1E91D
:103B500000230C23C1E90244C1E9053403F018FB3A
:103B600032462146522000F023FB5220BDE870402F
:103B700000F050BB0078004008B5002380F8063103
:103B80004FF0FF33006803F090FA00B1FEE708BD84
:103B9000B0F804310122FF2B88BF002310B588BF85
:103BA000A0F804310446B0F80411013189B2A0F83C
:103BB000041104310144006803F072FBB4F80411ED
:103BC0006318DA780A2A0AD19B780D2B07D1D4F82A
:103BD00008310BB1201D98470023A4F8043110BD13
:103BE000014B186802F0AABEBC37002000B54FF4A4
:103BF000807295B04FF0807103460C9205220F91B0
:103C000001210692002201910B92139200920B481F
:103C1000CDE90312CDE90D22CDE91122102206A92A
:103C200002924FF4800205926A4601F083FD00384B
:103C300018BF012015B05DF804FB00BFCC38002090
:103C400000B54FF4807395B041F2883217480C9359
:103C5000062306A906930023CDE90D330F930B939A
:103C60001393CDE9113301F020FDE0B902230122C5
:103C70004FF4800104900D48CDE900331023CDE9C5
:103C8000023205236A46CDE905134FF0807306A979
:103C90000F9341F2883301F04DFD003818BF012029
:103CA00015B05DF804FB0120FAE700BFCC38002016
:103CB00000B54FF4807391B04FF040720E480893F6
:103CC000EB2302A902934FF4406309934FF400538E
:103CD00005930023CDE90A320A220F9307926A4620
:103CE000CDE90D33CDE9003301F075FD003818BF83
:103CF000012011B05DF804FBCC380020454B0121B8
:103D00009A6B42F00202F0B59A638DB09A6B092467
:103D1000414D042702F00202002628460092009A34
:103D20009A6942F002029A619A6922F002029A614B
:103D30001A6B42F002021A631A6B02F0020201923D
:103D4000019A1A6B42F002021A631A6B02F0020225
:103D50000292029A1A6B42F008021A631A6B02F07E
:103D600008020392039A1A6B42F008021A631A6B54
:103D700002F008020492049A1A6B42F010021A63CD
:103D80001A6B02F010020592059A1A6B42F00802B3
:103D90001A6340221B6B03F008030693069B022361
:103DA000CDE907230323CDE909130A2307A90B93C0
:103DB00000F048FC07A92846079709960B9400F0E5
:103DC00041FC4FF4006307A90B941D440793284658
:103DD00000F038FC4FF4805307A9284607930B9452
:103DE00000F030FC07A90D4807970B9400F02AFC5F
:103DF0004FF4005307A928460B94079300F022FCC8
:103E000032460F215C2000F0D3F95C2000F002FA6A
:103E10000DB0F0BD00380240000402400010024026
:103E2000F0B5494C91B0494B2046236001F02AFC83
:103E3000054610B1012011B0F0BD01462046FFF744
:103E40005DFF012604234FF08077C4E9016310234E
:103E5000E36097FAA7F3B3FA83F32046013B2361AB
:103E60004FF4A063C4E90755C4E9053501F0B8FB78
:103E70000028DFD14FF4807566230B9041F2883221
:103E8000079002A90F9008950293CDE90900CDE9AA
:103E90000D00204601F009FC08B10420CBE799236E
:103EA00041F2883202A92046029301F0FEFB00286D
:103EB000F3D141F28830FFF799FE0028EDD1852338
:103EC000079041F2883202A9089502930B97CDE939
:103ED0000900CDE90C60CDE90E00204601F0E5FBBC
:103EE0000028DAD141F288320DF10701204601F0B5
:103EF0005CFD0028D1D1FFF7A3FE0028CDD181239E
:103F0000F022029392FAA2F20A219DF80730B2FA47
:103F100082F2204603F00F0301FA02F202A91343D2
:103F200041F288328DF8073001F0BFFB0028B4D190
:103F300041F288320DF10701204601F0D7FC00283C
:103F40003FF479AFA9E700BFCC380020001000A0F3
:103F50000F490020D1F8883043F47003C1F888304D
:103F60000C4B1A6842F001021A6098601A6822F03D
:103F7000847222F480321A60074A5A601A6822F466
:103F800080221A60D8604FF000638B60704700BFDA
:103F900000ED00E00038024010300024704700209F
:103FA00070470000002337B58DF807300C4B1A78A6
:103FB0000AB901221A700324C5B2013CA82128467F
:103FC000FDF76AFA14F0FF048DF807009DF807303A
:103FD000DBB201D0512BF0D19DF8070003B030BD0A
:103FE0001A39002013B500240221C0B28DF8074011
:103FF000FDF752FA8DF807009DF8073003F00F0324
:104000008DF807309DF80730052B01D98DF8074052
:104010009DF80720034B9DF807005A7000229A7004
:1040200002B010BD1A3900202DE9F74F2F4C15466C
:104030004FF000080F46A37862788DF807809A4207
:104040004DD9092B4ED803EB43035B00DBB2191D9E
:1040500003F1030B03F1060A0533C9B25FFA8BFBC8
:104060005FFA8AFA5FFA83F8C6B2DFF884903046C6
:10407000FDF712FA8DF807009DF8073059463046D3
:10408000A9F80030FDF708FA8DF8070051469DF8B1
:1040900007303046B9F800201B0203F47063134365
:1040A0003B80A9F80030FDF7F7F98DF8070041468D
:1040B0009DF807303046A9F80030FDF7EDF98DF88E
:1040C00007009DF80730B9F800201B0203F4706365
:1040D0001343A9F800302B80A3780133A37003B0F9
:1040E000BDE8F08FC246C3464146BDE71A390020FD
:1040F000183900200122A421C0B2FDF7B3B9002273
:10410000A421C0B2FDF7AEB9FFF7F9BF70470000B8
:10411000024B1A780AB901221A7070471A39002026
:10412000074A032008B5136843F48073136000F056
:104130002DF80020FDF730F8FCF78EFD002008BDBB
:10414000003C0240034A044B11681B780B44136087
:10415000704700BF2039002038000020014B18684C
:10416000704700BF2039002038B50446FFF7F6FF3E
:104170000546631C1EBF044B1B78E418FFF7EEFFD7
:10418000431BA342FAD338BD38000020074903027D
:10419000CA6803F4E06322F4E0621204120C1343D1
:1041A00043F0BF6343F40033CB60704700ED00E0A1
:1041B000164B30B5DC68C4F30224C4F10703251D97
:1041C000042B28BF0423062D4FF0FF358CBF033C82
:1041D000002405FA03F3002805FA04F521EA030395
:1041E00022EA050203FA04F343EA02034FEA031347
:1041F000DBB206DB00F1604000F5614080F800337F
:1042000030BD00F00F00024A1354F9E700ED00E062
:1042100014ED00E0002807DB4109012300F01F0036
:10422000024A834042F82130704700BF00E100E0BD
:1042300000280CDB4309012200F01F000449203351
:10424000824041F82320BFF34F8FBFF36F8F704739
:1042500000E100E0BFF35F8F044B5A6A22F4803222
:104260005A620022C3F89420704700BF00ED00E0BE
:10427000064B40F00100C3F894005A6A42F48032C1
:104280005A62BFF34F8FBFF36F8F704700ED00E0AE
:104290004378144A10B5C2F898300178E9B1436800
:1042A000C2F89C30C37A047B1B0643EA04730B43B9
:1042B000817A43EAC143417B43EA8143817B43EAFC
:1042C0004143C17B43EA0143417A43EA0123017A36
:1042D00043EA4103C2F8A03010BDC2F89C10C2F8F6
:1042E000A010F9E700ED00E010B5044608B9012080
:1042F00010BD437F03F0FF0213B90277FCF7CAFC3D
:10430000022363772379E3B92368134A5A619A68D1
:1043100022F018029A6062792368D2B94FF0FF3216
:104320001A6100209A68616922F060020A43A1695B
:104330009A609A6822F080020A439A6001236377A8
:10434000D6E7D4E90212204600F008F80028E2D0AF
:10435000CDE72269E4E700BFB71DC1041F2310B5F4
:10436000013B1DD321FA03F4E407F9D5102A13D039
:10437000102A04D83AB1082A10D001200BE0182ADC
:10438000FBD1062BF9D800684161836823F018033C
:1043900013438360002010BD072BF3E70F2BF1E7D9
:1043A000102AE5D1E9E770B50446866DFFF7D6FE21
:1043B000054694F83530022B06D080230120636532
:1043C000002384F8343070BD23681A6822F0160286
:1043D0001A605A6922F080025A61226C0AB9A26CF2
:1043E0001AB11A6822F008021A601A6822F0010253
:1043F0001A602368186810F0010007D1E26D3F23AE
:104400009340B360012384F83530D9E7FFF7A6FE67
:10441000401B0528EDD920230320636584F835006F
:10442000CEE790F83530022B03D08023436501207E
:1044300070470268052380F835300020136823F0A8
:1044400001031360704710B5044630B390F839305B
:1044500003F0FF021BB980F83820FCF731FC22681A
:1044600002236168002084F83930136823F4403354
:104470000B43A1681360536B23F007030B43E16800
:104480005363136C23F47F5323F03F030B431364F4
:104490000123E06384F8393010BD0120FCE7704748
:1044A0007047036870B55E6804461D68F20714D54E
:1044B000E90512D51A6822F480721A60C26B42F0C4
:1044C0000102C26301229A60042380F8393000237C
:1044D00080F83830436903B19847B20616D5AB046B
:1044E00014D523681A6822F400521A6020229A60B8
:1044F000E36B43F00203E363042384F839300023C1
:1045000084F8383063690BB120469847300716D5D8
:10451000290514D523681A6822F400621A6008225B
:104520009A60E36B43F00403E363042384F83930B7
:10453000002384F8383063690BB12046984772072E
:104540000BD56B0509D5236820461A6822F48062D2
:104550001A6004229A60FFF7A2FFB00714D5A905DC
:1045600012D523681A6822F400721A6002229A6037
:10457000E36BE363012384F83930002384F8383097
:1045800023690BB120469847F20613D5EB0411D5E9
:10459000236820461A6822F480521A6010229A601A
:1045A000E36BE363012384F83930002384F8383067
:1045B000FFF776FF70BD0000F0B590F83820034695
:1045C0000220012A2BD0012283F839000E011C4F52
:1045D00083F8382003EB0112D2E90740556A44EA18
:1045E0000040093C012C96BF05F07F4240EA05607F
:1045F00010431A68A1B9516A012C01EA070141EA86
:10460000000151629969916103D8596A21F07F4193
:1046100091620122002083F8392083F83800F0BD30
:10462000D169012C01EA070141EA0001D16103EBE4
:10463000060189691161ECD825F07F451562E8E72C
:10464000F0FFFC002DE9F74F0023DFF8BC916C4A26
:1046500001240D689C4004EA0506AC4340F0B78095
:104660004D6803274FEA430E05F0030407FA0EFCDA
:10467000671E6FEA0C0C012F34D8876807EA0C0814
:10468000CF6807FA0EF747EA08078760476827EA06
:104690000608C5F300179F4047EA08074760C76848
:1046A000022C07EA0C088F6807FA0EF747EA08079A
:1046B000C76019D14FEAD30803F0070A4FF00F0B78
:1046C00000EB88084FEA8A0AD8F820700BFA0AFB38
:1046D00027EA0B0B0F6907FA0AF747EA0B07C8F836
:1046E000207001E0032CDAD1076804FA0EF415F407
:1046F000403F07EA0C0744EA0704046067D0D9F892
:10470000444023F0030703F0030C4FF00F0E44F472
:10471000804407F180474FEA8C0CC9F8444007F504
:104720009C37D9F844400EFA0CFE04F480440194FE
:10473000019CBC6824EA0E0E324CA0424ED004F517
:104740008064A0424CD004F58064A0424AD004F5B5
:104750008064A04248D004F58064A04246D004F5AD
:104760008064A04244D004F58064A04242D004F5A5
:104770008064A04240D004F58064A0423ED004F59D
:104780008064A04214BF0A24092404FA0CF415F42E
:10479000801F44EA0E04BC606FEA060794680CBFF1
:1047A0003C40344315F4001F9460D4680CBF3C4077
:1047B000344315F4003FD46054680CBF3C4034438C
:1047C000ED035460146854BF3C403443146001331B
:1047D000102B7FF43DAF03B0BDE8F08F0024D4E789
:1047E0000124D2E70224D0E70324CEE70424CCE757
:1047F0000524CAE70624C8E70724C6E70824C4E757
:10480000003C014000000240003802402DE9F04F1A
:1048100000224FF0010A4FF00F084FF0030B464CF7
:104820000AFA02FC3CEA01030CEA01066CD122F010
:10483000030502F0030705F18045BF0005F59C352F
:1048400008FA07F9AB6809EA030E3C4B984260D0BE
:1048500003F5806398425ED003F5806398425CD094
:1048600003F5806398425AD003F58063984258D08C
:1048700003F58063984256D003F58063984254D084
:1048800003F58063984252D003F58063984250D07C
:1048900003F5806398420CBF09230A23BB4073458C
:1048A00013D1236823EA06032360636823EA06031F
:1048B0006360E36823EA0603E360A36823EA060370
:1048C000A360AB6823EA0903AB6053000568D60810
:1048D0000BFA03F300EB860625EA0305056002F0F8
:1048E0000705376AAD0008FA05F527EA05073762BC
:1048F000C56825EA0305C560456825EA0C054560DD
:10490000856825EA030383600132102A88D1BDE857
:10491000F08F0023C2E70123C0E70223BEE7032391
:10492000BCE70423BAE70523B8E70623B6E7072365
:10493000B4E70823B2E700BF003C0140000002409A
:104940000369194214BF0120002070470AB1816138
:1049500070470904FBE7436901EA030221EA030106
:1049600041EA02418161704703689A69910701D564
:1049700000229A629A69D20703D49A6942F001022E
:104980009A61704730B5039DC1F3090104682B4358
:10499000606843EA0243054A0B4342EA555223F05A
:1049A000004320EA02000343636030BDFF63FF035E
:1049B00003682DE9F0419C6905460F46164614F040
:1049C00010046FD000241022A046DA612B689A6987
:1049D000900661D4B8F1000F35D044F004040120F2
:1049E0002E68B369D90505D54FF4807244F00104EF
:1049F0000120F2615A0505D54FF4806244F00804A5
:104A00000120F2619B054FD54FF4007344F002047E
:104A1000F3612846FFF7A8FF7368012023F0FF73B6
:104A200023F48B3323F4FF7323F0010373606B6C67
:104A300023436B64202385F84130002385F84230FE
:104A400085F8403032E07A1CC1D0FFF787FB801B2D
:104A5000B84201D8002FB9D12B68596895F8422087
:104A60009869D2B200040AD5490408D4202A06D095
:104A70005A6842F480425A60FFF770FB06462B6882
:104A80009B699B06A2D4FFF769FB801B1928F6D906
:104A900020244FF0010899E7B8F1000F9DD12022A2
:104AA000DA619AE720469BE70028B2D1BDE8F081A1
:104AB00070B504460D46164623689B699B0701D5D1
:104AC00000201BE0324629462046FFF771FFA0B9BF
:104AD0006A1CF1D0FFF742FB801BA84201D8002DD1
:104AE000EAD1636C43F020036364202384F84130EF
:104AF000002384F8423084F84030012070BD70B546
:104B000004460D46164623689B699B0601D5002086
:104B100019E0324629462046FFF74AFF90B9FFF7D1
:104B20001DFB801BA84201D8002DECD1636C43F023
:104B300020036364202384F84130002384F842304A
:104B400084F84030012070BD2DE9F041069F0446F5
:104B5000884616461D462268936938EA03030CBF4F
:104B600001230023B34201D0002015E06B1CF3D0D9
:104B7000FFF7F4FAC01BA84201D8002DEBD1636CFB
:104B8000012043F020036364202384F84130002394
:104B900084F8423084F84030BDE8F08110B5044616
:104BA00000284AD090F8413003F0FF021BB980F88A
:104BB0004020FCF7A5F8242384F8413023681A68C4
:104BC00022F001021A60626822F070621A619A682B
:104BD00022F400429A60D4E90221012924D142F44E
:104BE00000429A605A68002042F0007242F400428B
:104BF0005A60DA6822F40042DA60D4E904210A43F8
:104C0000A16942EA0122DA60D4E907210A431A6065
:104C10001A6842F001021A602023606484F841306F
:104C2000206384F8420010BD42F4044202299A60D5
:104C3000D8D14FF400625A60D4E70120F3E710B5F1
:104C4000044698B10268242380F84130136823F0A9
:104C500001031360FCF798F80020606484F84000BA
:104C600084F84100206384F8420010BD0120FCE775
:104C70002DE9F74F994690F8413004460F46202B16
:104C80001646BDF834A0DDF8388040F0C6800C9B95
:104C900013B1BAF1000F06D14FF400736364012021
:104CA00003B0BDE8F08F90F84030012B00F0B580E4
:104CB0004FF0010B80F840B0FFF750FA192305467A
:104CC00000905A464FF400412046FFF73DFF002870
:104CD000E5D1212360635FFA89F2394684F84130D7
:104CE000402384F842300C9B6064204663624C4B46
:104CF000A4F82AA000934FF08073FFF743FE2A46E2
:104D000041462046FFF7D4FE18BBB9F1010F2368D6
:104D100015D1F6B20022802120469E6243460095BE
:104D2000FFF712FFA8B9638D9BB2FF2B15D8628DD8
:104D30004FF0007392B22285D2B2009012E0320A94
:104D4000414620469A622A46FFF7B2FE08B9236818
:104D5000DFE7002384F84030A1E7FF224FF08073A3
:104D60002285009039462046FFF70CFE2A46414630
:104D70002046FFF79DFE002891D1636A226813F850
:104D8000011B91626362638D228D013B013A9BB2EC
:104D900092B26385638D22859BB2B3B1AAB94346B3
:104DA000802120460095FFF7CFFE00287FF477AFE3
:104DB000638D9BB2FF2B28D9FF224FF08073228591
:104DC000009039462046FFF7DDFD638D9BB2002B36
:104DD000CCD12A4641462046FFF791FE00287FF4B9
:104DE0005EAF23682021D9615A6822F0FF7222F455
:104DF0008B3222F4FF7222F001025A6084F84110D3
:104E000084F8400084F842004AE7628D4FF0007356
:104E100092B22285D2B20090D3E7022040E700BFD1
:104E2000002000802DE9F74F994690F84130044664
:104E30000F46202B1646BDF834A0DDF8388040F030
:104E4000C9800C9B13B1BAF1000F06D14FF4007367
:104E50006364012003B0BDE8F08F90F84030012B6F
:104E600000F0B8804FF0010B80F840B0FFF776F902
:104E70001923009005465A464FF400412046FFF79B
:104E800063FE03460028E4D122226063394684F899
:104E90004120402284F842200C9A606420466262DD
:104EA0004D4AA4F82AA000925FFA89F2FFF76AFD42
:104EB0002A4641462046FFF7FBFD20BBB9F1010F12
:104EC000236816D1F6B20022402120469E62434656
:104ED0000095FFF739FEB0B9638D9BB2FF2B3F4BB6
:104EE00015D8628D92B22285D2B200934FF0007332
:104EF00012E0320A414620469A622A46FFF7D8FD60
:104F000008B92368DEE7002384F84030A1E7FF22D8
:104F1000228500934FF0807339462046FFF732FD1B
:104F200043460022042120460095FFF70DFE00288D
:104F30008FD123685A6A636A1A70636A228D0133BB
:104F4000013A6362638D92B2013B22859BB2638515
:104F5000638D9BB2B3B1AAB9434680212046009528
:104F6000FFF7F2FD00287FF474AF638D9BB2FF2B37
:104F700028D9FF224FF080732285009039462046C1
:104F8000FFF700FD638D9BB2002BC9D12A46414635
:104F90002046FFF7B4FD00287FF45BAF2368202193
:104FA000D9615A6822F0FF7222F48B3222F4FF7228
:104FB00022F001025A6084F8411084F8400084F81D
:104FC000420047E7628D4FF0007392B22285D2B261
:104FD0000090D3E702203DE70020008000240080FD
:104FE00010B590F841200346202AD4B21CD190F885
:104FF0004020012A18D0242280F84120026810683D
:1050000020F001001060106820F4805010601068DB
:10501000014300201160116841F00101116083F823
:10502000414083F8400010BD0220FCE710B590F825
:1050300041200346202AD4B21BD190F84020012AF7
:1050400017D0242280F841200268106820F0010067
:105050001060106820F4706040EA012100201160A7
:10506000116841F00101116083F8414083F840006C
:1050700010BD0220FCE7D2010068D1F800C08432E4
:1050800083182DE9F043C6680CF101075D684FF005
:10509000000E4C68C6F30B4605F47045D1F8189025
:1050A00026445D60C568C5F30B453D4445EA0645A9
:1050B0005D60C668CD68C6F30A062E449D6805F497
:1050C00070459D608D68C7680135C7F30A073D4488
:1050D00045EA06450E699D601D6925F007051D61BD
:1050E0001E619D6991F8327091F83180C3F818E023
:1050F00091F8305045EA096545EA082545EA074533
:105100009D615D6925F0FF055D614D695D61DD694A
:1051100025F4E06525F00705DD61D1E907573D433A
:10512000DD619D6A4D6AC3F828E09D621EB3012EC1
:1051300023D0B51E022D22D9072E14BF012502252A
:10514000DE6AA4EB0C0406F0E0266C43DE62033456
:105150008E6AC96A6E4344EA0644DC621C6B24F41E
:10516000FF6424F007041C631963835843F00103B0
:105170008350BDE8F0830425E2E70325E0E702253C
:10518000DEE7000038B50446002863D090F8A1306F
:1051900003F0FF021BB980F8A020FBF711FE0223E9
:1051A00084F8A13023689A6922F070429A61996963
:1051B000D4E901200243E0680243206902436069A8
:1051C0000A4325499A619A680A409A609A6842EAB5
:1051D0000042A0690243E0699A60DA680A40DA6036
:1051E000DA6842EA0042206A0243606ADA601A69B9
:1051F0000A401A611A6942EA0042A06A02431A612F
:105200005A690A40E16A5A615A6942EA0142216BCD
:105210000A435A61DA6A94F8350002F07F4294F842
:105220003610DA62DD6A94F834202A4342EA00221A
:10523000002042EA0142DA625A6B42F006025A63E7
:105240009A6942F001029A610123C4F8A40084F82B
:10525000A13038BD0120FCE700F800F0704770472E
:10526000036870B59E6B04465D6B720714D56907C1
:1052700012D55A6B22F004025A630422DA63D0F882
:10528000A43043F00103C0F8A430002380F8A1202B
:1052900080F8A030FFF7E2FFB20716D5AB0714D5B0
:1052A000236820465A6B22F002025A630222DA6314
:1052B000D4F8A4301343C4F8A430042384F8A130F4
:1052C000002384F8A030FFF7C9FFF00710D5E907E5
:1052D0000ED5236820465A6B22F001025A63012240
:1052E000DA63002384F8A12084F8A030FCF7E4FE00
:1052F000320711D52B070FD5236820465A6B22F0B1
:1053000008025A630822DA63012384F8A1300023DB
:1053100084F8A030FFF7A3FF70BD2DE9F04190F8AD
:10532000A03006460F469446012B4FF002001FD0D6
:1053300034244FF001080D4686F8A10004FB0264F6
:1053400086F8A08038340FCD0FC40FCD0FC40FCD19
:105350000FC42B683046624639462360FFF78BFE48
:1053600033680020C3F8248086F8A18086F8A00066
:10537000BDE8F08190F8A02003460220012A12D057
:105380001A6883F8A100506B20F0010050630648B2
:1053900001640020516B41F001015163012283F847
:1053A000A00083F8A120704700680140194B37B571
:1053B0001A6C194C42F080521A641B6C03F0805333
:1053C0000193019B236843F480332360FEF7C6FEFC
:1053D00005466368DA030CD523680F4D43F40033A8
:1053E0002360FEF7BBFE04466B689B030AD50020D2
:1053F00006E0FEF7B3FE401BB0F57A7FE9D9032043
:1054000003B030BDFEF7AAFE001BB0F57A7FEBD9E2
:10541000F5E700BF00380240007000402DE9F0477A
:105420004E6A36B1B2F1406F03D08B6A0468013B1B
:105430002361D1F818A0D1E9077EBAF1000F4CD052
:105440004C6905684FEA844C4AEA06040B68D1F8B7
:10545000348044EA020AD1E90B09BEF1000F24D0DE
:105460008E684AEA0E04EE610E699FB13B43034326
:10547000C86843EA090343EA08033343034343EAA2
:105480000C032343B2F1406F6B6101D04B68AB61F9
:10549000BDE8F087034343EA090343EA08033343C3
:1054A00043EA0C0323436B61F2E767B13B430343D9
:1054B000C86843EA090343EA0803034343EA0C03C9
:1054C00043EA0A03DEE7034343EA090343EA080425
:1054D00044EA0C0343EA0A03E5E7BEF1000F2CD0CF
:1054E00046EA0E058B6804684E691543E361D1F8FE
:1054F00034C0B6040B69D1E90B8EA7B13B43C86831
:10550000B2F1406F43EA080343EA0E0343EA0C0397
:1055100043EA000343EA060343EA05036361B7D0A5
:105520004B68A361B4E743EA080343EA0E0343EA86
:105530000C0333432B436361AAE7D7B146EA070361
:10554000CC6A0068B2F1406F43EA020343EA040305
:105550000C6B43EA04034C6B43EA0403CC6843EA54
:1055600004034C6943EA8443436191D04B688361EF
:105570008EE7002E8CD0CB6A0068334313430A6B4E
:1055800013434A6B13434A6943EA824343617FE70B
:105590002DE9F041DDF8188004460E4615461F46F9
:1055A00022689368334214BF01230023AB4201D128
:1055B000002012E0B8F1FF3FF3D0FEF7CFFDC01B93
:1055C000404502D8B8F1000FEAD10423012084F845
:1055D0004130636C43F001036364BDE8F081000077
:1055E00037B50446FEF7BAFD0546002C46D094F8C0
:1055F000413003F0FF023BB9204684F84020FBF71E
:105600008DFC41F28833A36421682046A3680A68B0
:10561000013B22F4F85242EA0322A36C0A60002202
:10562000009320212B46FFF7B3FF10BB2268E569EA
:10563000E36811682B43256A21F07F412B4365689D
:1056400021F0D00143EA05630B4313605568D4E9A8
:1056500005310B43216943EA0143094929400B43C2
:105660005360136843F0010313600123606484F8FE
:105670004130002384F8403003B030BD0120FBE707
:10568000FEF8E0FF10B5044668B10268136823F025
:1056900001031360FBF7B0FC0020606484F8410054
:1056A00084F8400010BD0120FCE72DE9F3470446D3
:1056B0008A469046FEF752FD94F840300746012B8B
:1056C00036D00123022684F8403094F84130012B73
:1056D0005FFA83F928D10022034620212046626424
:1056E00084F84160CDF80080FFF752FF0546A0B96D
:1056F000024651462046FFF791FEDAF8243053B9AE
:105700003B464A4631462046CDF80080FFF740FF31
:1057100060B92368DE6084F84190002384F840304B
:10572000284602B0BDE8F0873546F6E70546F4E7BF
:105730000225F5E72DE9F74304461F46894615463D
:10574000FEF70CFD94F840300646012B41D00123B2
:1057500084F8403094F84130012B5FFA83F836D159
:10576000422300222021626484F8413003460097DE
:105770002046FFF70DFF20BB226820462B682969D1
:1057800093626B685362AB68D362136823F440037F
:105790000B43494643F4800313604FF00062EB680B
:1057A000C9F82830FFF73AFE334642460821204622
:1057B0000097FFF7EDFE20B923680822DA6084F82D
:1057C0004180002384F8403003B0BDE8F08302201C
:1057D000F7E70220F8E7F7B5044616460F46FEF74E
:1057E000BDFC94F840200346012A33D0012284F8FE
:1057F000402094F84120012A2AD10022822120460B
:10580000626484F84110A16C00912021FFF7C0FE72
:105810000546B8B9236872681868082A20F008009D
:1058200040EA0200186007D132681A631022DA6079
:105830001A6842F480121A604FF0406239462046DE
:10584000FFF7ECFD002384F84030284603B0F0BD9C
:105850000225F7E70225F8E737B50446FEF77EFC98
:10586000054694F84130980734D5002384F8403039
:1058700023681A68510707D51A68E06B22F0040202
:105880001A60FEF790FD40BB002023689A689206DC
:1058900028D51A680221204642F002021A6001222D
:1058A000A36C00932B46FFF773FEA0B92368022276
:1058B0002021DA600246A36C204600932B46FFF7B6
:1058C00067FE40B92268536923F0406353610123A6
:1058D00084F84130002003B030BD636C43F0040312
:1058E0006364D2E7012384F84130F4E72DE9F34102
:1058F000044688461746FEF731FC94F840300646C9
:105900002568012B4FD0012384F8403094F84130B2
:10591000012BD8B245D100236364B8F1000F3BD00E
:10592000122384F841302B690133E3622B69C4F8F8
:1059300024800133A3626B6923F040636B61E36AE7
:10594000B3B933460122022120460097FFF720FE1B
:1059500028B9236802222046DA60FFF77DFF012381
:1059600084F84130002384F8403002B0BDE8F08173
:1059700033460122042120460097FFF709FE002844
:10598000EDD1636A1B7885F82030636A0133636266
:10599000E36A013BE362D2E7636C43F008036364AC
:1059A000E0E70220DEE70220DFE72DE9F3410446CD
:1059B00016468846FEF7D2FB25680746AA6994F882
:1059C0004030012B52D0012384F8403094F841300C
:1059D000012BD8B248D100236364B8F1000F3ED048
:1059E000222384F841302B690133A3632B69C4F867
:1059F000308001336363696921F0406141F0806167
:105A00006961AA61A36BB3B93B460122022120461A
:105A10000096FFF7BDFD28B9236802222046DA6010
:105A2000FFF71AFF012384F84130002384F8403047
:105A300002B0BDE8F0813B460122062120460096D7
:105A4000FFF7A6FD0028EDD195F82020236B1A70F2
:105A5000236B01332363A36B013BA363D2E7636C26
:105A600043F008036364E0E70220DEE70220DFE79B
:105A70002DE9F341044640B30368DE0710D42368E0
:105A80009D0761D42368190700F1A68023685A078F
:105A900000F1C780A269002A40F0308100202CE08C
:105AA000944B9A6802F00C02042A07D09A6802F01C
:105AB0000C02082A0BD15B68590208D58D4B1B6874
:105AC0009A03DCD56368002BD9D1012015E0636807
:105AD000884DB3F5803F13D12B6843F480332B609E
