:020000040800F2
:100000000000052055110008711000087310000849
:100010007510000877100008791000080000000033
:10002000000000000000000000000000016B00085C
:100030007B10000800000000A16B0008056C0008A0
:10004000A5110008A5110008A5110008A5110008B8
:10005000A5110008A5110008A5110008A5110008A8
:10006000A5110008A5110008A5110008A511000898
:10007000A5110008A5110008A5110008A511000888
:10008000A5110008A5110008A5110008A511000878
:10009000A5110008A5110008A5110008A511000868
:1000A000A5110008A5110008A5110008A511000858
:1000B000A5110008A5110008A5110008A511000848
:1000C000A5110008A5110008A5110008A511000838
:1000D000A5110008A5110008A5110008A511000828
:1000E000A5110008A5110008A5110008A511000818
:1000F000A5110008A5110008A5110008A511000808
:10010000A5110008A5110008A5110008A5110008F7
:10011000A5110008A51100087D100008A511000810
:10012000A5110008A5110008A5110008A5110008D7
:10013000A5110008A5110008A5110008A5110008C7
:10014000A5110008A5110008A5110008A5110008B7
:10015000A5110008A5110008A5110008A5110008A7
:10016000A5110008A5110008A5110008A511000897
:10017000A5110008A5110008A51100080000000045
:10018000A5110008A5110008A5110008A511000877
:10019000A5110008A5110008A5110008A511000867
:1001A00089100008A511000895100008A511000885
:1001B000A5110008A5110008A5110008A511000847
:0801C000A5110008A5110008BB
:1001D00010B5054C237833B9044B13B10448AFF381
:1001E00000800123237010BD2401002000000000C6
:1001F000E411020808B5034B1BB103490348AFF3F0
:10020000008008BD0000000028010020E411020861
:1002100001F0FF01102A2BDB10F0070F08D010F8B7
:10022000013B013A8B422DD010F0070F42B3F6D1BB
:10023000F0B441EA012141EA014122F007047FF0D4
:1002400000070023F0E80256083C85EA010586EA2B
:10025000010685FA47F5A3FA87F586FA47F6A5FA67
:1002600087F68EB9EED1F0BC01F0FF0102F0070273
:1002700032B110F8013B013A83EA010313B1F8D11E
:100280000020704701387047002D06BF35460338FF
:10029000073815F0010F07D1013015F4807F02BF38
:1002A000013015F4C03F0130F0BC0138704700BF89
:1002B00053B94AB9002908BF00281CBF4FF0FF31CD
:1002C0004FF0FF3000F06AB9ADF1080C6DE904CED3
:1002D00000F006F8DDF804E0DDE9022304B0704721
:1002E0002DE9F047089D0C46002B4ED194468C45D5
:1002F0008646B2FA82F262D94AB1C2F12003914035
:1003000020FA03F30CFA02FC194300FA02FE4FEA4A
:100310001C471FFA8CF6B1FBF7F44FEA1E4307FBAC
:10032000141143EA014304FB06F199420AD91CEB7C
:10033000030304F1FF3080F01281994240F20F81F3
:10034000023C6344591A1FFA8EF3B1FBF7F007FB26
:10035000101143EA014300FB06F69E420AD91CEB4A
:10036000030300F1FF3180F0FC809E4240F2F980EF
:10037000634402389B1B40EA044000211DB1D34076
:100380000022C5E90032BDE8F0878B4205D90DB1E6
:10039000C5E9000100210846F5E7B3FA83F1002919
:1003A00046D1A34202D39042C0F0F080861A64EB9B
:1003B00003030120002DE6D0C5E90063E3E7002A2E
:1003C00040F09080A1EB0C044FEA1C481FFA8CF718
:1003D0000121B4FBF8F64FEA1E4308FB164443EA3A
:1003E000044307FB06F0984208D91CEB030306F10F
:1003F000FF3402D2984200F2CD8026461C1A1FFA22
:100400008EF3B4FBF8F008FB104443EA044300FB0E
:1004100007F79F4208D91CEB030300F1FF3402D217
:100420009F4200F2B0802046DB1B40EA0640A5E771
:10043000C1F120068B4022FA06F71F4320FA06FC82
:1004400004FA01F343EA0C03F44000FA01F8380C13
:100450004FEA1349B4FBF0FE1FFA87FC00FB1E4471
:1004600049EA04440EFB0CF9A14502FA01F20AD94B
:100470003C190EF1FF3A80F08480A14540F2818062
:10048000AEF1020E3C44A4EB09041FFA83F9B4FB5D
:10049000F0F300FB134449EA044403FB0CFCA445BD
:1004A00007D93C1903F1FF3067D2A44565D9023B57
:1004B0003C4443EA0E40A0FB0293A4EB0C049C4294
:1004C000CE469C4651D34ED055B1B8EB0E0364EBEB
:1004D0000C0404FA06F6CB401E43CC40C5E9006488
:1004E000002150E7C2F1200320FA03F10CFA02FCCC
:1004F00024FA03F394400C434FEA1C4800FA02FE2E
:100500001FFA8CF7B3FBF8F008FB1031230C43EA19
:10051000014300FB07F1994208D91CEB030300F1EA
:10052000FF362CD299422AD9023863445B1AA4B20E
:10053000B3FBF8F108FB113344EA034401FB07F372
:10054000A34208D91CEB040401F1FF3613D2A342E5
:1005500011D902396444E41A41EA004139E70446FA
:10056000F0E6084606E7C845AED2B9EB020E63EBEB
:10057000070C0138A8E73146EDE7034699E7304616
:10058000D4E7D6467FE7634402384DE70646234664
:1005900008460FE7023E634430E700BF704700BFE4
:1005A0000149002007F034BC5116000808B564204A
:1005B00005F052FFFBE7000010B594B010220021B7
:1005C00002240AA820F08AF81422002103A820F0AF
:1005D00085F81D4B192108A81A6C42F080521A6444
:1005E0001B6C03F080530193019B184B1A6842F473
:1005F00040421A6001221B6803F440430293029BAD
:100600004FF48033CDE908234FF48003CDE90E4346
:100610004FF4D873CDE91244CDE9101304F0E2FE93
:1006200004F07EFB0F2300200721CDE903344FF4B3
:10063000A053CDE905034FF4805303A8079305F0B9
:10064000B9F814B010BD00BF00380240007000407F
:100650002DE980489BB01022002101250DA84FF004
:10066000104920F03BF8002403F0C0FAC74B0DA856
:10067000ADF834501094CDE90E9303F0D5FA17235A
:100680000DA88DF835508DF83C308DF8425003F0B0
:10069000CBFA042003F0B8FABFF34F8FBFF36F8F8C
:1006A000BB4AC2F85042BFF34F8FBFF36F8F5369FD
:1006B00043F400335361BFF34F8FBFF36F8FC2F822
:1006C0008440BFF34F8FD2F8803043F6E074C3F319
:1006D000C900C3F34E335B0103EA0406014646EA50
:1006E00081750139C2F86052F9D2203B13F1200F15
:1006F000F2D1BFF34F8F536943F480335361BFF39B
:100700004F8FBFF36F8F03F0D7F90024FFF754FF2B
:10071000142200210DA81FF0E1FF9E4B10219E48DE
:100720001A6B01274FF010084FF0030B42F0100234
:100730004FF4805A994D4FF004091A631A6B984E82
:1007400002F010020292029A1A6B42F002021A633D
:100750001A6B02F002020392039A1A6B42F0010232
:100760001A631A6B02F001020492049A1A6B42F0A7
:1007700040021A631A6B02F040020592059A1A6B46
:1007800042F400721A631A6B02F400720692069A1F
:100790001A6B42F008021A631A6B02F00802079201
:1007A000079A1A6B42F480621A631A6B02F4806231
:1007B0000892089A1A6B42F020021A631A6B02F030
:1007C00020020992099A1A6B42F480721A631A6B1A
:1007D00002F480720A920A9A1A6B42F080021A633B
:1007E0001A6B02F080020B920B9A1A6B42F0040211
:1007F0001A6300221B6B03F004030C930C9B03F0A1
:100800005FFD01220821674803F05AFD01224FF4E1
:100810008051654803F054FD0022C021634803F075
:100820004FFD00224021624803F04AFD0DA95A48BD
:10083000CDE90D87CDE90F4B03F0BEFB08230DA9D1
:100840005848CDE90D37CDE90F4403F0B5FB0DA9AC
:100850005548CDE90DA7CDE90F4403F0ADFBC0220B
:100860000DA95248CDE90D27CDE90F4B03F0A4FBAC
:1008700040220DA94E48CDE90D27CDE90F4B03F0DD
:100880009BFB4C484C49848001600762C0E90544E9
:1008900003F0F6F949492846C5E90014C5E90244C0
:1008A000C5E90A44C5E90C4403F087FA39462846ED
:1008B000434D03F03BFB40234FF4C07241493046A7
:1008C000B460F461B462C6E905324FF40062C6E96F
:1008D000082A4FF0020A0722C6E900140DA9CDF834
:1008E0004CA0C6E90398CDE90DA2CDE90F92CDE960
:1008F00011BA05F0B5FA29464FF6FF723046019459
:10090000C5E90078C5E9027405F0CAFA384603F073
:10091000F7F829464FF6FF723046C5E900A8C5E949
:10092000027405F0BDFA082329464FF6FF723046DF
:10093000C5E900B8C5E9023405F0B2FA4FF40C730A
:100940004FF6FF72294601933046019BAF60EB6082
:10095000C5E9009805F0A4FA40F22B7130461A4D13
:1009600005F0BDFA4FF0204343F2D202642040F27A
:1009700015261A6003F0C4F8144B154A28462C6259
:10098000C5E90023C5E9024724E000BF1B000003BE
:1009900000ED00E00038024000040240D4020020D4
:1009A00058010020002802400020024000080240B8
:1009B00000180240140300200030024000B0024042
:1009C00040010020400100A0800200206847402034
:1009D000005C0040C5E90444C5E9064403F098FD05
:1009E0002146284603F0B6FF214628463B4D03F03A
:1009F000D7FF342221460DEB02001FF06FFE384B6B
:100A00002821352040F2352C2C61AC8685F8364003
:100A1000C5E900340923C5E905130B23C5E907031C
:100A200040F21B132846C5E9096340F21D13C5E9CE
:100A30000244C5E90BC304F05FF8FF214FF4806E58
:100A40004FF4F0724FF4887328460D941893ADF864
:100A500064408DF86640CDE912140521CDE914E11A
:100A60004FF04041CDE90E24CDE9161222460DA9E2
:100A7000CDE9103A04F00BF91A481B4B0462C0E9A7
:100A80000037C0E902984FF4A0634FF01808C0E99E
:100A90000644C0E9048304F05DFA02F08DFE02F022
:100AA000D3FD5C2003F090F800F052FB00F07CFBDB
:100AB00000F079FB05F042FC0C4A21460C4805F099
:100AC00077FC0C4B0C4A214618600C4805F070FC72
:100AD0000B4B186005F04CFCFEE700BFD80100206E
:100AE000006801408C010020001000A07C12020868
:100AF000AD0500085401002058120208B711000883
:100B0000500100200268034B9A4201D102F0E6BF77
:100B1000704700BF00100040704700000D4B82B0CE
:100B20000F216FF001001A6C42F080521A641A6CA7
:100B300002F080520092009A5A6C42F480425A6449
:100B400000225B6C03F480430193019B02B002F02E
:100B5000FBBF00BF00380240026882B0084B9A42D7
:100B60000BD1D3F8302803F5006342F480521A63A6
:100B70001B6B03F480530193019B02B0704700BFCD
:100B8000003002400E4B07B502689A4215D1A3F51A
:100B9000F04305215A201A6B42F400021A63002226
:100BA0001B6B03F400030193019B02F0CDFF5A205D
:100BB00003B05DF804EB02F0F9BF03B05DF804FB8D
:100BC00000B0024010B5A8B004461422002102A8CB
:100BD0001FF084FD8422002107A81FF07FFD2268FA
:100BE000174B9A422AD14FF4803307A8079304F099
:100BF000ADFE08B1FFF790FF124C4FF4C072012117
:100C00001148236B43F080032363236B03F08003BD
:100C10000093009B1223CDE902230323CDE90413A3
:100C2000042302A9069303F0C7F9236C43F40003DD
:100C30002364236C03F400030193019B28B010BDCF
:100C4000005C004000380240001C0240026808B509
:100C5000094B9A420FD1094A80210948136C23F4A9
:100C60000003136403F08CFA4FF480710448BDE86C
:100C7000084003F085BA08BD005C0040003802401F
:100C8000001C024070B5ACB004461422002106A836
:100C90001FF024FD842200210BA81FF01FFD2268F5
:100CA000484B9A4240F08C800823052001240B9386
:100CB0004FF4C07310930223CDE911304FF4003389
:100CC0000BA8CDE9154304F041FE08B1FFF724FF5E
:100CD0003D4B002402250E265A6C06A93B4842F0E3
:100CE00080625A645A6C02F080620092009A1A6B19
:100CF00042F010021A631A6B02F010020192019A7C
:100D00001A6B42F400721A631A6B02F400720292B8
:100D1000029A1A6B42F480621A631A6B02F48062C0
:100D20000392039A1A6B42F040021A631A6B02F0A4
:100D300040020492049A1A6B42F480721A631B6B8D
:100D400003F480730593059B1023CDE90635CDE9A7
:100D500008440A9603F030F94EF6FF7306A91C48C2
:100D60000A96CDE90635CDE9084403F025F9F723C5
:100D700006A918480A96CDE90635CDE9084403F0DE
:100D80001BF94FF4805306A91348CDE90635092312
:100D9000CDE908440A9303F00FF94FF4464306A93E
:100DA0000E480A96CDE90635CDE9084403F004F96A
:100DB00058202246052102F0C7FE582002F0F6FE18
:100DC0002CB070BD006801400038024000100240A5
:100DD0000024024000280240001802400020024087
:100DE000142200212DE9F0418AB004460DEB0200E7
:100DF0001FF074FC22682C4B9A4251D12B4B0225D8
:100E0000032409269A6B4FF0040805A9284842F0EC
:100E1000020200279A639A6B02F002020192019A81
:100E20001A6B42F010021A631A6B02F0100202925F
:100E3000029A1A6B42F002021A631A6B02F0020263
:100E40000392039A1A6B42F008021A631B6B03F0B9
:100E500008030493049BCDE90585CDE9084603F01A
:100E6000ABF8402305A91348CDE905350A23CDE9A0
:100E70000774099303F0A0F805A90E480996CDE977
:100E80000585CDE9077403F097F84FF4605305A981
:100E900009480996CDE90535CDE9077403F08CF8CA
:100EA0000AB0BDE8F08100BF001000A00038024089
:100EB0000010024000040240000C0240026808B525
:100EC0000B4B9A4213D10B4A04210B48936B23F02E
:100ED0000203936303F054F94421084803F050F9E6
:100EE0004FF460510648BDE8084003F049B908BD19
:100EF000001000A000380240001002400004024030
:100F0000000C0240F0B5002387B00393294B1E6804
:100F1000002E4DD10122022703250C241A6001A9BD
:100F2000254B26489A6B42F001029A639B6B03F0B3
:100F300001030093009B4FF68373CDE90454CDE980
:100F4000013703F039F848F2331301A91C4805941E
:100F5000CDE90137CDE9036503F02EF84CF20373B8
:100F600001A918480594CDE90137CDE9036503F0DF
:100F700023F84FF63F0301A913480594CDE9013743
:100F8000CDE9036503F018F8282301A90F4805945B
:100F9000CDE90137CDE9036503F00EF8082301A977
:100FA0000B480594CDE90137CDE9036503F004F85A
:100FB00007B0F0BD380300200038024000100240A6
:100FC00000180240000C024000140240001C0240C5
:100FD00000080240214B1A6C42F0100270B51A64EE
:100FE00088B01B6C054601A903A803F01003029307
:100FF000029B04F08DFC069B4BBB04F079FC184E61
:10100000184B336040F2E733F360174BB0FBF3F358
:10101000013B3046736000233361B360B36105F078
:10102000CFF8044680B9304604F072FF044658B940
:10103000362002F0BBFD0F2D0DD822462946362062
:1010400002F082FD094B1D60204608B070BD04F01F
:101050004FFC4000D3E70124F6E700BF0038024010
:101060003C0300200010004040420F003C000020E4
:101070007047FEE7FEE7FEE7FEE77047014804F031
:1010800089BF00BF3C030020014803F0A3BD00BF9F
:10109000D8010020014802F0BEBE00BFD4020020EB
:1010A0000120704708B51FF0BBFB162303604FF00B
:1010B000FF3008BD08B51FF0B3FB16230360FEE741
:1010C00070B50D4614460E46731B9C4201DC20464B
:1010D00070BDAFF3008006F8010BF5E770B50D4663
:1010E00014460E46731B9C4201DC204670BD16F868
:1010F000010BAFF30080F5E74FF0FF3070474FF47E
:10110000005300204B60704701207047002070475B
:101110000B4A0346116810B509B90A4911601068F5
:1011200009490A4C0344091B8B4206D91FF078FB7E
:101130000C2303604FF0FF3010BD1360FCE700BFCD
:10114000880300202875012000000520000A000007
:1011500070470000DFF834D0002103E00C4B5B58EF
:10116000435004310B480C4B42189A42F6D30B4AB9
:1011700002E0002342F8043B094B9A42F9D302F003
:10118000B3FB1FF053FBFFF763FA70470000052025
:101190004C36020800000020240100202401002019
:1011A00024750120FEE7704708B500F099FDBDE801
:1011B000084000F021BD00F095BD406870474160D7
:1011C000704700004FF0E022D2F8FC3D43F08073FE
:1011D000C2F8FC3D054B064AD3F8B01F0A43C3F8DA
:1011E000B02F1A6842F001021A607047001000E048
:1011F00055CEACC5521A02EB5302B2FBF3F0704766
:10120000014B5868704700BF001000E0704710B5F0
:1012100004460C211EF05BFA204610BD036810B591
:101220001B69044631B19847A26863689B1A03445E
:10123000636010BD9847A060FBE70000024B702080
:10124000024A1360DB681847100000208C0300205E
:10125000704710B5044604211EF039FA204610BD2F
:1012600073B50E4E0D461446336813B9002002B014
:1012700070BD1B69702098470028F7D03368702034
:1012800001AA0DF106015B699847BDF80430012001
:101290002B60BDF806302360E9E700BF8C03002017
:1012A0007FB501238DF817204FF47A72CDE9013212
:1012B0000DF1170200920A460146054803F092F923
:1012C00010B1034803F075F907B05DF804FB00BFE7
:1012D000800200207FB500230A464FF47A718DF812
:1012E00017300123CDE901310DF1170100910146BD
:1012F000054803F051FA10B1034803F05AF99DF87C
:10130000170007B05DF804FB80020020032823D8F3
:10131000DFE800F0020B131A104B102110481A6876
:10132000B2FA82F2520902F0CBBF0C4B40215A684C
:10133000B2FA82F252090B48F5E7084B80219A680D
:10134000B2FA82F25209F6E7044B40210648DA6805
:10135000B2FA82F25209E6E7704700BF900300201C
:10136000000402400008024000180240032823D86D
:10137000DFE800F0020B131A104B102110481A6816
:10138000003A18BF012202F09BBF0C4B40215A6863
:10139000003A18BF01220B48F5E7084B80219A68F4
:1013A000003A18BF0122F6E7044B40210648DA68EC
:1013B000003A18BF0122E6E7704700BF9003002003
:1013C00000040240000802400018024003280FD821
:1013D000DFE800F00206090B1021064802F075BF95
:1013E00040210548FAE78021FBE740210348F5E763
:1013F000704700BF0004024000080240001802408D
:1014000008B5032813D8DFE800F0020A0D0F1021F9
:10141000084802F04FFF431E5842584108BD402182
:101420000548F6E78021FBE740210448F1E700206A
:10143000F1E700BF0004024000080240001802402B
:1014400070B5084D00240126E0B2FFF7D9FF18B1AE
:101450002B68012B18BF2E6001340435052CF3D105
:1014600070BD00BF90030020012380F8781080F841
:10147000793070470020704741640039024B18BF33
:1014800001211970704700BFEB68012000207047F0
:10149000836B0BB10846184770474FF6FF707047D3
:1014A000406803689B6918477047000038B50446D8
:1014B00000F0E0FC084923682046084DD3F88C3042
:1014C00098470023284684F84A30FFF77BFE012323
:1014D000256184F8703038BD000000C0A0030020F2
:1014E00000F092BC00F096BC70B500F0E1FC104931
:1014F0000023C1F88430BFF34F8FD1F8803043F61A
:10150000E074C3F3C900C3F34E335B0103EA04067E
:10151000024646EA8275013AC1F87452F9D2203B7C
:1015200013F1200FF2D1BFF34F8FBFF36F8F70BD58
:1015300000ED00E000F0BEBC00F042BC00F0BCBC1E
:1015400000F0C4BC00F046BC10B5044608F00EFC28
:1015500023682046D3F8AC30BDE81040184707F0A8
:1015600062BE10B504467C211EF0B1F8204610BDC5
:1015700090F834100D4B10B590F878401A788C42E2
:1015800009D03AB90A490B4A088814881080012208
:101590000C801A7010BD002AFCD0064A0449148839
:1015A00008880C8010800022F3E700BFE468012067
:1015B000E2680120E068012070B50D46194635B992
:1015C000094B40F2D221094A09481EF0EBFDC0E95F
:1015D0000F52003A074B18BF01221A700368BDE88A
:1015E0007040D3F88C301847E01202081813020834
:1015F00066130208EA68012008B5094B1B888B4274
:1016000003D8084B1B88934205D9074B9E21074AF4
:1016100007481EF0C7FD074B1980074B1A8008BD0D
:10162000E0680120E2680120AB1302080E140208F2
:1016300066130208E6680120E8680120034690F876
:101640007A0018B1586803681B6818477047000093
:10165000014608B5034B186801B1012108F0A0FB51
:10166000012008BDEC680120034B00225A609A60FB
:10167000024A1A60704700BFA0030020A8120208A7
:101680000121002208B5084604F0FEFE0A4B18604E
:1016900028B90A4B28210A4A0A481EF083FD002275
:1016A0000421012004F0BAFF074B186018B9074B5A
:1016B0002C21034AF0E708BDB00300202C150208D6
:1016C00075150208A4150208AC030020EF150208E6
:1016D000024B4FF0FF31186804F02EBFB00300201A
:1016E000014B186804F064BFB0030020024B0021D6
:1016F000186804F021BF00BFB0030020FFF7F0BF5F
:101700000023034803491A46006804F0CDBF00BF18
:10171000AC0300200400002013B50023074C01A9EE
:101720001A46206805F002F84FF0FF33002201A9A5
:10173000206804F0FBFF02B010BD00BFAC03002026
:1017400003685B6C18470120704703689B6A184761
:101750000D4B82B01A6B42F400021A631A6B02F44A
:1017600000020192019A1A6942F400021A611A6990
:1017700022F400021A61054B054A1A614FF080629B
:10178000044B9A6002B0704700380240D402002037
:10179000211A000800E100E040F2EF30704700003D
:1017A000054B4FF080620360044BC3F88820BFF301
:1017B0004F8FBFF36F8F70478C17020800E100E076
:1017C00010B504464FF45A61FFF7EAFF20461DF0BA
:1017D0007EFF204610BD000008B50A2809D8DFE8C2
:1017E00000F006100E080808081010101000022063
:1017F00008BD054B8621054A05481EF0D3FC002094
:10180000F6E70120F4E700BF311602084C16020883
:101810009716020838B50C46887FFFF7DDFF174B97
:10182000A58AE28A586342EA054221695A64628BBA
:10183000D963521B1A642568082D0ED19A611A616A
:1018400058620F4A207F42EA0062DA61E2681A6257
:101850000C4A5961D9601A6038BD0022D8611A61FA
:10186000E1680A0A4809C1F3C40102F4784200F4AD
:10187000FC6002430A439A63034AECE700B002406B
:1018800009000100010202000102030008B50B2853
:101890000BD8DFE800F00612100A0A0A0A08080846
:1018A0000808022008BD0520FCE7054B6521054A14
:1018B00005481EF077FC0020F4E70120F2E700BFA6
:1018C00031160208E0160208971602082DE9F041C9
:1018D00091F81D800C464046FFF7D8FFA77F0546CC
:1018E0003846FFF7D3FF06463846FFF775FFA18A53
:1018F000628B434B521A1A649A61228B521A1A61F4
:10190000E28A586342EA014221695A646268D963F3
:10191000DA602068802828D0227F0FD8202866D05F
:10192000402864D004281AD045EA0265344BB845F3
:1019300045F40035DD6160D0324A44E0B0F5807F87
:1019400004D0B0F5007FEFD12F4800E02F4840EAE7
:101950000262DA61E2681A625E62596132E045EA67
:10196000026242F40032DA61F6E7A068021DDA6230
:10197000227F45EA026545F40035DD615E6259610A
:10198000017841B1012921D0214B4FF48871214ABE
:1019900021481EF007FCDA69418822F47F420139B0
:1019A00022F0100242EA01220121DA61144BDA69C5
:1019B00042F02002DA61DA699206FCD410229A60C1
:1019C0000029B9D0154A1A60BDE8F081B2F1FF01D3
:1019D000DA69408822F47F4218BF0121013822F0E1
:1019E000100242EA002242F01002DA61DEE745EA24
:1019F0000262034B42F40032B5E740F20122E2E713
:101A000000B0024001020100090002000A000200C9
:101A10002A1702084417020897160208010202005A
:101A2000024B1B68586803685B691847EC68012023
:101A300070B504460A4B0C300026254660226060D3
:101A40002672667245F8203B294608F0FFFA04F535
:101A50005A63EE6024359D42FBD1204670BD00BF25
:101A60008C170208034B1A68D207FCD423229A6011
:101A7000704700BF00B0024030B5104C2568ED073C
:101A8000FCD423250904FF2BA56041F001014FF090
:101A9000020565636164E0630AD00949656241EA51
:101AA0000363E361074B22626061E060236030BD45
:101AB000E561039BA363044BF8E700BF00B002405D
:101AC000090001000100020001000300012070472D
:101AD0000C2070470C2303FB0100083070470C23D7
:101AE00003FB0100083070470120704742F2EC1000
:101AF000704742F2EC1303FB01000830704742F2DA
:101B0000EC1303FB010008307047012070471020E0
:101B1000704700EB01100830704700EB01100830EF
:101B20007047084600F0AEBB034B10B50446036097
:101B300006F0FBFD204610BD4418020810B504460F
:101B4000FFF7F2FF142120461DF0C1FD204610BD15
:101B5000034B10B50446036006F0E7FD204610BDB8
:101B60001018020810B50446FFF7F2FF42F2F41114
:101B700020461DF0ACFD204610BD0000034B10B503
:101B80000446036006F0D1FD204610BDDC170208B4
:101B900010B50446FFF7F2FF182120461DF097FD0F
:101BA000204610BD094B10B50446036000F50850EF
:101BB0002030FFF7B9FF04F12C00FFF7C9FF04F153
:101BC0001400FFF7DBFF204610BD00BF78180208A5
:101BD00008B50248FFF7E6FF08BD00BF6412002009
:101BE00010B50446FFF7DEFF42F2943120461DF0A7
:101BF0006EFD204610BD00002DE9F34100F0BCF958
:101C00000024054600F0BCF923460146224628463A
:101C100000940FF003FE264B264A2046264D1A60FC
:101C200001F05AFB25480FF061FD2B68BFF35B8F75
:101C3000DB0736D428461DF04CFD90B3204C214FD5
:101C4000214B04F1140007F1180604F12C0823605D
:101C50006060C4F80880E760266106F067FD1B4BF2
:101C60004046636106F062FD194B3846E36206F0B8
:101C70005DFD04F50053174A03F50D70C3F82022EB
:101C800001F07CFC224607F11401304601F090FB84
:101C9000304600F0F7FA10481EF0A2FA28461DF070
:101CA00024FD0E4802B0BDE8F041FFF7FFBB00BFC6
:101CB000506901203004002060120020080000203C
:101CC000641200208434002078180208DC1702080F
:101CD0001018020844180208D11B0008B4030020A1
:101CE00070470000014807F008BB00BFB4030020A4
:101CF00070B5224E224B234C3046234D2360FFF714
:101D000097FE284614F064F8204B00224FF48071AF
:101D10001F481A8683F858205A6683F870205A673D
:101D2000DC60C3E912121B49C3E91A121A49996708
:101D30001A490B604FF4F0710180194801804FF48B
:101D400088711848C3E90422C3E90622C3E90822BE
:101D5000C3E90A22C3E90E22C3E91022C3E914220F
:101D6000C3E91722C3E9016501800F4883F83420D5
:101D700001800E490A700E4A1A6070BDBC04002032
:101D8000D01202085C12002034040020B4030020AA
:101D9000E06801200100000100000101EC68012061
:101DA000E6680120E2680120E8680120E46801207B
:101DB0005C1402080148FFF7F3BC00BFBC0400201C
:101DC000034B902283F85A2383F85823704700BFAF
:101DD00000E100E0094A0A49D3680A48C3F30A034C
:101DE000013B9BB20B801169C1F30A0101390180EB
:101DF0001364536B43F00103536370470068014061
:101E0000FA350020F8350020014BD3F8AC007047BC
:101E100000680140024B0122C3F8AC105A627047BF
:101E200000680140124A5369DB0370B51ED50023D8
:101E3000C2F88430BFF34F8FD2F8803043F6E0749D
:101E4000C3F3C900C3F34E335B0103EA0406014642
:101E500046EA81750139C2F87452F9D2203B13F178
:101E6000200FF2D1BFF34F8FBFF36F8F70BD00BF54
:101E700000ED00E070B5044607F02BFA23685D6EB4
:101E80000CF0CCFB01462046A8472368054A2046B3
:101E9000D3F888500023A2F57F31AC46BDE87040EE
:101EA000604700BF00F807C007F0FAB907F004BAAE
:101EB00007F0BFB907F02FBB034B4FF080629A6069
:101EC0004FF080729A60704700E100E0084B4FF0DD
:101ED0008062C3F88820BFF34F8FBFF36F8F4FF03E
:101EE0008072C3F88820BFF34F8FBFF36F8F7047A6
:101EF00000E100E010B5144C236823B3134B144ADF
:101F00001B6C11888B4213D1124B198802F0ECFE26
:101F1000226892F86A30013382F86A30FFF7F0FBEA
:101F2000206807F023FF0020BDE81040FFF7EEB95E
:101F300002F0DAFE206803681B6A98470020BDE8BB
:101F40001040FFF713BA10BDEC6801200068014093
:101F5000FA350020F8350020704710B504460421FA
:101F60001DF0B5FB204610BD08B519B901F000FA07
:101F7000006808BD0020FCE7004870479818020878
:101F80000420704713B5002451B1036801AA0194DD
:101F90008DF803409C680DF10303A04702B010BD0B
:101FA0000846FBE7C0897047008A7047C0887047C1
:101FB00080887047807A00F07F007047807AC0097F
:101FC00070470020704700009FED010A704700BF76
:101FD00000000000704710B5044608211DF077FB93
:101FE000204610BD7047704700F59873086849682F
:101FF00003C37047704770474160704770470000E7
:10200000064BC0F84801C0F84C310023C0F85031ED
:1020100000F5A273C0F84031704700BFC12000082E
:102020000123037270477047704710B4416803463C
:10203000C2689B68541001EB6200D20748BF0A597E
:102040005DF8044B48BFD35818470346406830B189
:102050009A681AB9D86800F00100704701207047EB
:1020600010B504460C211DF032FB204610BD10B502
:10207000044610211DF02BFB204610BD10B5044670
:102080004FF4AE711DF023FB204610BD10B50CF0CF
:10209000C5FA0368BDE81040DB6B184710B504466D
:1020A000D0F8400158B10368DB68984738B1D4F8DC
:1020B000400103689B6898470023C4F8403110BD75
:1020C0002DE9F14FD0E9556A0746B06803681B6AED
:1020D000984742F2EB13984205D8444BA321444A57
:1020E00044481EF05FF8706803681B6A98470F2821
:1020F00003D8414BA4213E4AF2E7F06803681B6A0B
:1021000098470B2803D83D4BA521394AE8E7DFF86B
:10211000F4900CF083FA04300CF0A5FAD9F8000022
:1021200010B10368DB689847D9F8000010B1036864
:102130001B689847DFF8D080D8F8000010B103681A
:102140005B699847D7F83C0110B103685B68984712
:10215000D8F8000010B103681B689847D7F83C0115
:1021600010B103689B689847F06800214FF0000B9E
:1021700003685B6A9847224B0446C0F804B080F8B5
:1021800008B059460360B06803685B6A9847054623
:1021900001F0A6F97068594603685B6A98470646DD
:1021A000294601F01DF9331DC7F83C612846C9F8DE
:1021B0000040C8F80050CAF800302B68C6F808A0E4
:1021C000DB68EE639847336830461B6898472146C2
:1021D00028460DF0BDFF236820461B6998472368F9
:1021E00020465B6901B0BDE8F04F1847F8180208B7
:1021F00086190208521A0208991A02083C1B0208A2
:10220000541C02083469012030690120044B1B680A
:1022100093F858200AB1D86C00B99868704700BF8D
:10222000EC680120F8B5044617460E460CF0BCFADF
:10223000104B00251C6029460F4B23600F4BC4E94F
:1022400051350F4B1868C4E953550368C4E94F551D
:102250009B68C4E955769847284601F03DF8FFF79A
:10226000D5FF15F0E6FBFFF7D1FF15F05DFC20462A
:10227000F8BD00BF40690120001C0208E81B0208ED
:10228000EC680120064BC0F84801C0F84C3100232F
:10229000C0F8503100F5A273C0F84031704700BF5C
:1022A000C1200008406A7047806A704770478B8879
:1022B000C069DB0A0A6850F823001044704710B563
:1022C0000446BAB1107B68B1537BD27A1B0203F487
:1022D000E0631A43236A03EB82031A888A4202D11D
:1022E00093F9020010BD05D80138043380B20028EC
:1022F000F3D1F7E70020F5E710B504462C211DF0D7
:10230000E6F9204610BD000030B58BB00446BDF89C
:1023100060500895BDF85C5007959DF850500695A3
:102320009DF84C5005959DF8485004959DF84450F3
:1023300003959DF8405002959DF83C500195BDF8DD
:10234000385000950DF090FA064B20462360159BFF
:10235000E361169B2362199B63621A9BA3620BB015
:1023600030BD00BF781C0208002070478180704794
:10237000C180704701817047418170477047704745
:1023800070477047704710B4C4880368121B848874
:102390005B6D091B12B25DF8044B09B218474FF68A
:1023A000FF7383814FF0FF3303621368C3611060D2
:1023B0007047806A70477047704770477047704732
:1023C000002070478B88838001207047704780F819
:1023D0002C10704710B40368046BD3F8A430624328
:1023E00061435DF8044B1847D0ED0C7A0368F8EEB2
:1023F000E77A10B420EE270AD3F8A440B5EEC00A5D
:10240000F1EE10FA1ADBB6EE007A30EE070ABDEEF6
:10241000C07A17EE101A60EEA70AF5EEC00AF1EEC8
:1024200010FA1EDBF6EE007A70EEA70AFDEEE07AF7
:1024300017EE902A23465DF8044B1847BDEEC07A8C
:10244000F8EEC76A17EE103A013B30EE660AF7EE77
:10245000086A30EE260ABDEEC00A10EE101A1944C2
:10246000D9E7FDEEE07AB8EEE77A17EE903A013B55
:1024700070EEC70AB7EE087A70EE870AFDEEE00A42
:1024800010EE902A1A44D5E710B40368046BD3F811
:10249000B03062435DF8044B1847D0ED0C7A036806
:1024A000F8EEE77A10B427EE800AD3F8B040B5EE24
:1024B000C00AF1EE10FA0BDBF6EE007A30EE270AD6
:1024C000FDEEC07A17EE902A23465DF8044B1847BC
:1024D000FDEEC07AB8EEE77A17EE903A013B30EEA7
:1024E000470AB7EE087A30EE070ABDEEC00A10EED2
:1024F000102A1A44E8E710B40368446BD3F8BC30E0
:10250000624361435DF8044B1847D0ED0D7A0368D0
:10251000F8EEE77A10B420EE270AD3F8BC40B5EE07
:10252000C00AF1EE10FA1ADBB6EE007A30EE070AB6
:10253000BDEEC07A17EE101A60EEA70AF5EEC00ADB
:10254000F1EE10FA1EDBF6EE007A70EEA70AFDEE51
:10255000E07A17EE902A23465DF8044B1847BDEE4B
:10256000C07AF8EEC76A17EE103A013B30EE660A01
:10257000F7EE086A30EE260ABDEEC00A10EE101A19
:102580001944D9E7FDEEE07AB8EEE77A17EE903A13
:10259000013B70EEC70AB7EE087A70EE870AFDEECF
:1025A000E00A10EE902A1A44D5E710B40368446B91
:1025B000D3F8C03062435DF8044B1847D0ED0D7A74
:1025C0000368F8EEE77A10B427EE800AD3F8C0402B
:1025D000B5EEC00AF1EE10FA0BDBF6EE007A30EE43
:1025E000270AFDEEC07A17EE902A23465DF8044BC9
:1025F0001847FDEEC07AB8EEE77A17EE903A013B45
:1026000030EE470AB7EE087A30EE070ABDEEC00A90
:1026100010EE102A1A44E8E7D0F82C31026B002B98
:1026200007DB02EB430090FBF2F000EBD0704010B0
:1026300070476FF0010101FB0320013890FBF2F0BD
:1026400000EBD070401040427047D0ED4B7A90EDD7
:102650000C0AF8EEE77AB8EEC00A87EE800A7047F7
:10266000D0F82C017047D0F83031026B002B07DB1B
:1026700002EB430090FBF2F000EBD070401070478B
:102680006FF0010101FB0320013890FBF2F000EB39
:10269000D070401040427047D0ED4C7A90ED0C0A5B
:1026A000F8EEE77AB8EEC00A87EE800A7047D0F8F5
:1026B00030017047D0F83431426B002B07DB02EB5E
:1026C000430090FBF2F000EBD070401070476FF0C9
:1026D000010101FB0320013890FBF2F000EBD07008
:1026E000401040427047D0ED4D7A90ED0D0AF8EE63
:1026F000E77AB8EEC00A87EE800A7047D0F8340156
:102700007047D0F83831426B002B07DB02EB4300F7
:1027100090FBF2F000EBD070401070476FF00101B9
:1027200001FB0320013890FBF2F000EBD070401069
:1027300040427047D0ED4E7A90ED0D0AF8EEE77A00
:10274000B8EEC00A87EE800A7047D0F838017047AB
:10275000036870B50446D3F888300D46164698478E
:102760002368324629462046D3F89030BDE87040B1
:1027700018470368D3F8943018470368D3F8D43067
:1027800018470368D3F8E03018470368002A10B4EC
:10279000D3F8A430046B0EDB04EB420292FBF4F19D
:1027A00001EBD1714910B0F91E215DF8044B013ADB
:1027B0000A44494218476FF0010101FB0241013907
:1027C00091FBF4F101EBD17149104942EBE7036849
:1027D000D3F83C311847026B03685143D3F84831B2
:1027E00018470368D3F844311847D0ED0C7A0368D2
:1027F000F8EEE77AD3F8482127EE800AB5EEC00A52
:10280000F1EE10FA08DBF6EE007A30EE270AFDEE64
:10281000C07A17EE901A1047FDEEC07AB8EEE77A4C
:1028200017EE903A013B30EE470AB7EE087A30EEE9
:10283000070ABDEEC00A10EE101A1944EBE7C0F803
:102840003C1170470368D3F850311847036810B53E
:10285000D3F85C31044698470028236B07DB03EB71
:10286000400090FBF3F000EBD070401010BD6FF013
:10287000010202FB0030013890FBF3F000EBD07056
:1028800040104042F2E70368D3F858311847036814
:1028900010B50446D3F85C31984707EE900A94EDE2
:1028A0000C0AF8EEE77AB8EEC00A87EE800A10BD8F
:1028B000D0F83C017047026B03685143D3F868318C
:1028C0001847D0ED0C7A0368F8EEE77AD3F8682160
:1028D00027EE800AB5EEC00AF1EE10FA08DBF6EE3C
:1028E000007A30EE270AFDEEC07A17EE901A1047F4
:1028F000FDEEC07AB8EEE77A17EE903A013B30EE83
:10290000470AB7EE087A30EE070ABDEEC00A10EEAD
:10291000101A1944EBE7C0F840117047036810B56E
:10292000D3F87431044698470028236B07DB03EB88
:10293000400090FBF3F000EBD070401010BD6FF042
:10294000010202FB0030013890FBF3F000EBD07085
:1029500040104042F2E7036810B50446D3F87431E2
:10296000984707EE900A94ED0C0AF8EEE77AB8EE75
:10297000C00A87EE800A10BDD0F8400170470846B3
:10298000704703680029026BD3F8843110B5044600
:102990000EDB02EB410191FBF2F101EBD171491029
:1029A00009B220469847D4E94F2302FB003010BDFE
:1029B0006FF0010000FB0121013991FBF2F101EB05
:1029C000D17149104942EBE7006B7047406B70478B
:1029D0000368D3F8483118470368D3F85C311847C7
:1029E000026B03685143D3F814311847036870B57C
:1029F000D3F818510446D0F84461D3F88031984791
:102A00002B4656F820102046BDE870401847D0F8F5
:102A10004831B0F91E011944081A704780F8261091
:102A2000704790F826007047002210B5B1F90840B1
:102A3000B1F90A10028042808480C18010BD00225A
:102A4000028042808280C2807047C1627047C06A43
:102A500070470120704770477047C06B18B103681A
:102A6000D3F880301847704730B5B2F91651B2F834
:102A70001841B2F840102C44B2F942200580091BDD
:102A80000024C2804480818030BD02808380BDF9F3
:102A90000020BDF904304280C38070470B680846AF
:102AA000D3F8EC3018470B680846D3F8F8301847CD
:102AB000B1F916017047B1F81631B1F81821B1F823
:102AC00040001344C01A00B27047B1F914017047B6
:102AD000B1F81431B1F81A21B1F842001344C01A08
:102AE00000B270470B6808461146D3F818311847F2
:102AF0007047704770477047704770B44568034629
:102B0000C4689B68661005EB6400E40744BFAC59D9
:102B1000E35870BC18470346406830B19A681AB948
:102B2000D86800F0010070470120704710B50446D6
:102B300040211CF0CCFD204610BD10B504464FF4DA
:102B400037711CF0C4FD204610BD10B5044610219D
:102B50001CF0BDFD204610BD38B503460846D3E93C
:102B60000C540B68D3F89430984729460246204607
:102B7000BDE8384007F076BF034B10B5044603604C
:102B80000AF0CAF8204610BD80210208064B10B595
:102B9000044603600AF0C0F842F2E81120461CF037
:102BA00096FD204610BD00BF8021020890F8252028
:102BB00012B103685B691847704708B590F82C306C
:102BC0000BB1FFF7F3FF08BD10B400F2C4448C4210
:102BD00005D1036811465DF8044BDB6A18475DF8C0
:102BE000044B70470A1E10B503DBB0F91E41944236
:102BF00006DC084B40F23961074A08481DF0D2FA5A
:102C00000368D0F84441D3F88031984754F8200045
:102C100010BD00BFD81C0208FB1C02084A1D020898
:102C20000B1E10B5044603DBB0F91E219A4206DCE8
:102C3000074B40F23361074A07481DF0B3FA0368B7
:102C4000D3F884319847D4E94F2302FB003010BDFC
:102C5000D81C0208A71D02084A1D020890F825206A
:102C60001AB190F8242002B118607047036870B55B
:102C700004461B6B154698472368204629465B6B24
:102C8000BDE87040184770B504461D46BDF9106098
:102C9000FFF7ECFF2368294620469B6B9847236883
:102CA00031462046DB6BBDE870401847094A4FF4B7
:102CB0008071026000228184FF21826280F82610E8
:102CC000C0E90122C0E90322C0E90522C0E90722C8
:102CD000704700BF102C020837B501AB15460CF049
:102CE000C1FE00282A4601994FEA40144FF0200007
:102CF00004DB0CF0D6FE204403B030BD0CF0D1FE56
:102D0000201AF9E770B5B0F81A310E46B0F914413F
:102D1000B0F842502344ED1A2DB22C44691ED0E97C
:102D20004D32013CD21AF01AFFF7D6FFC0EB441027
:102D300070BD38B504460D46B4F81631B4F8181114
:102D40000B44B4F84010C91AD0E94B0209B2121A68
:102D5000281A0139FFF7C0FFB4F9163100EB431010
:102D600038BD000010B5044607F054FA0A4A0023A3
:102D7000204622600122E36284F84030A4F8423009
:102D8000A364C4E90C23054AA2634FF6FF72A2872D
:102D90002E22A4F8442010BD702B0208F01802085F
:102DA000002370B5124E05468380124B03603368D2
:102DB00093F858200AB1D86C00B998680368DB6AA8
:102DC00098473368B0FA80F4D86C640930B103686E
:102DD000DB6A9847002808BF44F001042CB9064B71
:102DE0002C21064A06481DF0DDF9284670BD00BFBB
:102DF000EC680120B01F0208F61D0208541E0208EC
:102E00008D1E02082DE9F04F04468DB000250CF010
:102E1000F3FFA146C94BE56304F16C0A49F8403B56
:102E20004846FFF743FF4FF480724FF6FF730BA93C
:102E3000A4F890205046C24A04F1CC07A4F892307E
:102E40000126E26604F2C44B84F8943004F10408CD
:102E5000ADF82C30C4E91C55C4E91E55C4E9205511
:102E6000C4E9225509F052F804F198031846029378
:102E7000FFF71CFFB34B64213846C4F89830C4F800
:102E8000C450A4F8C85007F089FDAF4B294663220F
:102E9000C4F8CC3004F506733846C4E98435C4E977
:102EA0008265FFF797FAA94BC4F8CC3004F56A7332
:102EB0001846039307F0AEF90A2384F8E063C4F8D8
:102EC000DC33A34BC4F8E453C4F8A83304F57A7395
:102ED000C4E9F55618460493FFF744FF9D4BC4F828
:102EE000E83304F2344318460593FFF73BFF9A4B4F
:102EF000C4F8343404F590631846069307F08AF951
:102F0000964B04F59662C4F880344FF002031046E5
:102F1000079284F8AC34FFF743FF914B5846C4F84E
:102F2000BC54C4F8B0342433C4F8B83406F0E2F822
:102F300004F500538B4A04F5B7604FF4E151C3E93F
:102F40007624894AC3E9782509F0DCFE4FF48873BA
:102F50002A462946484600934FF4F073FFF793FE44
:102F60004FF07F4249464046A2664FF0E00905F027
:102F7000EFFB2A4629465046FFF778FE0BA950463C
:102F8000ADF82C5008F0C2FF51464046DFF8DCA1F6
:102F900005F0DEFB0298CDF8009040F28513182270
:102FA0000F21FFF770FE4FF0FF334FF07F42029981
:102FB0004046C4F8C030C4F8C420A4F8C86005F086
:102FC000C7FB40F285133846CDF8009018220F2138
:102FD000FFF759FE2A4631463846FFF7B9FB294626
:102FE00038466422FFF7F6F9162338461C22009370
:102FF0000A2113234FF0140907F081FC06222B4607
:1030000038460092022107F07DFB29463846B4225B
:10301000FFF771FAD4F8D8133246C4F8D4A309FBE9
:1030200001F084F8E0630028B8BF4042C4F8DC0334
:1030300007F018FD0399C4E9F660384607F06DFB08
:10304000D4F818144FF07F42A4F8246409FB01F06F
:10305000C4F8142432460028B8BF4042C4F81C0407
:1030600007F000FD0499C4F81C043846C4F818643D
:1030700007F077FBD4F864144FF07F42A4F8705443
:1030800009FB01F0C4F8602432460028B8BF404272
:10309000C4F8680407F0E6FC0599C4F868043846EB
:1030A000C4F8646407F04BFB41F2B8430699384614
:1030B000A4F8C034079BC4F8BCA4C4F8A8344FF0EB
:1030C000020384F8AC3407F028FB39464046032756
:1030D00005F03EFB58462F224FF4D471FFF7C6FD92
:1030E0004FF002030AAA09A95846ADF824300BABE9
:1030F000ADF82870ADF82C6006F056F87D233A46FE
:1031000058460721CDE900532B4605F09CFFFA22D3
:103110004946584605F0E9FD5846B42105F0ADFD95
:1031200004F50753404659461833C4F8B43505F042
:103130000FFB20460DB0BDE8F08F00BF80210208D4
:10314000E02C0208782C0208E8260208D01F0208AA
:10315000F81E0208302A0208D02A0208B029020804
:103160003826020868210208C92B0008C59714FFF9
:103170007047000030B5174D8FB02C68BFF35B8FE0
:1031800014F0010422D128461CF0A3FAF0B13F2329
:10319000012211490993114B11480893114B0A94CC
:1031A0000594CDE906430423CDE903320C230F2215
:1031B00000930E23CDE90B44CDE90144FFF7A4F8B9
:1031C00009481DF00DF828461CF08FFA04480FB08E
:1031D00030BD00BFFC350020B08504901C360208CD
:1031E00000360020203602087131000800207047A8
:1031F000002070470EB403B503AB002153F8042B35
:1032000001930CF059F902B05DF804EB03B070477C
:103210000CB407B504AB53F8042B01930CF04CF934
:1032200003B05DF804EB02B070470000436C10B5CA
:10323000044673B3038F2BB9184BC521184A19489C
:103240001CF0B0FFC38E00EB43035B8C0BB30DF09F
:1032500097FC238F012B03D8134BCB21134AEEE7A6
:10326000E28E40F63F10531C9BB2092B194688BFD3
:10327000A3F10A0104EB4101498C814209D10A2BD7
:1032800004EB420228BF0023508C04EB4303588414
:1032900051842046BDE810400DF074BBB0210208F7
:1032A000B921020864220208AE220208BC220208E8
:1032B0000DF031BB10B586B002AC84E806001A46AA
:1032C0000AAB214605930193099B0093089B0AF0E2
:1032D00089FD06B010BD000038B518BB124B13486D
:1032E0001C681349B4B12268224402606268224417
:1032F0000A60A26814440F4B00221A8000F038F8CC
:10330000054600F033F80C4B1C600C4B1D600C4B59
:10331000188007E00B4B03600B4B0B600B4B1C68DA
:10332000002CE8D138BD00BF3836002030360020F0
:103330002C36002034360020446901204C690120DD
:10334000486901208C8604908486049090860490BD
:10335000044B1B6853F82100034B1B6803EB400030
:10336000704700BF2C360020303600200220704706
:10337000004870473C36002008B5FFF7FBFE014BC4
:10338000186008BD3C360020704710B504464FF465
:10339000AE711CF09CF9204610BD10B50446D0F863
:1033A000580100F0EEF82046BDE810400BF0B8B927
:1033B00010B50446FEF736FF014B2046236010BDD2
:1033C00098230208704704387047704710B50446C8
:1033D00010211CF07CF9204610BDA0F10400F5E797
:1033E0000022C1608260024A026018324260704767
:1033F000EC23020870470000034B10B5044603603D
:10340000FFF7BAFB204610BD1424020810B504468D
:10341000FFF7F2FF42F2EC1120461CF058F920466B
:1034200010BD000000F5005370B5D3F8E851044614
:1034300001352DED028BC3F8E851EB0747D4D0F8E6
:103440000061D0ED817A07EE106AF8EEE77AB8EE07
:10345000C77A87EE878A07EE905AB8EEE70ADFED63
:103460001D7A20EE270A1CF05BF9F7EE007A9FED3B
:103470001A7A4FF6FF72194930EE270A0B8803F2C9
:103480003953C8EE077A6B43B2EE047A93FBF2F23B
:10349000C2EB02429B1A0B809BB220EE270AFDEE84
:1034A000C07A17EE901AC8EE077ABDEC028BFDEEDB
:1034B000E77A17EE902A93FBF2F002FB103304F147
:1034C000CC0019447143BDE8704007F024BBBDEC4B
:1034D000028B70BD0AD7A33CCDCC0C4040360020F7
:1034E00010B50446FFF78EFC044B002220462360F3
:1034F00004F50053C3F8E82110BD00BF14240208EE
:1035000010B50446FFF7F5FA23682046B4F9F21423
:10351000DB6ABDE81040184770B5D0F8002100F113
:10352000CC0604460D464A433046002106F0E2FE32
:1035300030460CF0ECF8C72DD4F86434D4F8D82316
:1035400017DD32214B4304F23440002BB8BF5B42FD
:10355000C4F8683401FB02F3002BB8BF5B42C4F827
:10356000DC3306F03BFE04F56A70BDE8704006F0FF
:1035700035BE642DCCBF14210A21E3E7002202608E
:103580007047704700B54FF4807295B04FF080716E
:1035900003460C9205220F9101210692002201910F
:1035A0000B92139200920B48CDE90312CDE90D2244
:1035B000CDE91122102206A902924FF48002059251
:1035C0006A4601F071FD003818BF012015B05DF8A2
:1035D00004FB00BF4436002000B54FF4807395B063
:1035E00041F2883217480C93062306A9069300235C
:1035F000CDE90D330F930B931393CDE9113301F004
:103600000EFDE0B9022301224FF4800104900D4821
:10361000CDE900331023CDE9023205236A46CDE916
:1036200005134FF0807306A90F9341F2883301F020
:103630003BFD003818BF012015B05DF804FB0120E8
:10364000FAE700BF4436002000B54FF4807391B014
:103650004FF040720E480893EB2302A902934FF4F7
:10366000406309934FF4005305930023CDE90A32D8
:103670000A220F9307926A46CDE90D33CDE9003354
:1036800001F063FD003818BF012011B05DF804FBA4
:1036900044360020454B01219A6B42F00202F0B5FE
:1036A0009A638DB09A6B0924414D042702F00202FF
:1036B000002628460092009A9A6942F002029A6116
:1036C0009A6922F002029A611A6B42F002021A63AE
:1036D0001A6B02F002020192019A1A6B42F0020286
:1036E0001A631A6B02F002020292029A1A6B42F0FB
:1036F00008021A631A6B02F008020392039A1A6B0B
:1037000042F008021A631A6B02F008020492049A4B
:103710001A6B42F010021A631A6B02F01002059243
:10372000059A1A6B42F008021A6340221B6B03F0E1
:1037300008030693069B0223CDE907230323CDE963
:1037400009130A2307A90B9300F036FC07A92846A2
:10375000079709960B9400F02FFC4FF4006307A91C
:103760000B941D440793284600F026FC4FF4805329
:1037700007A9284607930B9400F01EFC07A90D48E3
:1037800007970B9400F018FC4FF4005307A9284644
:103790000B94079300F010FC32460F215C2000F0E0
:1037A000D3F95C2000F002FA0DB0F0BD0038024001
:1037B0000004024000100240F0B5494C91B0494B62
:1037C0002046236001F018FC054610B1012011B01D
:1037D000F0BD01462046FFF75DFF012604234FF0B0
:1037E0008077C4E901631023E36097FAA7F3B3FA83
:1037F00083F32046013B23614FF4A063C4E90755DE
:10380000C4E9053501F0A6FB0028DFD14FF480752F
:1038100066230B9041F28832079002A90F90089519
:103820000293CDE90900CDE90D00204601F0F7FB38
:1038300008B10420CBE7992341F2883202A920463F
:10384000029301F0ECFB0028F3D141F28830FFF73E
:1038500099FE0028EDD18523079041F2883202A914
:10386000089502930B97CDE90900CDE90C60CDE9ED
:103870000E00204601F0D3FB0028DAD141F2883255
:103880000DF10701204601F04AFD0028D1D1FFF7D4
:10389000A3FE0028CDD18123F022029392FAA2F256
:1038A0000A219DF80730B2FA82F2204603F00F0396
:1038B00001FA02F202A9134341F288328DF807306F
:1038C00001F0ADFB0028B4D141F288320DF10701BF
:1038D000204601F0C5FC00283FF479AFA9E700BFFE
:1038E00044360020001000A00F490020D1F8883095
:1038F00043F47003C1F888300C4B1A6842F001029F
:103900001A6098601A6822F0847222F480321A6079
:10391000074A5A601A6822F480221A60D8604FF071
:1039200000638B60704700BF00ED00E0003802408C
:10393000103000247047002070470000002337B586
:103940008DF807300C4B1A780AB901221A7003243B
:10395000C5B2013CA8212846FDF7BCFC14F0FF04C9
:103960008DF807009DF80730DBB201D0512BF0D164
:103970009DF8070003B030BD9236002013B5002437
:103980000221C0B28DF80740FDF7A4FC8DF80700B6
:103990009DF8073003F00F038DF807309DF80730CE
:1039A000052B01D98DF807409DF80720034B9DF8A2
:1039B00007005A7000229A7002B010BD92360020A3
:1039C0002DE9F74F2F4C15464FF000080F46A3780E
:1039D00062788DF807809A424DD9092B4ED803EBB7
:1039E00043035B00DBB2191D03F1030B03F1060A6D
:1039F0000533C9B25FFA8BFB5FFA8AFA5FFA83F884
:103A0000C6B2DFF884903046FDF764FC8DF80700FD
:103A10009DF8073059463046A9F80030FDF75AFCAA
:103A20008DF8070051469DF807303046B9F8002060
:103A30001B0203F4706313433B80A9F80030FDF7C9
:103A400049FC8DF8070041469DF807303046A9F83B
:103A50000030FDF73FFC8DF807009DF80730B9F8FE
:103A600000201B0203F470631343A9F800302B807D
:103A7000A3780133A37003B0BDE8F08FC246C346FC
:103A80004146BDE792360020903600200122A42155
:103A9000C0B2FDF705BC0022A421C0B2FDF700BCF6
:103AA000FFF7F9BF70470000024B1A780AB90122EC
:103AB0001A70704792360020074A032008B5136831
:103AC00043F48073136000F02DF80020FDF782FAB4
:103AD000FDF724F8002008BD003C0240034A044BD7
:103AE00011681B780B441360704700BF98360020A4
:103AF00038000020014B1868704700BF983600203E
:103B000038B50446FFF7F6FF0546631C1EBF044B9D
:103B10001B78E418FFF7EEFF431BA342FAD338BD2E
:103B20003800002007490302CA6803F4E06322F466
:103B3000E0621204120C134343F0BF6343F40033FA
:103B4000CB60704700ED00E0164B30B5DC68C4F385
:103B50000224C4F10703251D042B28BF0423062DCE
:103B60004FF0FF358CBF033C002405FA03F3002817
:103B700005FA04F521EA030322EA050203FA04F335
:103B800043EA02034FEA0313DBB206DB00F16040B5
:103B900000F5614080F8003330BD00F00F00024AAC
:103BA0001354F9E700ED00E014ED00E0002807DB16
:103BB0004109012300F01F00024A834042F82130EE
:103BC000704700BF00E100E000280CDB4309012240
:103BD00000F01F0004492033824041F82320BFF346
:103BE0004F8FBFF36F8F704700E100E0BFF35F8F2F
:103BF000044B5A6A22F480325A620022C3F894209D
:103C0000704700BF00ED00E0064B40F00100C3F834
:103C100094005A6A42F480325A62BFF34F8FBFF366
:103C20006F8F704700ED00E04378144A10B5C2F87A
:103C300098300178E9B14368C2F89C30C37A047BBC
:103C40001B0643EA04730B43817A43EAC143417B79
:103C500043EA8143817B43EA4143C17B43EA014319
:103C6000417A43EA0123017A43EA4103C2F8A030D2
:103C700010BDC2F89C10C2F8A010F9E700ED00E0FA
:103C800010B5044608B9012010BD437F03F0FF02C0
:103C900013B90277FCF760FF022363772379E3B956
:103CA0002368134A5A619A6822F018029A6062796E
:103CB0002368D2B94FF0FF321A6100209A68616917
:103CC00022F060020A43A1699A609A6822F0800299
:103CD0000A439A6001236377D6E7D4E902122046AB
:103CE00000F008F80028E2D0CDE72269E4E700BF41
:103CF000B71DC1041F2310B5013B1DD321FA03F4E6
:103D0000E407F9D5102A13D0102A04D83AB1082AAA
:103D100010D001200BE0182AFBD1062BF9D800683F
:103D20004161836823F0180313438360002010BDB2
:103D3000072BF3E70F2BF1E7102AE5D1E9E770B580
:103D40000446866DFFF7D6FE054694F83530022B03
:103D500006D0802301206365002384F8343070BDD1
:103D600023681A6822F016021A605A6922F080024B
:103D70005A61226C0AB9A26C1AB11A6822F00802C0
:103D80001A601A6822F001021A602368186810F09D
:103D9000010007D1E26D3F239340B360012384F813
:103DA0003530D9E7FFF7A6FE401B0528EDD92023C3
:103DB0000320636584F83500CEE710B5044630B3C0
:103DC00090F8393003F0FF021BB980F83820FCF777
:103DD000D9FE226802236168002084F83930136814
:103DE00023F440330B43A1681360536B23F00703A4
:103DF0000B43E1685363136C23F47F5323F03F03B9
:103E00000B4313640123E06384F8393010BD0120B3
:103E1000FCE770477047036870B55E6804461D682C
:103E2000F20714D5E90512D51A6822F480721A60D7
:103E3000C26B42F00102C26301229A60042380F83F
:103E40003930002380F83830436903B19847B2060F
:103E500016D5AB0414D523681A6822F400521A60F0
:103E600020229A60E36B43F00203E363042384F8A7
:103E70003930002384F8383063690BB12046984705
:103E8000300716D5290514D523681A6822F4006274
:103E90001A6008229A60E36B43F00403E36304238F
:103EA00084F83930002384F8383063690BB1204638
:103EB000984772070BD56B0509D5236820461A6809
:103EC00022F480621A6004229A60FFF7A2FFB00712
:103ED00014D5A90512D523681A6822F400721A6055
:103EE00002229A60E36BE363012384F839300023F4
:103EF00084F8383023690BB120469847F20613D571
:103F0000EB0411D5236820461A6822F480521A6007
:103F100010229A60E36BE363012384F839300023B5
:103F200084F83830FFF776FF70BD0000F0B590F8E8
:103F3000382003460220012A2BD0012283F83900C1
:103F40000E011C4F83F8382003EB0112D2E9074021
:103F5000556A44EA0040093C012C96BF05F07F42B7
:103F600040EA056010431A68A1B9516A012C01EAC0
:103F7000070141EA000151629969916103D8596AC8
:103F800021F07F4191620122002083F8392083F8DB
:103F90003800F0BDD169012C01EA070141EA0001B6
:103FA000D16103EB060189691161ECD825F07F45E9
:103FB0001562E8E7F0FFFC002DE9F74F0023DFF87A
:103FC000BC916C4A01240D689C4004EA0506AC4390
:103FD00040F0B7804D6803274FEA430E05F0030415
:103FE00007FA0EFC671E6FEA0C0C012F34D88768A5
:103FF00007EA0C08CF6807FA0EF747EA0807876058
:10400000476827EA0608C5F300179F4047EA0807F4
:104010004760C768022C07EA0C088F6807FA0EF79A
:1040200047EA0807C76019D14FEAD30803F0070A27
:104030004FF00F0B00EB88084FEA8A0AD8F820707F
:104040000BFA0AFB27EA0B0B0F6907FA0AF747EA94
:104050000B07C8F8207001E0032CDAD1076804FAD6
:104060000EF415F4403F07EA0C0744EA0704046025
:1040700067D0D9F8444023F0030703F0030C4FF056
:104080000F0E44F4804407F180474FEA8C0CC9F8C6
:10409000444007F59C37D9F844400EFA0CFE04F46E
:1040A00080440194019CBC6824EA0E0E324CA0426C
:1040B0004ED004F58064A0424CD004F58064A04248
:1040C0004AD004F58064A04248D004F58064A04240
:1040D00046D004F58064A04244D004F58064A04238
:1040E00042D004F58064A04240D004F58064A04230
:1040F0003ED004F58064A04214BF0A24092404FAC7
:104100000CF415F4801F44EA0E04BC606FEA060745
:1041100094680CBF3C40344315F4001F9460D4688D
:104120000CBF3C40344315F4003FD46054680CBFCE
:104130003C403443ED035460146854BF3C40344366
:1041400014600133102B7FF43DAF03B0BDE8F08F56
:104150000024D4E70124D2E70224D0E70324CEE7E9
:104160000424CCE70524CAE70624C8E70724C6E7E9
:104170000824C4E7003C014000000240003802402F
:104180002DE9F04F00224FF0010A4FF00F084FF0D9
:10419000030B464C0AFA02FC3CEA01030CEA010656
:1041A0006CD122F0030502F0030705F18045BF0042
:1041B00005F59C3508FA07F9AB6809EA030E3C4B94
:1041C000984260D003F5806398425ED003F5806327
:1041D00098425CD003F5806398425AD003F580631F
:1041E000984258D003F58063984256D003F5806317
:1041F000984254D003F58063984252D003F580630F
:10420000984250D003F5806398420CBF09230A23DB
:10421000BB40734513D1236823EA06032360636818
:1042200023EA06036360E36823EA0603E360A36806
:1042300023EA0603A360AB6823EA0903AB605300DB
:104240000568D6080BFA03F300EB860625EA03059A
:10425000056002F00705376AAD0008FA05F527EAA0
:1042600005073762C56825EA0305C560456825EA84
:104270000C054560856825EA030383600132102A36
:1042800088D1BDE8F08F0023C2E70123C0E70223F5
:10429000BEE70323BCE70423BAE70523B8E70623F8
:1042A000B6E70723B4E70823B2E700BF003C0140AC
:1042B000000002400369194214BF0120002070472A
:1042C0000AB1816170470904FBE7436901EA03020F
:1042D00021EA030141EA02418161704703689A695A
:1042E000910701D500229A629A69D20703D49A698C
:1042F00042F001029A61704730B5039DC1F3090194
:1043000004682B43606843EA0243054A0B4342EAD0
:10431000555223F0004320EA02000343636030BD9E
:10432000FF63FF0303682DE9F0419C6905460F46D2
:10433000164614F010046FD000241022A046DA6153
:104340002B689A69900661D4B8F1000F35D044F01B
:10435000040401202E68B369D90505D54FF4807295
:1043600044F001040120F2615A0505D54FF4806242
:1043700044F008040120F2619B054FD54FF400730F
:1043800044F00204F3612846FFF7A8FF7368012098
:1043900023F0FF7323F48B3323F4FF7323F0010323
:1043A00073606B6C23436B64202385F841300023DA
:1043B00085F8423085F8403032E07A1CC1D0FFF7F2
:1043C00099FB801BB84201D8002FB9D12B685968DE
:1043D00095F842209869D2B200040AD5490408D45D
:1043E000202A06D05A6842F480425A60FFF782FBC6
:1043F00006462B689B699B06A2D4FFF77BFB801BBC
:104400001928F6D920244FF0010899E7B8F1000FD8
:104410009DD12022DA619AE720469BE70028B2D19D
:10442000BDE8F08170B504460D46164623689B69C9
:104430009B0701D500201BE0324629462046FFF7A6
:1044400071FFA0B96A1CF1D0FFF754FB801BA84292
:1044500001D8002DEAD1636C43F02003636420236C
:1044600084F84130002384F8423084F84030012041
:1044700070BD70B504460D46164623689B699B06C1
:1044800001D5002019E0324629462046FFF74AFFB1
:1044900090B9FFF72FFB801BA84201D8002DECD16B
:1044A000636C43F020036364202384F841300023CD
:1044B00084F8423084F84030012070BD2DE9F0418D
:1044C000069F0446884616461D462268936938EAC8
:1044D00003030CBF01230023B34201D0002015E0E9
:1044E0006B1CF3D0FFF706FBC01BA84201D8002DC0
:1044F000EBD1636C012043F020036364202384F834
:104500004130002384F8423084F84030BDE8F08127
:1045100010B5044600284AD090F8413003F0FF025D
:104520001BB980F84020FCF74DFB242384F8413070
:1045300023681A6822F001021A60626822F0706231
:104540001A619A6822F400429A60D4E90221012992
:1045500024D142F400429A605A68002042F000726E
:1045600042F400425A60DA6822F40042DA60D4E988
:1045700004210A43A16942EA0122DA60D4E9072151
:104580000A431A601A6842F001021A60202360642C
:1045900084F84130206384F8420010BD42F40442A4
:1045A00002299A60D8D14FF400625A60D4E7012002
:1045B000F3E710B5044698B10268242380F841302F
:1045C000136823F001031360FCF740FB00206064D4
:1045D00084F8400084F84100206384F8420010BD54
:1045E0000120FCE72DE9F74F994690F84130044649
:1045F0000F46202B1646BDF834A0DDF8388040F079
:10460000C6800C9B13B1BAF1000F06D14FF40073B2
:104610006364012003B0BDE8F08F90F84030012BB7
:1046200000F0B5804FF0010B80F840B0FFF762FA60
:104630001923054600905A464FF400412046FFF7E3
:104640003DFF0028E5D1212360635FFA89F23946F6
:1046500084F84130402384F842300C9B606420464B
:1046600063624C4BA4F82AA000934FF08073FFF7CD
:1046700043FE2A4641462046FFF7D4FE18BBB9F157
:10468000010F236815D1F6B20022802120469E62D8
:1046900043460095FFF712FFA8B9638D9BB2FF2B2D
:1046A00015D8628D4FF0007392B22285D2B200907D
:1046B00012E0320A414620469A622A46FFF7B2FECD
:1046C00008B92368DFE7002384F84030A1E7FF2220
:1046D0004FF080732285009039462046FFF70CFE8C
:1046E0002A4641462046FFF79DFE002891D1636A85
:1046F000226813F8011B91626362638D228D013B76
:10470000013A9BB292B26385638D22859BB2B3B1AD
:10471000AAB94346802120460095FFF7CFFE002826
:104720007FF477AF638D9BB2FF2B28D9FF224FF028
:1047300080732285009039462046FFF7DDFD638DAA
:104740009BB2002BCCD12A4641462046FFF791FE72
:1047500000287FF45EAF23682021D9615A6822F0D7
:10476000FF7222F48B3222F4FF7222F001025A60AF
:1047700084F8411084F8400084F842004AE7628DD2
:104780004FF0007392B22285D2B20090D3E702209C
:1047900040E700BF002000802DE9F74F994690F8D0
:1047A000413004460F46202B1646BDF834A0DDF8F4
:1047B000388040F0C9800C9B13B1BAF1000F06D1CC
:1047C0004FF400736364012003B0BDE8F08F90F8EC
:1047D0004030012B00F0B8804FF0010B80F840B062
:1047E000FFF788F91923009005465A464FF4004117
:1047F0002046FFF763FE03460028E4D122226063CF
:10480000394684F84120402284F842200C9A6064A2
:10481000204662624D4AA4F82AA000925FFA89F20B
:10482000FFF76AFD2A4641462046FFF7FBFD20BB05
:10483000B9F1010F236816D1F6B2002240212046BB
:104840009E6243460095FFF739FEB0B9638D9BB277
:10485000FF2B3F4B15D8628D92B22285D2B20093C6
:104860004FF0007312E0320A414620469A622A460F
:10487000FFF7D8FD08B92368DEE7002384F840304D
:10488000A1E7FF22228500934FF08073394620462E
:10489000FFF732FD43460022042120460095FFF732
:1048A0000DFE00288FD123685A6A636A1A70636A02
:1048B000228D0133013A6362638D92B2013B2285FE
:1048C0009BB26385638D9BB2B3B1AAB94346802185
:1048D00020460095FFF7F2FD00287FF474AF638D4A
:1048E0009BB2FF2B28D9FF224FF0807322850090C6
:1048F00039462046FFF700FD638D9BB2002BC9D1DE
:104900002A4641462046FFF7B4FD00287FF45BAFFE
:1049100023682021D9615A6822F0FF7222F48B3279
:1049200022F4FF7222F001025A6084F8411084F8E8
:10493000400084F8420047E7628D4FF0007392B266
:104940002285D2B20090D3E702203DE7002000800C
:104950000024008010B590F841200346202AD4B2EC
:104960001CD190F84020012A18D0242280F8412040
:104970000268106820F001001060106820F4805078
:1049800010601068014300201160116841F00101BE
:10499000116083F8414083F8400010BD0220FCE71D
:1049A00010B590F841200346202AD4B21BD190F8CC
:1049B0004020012A17D0242280F841200268106884
:1049C00020F001001060106820F4706040EA0121BE
:1049D00000201160116841F00101116083F841402D
:1049E00083F8400010BD0220FCE7D2010068D1F836
:1049F00000C0843283182DE9F043C6680CF101072A
:104A00005D684FF0000E4C68C6F30B4605F4704528
:104A1000D1F8189026445D60C568C5F30B453D4448
:104A200045EA06455D60C668CD68C6F30A062E44B1
:104A30009D6805F470459D608D68C7680135C7F3B2
:104A40000A073D4445EA06450E699D601D6925F04B
:104A500007051D611E619D6991F8327091F83180E2
:104A6000C3F818E091F8305045EA096545EA082591
:104A700045EA07459D615D6925F0FF055D614D696A
:104A80005D61DD6925F4E06525F00705DD61D1E9AB
:104A900007573D43DD619D6A4D6AC3F828E09D627A
:104AA0001EB3012E23D0B51E022D22D9072E14BF0E
:104AB00001250225DE6AA4EB0C0406F0E0266C4317
:104AC000DE6203348E6AC96A6E4344EA0644DC62DD
:104AD0001C6B24F4FF6424F007041C6319638358DF
:104AE00043F001038350BDE8F0830425E2E703258A
:104AF000E0E70225DEE7000038B50446002863D071
:104B000090F8A13003F0FF021BB980F8A020FCF759
:104B1000B9F8022384F8A13023689A6922F0704220
:104B20009A619969D4E901200243E068024320694F
:104B3000024360690A4325499A619A680A409A606B
:104B40009A6842EA0042A0690243E0699A60DA6822
:104B50000A40DA60DA6842EA0042206A0243606A88
:104B6000DA601A690A401A611A6942EA0042A06AC8
:104B700002431A615A690A40E16A5A615A6942EA73
:104B80000142216B0A435A61DA6A94F8350002F057
:104B90007F4294F83610DA62DD6A94F834202A43B2
:104BA00042EA0022002042EA0142DA625A6B42F0F5
:104BB00006025A639A6942F001029A610123C4F81D
:104BC000A40084F8A13038BD0120FCE700F800F013
:104BD00070477047036870B59E6B04465D6B720743
:104BE00014D5690712D55A6B22F004025A630422C5
:104BF000DA63D0F8A43043F00103C0F8A4300023F6
:104C000080F8A12080F8A030FFF7E2FFB20716D5A8
:104C1000AB0714D5236820465A6B22F002025A6370
:104C20000222DA63D4F8A4301343C4F8A430042376
:104C300084F8A130002384F8A030FFF7C9FFF00703
:104C400010D5E9070ED5236820465A6B22F00102E1
:104C50005A630122DA63002384F8A12084F8A0308B
:104C6000FDF748F9320711D52B070FD523682046E9
:104C70005A6B22F008025A630822DA63012384F88F
:104C8000A130002384F8A030FFF7A3FF70BD2DE909
:104C9000F04190F8A03006460F469446012B4FF0A5
:104CA00002001FD034244FF001080D4686F8A10001
:104CB00004FB026486F8A08038340FCD0FC40FCDFA
:104CC0000FC40FCD0FC42B683046624639462360AF
:104CD000FFF78BFE33680020C3F8248086F8A1809C
:104CE00086F8A000BDE8F08190F8A02003460220DD
:104CF000012A12D01A6883F8A100506B20F001003D
:104D00005063064801640020516B41F0010151637A
:104D1000012283F8A00083F8A120704700680140B9
:104D2000194B37B51A6C194C42F080521A641B6C3F
:104D300003F080530193019B236843F48033236085
:104D4000FEF7D8FE05466368DA030CD523680F4DDD
:104D500043F400332360FEF7CDFE04466B689B03EB
:104D60000AD5002006E0FEF7C5FE401BB0F57A7FAD
:104D7000E9D9032003B030BDFEF7BCFE001BB0F53F
:104D80007A7FEBD9F5E700BF0038024000700040A1
:104D90002DE9F0474E6A36B1B2F1406F03D08B6A0D
:104DA0000468013B2361D1F818A0D1E9077EBAF16C
:104DB000000F4CD04C6905684FEA844C4AEA06045F
:104DC0000B68D1F8348044EA020AD1E90B09BEF13C
:104DD000000F24D08E684AEA0E04EE610E699FB17E
:104DE0003B430343C86843EA090343EA08033343E8
:104DF000034343EA0C032343B2F1406F6B6101D0DC
:104E00004B68AB61BDE8F087034343EA090343EA1B
:104E10000803334343EA0C0323436B61F2E767B1B2
:104E20003B430343C86843EA090343EA08030343D7
:104E300043EA0C0343EA0A03DEE7034343EA0903B8
:104E400043EA080444EA0C0343EA0A03E5E7BEF137
:104E5000000F2CD046EA0E058B6804684E69154396
:104E6000E361D1F834C0B6040B69D1E90B8EA7B168
:104E70003B43C868B2F1406F43EA080343EA0E03BC
:104E800043EA0C0343EA000343EA060343EA05034B
:104E90006361B7D04B68A361B4E743EA080343EA10
:104EA0000E0343EA0C0333432B436361AAE7D7B1F4
:104EB00046EA0703CC6A0068B2F1406F43EA020396
:104EC00043EA04030C6B43EA04034C6B43EA040318
:104ED000CC6843EA04034C6943EA8443436191D0BC
:104EE0004B6883618EE7002E8CD0CB6A0068334319
:104EF00013430A6B13434A6B13434A6943EA8243E1
:104F000043617FE72DE9F041DDF8188004460E4645
:104F100015461F4622689368334214BF01230023BD
:104F2000AB4201D1002012E0B8F1FF3FF3D0FEF711
:104F3000E1FDC01B404502D8B8F1000FEAD10423BF
:104F4000012084F84130636C43F001036364BDE8E1
:104F5000F081000037B50446FEF7CCFD0546002C75
:104F600046D094F8413003F0FF023BB9204684F864
:104F70004020FBF735FF41F28833A36421682046C7
:104F8000A3680A68013B22F4F85242EA0322A36CA8
:104F90000A600022009320212B46FFF7B3FF10BBCD
:104FA0002268E569E36811682B43256A21F07F4197
:104FB0002B43656821F0D00143EA05630B4313607E
:104FC0005568D4E905310B43216943EA0143094996
:104FD00029400B435360136843F00103136001231E
:104FE000606484F84130002384F8403003B030BD61
:104FF0000120FBE7FEF8E0FF10B5044668B1026847
:10500000136823F001031360FBF758FF002060646E
:1050100084F8410084F8400010BD0120FCE72DE930
:10502000F34704468A469046FEF764FD94F8403004
:105030000746012B36D00123022684F8403094F82D
:105040004130012B5FFA83F928D100220346202149
:105050002046626484F84160CDF80080FFF752FF7B
:105060000546A0B9024651462046FFF791FEDAF800
:10507000243053B93B464A4631462046CDF800809D
:10508000FFF740FF60B92368DE6084F84190002399
:1050900084F84030284602B0BDE8F0873546F6E790
:1050A0000546F4E70225F5E72DE9F74304461F46D8
:1050B00089461546FEF71EFD94F840300646012B42
:1050C00041D0012384F8403094F84130012B5FFA3D
:1050D00083F836D1422300222021626484F84130D3
:1050E000034600972046FFF70DFF20BB22682046AD
:1050F0002B68296993626B685362AB68D36213684B
:1051000023F440030B43494643F4800313604FF0FC
:105110000062EB68C9F82830FFF73AFE3346424692
:10512000082120460097FFF7EDFE20B923680822EA
:10513000DA6084F84180002384F8403003B0BDE891
:10514000F0830220F7E70220F8E7F7B50446164699
:105150000F46FEF7CFFC94F840200346012A33D0D7
:10516000012284F8402094F84120012A2AD100220B
:1051700082212046626484F84110A16C00912021B4
:10518000FFF7C0FE0546B8B9236872681868082A98
:1051900020F0080040EA0200186007D132681A6364
:1051A0001022DA601A6842F480121A604FF04062EE
:1051B00039462046FFF7ECFD002384F840302846AE
:1051C00003B0F0BD0225F7E70225F8E737B504463E
:1051D000FEF790FC054694F84130980734D500233B
:1051E00084F8403023681A68510707D51A68E06BC5
:1051F00022F004021A60FEF7A2FD40BB00202368E3
:105200009A68920628D51A680221204642F00202C6
:105210001A600122A36C00932B46FFF773FEA0B91E
:10522000236802222021DA600246A36C2046009304
:105230002B46FFF767FE40B92268536923F04063AD
:105240005361012384F84130002003B030BD636C0A
:1052500043F004036364D2E7012384F84130F4E7A8
:105260002DE9F341044688461746FEF743FC94F8BF
:10527000403006462568012B4FD0012384F840308A
:1052800094F84130012BD8B245D100236364B8F1C2
:10529000000F3BD0122384F841302B690133E362C5
:1052A0002B69C4F824800133A3626B6923F0406347
:1052B0006B61E36AB3B933460122022120460097AD
:1052C000FFF720FE28B9236802222046DA60FFF7A4
:1052D0007DFF012384F84130002384F8403002B080
:1052E000BDE8F08133460122042120460097FFF7F4
:1052F00009FE0028EDD1636A1B7885F82030636AC7
:1053000001336362E36A013BE362D2E7636C43F01B
:1053100008036364E0E70220DEE70220DFE72DE90F
:10532000F341044616468846FEF7E4FB2568074627
:10533000AA6994F84030012B52D0012384F8403000
:1053400094F84130012BD8B248D100236364B8F1FE
:10535000000F3ED0222384F841302B690133A36330
:105360002B69C4F8308001336363696921F04061BF
:1053700041F080616961AA61A36BB3B93B46012228
:10538000022120460096FFF7BDFD28B923680222BE
:105390002046DA60FFF71AFF012384F8413000232A
:1053A00084F8403002B0BDE8F0813B46012206217E
:1053B00020460096FFF7A6FD0028EDD195F82020A5
:1053C000236B1A70236B01332363A36B013BA3632D
:1053D000D2E7636C43F008036364E0E70220DEE792
:1053E0000220DFE72DE9F341044640B30368DE07FE
:1053F00010D423689D0761D42368190700F1A680A3
:1054000023685A0700F1C780A269002A40F0308162
:1054100000202CE0944B9A6802F00C02042A07D07A
:105420009A6802F00C02082A0BD15B68590208D571
:105430008D4B1B689A03DCD56368002BD9D1012002
:1054400015E06368884DB3F5803F13D12B6843F4B2
:1054500080332B60FEF74EFB834E054633689B037B
:10546000C7D4FEF747FB401B6428F7D9032002B0DE
:10547000BDE8F0819BB92B6823F480332B602B6847
:1054800023F480232B60FEF735FB06462B689F0331
:10549000AFD5FEF72FFB801B6428F7D9E6E7B3F5FD
:1054A000A02F2B6803D143F480232B60CEE723F495
:1054B00080332B602B6823F48023CAE76A4B9A68F9
:1054C00012F00C0F07D09A6802F00C02082A11D1D2
:1054D0005B685D020ED4644A1368990702D5E368DD
:1054E000012BACD11368216923F0F80343EAC1030F
:1054F000136081E7E3685C4DBBB12B6843F00103A7
:105500002B60FEF7F7FA06462B689B0707D52B683A
:10551000226923F0F80343EAC2032B606CE7FEF72D
:10552000E9FA801B0228EFD9A0E72B6823F00103DA
:105530002B60FEF7DFFA06462B689F077FF55CAF0E
:10554000FEF7D8FA801B0228F6D98FE76369464D2B
:1055500083B16B6F43F001036B67FEF7CBFA06462E
:105560006B6F9B073FF54CAFFEF7C4FA801B022818
:10557000F6D97BE76B6F23F001036B67FEF7BAFA8E
:1055800006466B6F9F077FF53BAFFEF7B3FA801BB4
:105590000228F6D96AE7344B1A6CD50027D41A6C66
:1055A000012742F080521A641B6C03F08053019370
:1055B000019B2E4D2B68D8051BD5A3682A4D012BC6
:1055C00027D12B6F43F001032B6741F28838FEF798
:1055D00091FA254E0546336F9A073FD5002F3FF4C9
:1055E00013AF214A136C23F0805313640CE7002798
:1055F000DFE72B6843F480732B60FEF77BFA0646E7
:105600002B68D905D9D4FEF775FA801B6428F7D921
:105610002CE7ABB92B6F41F2883823F001032B67DD
:105620002B6F23F004032B67FEF764FA06462B6FFB
:105630009B07D3D5FEF75EFA801B4045F7D915E7E7
:10564000052B2B6F03D143F004032B67B9E723F03D
:1056500001032B672B6F23F00403B5E7FEF74AFA2B
:10566000401B4045B7D901E70038024000700040B8
:10567000384DAB6803F00C03082B41D02B68022A8D
:1056800023F080732B602ED1FEF734FA06462B6888
:10569000990122D4A36A5B085A1ED4E907310B434F
:1056A00043EA0243626A43EA8213E26A43EA02631C
:1056B00043F000536B602B6843F080732B60FEF760
:1056C00019FA244D04462B689A013FF5A1AEFEF766
:1056D00011FA001B0228F6D9C8E6FEF70BFA801B68
:1056E0000228D4D9C2E6FEF705FA04462B689B01CE
:1056F0007FF58EAEFEF7FEF9001B0228F6D9B5E65F
:10570000012A6B683FF49BAE03F48002E1698A4290
:105710007FF495AE03F03F02216A8A427FF48FAE98
:1057200047F6C072616A1A40B2EB811F7FF487AE00
:10573000A26A03F440315208013AB1EB024F7FF400
:105740007EAEE26A03F07063B3EB026F14BF012018
:1057500000208CE600380240134908B58B6803F03E
:105760000C03042B1BD0082B1BD14A684B684968DB
:1057700002F03F0213F48003C1F388111ABF0B48F3
:1057800000230B48A1FB0001FAF792FD064B5B6872
:10579000C3F3014301335B00B0FBF3F008BD0348E2
:1057A000FCE70348FAE700BF0038024040787D017B
:1057B0000024F4002DE9F0410D46044610B9012003
:1057C000BDE8F081454A136803F00F038B4228D3EC
:1057D00021688F0730D4C80743D4404A136803F0C8
:1057E0000F03AB4266D8226851076FD4130707D561
:1057F0003B4A2169936823F4604343EAC103936001
:10580000FFF7AAFF364B374A9B68C3F30313D35CF9
:10581000D840354B1860354B1868FBF7DBFB002090
:10582000CEE7136823F00F030B431360136803F0F4
:105830000F038B42C3D1CBE711F0040F284B03D0E9
:105840009A6842F4E0529A600E0703D59A6842F4CF
:1058500060429A609A68A06822F0F00202439A605F
:10586000B9E761681E4B01291A681BD112F4003F89
:10587000A5D09A6841F28838194F22F003020A43F2
:105880009A60FEF737F90646BB68626803F00C03BE
:10589000B3EB820FA1D0FEF72DF9801B4045F3D961
:1058A00003208DE7022902D112F0007FE0E712F019
:1058B000020FDDE7136823F00F032B431360136817
:1058C00003F00F03AB427FF47AAF8CE70449E06842
:1058D0008B6823F4E05303438B6087E7003C02406E
:1058E000003802404C2402080C0000203C0000203C
:1058F000044B054A9B68C3F38223D35C034A1068B8
:10590000D840704700380240442402080C000020B0
:105910000F2303600B4B9A6802F0030242609A68FF
:1059200002F0F00282609A6802F4E052C2609B6862
:10593000DB0803F4E0530361034B1B6803F00F0320
:105940000B60704700380240003C024003682DE9BC
:10595000F74313F0010604460BD0AD4A916821F4D9
:1059600000019160466B91683143B6FA86F676097C
:10597000916013F4002512D0A549E56BD1F88C2075
:10598000B5F5801F22F4401208BF012642EA050245
:1059900016BFB5FA85F500256D09C1F88C20D8022F
:1059A00010D59B48216CD0F88C20B1F5800F22F4E3
:1059B000400242EA0102C0F88C2000F086810029F2
:1059C00008BF012513F0807F18BF0126990632D544
:1059D0008F4B904F1A6C42F080521A641B6C03F08C
:1059E00080530193019B3B6843F480733B60FEF757
:1059F00081F880463B68DA0540F16981844F226B6B
:105A00003B6F13F4407340F06D81236B03F44072DD
:105A1000B2F5407F7E4A40F08A81916823F0704061
:105A200021F4F81120F4407001439160C3F30B039B
:105A3000116F0B4313672368D9060CD5744AD2F84B
:105A40008C1021F08071C2F88C10D2F88C10A06BF1
:105A50000143C2F88C105A0408D56D49606ED1F824
:105A6000902022F440320243C1F890201F0408D550
:105A70006749A06ED1F8902022F440220243C1F879
:105A80009020D80308D56249E06ED1F8902022F426
:105A900040120243C1F89020990308D55C49206F59
:105AA000D1F8902022F440020243C1F890205A0617
:105AB00008D55749606CD1F8902022F003020243C8
:105AC000C1F890201F0608D55149A06CD1F890204C
:105AD00022F00C020243C1F89020D80508D54C49A9
