:020000040800F2
:1000000000000520DD130008F9120008FB120008AB
:10001000FD120008FF120008011300080000000094
:1000200000000000000000000000000091880008AF
:1000300003130008000000003189000895890008BA
:100040002D1400082D1400082D1400082D1400088C
:100050002D1400082D1400082D1400082D1400087C
:100060002D1400082D1400082D1400082D1400086C
:100070002D1400082D1400082D1400082D1400085C
:100080002D1400082D1400082D1400082D1400084C
:100090002D1400082D1400082D1400082D1400083C
:1000A0002D1400082D1400082D1400082D1400082C
:1000B0002D1400082D1400082D1400082D1400081C
:1000C0002D1400082D1400082D1400082D1400080C
:1000D0002D1400082D1400082D1400082D140008FC
:1000E0002D1400082D1400082D1400082D140008EC
:1000F0002D1400082D1400082D1400082D140008DC
:100100002D1400082D1400082D1400082D140008CB
:100110002D1400082D140008051300082D140008E4
:100120002D1400082D1400082D1400082D140008AB
:100130002D1400082D1400082D1400082D1400089B
:100140002D1400082D1400082D1400082D1400088B
:100150002D1400082D1400082D1400082D1400087B
:100160002D1400082D1400082D1400082D1400086B
:100170002D1400082D1400082D14000800000000A4
:100180002D1400082D140008454800082D140008FF
:100190002D1400082D1400082D1400082D1400083B
:1001A000111300082D1400081D1300082D14000859
:1001B0002D1400082D1400082D1400082D1400081B
:0801C0002D1400082D140008A5
:1001D00010B5054C237833B9044B13B10448AFF381
:1001E00000800123237010BD3001002000000000BA
:1001F00014FA010808B5034B1BB103490348AFF3D8
:10020000008008BD000000003401002014FA01083D
:1002100001F0FF01102A2BDB10F0070F08D010F8B7
:10022000013B013A8B422DD010F0070F42B3F6D1BB
:10023000F0B441EA012141EA014122F007047FF0D4
:1002400000070023F0E80256083C85EA010586EA2B
:10025000010685FA47F5A3FA87F586FA47F6A5FA67
:1002600087F68EB9EED1F0BC01F0FF0102F0070273
:1002700032B110F8013B013A83EA010313B1F8D11E
:100280000020704701387047002D06BF35460338FF
:10029000073815F0010F07D1013015F4807F02BF38
:1002A000013015F4C03F0130F0BC0138704700BF89
:1002B00053B94AB9002908BF00281CBF4FF0FF31CD
:1002C0004FF0FF3000F06AB9ADF1080C6DE904CED3
:1002D00000F006F8DDF804E0DDE9022304B0704721
:1002E0002DE9F047089D0C46002B4ED194468C45D5
:1002F0008646B2FA82F262D94AB1C2F12003914035
:1003000020FA03F30CFA02FC194300FA02FE4FEA4A
:100310001C471FFA8CF6B1FBF7F44FEA1E4307FBAC
:10032000141143EA014304FB06F199420AD91CEB7C
:10033000030304F1FF3080F01281994240F20F81F3
:10034000023C6344591A1FFA8EF3B1FBF7F007FB26
:10035000101143EA014300FB06F69E420AD91CEB4A
:10036000030300F1FF3180F0FC809E4240F2F980EF
:10037000634402389B1B40EA044000211DB1D34076
:100380000022C5E90032BDE8F0878B4205D90DB1E6
:10039000C5E9000100210846F5E7B3FA83F1002919
:1003A00046D1A34202D39042C0F0F080861A64EB9B
:1003B00003030120002DE6D0C5E90063E3E7002A2E
:1003C00040F09080A1EB0C044FEA1C481FFA8CF718
:1003D0000121B4FBF8F64FEA1E4308FB164443EA3A
:1003E000044307FB06F0984208D91CEB030306F10F
:1003F000FF3402D2984200F2CD8026461C1A1FFA22
:100400008EF3B4FBF8F008FB104443EA044300FB0E
:1004100007F79F4208D91CEB030300F1FF3402D217
:100420009F4200F2B0802046DB1B40EA0640A5E771
:10043000C1F120068B4022FA06F71F4320FA06FC82
:1004400004FA01F343EA0C03F44000FA01F8380C13
:100450004FEA1349B4FBF0FE1FFA87FC00FB1E4471
:1004600049EA04440EFB0CF9A14502FA01F20AD94B
:100470003C190EF1FF3A80F08480A14540F2818062
:10048000AEF1020E3C44A4EB09041FFA83F9B4FB5D
:10049000F0F300FB134449EA044403FB0CFCA445BD
:1004A00007D93C1903F1FF3067D2A44565D9023B57
:1004B0003C4443EA0E40A0FB0293A4EB0C049C4294
:1004C000CE469C4651D34ED055B1B8EB0E0364EBEB
:1004D0000C0404FA06F6CB401E43CC40C5E9006488
:1004E000002150E7C2F1200320FA03F10CFA02FCCC
:1004F00024FA03F394400C434FEA1C4800FA02FE2E
:100500001FFA8CF7B3FBF8F008FB1031230C43EA19
:10051000014300FB07F1994208D91CEB030300F1EA
:10052000FF362CD299422AD9023863445B1AA4B20E
:10053000B3FBF8F108FB113344EA034401FB07F372
:10054000A34208D91CEB040401F1FF3613D2A342E5
:1005500011D902396444E41A41EA004139E70446FA
:10056000F0E6084606E7C845AED2B9EB020E63EBEB
:10057000070C0138A8E73146EDE7034699E7304616
:10058000D4E7D6467FE7634402384DE70646234664
:1005900008460FE7023E634430E700BF704700BFE4
:1005A0000149002009F02EBBD918000838B5104DBC
:1005B00009222C4614F8043F13B16B79532B14D144
:1005C0000C490D481EF096FC4FF4807200210B4838
:1005D0001EF076FC002354F8040C0122A5F8043127
:1005E0000649BDE8384007F08DBC2146E9E700BF69
:1005F000141D0020191D00204C010020181D002092
:1006000008B5642007F0B4FDFBE7000008B5054A13
:10061000054B0649064804F0B9F8192007F0A8FD73
:10062000FBE700BFAD05000835060008A00200206A
:10063000141D00207047000010B594B01022002156
:1006400002240AA81EF03CFC1422002103A81EF07C
:1006500037FC1D4B192108A81A6C42F080521A640D
:100660001B6C03F080530193019B184B1A6842F4F2
:1006700040421A6001221B6803F440430293029B2C
:100680004FF48033CDE908234FF48003CDE90E43C6
:100690004FF4D873CDE91244CDE9101306F01AF8DF
:1006A00005F0B6FC0F2300200721CDE903344FF4F9
:1006B000A053CDE905034FF4805303A8079306F038
:1006C000F1F914B010BD00BF0038024000700040C6
:1006D0002DE980489BB01022002101250DA84FF084
:1006E000104A1EF0EDFB002404F0E6FBC74B0DA8FA
:1006F000ADF834501094CDE90EA304F0FBFB1723A2
:100700000DA88DF835508DF83C308DF8425004F02E
:10071000F1FB042004F0DEFBBFF34F8FBFF36F8FBC
:10072000BB4AC2F85042BFF34F8FBFF36F8F53697C
:1007300043F400335361BFF34F8FBFF36F8FC2F8A1
:100740008440BFF34F8FD2F8803043F6E074C3F398
:10075000C900C3F34E335B0103EA0406014646EACF
:1007600081750139C2F86052F9D2203B13F1200F94
:10077000F2D1BFF34F8F536943F480335361BFF31A
:100780004F8FBFF36F8F04F0FDFA0024FFF754FF83
:10079000142200210DA81EF093FB9E4B10219E48B1
:1007A0001A6B01274FF010084FF0030B42F01002B4
:1007B0004FF4805A994D4FF004091A631A6B984E02
:1007C00002F010020292029A1A6B42F002021A63BD
:1007D0001A6B02F002020392039A1A6B42F00102B2
:1007E0001A631A6B02F001020492049A1A6B42F027
:1007F00040021A631A6B02F040020592059A1A6BC6
:1008000042F400721A631A6B02F400720692069A9E
:100810001A6B42F008021A631A6B02F00802079280
:10082000079A1A6B42F480621A631A6B02F48062B0
:100830000892089A1A6B42F020021A631A6B02F0AF
:1008400020020992099A1A6B42F480721A631A6B99
:1008500002F480720A920A9A1A6B42F080021A63BA
:100860001A6B02F080020B920B9A1A6B42F0040290
:100870001A6300221B6B03F004030C930C9B04F01F
:1008800097FE01220821674804F092FE01224FF4EE
:100890008051654804F08CFE0022C021634804F0BA
:1008A00087FE00224021624804F082FE0DA95A48CA
:1008B000CDE90D87CDE90F4B04F0F6FC08230DA917
:1008C0005848CDE90D37CDE90F4404F0EDFC0DA9F2
:1008D0005548CDE90DA7CDE90F4404F0E5FCC02251
:1008E0000DA95248CDE90D27CDE90F4B04F0DCFCF2
:1008F00040220DA94E48CDE90D27CDE90F4B04F05C
:10090000D3FC4C484C49848001600762C0E905442F
:1009100004F01CFB49492846C5E90014C5E9024416
:10092000C5E90A44C5E90C4404F0BFFB3946284632
:10093000434D04F073FC40234FF4C07241493046EC
:10094000B460F461B462C6E905324FF40062C6E9EE
:10095000082A4FF0020A0722C6E900140DA9CDF8B3
:100960004CA0C6E90398CDE90F92CDE90DA2CDE9DF
:1009700011BA06F0FDFB29464FF6FF72304601948E
:10098000C5E90078C5E9027406F012FC384604F0A7
:100990001DFA29464FF6FF723046C5E900A8C5E9A1
:1009A000027406F005FC082329464FF6FF72304614
:1009B000C5E900B8C5E9023406F0FAFB4FF40C7340
:1009C0004FF6FF72294601933046019BAF60EB6002
:1009D000C5E9009806F0ECFB40F22B7130461A4D49
:1009E00006F005FC4FF0204343F2D202642040F2AF
:1009F00015261A6004F0EAF9144B154A28462C62B1
:100A0000C5E90023C5E9024724E000BF1B0000033D
:100A100000ED00E0003802400004024070040020B5
:100A20006C02002000280240002002400008024022
:100A300000180240B00400200030024000B0024024
:100A40004C020020400100A01C0400206847402008
:100A5000005C0040C5E90444C5E9064404F0D0FE4A
:100A60002146284605F0EEF8214628464A4D05F075
:100A70000FF9342221460DEB02001EF021FA474BFC
:100A80002821352040F2352C2C61AC8685F8364083
:100A9000C5E900340923C5E905130B23C5E907039C
:100AA00040F21B132846C5E9096340F21D13C5E94E
:100AB0000244C5E90BC305F097F9FF214FF4806E9E
:100AC0004FF4F0724FF4887328460D941893ADF8E4
:100AD00064408DF86640CDE912140521CDE914E19A
:100AE0004FF04041CDE90E24CDE9161222460DA962
:100AF000CDE9103A05F043FA29482A4B0462C0E9CF
:100B00000298C0E900374FF018084FF4A063DFF8EF
:100B1000C890C0E90483C0E9064405F093FB03F0E4
:100B2000B1FF03F0F7FE5C2004F0B4F900F054FCD0
:100B30001D484FF4E13304614462C0E900930C2383
:100B4000C0E90244C0E90534C0E9074407F052F99E
:100B500000F06EFC00F06BFC07F07CFA134807F025
:100B60001FFB134B134A21461860134807F0ACFAD9
:100B7000124B134A21461860124807F0A5FA124B8F
:100B8000124A21461860124807F09EFA114B18606D
:100B900007F07AFAFEE700BF740300200068014006
:100BA00028030020001000A0A0020020D4FA0108B1
:100BB0005C0200202CFB01080106000868020020EE
:100BC00008FB01083F14000864020020E4FA010851
:100BD0000D06000860020020007800400268064B05
:100BE0009A4207D1054B012283F80621D3F80C3134
:100BF00003B11847704700BF00780040141D002063
:100C0000034B1A68824202D1184603F0FBBD7047BD
:100C1000141D00201FB5074A01AB10685168127AF5
:100C200003C301A91A7004480A2203F0DFFD05B0CE
:100C30005DF804FB6CFA0108141D00201FB5074A7B
:100C400001AB10685168127A03C301A91A700448F5
:100C50000A2203F0CBFD05B05DF804FB75FA01082C
:100C6000141D00201FB5074A01AB10685168127AA5
:100C700003C301A91A7004480A2203F0B7FD05B0A6
:100C80005DF804FB7EFA0108141D00201FB5074A19
:100C900001AB10685168127A03C301A91A700448A5
:100CA0000A2203F0A3FD05B05DF804FB87FA0108F2
:100CB000141D00201FB5074A01AB10685168127A55
:100CC00003C301A91A7004480A2203F08FFD05B07E
:100CD0005DF804FB90FA0108141D00201FB5074AB7
:100CE00001AB10685168127A03C301A91A70044855
:100CF0000A2203F07BFD05B05DF804FB99FA0108B8
:100D0000141D00200268034B9A4201D104F04CB834
:100D1000704700BF00100040704700000D4B82B0CC
:100D20000F216FF001001A6C42F080521A641A6CA5
:100D300002F080520092009A5A6C42F480425A6447
:100D400000225B6C03F480430193019B02B004F02A
:100D500061B800BF00380240026882B0084B9A4276
:100D60000BD1D3F8302803F5006342F480521A63A4
:100D70001B6B03F480530193019B02B0704700BFCB
:100D8000003002400E4B07B502689A4215D1A3F518
:100D9000F04305215A201A6B42F400021A63002224
:100DA0001B6B03F400030193019B04F033F85A20FA
:100DB00003B05DF804EB04F05FB803B05DF804FB2A
:100DC00000B0024010B5A8B004461422002102A8C9
:100DD0001EF076F88422002107A81EF071F8226820
:100DE000174B9A422AD14FF4803307A8079305F096
:100DF00035FF08B1FFF790FF124C4FF4C07201218C
:100E00001148236B43F080032363236B03F08003BB
:100E10000093009B1223CDE902230323CDE90413A1
:100E2000042302A9069304F03FFA236C43F4000361
:100E30002364236C03F400030193019B28B010BDCD
:100E4000005C004000380240001C0240026808B507
:100E5000094B9A420FD1094A80210948136C23F4A7
:100E60000003136404F004FB4FF480710448BDE8F0
:100E7000084004F0FDBA08BD005C004000380240A4
:100E8000001C024070B5ACB004461422002106A834
:100E90001EF016F8842200210BA81EF011F822681B
:100EA000484B9A4240F08C800823052001240B9384
:100EB0004FF4C07310930223CDE911304FF4003387
:100EC0000BA8CDE9154305F0C9FE08B1FFF724FFD3
:100ED0003D4B002402250E265A6C06A93B4842F0E1
:100EE00080625A645A6C02F080620092009A1A6B17
:100EF00042F010021A631A6B02F010020192019A7A
:100F00001A6B42F400721A631A6B02F400720292B6
:100F1000029A1A6B42F480621A631A6B02F48062BE
:100F20000392039A1A6B42F040021A631A6B02F0A2
:100F300040020492049A1A6B42F480721A631B6B8B
:100F400003F480730593059B1023CDE90635CDE9A5
:100F500008440A9604F0A8F94EF6FF7306A91C4847
:100F60000A96CDE90635CDE9084404F09DF9F7234A
:100F700006A918480A96CDE90635CDE9084404F0DB
:100F800093F94FF4805306A91348CDE90635092398
:100F9000CDE908440A9304F087F94FF4464306A9C3
:100FA0000E480A96CDE90635CDE9084404F07CF9EF
:100FB00058202246052103F02DFF582003F05CFF46
:100FC0002CB070BD006801400038024000100240A3
:100FD0000024024000280240001802400020024085
:100FE000142200212DE9F0418AB004460DEB0200E5
:100FF0001DF066FF22682C4B9A4251D12B4B0225E3
:10100000032409269A6B4FF0040805A9284842F0EA
:10101000020200279A639A6B02F002020192019A7F
:101020001A6B42F010021A631A6B02F0100202925D
:10103000029A1A6B42F002021A631A6B02F0020261
:101040000392039A1A6B42F008021A631B6B03F0B7
:1010500008030493049BCDE90585CDE9084604F017
:1010600023F9402305A91348CDE905350A23CDE925
:101070000774099304F018F905A90E480996CDE9FB
:101080000585CDE9077404F00FF94FF4605305A905
:1010900009480996CDE90535CDE9077404F004F94E
:1010A0000AB0BDE8F08100BF001000A00038024087
:1010B0000010024000040240000C0240026808B523
:1010C0000B4B9A4213D10B4A04210B48936B23F02C
:1010D0000203936304F0CCF94421084804F0C8F9F2
:1010E0004FF460510648BDE8084004F0C1B908BD9E
:1010F000001000A00038024000100240000402402E
:10110000000C024010B5A8B004461422002102A829
:101110001DF0D6FE8422002107A81DF0D1FE226812
:10112000174B9A422AD14FF4805307A8079305F032
:1011300095FD08B1FFF7F0FD124B002112481A6C23
:1011400042F080421A641A6C02F080420092009AC7
:101150001A6B42F020021A63C0221B6B03F02003BB
:101160000193019B0223CDE902230323CDE904135C
:1011700008230DEB0301069304F096F828B010BD88
:10118000007800400038024000140240F0B500230F
:1011900087B00393294B1E68002E4DD101220227F0
:1011A00003250C241A6001A9254B26489A6B42F0AE
:1011B00001029A639B6B03F001030093009B4FF6BF
:1011C0008373CDE90454CDE9013704F06DF848F29A
:1011D000331301A91C480594CDE90137CDE9036516
:1011E00004F062F84CF2037301A918480594CDE9A4
:1011F0000137CDE9036504F057F84FF63F0301A925
:1012000013480594CDE90137CDE9036504F04CF8A6
:10121000282301A90F480594CDE90137CDE90365DD
:1012200004F042F8082301A90B480594CDE90137E1
:10123000CDE9036504F038F807B0F0BDD404002010
:10124000003802400010024000180240000C02402A
:1012500000140240001C024000080240214B1A6C9E
:1012600042F0100270B51A6488B01B6C054601A9E3
:1012700003A803F010030293029B05F0D1FC069B28
:101280004BBB05F0ADFC184E184B336040F2E73312
:10129000F360174BB0FBF3F3013B30467360002360
:1012A0003361B360B36106F013F9044680B9304688
:1012B00005F0B6FF044658B9362003F0DDFD0F2DCA
:1012C0000DD822462946362003F0A4FD094B1D60A7
:1012D000204608B070BD05F083FC4000D3E7012430
:1012E000F6E700BF00380240D8040020001000409C
:1012F00040420F00480000207047FEE7FEE7FEE78F
:10130000FEE77047014805F0CDBF00BFD8040020BC
:10131000014804F0D7BD00BF74030020014803F06A
:10132000F2BE00BF700400200120704708B51DF018
:101330008FFE162303604FF0FF3008BD08B51DF087
:1013400087FE16230360FEE770B50D4614460E4671
:10135000731B9C4201DC204670BDAFF3008006F891
:10136000010BF5E770B50D4614460E46731B9C4203
:1013700001DC204670BD16F8010BAFF30080F5E7E5
:101380004FF0FF3070474FF4005300204B60704720
:1013900001207047002070470B4A0346116810B5C2
:1013A00009B90A491160106809490A4C0344091B2C
:1013B0008B4206D91DF04CFE0C2303604FF0FF302A
:1013C00010BD1360FCE700BF24050020005D012074
:1013D00000000520000A000070470000DFF834D04C
:1013E000002103E00C4B5B58435004310B480C4B7D
:1013F00042189A42F6D30B4A02E0002342F8043B1B
:10140000094B9A42F9D303F0D5FB1DF027FEFFF7F5
:101410005FF97047000005206C1B020800000020E7
:101420003001002030010020FC5C0120FEE7704705
:1014300008B500F05FFDBDE8084000F0EBBC00F02F
:101440005BBD406870474160704700004FF0E0228C
:10145000D2F8FC3D43F08073C2F8FC3D054B064AD0
:10146000D3F8B01F0A43C3F8B02F1A6842F0010244
:101470001A607047001000E055CEACC5521A02EB5E
:101480005302B2FBF3F07047014B5868704700BF3E
:10149000001000E0704710B504460C211DF045FA1D
:1014A000204610BD036810B51B69044631B198474A
:1014B000A26863689B1A0344636010BD9847A060EC
:1014C000FBE70000024B7020024A1360DB681847FC
:1014D0001C00002028050020704710B50446042198
:1014E0001DF023FA204610BD73B50E4E0D4614466E
:1014F000336813B9002002B070BD1B697020984793
:101500000028F7D03368702001AA0DF106015B694D
:101510009847BDF8043001202B60BDF806302360E9
:10152000E9E700BF280500207FB501238DF81720CB
:101530004FF47A72CDE901320DF1170200920A469A
:101540000146054804F0C6F910B1034804F0A9F9B2
:1015500007B05DF804FB00BF1C0400207FB500232A
:101560000A464FF47A718DF817300123CDE9013125
:101570000DF1170100910146054804F085FA10B1FC
:10158000034804F08EF99DF8170007B05DF804FBDE
:101590001C040020032823D8DFE800F0020B131AF4
:1015A000104B102110481A68B2FA82F2520903F067
:1015B000FFBF0C4B40215A68B2FA82F252090B4825
:1015C000F5E7084B80219A68B2FA82F25209F6E7F1
:1015D000044B40210648DA68B2FA82F25209E6E783
:1015E000704700BF2C0500200004024000080240A4
:1015F00000180240032823D8DFE800F0020B131A7A
:10160000104B102110481A68003A18BF012203F04D
:10161000CFBF0C4B40215A68003A18BF01220B483B
:10162000F5E7084B80219A68003A18BF0122F6E7D7
:10163000044B40210648DA68003A18BF0122E6E769
:10164000704700BF2C050020000402400008024043
:101650000018024003280FD8DFE800F00206090B4B
:101660001021064803F0A9BF40210548FAE7802170
:10167000FBE740210348F5E7704700BF0004024044
:10168000000802400018024008B5032813D8DFE81C
:1016900000F0020A0D0F1021084803F083FF431EDB
:1016A0005842584108BD40210548F6E78021FBE734
:1016B00040210448F1E70020F1E700BF00040240A8
:1016C000000802400018024070B5084D00240126B1
:1016D000E0B2FFF7D9FF18B12B68012B18BF2E60BD
:1016E00001340435052CF3D170BD00BF2C0500205A
:1016F000012380F8781080F8793070470020704717
:1017000041640039024B18BF01211970704700BFB6
:10171000CB50012000207047836B0BB1084618475F
:1017200070474FF6FF707047406803689B69184721
:101730007047000038B5044600F0A6FC084923684D
:101740002046084DD3F88C3098470023284684F86B
:101750004A30FFF77BFE0123256184F8703038BDE5
:10176000000000C03C05002000F058BC00F05CBC4C
:1017700070B500F0A7FC10490023C1F88430BFF316
:101780004F8FD1F8803043F6E074C3F3C900C3F340
:101790004E335B0103EA0406024646EA8275013ACB
:1017A000C1F87452F9D2203B13F1200FF2D1BFF3EC
:1017B0004F8FBFF36F8F70BD00ED00E000F084BC71
:1017C00000F008BC00F082BC00F08ABC00F00CBC49
:1017D00010B5044609F0ECFE23682046D3F8AC307F
:1017E000BDE81040184709F041B910B504467C2106
:1017F0001DF09BF8204610BD90F834100D4B10B52D
:1018000090F878401A788C4209D03AB90A490B4AC4
:1018100008881488108001220C801A7010BD002ADC
:10182000FCD0064A0449148808880C8010800022E5
:10183000F3E700BFC4500120C2500120C050012076
:1018400070B50D46194635B9094B40F2D221094A07
:1018500009481DF099F8C0E90F52003A074B18BF2C
:1018600001221A700368BDE87040D3F88C30184725
:1018700090FB0108C8FB010816FC0108CA500120B2
:1018800008B5094B1B888B4203D8084B1B88934231
:1018900005D9074B9E21074A07481DF075F8074BED
:1018A0001980074B1A8008BDC0500120C25001208A
:1018B0005BFC0108BEFC010816FC0108C6500120B3
:1018C000C8500120034690F87A0018B158680368A0
:1018D0001B68184770470000014608B5034B18689D
:1018E00001B1012109F07EFE012008BDCC5001208C
:1018F000034B00225A609A60024A1A60704700BF88
:101900003C05002058FB01080121002208B50846CB
:1019100006F088FC0A4B186028B90A4B28210A4AAD
:101920000A481DF031F800220421012006F044FD90
:10193000074B186018B9074B2C21034AF0E708BD84
:101940004C050020DCFD010825FE010854FE0108BD
:1019500048050020B4FE0108024B4FF0FF31186823
:1019600006F0B8BC4C050020014B186806F0EEBC30
:101970004C050020024B0021186806F0ABBC00BFEC
:101980004C050020FFF7F0BF0023034803491A4627
:10199000006806F057BD00BF480500200400002085
:1019A00013B50023074C01A91A46206806F08CFDE8
:1019B0004FF0FF33002201A9206806F085FD02B038
:1019C00010BD00BF4805002003685B6C184701206C
:1019D000704703689B6A18470D4B82B01A6B42F43C
:1019E00000021A631A6B02F400020192019A1A694A
:1019F00042F400021A611A6922F400021A61054BCE
:101A0000054A1A614FF08062044B9A6002B0704739
:101A10000038024070040020A91C000800E100E02A
:101A200040F2EF3070470000054B4FF080620360DA
:101A3000044BC3F88820BFF34F8FBFF36F8F7047FD
:101A40006400020800E100E010B504464FF45A615A
:101A5000FFF7EAFF20461CF068FF204610BD00009B
:101A600008B50A2809D8DFE800F006100E080808B3
:101A7000081010101000022008BD054B8621054AF1
:101A800005481CF081FF0020F6E70120F4E700BFC5
:101A9000F6FE010811FF01085CFF010838B50C468D
:101AA000887FFFF7DDFF174BA58AE28A586342EA79
:101AB000054221695A64628BD963521B1A642568F6
:101AC000082D0ED19A611A6158620F4A207F42EAAE
:101AD0000062DA61E2681A620C4A5961D9601A60E0
:101AE00038BD0022D8611A61E1680A0A4809C1F3C9
:101AF000C40102F4784200F4FC6002430A439A6392
:101B0000034AECE700B002400900010001020200B4
:101B10000102030008B50B280BD8DFE800F006121D
:101B2000100A0A0A0A0808080808022008BD052049
:101B3000FCE7054B6521054A05481CF025FF002000
:101B4000F4E70120F2E700BFF6FE0108BAFF010842
:101B50005CFF01082DE9F04191F81D800C464046DC
:101B6000FFF7D8FFA77F05463846FFF7D3FF0646A5
:101B70003846FFF775FFA18A628B434B521A1A64ED
:101B80009A61228B521A1A61E28A586342EA014230
:101B900021695A646268D963DA602068802828D095
:101BA000227F0FD8202866D0402864D004281AD07D
:101BB00045EA0265344BB84545F40035DD6160D037
:101BC000324A44E0B0F5807F04D0B0F5007FEFD119
:101BD0002F4800E02F4840EA0262DA61E2681A62A8
:101BE0005E62596132E045EA026242F40032DA6133
:101BF000F6E7A068021DDA62227F45EA026545F435
:101C00000035DD615E625961017841B1012921D061
:101C1000214B4FF48871214A21481CF0B5FEDA6946
:101C2000418822F47F42013922F0100242EA012267
:101C30000121DA61144BDA6942F02002DA61DA69D3
:101C40009206FCD410229A600029B9D0154A1A6075
:101C5000BDE8F081B2F1FF01DA69408822F47F42E9
:101C600018BF0121013822F0100242EA002242F09E
:101C70001002DA61DEE745EA0262034B42F4003209
:101C8000B5E740F20122E2E700B0024001020100A4
:101C9000090002000A000200040002081E000208F7
:101CA0005CFF010801020200024B1B6858680368D0
:101CB0005B691847CC50012070B504460A4B0C30C4
:101CC00000262546602260602672667245F8203B39
:101CD000294609F0C3FD04F55A63EE6024359D42A0
:101CE000FBD1204670BD00BF640002080120704790
:101CF0000C2070470C2303FB0100083070470C23B5
:101D000003FB0100083070470120704740F2BC60BF
:101D1000704740F2BC6303FB01000830704740F29B
:101D2000BC6303FB0100083070470120704710209E
:101D3000704700EB01100830704700EB01100830CD
:101D40007047084600F0CCBB034B10B50446036057
:101D500008F0E5FB204610BD1C01020810B5044642
:101D6000FFF7F2FF142120461CF0DFFD204610BDD6
:101D7000034B10B50446036008F0D1FB204610BDAC
:101D8000E800020810B50446FFF7F2FF40F2C46114
:101D900020461CF0CAFD204610BD0000034B10B5C4
:101DA0000446036008F0BBFB204610BDB4000208E7
:101DB00010B50446FFF7F2FF182120461CF0B5FDD0
:101DC000204610BD084B10B50446036000F5DE60E8
:101DD000FFF7BAFF04F12C00FFF7CAFF04F114006B
:101DE000FFF7DCFF204610BD5001020808B502488D
:101DF000FFF7E8FF08BD00BF0014002010B504463F
:101E0000FFF7E0FF40F6640120461CF08EFD2046FF
:101E100010BD00002DE9F34100F0C4F9002405468F
:101E200000F0C4F9234601462246284600940FF0EC
:101E300017F9254B254A2046254D1A6001F09AF9DD
:101E400024480FF075F82B68BFF35B8FDB0735D4A0
:101E500028461CF06CFD88B31F4C204B04F5E1664E
:101E600004F1140004F12C0804F5DE6723606060BF
:101E7000C4F80880E760266108F052FB184B404622
:101E8000636108F04DFB174B3846E36208F048FBEE
:101E9000154B04F20470C4F8F03602F0D5F922466E
:101EA00004F20471304602F07DF9304600F018FB70
:101EB0000E481CF087FD28461CF045FD0C4802B07A
:101EC000BDE8F041FFF736BC28510120CC050020C9
:101ED000FC1300200800002000140020500102081C
:101EE000B4000208E80002081C010208ED1D000809
:101EF0005005002070470000014808F020BE00BFD8
:101F00005005002070B5224E224B234C3046234D05
:101F10002360FFF7D1FE284613F07CFB204B002204
:101F20004FF480711F481A8683F858205A6683F848
:101F300070205A67DC60C3E912121B49C3E91A1208
:101F40001A4999671A490B604FF4F07101801948DA
:101F500001804FF488711848C3E90422C3E90622BE
:101F6000C3E90822C3E90A22C3E90E22C3E9102209
:101F7000C3E91422C3E91722C3E9016501800F48B0
:101F800083F8342001800E490A700E4A1A6070BD31
:101F90005806002080FB0108F8130020D00500201F
:101FA00050050020C0500120010000010000010187
:101FB000CC500120C6500120C2500120C850012041
:101FC000C45001200CFD01080148FFF72DBD00BFE2
:101FD00058060020034B902283F85A2383F8582395
:101FE000704700BF00E100E0094A0A49D3680A4887
:101FF000C3F30A03013B9BB20B801169C1F30A01D1
:10200000013901801364536B43F00103536370473C
:1020100000680140661C0020641C0020014BD3F8BE
:10202000AC00704700680140024B0122C3F8AC10BD
:102030005A62704700680140124A5369DB0370B569
:102040001ED50023C2F88430BFF34F8FD2F8803002
:1020500043F6E074C3F3C900C3F34E335B0103EAF4
:102060000406014646EA81750139C2F87452F9D274
:10207000203B13F1200FF2D1BFF34F8FBFF36F8FCF
:1020800070BD00BF00ED00E070B5044608F043FDF0
:1020900023685D6E0BF09AFF01462046A84723682F
:1020A000054A2046D3F888500023A2F57F31AC467C
:1020B000BDE87040604700BF00F807C008F012BDDF
:1020C00008F01CBD08F0D8BC08F047BE034B4FF029
:1020D00080629A604FF080729A60704700E100E081
:1020E000084B4FF08062C3F88820BFF34F8FBFF3D7
:1020F0006F8F4FF08072C3F88820BFF34F8FBFF30C
:102100006F8F704700E100E010B5144C236823B3D3
:10211000134B144A1B6C11888B4213D1124B198834
:1021200003F05AFF226892F86A30013382F86A306D
:10213000FFF72AFC206809F03BFA0020BDE81040B8
:10214000FFF728BA03F048FF206803681B6A984726
:102150000020BDE81040FFF74DBA10BDCC50012063
:1021600000680140661C0020641C0020704710B508
:10217000044604211CF0D9FB204610BD012908B5F6
:1021800006D0022908D059B901F040F8006808BD0E
:1021900001F03CF84068FAE701F038F88068F6E7AB
:1021A0000020F4E700487047700102080C207047D7
:1021B00013B5002451B1036801AA01948DF80340BE
:1021C0009C680DF10303A04702B010BD0846FBE771
:1021D000C0897047008A7047C08870478088704700
:1021E000807A00F07F007047807AC0097047002035
:1021F000704700009FED010A704700BF000000001B
:102200000020704781807047C1807047018170470E
:10221000418170477047704770477047704710B4EE
:10222000C4880368121B84885B6D091B12B25DF8B9
:10223000044B09B218474FF6FF7383814FF0FF3309
:1022400003621368C36110607047806A704770470B
:10225000704710B5044684211CF067FB204610BD72
:1022600090F8252012B103685B691847704790F811
:1022700025201AB190F8242002B118607047036835
:1022800070B504461B6B15469847236820462946BF
:102290005B6BBDE870401847002310B5C0E90133FF
:1022A000C0E90333C0E90733C0E905334FF4807355
:1022B00004468384054B03600B88C384FF2380F8A6
:1022C00028300AF032F8204610BD00BF7815020809
:1022D0004FF480732DE9F7430446002506468384B6
:1022E000244B04F158074FF6FF78856201A94FF09F
:1022F0000A09ADF80480C0E90155C0E90355C0E9F9
:102300000555C0E9075546F82C3B3046FFF7C4FF9A
:1023100001A93846ADF80480FFF7BEFF164B362200
:102320002946A36030464FF09608FFF7A8FF01A9A1
:102330003046ADF8049009F0F8FF3146204684F8A5
:10234000548008F0FFF86FF0010229463846FFF785
:1023500096FF01A93846ADF8049009F0E6FF204643
:10236000394684F8808008F0EDF8204603B0BDE8D7
:10237000F08300BF6802020882006E00704710B54B
:10238000044608211CF0D1FA204610BD7047704762
:1023900000F598730868496803C370477047704731
:1023A0004160704770470000064BC0F84801C0F814
:1023B0004C310023C0F8503100F5A273C0F8403111
:1023C000704700BF4529000801230372704770471A
:1023D000704710B441680346C2689B68541001EB13
:1023E0006200D20748BF0A595DF8044B48BFD35872
:1023F00018470346406830B19A681AB9D86800F0A7
:10240000010070470120704710B504460C211CF0F4
:102410008CFA204610BD10B5044610211CF085FA38
:10242000204610BD10B504464FF4AE711CF07DFA85
:10243000204610BD10B50BF0C9FD0368BDE8104083
:10244000DB6B184710B50446D0F8400158B103685B
:10245000DB68984738B1D4F8400103689B68984717
:102460000023C4F8403110BD044B1B6893F858207A
:102470000AB1D86C00B99868704700BFCC500120F1
:10248000F8B5044617460E460BF066FE104B0025C5
:102490001C6029460F4B23600F4BC4E951350F4B8D
:1024A0001868C4E953550368C4E94F559B68C4E9EB
:1024B00055769847284600F05DFEFFF7D5FF14F0EB
:1024C000DAFEFFF7D1FF14F051FF2046F8BD00BF40
:1024D000185101207C08020864080208CC50012031
:1024E000064BC0F84801C0F84C310023C0F8503109
:1024F00000F5A273C0F84031704700BF45290008BD
:10250000064BC0F84801C0F84C310023C0F85031E8
:1025100000F5A273C0F84031704700BFF9270008EA
:10252000064BC0F84801C0F84C310023C0F85031C8
:1025300000F5A273C0F84031704700BFB126000813
:10254000064BC0F84801C0F84C310023C0F85031A8
:1025500000F5A273C0F84031704700BF692500083C
:1025600003685B6A184700002DE9F14FD0E9556A0E
:102570000746B06803681B6A9847DB2805D8444BB8
:10258000A321444A44481CF0FFF9706803681B6AA1
:1025900098470F2803D8414BA4213E4AF2E7F06840
:1025A00003681B6A98470B2803D83D4BA521394A7D
:1025B000E8E7DFF8F4900BF009FD04300BF02BFD99
:1025C000D9F8000010B10368DB689847D9F800001B
:1025D00010B103681B689847DFF8D080D8F8000076
:1025E00010B103685B699847D7F83C0110B10368E4
:1025F0005B689847D8F8000010B103681B689847DB
:10260000D7F83C0110B103689B6898470021F06837
:10261000FFF7A6FF4FF0000B224B0446C0F804B0B2
:10262000594680F808B00360B06803685B6A984751
:10263000054601F047FE7068594603685B6A984793
:102640000646294601F01EFE331DC7F83C612846A8
:10265000C9F80040C8F80050CAF800302B68C6F826
:1026600008A0DB68EE639847336830461B689847DC
:10267000214628460DF076F9236820461B699847C5
:10268000236820465B6901B0BDE8F04F184700BFE2
:10269000040302089203020862040208A904020863
:1026A0004C050208D00802080C51012008510120F5
:1026B0002DE9F14FD0E9556A0746B06803681B6AF7
:1026C0009847B0F5387F05D2434BA321434A44488D
:1026D0001CF05AF9706803681B6A98470F2803D8E2
:1026E000404BA4213D4AF2E7F06803681B6A984713
:1026F0000B2803D83C4BA521384AE8E7DFF8F090D7
:102700000BF064FC04300BF086FCD9F8000010B12B
:102710000368DB689847D9F8000010B103681B68AC
:102720009847DFF8D080D8F8000010B103685B69E3
:102730009847D7F83C0110B103685B689847D8F810
:10274000000010B103681B689847D7F83C0110B12E
:1027500003689B6898470021F068FFF701FF4FF07E
:10276000000B224B0446C0F804B0594680F808B06C
:102770000360B06803685B6A9847054601F03AFE5B
:102780007068594603685B6A98470646294601F017
:10279000C5FD331DC7F83C612846C9F80040C8F89C
:1027A0000050CAF800302B68C6F808A0DB68EE635A
:1027B0009847336830461B689847214628460DF0F5
:1027C000D1F8236820461B699847236820465B6937
:1027D00001B0BDE8F04F184704030208EF050208F6
:1027E00062040208A90402084C050208D008020885
:1027F0000C510120085101202DE9F14FD0E9556A13
:102800000746B06803681B6A984740F2BB6398426A
:1028100005D8444BA321444A44481CF0B5F87068DD
:1028200003681B6A98470F2803D8414BA4213E4AEE
:10283000F2E7F06803681B6A98470B2803D83D4B02
:10284000A521394AE8E7DFF8F4900BF0BFFB04302C
:102850000BF0E1FBD9F8000010B10368DB68984782
:10286000D9F8000010B103681B689847DFF8D080E2
:10287000D8F8000010B103685B699847D7F83C01AD
:1028800010B103685B689847D8F8000010B103687E
:102890001B689847D7F83C0110B103689B689847BC
:1028A0000021F068FFF75CFE4FF0000B224B04465E
:1028B000C0F804B0594680F808B00360B0680368F7
:1028C0005B6A9847054601F09BFE706859460368AD
:1028D0005B6A98470646294601F068FE331DC7F833
:1028E0003C612846C9F80040C8F80050CAF80030DA
:1028F0002B68C6F808A0DB68EE639847336830465B
:102900001B689847214628460DF02CF8236820467E
:102910001B699847236820465B6901B0BDE8F04F0A
:10292000184700BF04030208BD060208620402083B
:10293000A90402084C050208D00802080C51012025
:10294000085101202DE9F14FD0E9556A0746B068DA
:1029500003681B6A9847B0F5DC7F05D2434BA3217F
:10296000434A44481CF010F8706803681B6A984793
:102970000F2803D8404BA4213D4AF2E7F0680368D2
:102980001B6A98470B2803D83C4BA521384AE8E737
:10299000DFF8F0900BF01AFB04300BF03CFBD9F899
:1029A000000010B10368DB689847D9F8000010B147
:1029B00003681B689847DFF8D080D8F8000010B192
:1029C00003685B699847D7F83C0110B103685B68FE
:1029D0009847D8F8000010B103681B689847D7F8EB
:1029E0003C0110B103689B6898470021F068FFF72D
:1029F000B7FD4FF0000B224B0446C0F804B0594617
:102A000080F808B00360B06803685B6A98470546C1
:102A100001F00AFC7068594603685B6A98470646ED
:102A2000294601F0D7FB331DC7F83C612846C9F899
:102A30000040C8F80050CAF800302B68C6F808A05B
:102A4000DB68EE639847336830461B689847214639
:102A500028460CF087FF236820461B6998472368A7
:102A600020465B6901B0BDE8F04F18470403020837
:102A70008D07020862040208A90402084C05020836
:102A8000D00802080C51012008510120406A70470B
:102A9000806A704770478B88C069DB0A0A6850F803
:102AA00023001044704710B50446BAB1107B68B1DA
:102AB000537BD27A1B0203F4E0631A43236A03EBCD
:102AC00082031A888A4202D193F9020010BD05D808
:102AD0000138043380B20028F3D1F7E70020F5E78E
:102AE00010B504462C211BF020FF204610BD00002D
:102AF00030B58BB00446BDF860500895BDF85C5009
:102B000007959DF8505006959DF84C5005959DF8F9
:102B1000485004959DF8445003959DF84050029507
:102B20009DF83C500195BDF8385000950CF074FBB1
:102B3000064B20462360159BE361169B2362199B7D
:102B400063621A9BA3620BB030BD00BFF408020899
:102B500070477047704770477047704770477047BD
:102B600030B444680346C2689B68551004EB6200A9
:102B7000D20748BF625930BC48BFD35818470346F4
:102B8000406830B19A681AB9D86800F001007047FF
:102B90000120704710B5044610211BF0C6FE2046E8
:102BA00010BD10B504464FF4DA711BF0BEFE20468E
:102BB00010BD38B500F5947304460D46994203D113
:102BC0000BF004FAFFF7ACFC04F1E0039D4203D1E3
:102BD0000BF0FCF9FFF794FC04F5B874A54205D19D
:102BE0000BF0F4F9BDE83840FFF7AABC38BD00008F
:102BF0000022C0E90122C0E90322C0E90522C0E9A0
:102C000007224FF480728284014A0260704700BF3D
:102C1000200A0208F8B5194B0646018F1B888B4223
:102C20002AD9174B1B682BB9164B6C21164A17482B
:102C30001BF0AAFE13F81120154B1B6853F8225005
:102C4000144B186800F0D2FA2B68074628469B6B95
:102C500098472B68044639469B6C2846984714FBD6
:102C600000F42B683946A4B228465B6A98472318BB
:102C70001BB2A6F84630F8BD0023FAE72051012028
:102C80001C5101205409020896090208D1090208C2
:102C900024510120285101202DE9F04F04468BB02A
:102CA00000250CF0B3FC26464FF02608924B29462F
:102CB0004246E56346F8403B30461CF001F9304699
:102CC000FFF796FF8D4B04F16C0AFF2723644FF644
:102CD000FF734246294684F866705046A56604F1A3
:102CE0009809ADF820301CF0EBF8504604F1E00BE9
:102CF000FFF77EFF824A08A95046E266BDF8202011
:102D000084F894704FF0FF37A4F8922009F00DFB7F
:102D10002946424648461CF0D3F84846FFF768FF6C
:102D2000784A794B5846C4F898204FF47F02C4F88B
:102D3000C0304FF6FF73C4F8C850A4F8C430C4F8CC
:102D4000CC20A4F8D050C4F8D450C4E9367509F0AA
:102D50002DFC04F594721046009209F027FC04F54E
:102D6000B872294601924246019804F104081CF009
:102D7000A7F80198FFF73CFF4FF6FF7301222946A1
:102D8000A4F8A031304684F8A231604B84F8942135
:102D90005F4AC4F8985184F89C51C4F870212A46BF
:102DA000A4F89E71C4E969345A4BC4E96B35FFF746
:102DB00066FA30464FF4F071FFF728FA30464FF4C8
:102DC0008871FFF725FA4FF07F4331464046A366EE
:102DD00004F5D27607F0B6FB2A4629465046FFF79F
:102DE0004EFA08A95046ADF8205009F09EFA514617
:102DF00040464FF00A0A07F0A5FB572248465421E7
:102E0000FFF73DFAA4F8CC5002AD4946C4F8C870AB
:102E1000284608F069FE04F1D40395E8070083E82A
:102E20000700394B962508A9484608930323ADF8B7
:102E3000243009F001F94946404684F8CE504FF05D
:102E4000090907F07FFB5846AF225A21FFF717FA0E
:102E500008AA07A95846ADF81CA0ADF8209009F0C3
:102E600046F915235846A4F81831FFF7D3FE594602
:102E7000404684F81251C4F80861C4E9477707F066
:102E800061FB0098AF224FF48771FFF7F8F908AAA9
:102E900007A90098ADF81CA0ADF8209009F027F91B
:102EA00004230098A4F86031FFF7B4FE009940466F
:102EB00084F85A51C4F85061C4E9597707F042FBCD
:102EC0000198052240F2A911FFF7D9F90B2308AAAE
:102ED00007A90198ADF81C30ADF8203009F007F9CA
:102EE0004046019984F8A251C4F8986107F02AFB82
:102EF00020460BB0BDE8F08FA00A02089C1402081F
:102F0000781502080C140208FC020208880A02085C
:102F100004150208B32B00087047000030B5164DA9
:102F20008FB02C68BFF35B8F14F0010420D12846CA
:102F30001BF0FDFCE0B13F23012210490993104B27
:102F400010480893104B0A940594CDE906430423D6
:102F5000CDE903320C23CDE90B440093CDE90144C4
:102F6000FFF7C6FD09481BF02DFD28461BF0EBFCC2
:102F700004480FB030BD00BF681C002088F60D90DB
:102F8000CC1A02086C1C0020381B0208192F0008FC
:102F90007047000030B5174D8FB02C68BFF35B8FC2
:102FA00014F0010422D128461BF0C1FCF0B13F23EC
:102FB000232211490993114B11480893114B0A948C
:102FC0000793012301940493CDE905430423CDE93C
:102FD00002431223CDE90B4400931623FFF788FD2B
:102FE00009481BF0EFFC28461BF0ADFC04480FB06D
:102FF00030BD00BF981C002098F60D90D01A020832
:103000009C1C00203C1B0208912F00087047000008
:1030100030B5174D8FB02C68BFF35B8F14F00104EF
:1030200022D128461BF083FCF0B13F230B2211492B
:103030000993114B11480893114B0A9407930123EC
:1030400001940493CDE905330423CDE902432823F9
:10305000CDE90B4400932E23FFF74AFD09481BF0EE
:10306000B1FC28461BF06FFC04480FB030BD00BF18
:10307000C81C002084F80D90281B0208CC1C0020DE
:10308000401B02080D3000080020704700207047E8
:103090000EB403B503AB002153F8042B01930BF0DE
:1030A000E3FE02B05DF804EB03B070470CB407B563
:1030B00004AB53F8042B01930BF0D6FE03B05DF87C
:1030C00004EB02B070470000436C10B5044673B3C4
:1030D000038F2BB9184BC521184A19481BF054FC13
:1030E000C38E00EB43035B8C0BB30DF06BF9238FA6
:1030F000012B03D8134BCB21134AEEE7E28E40F6A7
:103100003F10531C9BB2092B194688BFA3F10A013B
:1031100004EB4101498C814209D10A2B04EB4202A4
:1031200028BF0023508C04EB43035884518420466D
:10313000BDE810400DF048B8CC0A0208D50A0208D4
:10314000800B0208CA0B0208D80B02080DF005B864
:1031500010B586B002AC84E806001A460AAB2146D8
:1031600005930193099B0093089B0AF0CDFA06B0E2
:1031700010BD000038B518BB124B13481C6813492A
:10318000B4B1226822440260626822440A60A268E4
:1031900014440F4B00221A8000F038F8054600F066
:1031A00033F80C4B1C600C4B1D600C4B188007E077
:1031B0000B4B03600B4B0B600B4B1C68002CE8D1D6
:1031C00038BD00BF041D0020FC1C0020F81C00209E
:1031D000001D00201C5101202451012020510120FC
:1031E00078F90D9020F90D9080FA0D90044B1B6832
:1031F00053F82100034B1B6803EB4000704700BFEE
:10320000F81C0020FC1C0020162070470048704766
:10321000081D002010B5054CFFF780FE2060FFF769
:10322000B9FE6060FFF7F4FEA06010BD081D00202D
:1032300070477047704730B444680346C2689B6863
:10324000551004EB6200D20748BF625930BC48BF3A
:10325000D35818470346406830B19A681AB9D868FD
:1032600000F0010070470120704710B5044610219E
:103270001BF05BFB204610BD10B50446DC211BF0A3
:1032800054FB204610BD9830884208B505D10AF09D
:103290009DFEBDE80840FFF723B908BD2DE9F347BF
:1032A000044600250CF0B2F94FF0260A26464A4B98
:1032B00052462946E56304F16C0746F8403B304628
:1032C0001BF0FEFD3046FFF793FC4FF0FF08434B29
:1032D0004FF6FF79524629462364384684F86680C3
:1032E000A566ADF804901BF0EBFD3846FFF780FCB7
:1032F0003B4B84F8948004F19808E36601A9BDF87B
:1033000004303846A4F8923009F00FF852462946A6
:1033100040461BF0D5FD4046FFF76AFC01232A46D4
:10332000294684F8BC3030462E4BA4F8C690C4F829
:1033300098302D4BA4F8C89084F8CA9004F1040981
:10334000C4F8C05084F8C450C4E93334274BC4E9EE
:103350003535FEF794FF30464FF4F071FEF756FF17
:1033600030464FF48871FEF753FF4FF07F433146EC
:103370004846A36607F0E6F82A4629463846FEF78F
:103380007EFF01A93846ADF8045008F0CEFF39465B
:10339000484607F0D7F84046052240F2A911FEF74B
:1033A0006EFF0423694640460DEB0302ADF8003082
:1033B000ADF8043008F09BFE96234846414684F859
:1033C000CA3004F1CC03C4F8C03007F0BBF8204683
:1033D00002B0BDE8F08700BFCC0C02089C140208C4
:1033E0007815020804150208B40C02088732000898
:1033F00070477047704770477047704730B44468F3
:103400000346C2689B68551004EB6200D20748BFB0
:10341000625930BC48BFD35818470346406830B1A2
:103420009A681AB9D86800F0010070470120704707
:1034300010B5044610211BF078FA204610BD10B5D7
:1034400004464FF438711BF070FA204610BD00F1AD
:103450009803994270B504460D4603D10AF0B6FDB3
:10346000FFF73EF804F50A739D4203D12368204616
:10347000DB6A984704F518739D4203D12368204600
:103480001B6B984704F526739D4205D1236820469F
:103490005B6BBDE87040184770BD000010B5044676
:1034A000262200211BF00CFD2046FFF7A1FB054B57
:1034B000204623600023A36284F82C30012384F883
:1034C000243010BD2813020810B50446262200211E
:1034D0001BF0F6FC2046FFF78BFB0A4B4FF47F02F4
:1034E00020462360084BA3624FF6FF73A385002399
:1034F000C4E90C324FF0FF322387E363C4E91023A1
:1035000010BD00BF0C140208FC02020810B50446EE
:10351000FFF7C4FF4FF6FF73044A2046E385238676
:1035200084F832302260A38610BD00BF98130208D1
:103530002DE9F04F044691B000260CF067F82746BD
:10354000CE4B26223146E66304F16C0B47F8403B34
:1035500038461BF0B5FC3846FFF74AFBC84B4FF620
:10356000FF7504F1980A2364FF230EA9A66684F868
:1035700066305846ADF83850FEF78EFE504604F1DE
:10358000CC09FFF78BFFBF4B04F1F8080EA9C4F874
:1035900098304846A4F8C650A4F8C85084F8CA50D9
:1035A000ADF83850FEF778FE0EA94046ADF8385019
:1035B000FEF772FE04F592730EA9ADF83850251D82
:1035C00018460493FEF768FE04F5A87318460193A5
:1035D000FFF77AFF04F5CC7318460293FFF774FFE8
:1035E00004F5F07318460393FFF76EFF04F50A73B2
:1035F00018460593FFF78AFF04F5187318460693DB
:10360000FFF784FF04F5267318460793FFF77EFF44
:103610009D4B324631463846C4E9B4349B4BC4E92D
:10362000B636FEF72CFE38464FF4F071FEF7EEFD8D
:1036300038464FF48871FEF7EBFD4FF07F43394673
:103640002846A366962706F07DFF32463146584647
:10365000FEF715FE01230EA95846ADF8383008F0E4
:1036600064FE5946284606F06DFF5046052240F29A
:10367000A911FEF704FE042204F5347B0DA950467F
:10368000ADF83420ADF838200EAA08F030FD5146D0
:10369000284684F8CA70C4F8C0B04FF00A0A06F091
:1036A00051FF192248465521FEF7E9FD0EA948466B
:1036B000ADF838A008F039FE4946284684F8F47081
:1036C00006F040FF692240465521FEF7D8FD0EA9BD
:1036D0004046ADF838A008F028FE4146284684F858
:1036E000207106F02FFFB92204985521FEF7C7FD7F
:1036F0000EA904980DF12008ADF838A008F015FEC9
:103700000499284684F84C714FF0020906F01AFF1C
:10371000282201986C21FEF7B2FD4FF07F430199FA
:103720004046C4F88031A4F8846108F0DDF904F55E
:10373000C67CDFF85CA198E807008CE807000EA9BA
:103740000198CDF838A0ADF83C9008F075FC0199CF
:10375000284684F8867106F0F5FECA22029879217F
:10376000FEF78DFD4FF07F4302994046C4F8C83103
:10377000A4F8CC6108F0B8F904F5EA7C012398E8D4
:1037800007008CE807000EA90298ADF83C30CDF890
:1037900038A008F051FC0299284684F8CE7106F052
:1037A000D1FE7A2203988921FEF769FD4FF07F430D
:1037B00003994046C4F81032A4F8146208F094F952
:1037C00004F5077398E8070083E807000EA903983B
:1037D000ADF83C600326CDF838A008F02DFC039925
:1037E000284684F8167206F0ADFE05981C224FF4A8
:1037F0008971FEF744FD0EAA0DA90598A4F85C9204
:10380000ADF83460ADF8389008F071FC05992846A1
:10381000C4F850B206F096FE069869224FF48971FA
:10382000FEF72DFD0EAA0DA90698A4F89492ADF806
:103830003460ADF8389008F05AFC06992846C4F870
:1038400088B206F07FFE0798BC224FF48971FEF71C
:1038500016FD0EAA0DA90798A4F8CC92ADF8346015
:10386000ADF8389008F043FC28460799C4F8C0B278
:1038700006F068FE204611B0BDE8F08F180D020872
:103880009C14020804150208000D02084F340008B9
:10389000FC02020830B585B00368044601816D461C
:1038A0000146D3F884303C342846984795E8070011
:1038B00084E8070005B030BD30B585B00368044624
:1038C00041816D460146D3F884303C342846984700
:1038D00095E8070084E8070005B030BD00220280AB
:1038E00042808280C280704780F83610704703683B
:1038F00070B504461B6B1546984723682046294639
:103900005B6EBDE87040184700207047806C7047C0
:103910007047704730B444680346C2689B685510CE
:1039200004EB6200D20748BF625930BC48BFD3588D
:1039300018470346406830B19A681AB9D86800F051
:10394000010070470120704710B504464C211AF061
:10395000ECFF204610BD10B5044610211AF0E5FF1B
:10396000204610BD10B50446983000F005FC04F563
:103970008E7000F001FC04F5D07000F0FDFB04F542
:10398000097000F0F9FB04F52A70BDE8104000F062
:10399000F3BB08B5FEF764FC08BD0000036870B512
:1039A0005E6B0446114B8DB21B682BB9104B6C211A
:1039B000104A11481AF0E8FF1049828D0988914297
:1039C00003D80F4B6D210B4AF3E713F812200D4B70
:1039D0001B6853F8220003681B6B9847291A33466B
:1039E000204609B2BDE87040184700BF1C510120B5
:1039F0005409020896090208D10902082051012041
:103A0000500D02082451012000F5C260884208B51B
:103A100005D10AF0DBFABDE80840FEF761BD08BD3C
:103A200000224FF0FF318260C0E90021704770B57D
:103A300004461D46BDF91060FEF721FC23682946A7
:103A400020469B6B9847236831462046DB6BBDE8D8
:103A500070401847034B10B504460360FEF7F7FBB0
:103A6000204610BDC00E02080C4B10B50446036082
:103A700000F52A70FFF7EEFF04F50970FFF7EAFF83
:103A800004F5D070FFF7E6FF04F58E70FFF7E2FF54
:103A900004F19800FFF7DEFF204610BD8C0E0208EF
:103AA00010B50446FFF7E0FF4FF4D76120461AF047
:103AB0003CFF204610BD10B50446FFF7CBFF842124
:103AC00020461AF032FF204610BD000010B5044613
:103AD000FFF7FAFC024B204623600023A36410BDCD
:103AE000E40D02082DE9F04F044699B000260BF0D2
:103AF0008DFDA046E04B26223146E66304F16C05BD
:103B000048F8403B40461BF0DBF94046FFF770F8B1
:103B10004FF0FF09D94B4FF6FF7726223146236439
:103B2000284684F8669004F1980BA66604F58E7A10
:103B3000ADF858701BF0C4F92846FFF759F8D04B80
:103B400016A92846E366BDF8583084F8949004F529
:103B5000D079A4F8923008F0E8FB584600F002FB58
:103B6000504600F0FFFA484600F0FCFA04F50973ED
:103B700018460E9300F0F6FA04F52A7318460F93D0
:103B800000F0F0FA04F54B7318460393FFF79CFC22
:103B900004F55D7318460493FFF796FC04F56F7304
:103BA00018460593FFF790FC04F204431846069369
:103BB000FFF78AFC04F24C4318460793FFF784FC96
:103BC00004F2944318460893FFF780FF04F59C63C2
:103BD00018460993FFF77AFF04F22C5318460A930C
:103BE000FFF774FF04F5AF6318460C93FFF76EFF01
:103BF00004F2C45318460D93FFF768FF04F5C2633F
:103C00002622314618460B931BF05AF90B98FEF703
:103C1000EFFF01233246404684F834363146994B53
:103C2000A4F83E76C4F81036974BA4F84076C4F852
:103C3000A836964B84F84276271DC4F8B0364FF468
:103C40008873C4F8386684F83C66C4F8AC46C4F897
:103C5000B46600934FF4F073FFF7E9FE4FF07F4333
:103C600041463846A3664FF0FF3806F06BFC3246FB
:103C700028463146FEF703FB284616A9ADF85860E2
:103C800008F053FB2946384610AD06F05BFC0F22C6
:103C900058466421FEF7F3FA59463846DFF8F0B18A
:103CA00006F050FC0F225046FA21FEF7E8FA514682
:103CB00038464FF0280A06F045FC91224846192163
:103CC000FEF7DDFA494638464FF0960906F03AFC11
:103CD0009122AF210E98FEF7D2FA0E99384606F0DF
:103CE00031FC912240F245110F98FEF7C8FA0F9966
:103CF000384606F027FC782313226A210398CDF872
:103D000000A0FFF794FE03992846C4F85C83A4F84A
:103D1000606307F0E9FE04F55A7395E8070083E84D
:103D20000700122316A90398ADF85C30CDF858B0FF
:103D300008F082F90399384684F8629306F002FC91
:103D4000782313224FF480710498CDF800A0FFF778
:103D50006EFE04992846C4F8A483A4F8A86307F06B
:103D6000C3FE04F56C7395E8070083E80700112390
:103D700016A90498ADF85C30CDF858B008F05CF99D
:103D80000499384684F8AA9306F0DCFB7823952240
:103D90001D210598CDF800A0FFF749FE059928469A
:103DA000C4F8EC83A4F8F06307F09EFE04F57E737C
:103DB00095E8070083E80700102316A90598ADF8D9
:103DC0005C30CDF858B008F037F90599384684F8DA
:103DD000F29306F0B7FB78239522B5210698CDF82B
:103DE00000A0FFF724FE06992846C4F83484A4F8FE
:103DF000386407F079FE04F5886395E8070083E8E6
:103E000007000F2316A90698ADF85C30CDF858B01E
:103E100008F012F90699384684F83A9406F092FBB5
:103E20007823952240F24B110798CDF800A0FFF7B8
:103E3000FEFD07992846C4F87C84A4F8806407F046
:103E400053FE04F59163DFF84CA095E8070083E882
:103E500007000E2316A90798ADF85C30CDF858B0CE
:103E600008F0EAF80799384684F8829406F06AFB6D
:103E70001923552268210FE08C0E02089C140208B9
:103E80007815020804150208740E0208093A0008A1
:103E9000FC0202081C510120089800937A23FFF7C6
:103EA000C6FDD4F8943408992846D3F88430C4F871
:103EB000C484A4F8C864984704F59A6395E8070099
:103EC00083E8070004F244630393DAF800302BB967
:103ED0009C4B60219C4A9D481AF056FDDFF8809269
:103EE000B9F80030092B03D8994B6121964AF2E7C3
:103EF000984B09211868FFF779F9974A03460A2178
:103F000003980DF007F8039A142316A9C4F8DC24CB
:103F10000898ADF85C30CDF858B008F08DF80899E5
:103F2000384606F00FFB19227E23FA2109980092E9
:103F30005522FFF77CFDD4F8E03409992846D3F8E0
:103F40008430C4F81085A4F81465984704F21C5313
:103F500095E8070083E8070004F5CB62DAF8003043
:103F60000392002BB4D0B9F80030082BBCD9794BA0
:103F700008211868FFF73AF9774A03460A2103989F
:103F80000CF0C8FF039A0D2316A9C4F82825099838
:103F9000ADF85C30CDF858B008F04EF809993846C5
:103FA00006F0D0FA19227E231D210A980092D7220A
:103FB000FFF73DFDD4F82C3528460A99D3F8843014
:103FC000C4F85C85A4F86065984704F5AD6395E88E
:103FD000070083E80700DAF8003004F26C65002B74
:103FE0003FF476AFB9F80030072B7FF67DAF594B21
:103FF00007211868FFF7FAF8574A03460A212846AE
:104000000CF088FF0C2316A90A98C4F8745504F51F
:10401000D065ADF85C30CDF858B008F00DF80A99CD
:10402000384606F08FFA19227823B5210092D7225C
:104030000C98FFF7FCFCDAF80030C4F8A885A4F867
:10404000AC65C4F8B465C4F8B885C4F8BC65002B89
:104050003FF43EAFB9F80030062B7FF645AF3D4B3D
:1040600006211868FFF7C2F83B4A03460A21284692
:104070000CF050FF0B2316A90C98C4F8C05504F29D
:104080009465ADF85C30CDF858B007F0D5FF0C99C9
:10409000384606F057FA1923D72240F24B11009305
:1040A00077230D98FFF7C3FCDAF80030C4F8F485E5
:1040B000A4F8F865C4F80066C4F80486C4F8086675
:1040C000002B3FF405AFB9F80030052B7FF60CAF9D
:1040D000204B05211868FFF789F81F4A03460A217B
:1040E00028460CF017FF1D4B16A90D9816930A23AE
:1040F000C4F80C56ADF85C3007F09EFF0D993846B9
:1041000006F020FA0B98052240F2A911FEF7B7F845
:10411000042316AA15A90B98ADF85430ADF8583001
:1041200007F0E5FF962338460B9984F8423604F5EC
:10413000D563C4F8383606F005FA204619B0BDE854
:10414000F08F00BF540902088E0D0208D109020841
:10415000500D020828510120D90D0208FC02020866
:104160002051012010B50446FEF7B2F8014B20465D
:10417000236010BDC00E0208FEF76AB8704710B584
:1041800004464FF4AE711AF0D0FB204610BD10B5B6
:104190000446D0F8580100F05AF82046BDE8104017
:1041A00009F096BF10B50446FEF76AF9014B2046A8
:1041B000236010BD540F02087047043870477047E1
:1041C00010B5044610211AF0B0FB204610BDA0F136
:1041D0000400F5E70022C1608260024A02601C32DE
:1041E00042607047A80F02087047D0F8B43101331D
:1041F000C0F8B431C06B03681B691847034B10B596
:1042000004460360FEF7A9FC204610BDD40F020847
:1042100010B50446FFF7F2FF4FF4DC7120461AF0A8
:1042200084FB204610BD000010B50446FEF734FDA7
:10423000034B204623600023C4F8B43110BD00BFF7
:10424000D40F0208FEF78ABC002202607047704754
:10425000FCF708BDFCF71ABDFCF7DCBCFCF7EEBCB4
:10426000FCF728BDFCF73ABD70470438704770472B
:1042700010B5044610211AF058FB204610BDA0F1DD
:104280000400F5E70022C1608260024A0260183231
:10429000426070470810020870470000034B10B5D9
:1042A00004460360FEF7C4FF204610BD301002082C
:1042B00010B50446FFF7F2FFDC2120461AF035FB6B
:1042C000204610BD10B50446FEF7E8FF014B20461E
:1042D000236010BD30100208FEF7ABBF70470438F2
:1042E0007047704710B5044610211AF01EFB204697
:1042F00010BDA0F10400F5E7806809B1FFF7B0BF79
:10430000FFF7B0BF806809B1FFF7A2BFFFF7A2BFF8
:10431000806809B1FFF7A0BFFFF7A0BF0022C1600E
:104320008260024A026024324260704764100208D0
:1043300070470000034B10B504460360FFF75BF8BD
:10434000204610BD4C11020810B50446FFF7F2FFDD
:104350004FF4387120461AF0E8FA204610BD0000EC
:1043600008B5054B1B682BB9044B9021044A05483E
:104370001AF00AFB008808BD545101209010020871
:10438000CC100208FF10020838B504462E30FFF7A3
:10439000E7FF054604F13400FFF7E2FF2B1A58420D
:1043A000584138BD10B5044600F50A70FFF7ECFF20
:1043B0000146E06B0268BDE810401269104710B575
:1043C000044600F51870FFF7DFFF0146E06B026856
:1043D000BDE810405269104710B5044600F526703C
:1043E000FFF7D2FF0146E06B0268BDE8104092691A
:1043F0001047000010B50446FFF79AF8014B20461D
:10440000236010BD4C110208FEF7F6BF7047043858
:104410007047704710B5044610211AF086FA2046FE
:1044200010BDA0F10400F5E730B5564C85B0054647
:104430000222554920461AF04BFD80B901AB1946BE
:1044400014F8012B0D2A05D182B2E86800F0E8F8D3
:1044500005B030BD6278013003F8012BF0E702228D
:104460004A4920461AF034FD78B901AB194614F8D0
:10447000012B0D2A04D182B2E86800F0E4F8E7E7E6
:104480006278013003F8012BF1E70222404920460F
:104490001AF01EFD78B901AB194614F8012B0D2A4C
:1044A00004D182B2E86800F0E0F8D1E76278013028
:1044B00003F8012BF1E70222364920461AF008FDE5
:1044C00078B901AB194614F8012B0D2A04D182B238
:1044D000E86800F0DDF8BBE76278013003F8012BF3
:1044E000F1E702222C4920461AF0F2FC78B901AB20
:1044F000194614F8012B0D2A04D182B2E86800F0A5
:10450000D9F8A5E76278013003F8012BF1E7022220
:10451000224920461AF0DCFC38B9A37801A9E868E2
:104520008DF8043000F0DAF892E702221C492046A8
:104530001AF0CEFC38B9A37801A9E8688DF80430E8
:1045400000F0E2F884E70222164920461AF0C0FC87
:1045500038B9A37801A9E8688DF8043000F0EAF8CA
:1045600076E70222104920461AF0B2FC00287FF4B8
:104570006FAFA37801A9E8688DF8043000F0F0F877
:1045800066E700BF4C010020841102088711020871
:104590008A1102088D110208901102089311020875
:1045A00096110208991102089C1102080022C160AC
:1045B0008260024A02601C3242607047A811020801
:1045C000D0F8B8360133C0F8B836C06B03681B6941
:1045D00018477047034B10B504460360FFF744FAD1
:1045E000204610BDD411020810B50446FFF7F2FFB3
:1045F00040F2BC6120461AF098F9204610BD000038
:1046000010B50446FFF76EFA034B204623600023E3
:10461000C4F8B83610BD00BFD4110208FFF7A2B924
:1046200038B51446054600F2446004F21E340CF01E
:1046300012F9002305F2944005EB4404A380BDE881
:1046400038400AF03CBD38B51546044600F5CB604D
:104650000CF001F905F22A35002304F59C6024F8DA
:104660001530BDE838400AF02ABD38B51446054675
:1046700000F26C6004F232340CF0EDF8002305F225
:104680002C5005EB4404A380BDE838400AF017BD68
:1046900038B51546044600F5D0600CF0DCF805F29C
:1046A0003E35002304F5AF6024F81530BDE83840EE
:1046B0000AF005BD38B51446054600F2946004F2D0
:1046C00046340CF0C8F8002305F2C45005EB44044E
:1046D000A380BDE838400AF0F2BC00000B78312B13
:1046E00006D1064B1B6800F2944003630AF0E7BC56
:1046F000322B0CBF024B034BF4E700BF1400002029
:10470000100000200C0000200B78312B06D1064B46
:104710001B6800F59C6003630AF0D1BC322B0CBF10
:10472000024B034BF4E700BF1400002010000020F0
:104730000C0000200B78312B06D1064B1B6800F2D1
:104740002C5003630AF0BBBC322B0CBF024B034B53
:10475000F4E700BF14000020100000200C0000202F
:104760000B78312B06D1064B1B6800F2C450036353
:104770000AF0A5BC322B0CBF024B034BF4E700BF81
:1047800014000020100000200C000020F8B5C0E943
:10479000422300260127144A4FF41653A0F804615F
:1047A000054601600C4680F8067108460E61CE6130
:1047B000C1E900230C23C1E90266C1E9053603F013
:1047C00019FB3A463146522000F024FB522000F0FB
:1047D00053FBB5F804113A46204604312944BDE89C
:1047E000F84003F08FBB00BF0078004008B50023FD
:1047F00080F806314FF0FF33006803F088FA00B10B
:10480000FEE708BDB0F80431FF2B84BF0023A0F8F9
:104810000431B0F8041143181A790A2A07D1DB7859
:104820000D2B04D1D0F808315BB1043018470131A9
:10483000012289B2A0F8041104310144006803F098
:1048400061BB7047014B186802F0AABE141D00201E
:1048500000B54FF4807295B04FF0807103460C9212
:1048600005220F9101210692002201910B921392D1
:1048700000920B48CDE90312CDE90D22CDE91122BA
:10488000102206A902924FF4800205926A4601F0B6
:1048900083FD003818BF012015B05DF804FB00BF90
:1048A000241E002000B54FF4807395B041F2883289
:1048B00017480C93062306A906930023CDE90D3370
:1048C0000F930B931393CDE9113301F020FDE0B961
:1048D000022301224FF4800104900D48CDE90033FA
:1048E0001023CDE9023205236A46CDE905134FF0C6
:1048F000807306A90F9341F2883301F04DFD003813
:1049000018BF012015B05DF804FB0120FAE700BFD5
:10491000241E002000B54FF4807391B04FF0407218
:104920000E480893EB2302A902934FF440630993C6
:104930004FF4005305930023CDE90A320A220F9366
:1049400007926A46CDE90D33CDE9003301F075FDDC
:10495000003818BF012011B05DF804FB241E0020B0
:10496000454B01219A6B42F00202F0B59A638DB07B
:104970009A6B0924414D042702F0020200262846C2
:104980000092009A9A6942F002029A619A6922F0B2
:1049900002029A611A6B42F002021A631A6B02F069
:1049A00002020192019A1A6B42F002021A631A6B18
:1049B00002F002020292029A1A6B42F008021A6393
:1049C0001A6B02F008020392039A1A6B42F0080273
:1049D0001A631A6B02F008020492049A1A6B42F0EE
:1049E00010021A631A6B02F010020592059A1A6BF4
:1049F00042F008021A6340221B6B03F0080306937F
:104A0000069B0223CDE907230323CDE909130A23DB
:104A100007A90B9300F048FC07A9284607970996B9
:104A20000B9400F041FC4FF4006307A90B941D4464
:104A30000793284600F038FC4FF4805307A9284616
:104A400007930B9400F030FC07A90D4807970B94CF
:104A500000F02AFC4FF4005307A928460B94079353
:104A600000F022FC32460F215C2000F0D3F95C20DC
:104A700000F002FA0DB0F0BD003802400004024020
:104A800000100240F0B5494C91B0494B20462360DC
:104A900001F02AFC054610B1012011B0F0BD01461D
:104AA0002046FFF75DFF012604234FF08077C4E91D
:104AB00001631023E36097FAA7F3B3FA83F3204668
:104AC000013B23614FF4A063C4E90755C4E90535F0
:104AD00001F0B8FB0028DFD14FF4807566230B90FE
:104AE00041F28832079002A90F9008950293CDE910
:104AF0000900CDE90D00204601F009FC08B10420B1
:104B0000CBE7992341F2883202A92046029301F0B3
:104B1000FEFB0028F3D141F28830FFF799FE002810
:104B2000EDD18523079041F2883202A908950293BE
:104B30000B97CDE90900CDE90C60CDE90E002046C8
:104B400001F0E5FB0028DAD141F288320DF10701CE
:104B5000204601F05CFD0028D1D1FFF7A3FE00281C
:104B6000CDD18123F022029392FAA2F20A219DF87C
:104B70000730B2FA82F2204603F00F0301FA02F284
:104B800002A9134341F288328DF8073001F0BFFBD0
:104B90000028B4D141F288320DF10701204601F01E
:104BA000D7FC00283FF479AFA9E700BF241E0020FE
:104BB000001000A00F490020D1F8883043F47003A2
:104BC000C1F888300C4B1A6842F001021A609860F4
:104BD0001A6822F0847222F480321A60074A5A60FE
:104BE0001A6822F480221A60D8604FF000638B604C
:104BF000704700BF00ED00E0003802401030002494
:104C00007047002070470000002337B58DF807304B
:104C10000C4B1A780AB901221A700324C5B2013C60
:104C2000A8212846FCF79AFC14F0FF048DF8070031
:104C30009DF80730DBB201D0512BF0D19DF8070071
:104C400003B030BD721E002013B500240221C0B293
:104C50008DF80740FCF782FC8DF807009DF80730BF
:104C600003F00F038DF807309DF80730052B01D9AD
:104C70008DF807409DF80720034B9DF807005A70F8
:104C800000229A7002B010BD721E00202DE9F74F6D
:104C90002F4C15464FF000080F46A37862788DF828
:104CA00007809A424DD9092B4ED803EB43035B0092
:104CB000DBB2191D03F1030B03F1060A0533C9B278
:104CC0005FFA8BFB5FFA8AFA5FFA83F8C6B2DFF805
:104CD00084903046FCF742FC8DF807009DF80730C1
:104CE00059463046A9F80030FCF738FC8DF807002B
:104CF00051469DF807303046B9F800201B0203F4F6
:104D0000706313433B80A9F80030FCF727FC8DF853
:104D1000070041469DF807303046A9F80030FCF7FF
:104D20001DFC8DF807009DF80730B9F800201B0224
:104D300003F470631343A9F800302B80A378013388
:104D4000A37003B0BDE8F08FC246C3464146BDE73D
:104D5000721E0020701E00200122A421C0B2FCF7A8
:104D6000E3BB0022A421C0B2FCF7DEBBFFF7F9BF12
:104D700070470000024B1A780AB901221A70704776
:104D8000721E0020074A032008B5136843F480739D
:104D9000136000F02DF80020FCF760FAFBF7BEFF6F
:104DA000002008BD003C0240034A044B11681B78F8
:104DB0000B441360704700BF781E002044000020A1
:104DC000014B1868704700BF781E002038B50446B4
:104DD000FFF7F6FF0546631C1EBF044B1B78E41863
:104DE000FFF7EEFF431BA342FAD338BD4400002077
:104DF00007490302CA6803F4E06322F4E062120484
:104E0000120C134343F0BF6343F40033CB6070478D
:104E100000ED00E0164B30B5DC68C4F30224C4F1A9
:104E20000703251D042B28BF0423062D4FF0FF3553
:104E30008CBF033C002405FA03F3002805FA04F5AF
:104E400021EA030322EA050203FA04F343EA020318
:104E50004FEA0313DBB206DB00F1604000F561406E
:104E600080F8003330BD00F00F00024A1354F9E718
:104E700000ED00E014ED00E0002807DB410901230C
:104E800000F01F00024A834042F82130704700BF03
:104E900000E100E000280CDB4309012200F01F00C4
:104EA00004492033824041F82320BFF34F8FBFF3E2
:104EB0006F8F704700E100E0BFF35F8F044B5A6AC9
:104EC00022F480325A620022C3F89420704700BF57
:104ED00000ED00E0064B40F00100C3F894005A6A70
:104EE00042F480325A62BFF34F8FBFF36F8F704727
:104EF00000ED00E04378144A10B5C2F8983001780C
:104F0000E9B14368C2F89C30C37A047B1B0643EACC
:104F100004730B43817A43EAC143417B43EA8143F3
:104F2000817B43EA4143C17B43EA0143417A43EA3F
:104F30000123017A43EA4103C2F8A03010BDC2F850
:104F40009C10C2F8A010F9E700ED00E010B504468F
:104F500008B9012010BD437F03F0FF0213B90277A7
:104F6000FBF7FAFE022363772379E3B92368134A38
:104F70005A619A6822F018029A6062792368D2B95D
:104F80004FF0FF321A6100209A68616922F06002D6
:104F90000A43A1699A609A6822F080020A439A60E3
:104FA00001236377D6E7D4E90212204600F008F81F
:104FB0000028E2D0CDE72269E4E700BFB71DC104B5
:104FC0001F2310B5013B1DD321FA03F4E407F9D5E3
:104FD000102A13D0102A04D83AB1082A10D0012080
:104FE0000BE0182AFBD1062BF9D8006841618368D1
:104FF00023F0180313438360002010BD072BF3E751
:105000000F2BF1E7102AE5D1E9E770B50446866D6C
:10501000FFF7D6FE054694F83530022B06D08023E4
:1050200001206365002384F8343070BD23681A685A
:1050300022F016021A605A6922F080025A61226C2C
:105040000AB9A26C1AB11A6822F008021A601A682A
:1050500022F001021A602368186810F0010007D1DD
:10506000E26D3F239340B360012384F83530D9E7E4
:10507000FFF7A6FE401B0528EDD92023032063651A
:1050800084F83500CEE790F83530022B03D080232A
:105090004365012070470268052380F83530002001
:1050A000136823F001031360704710B5044630B352
:1050B00090F8393003F0FF021BB980F83820FBF775
:1050C00061FE226802236168002084F83930136889
:1050D00023F440330B43A1681360536B23F00703A1
:1050E0000B43E1685363136C23F47F5323F03F03B6
:1050F0000B4313640123E06384F8393010BD0120B1
:10510000FCE770477047036870B55E6804461D6829
:10511000F20714D5E90512D51A6822F480721A60D4
:10512000C26B42F00102C26301229A60042380F83C
:105130003930002380F83830436903B19847B2060C
:1051400016D5AB0414D523681A6822F400521A60ED
:1051500020229A60E36B43F00203E363042384F8A4
:105160003930002384F8383063690BB12046984702
:10517000300716D5290514D523681A6822F4006271
:105180001A6008229A60E36B43F00403E36304238C
:1051900084F83930002384F8383063690BB1204635
:1051A000984772070BD56B0509D5236820461A6806
:1051B00022F480621A6004229A60FFF7A2FFB0070F
:1051C00014D5A90512D523681A6822F400721A6052
:1051D00002229A60E36BE363012384F839300023F1
:1051E00084F8383023690BB120469847F20613D56E
:1051F000EB0411D5236820461A6822F480521A6005
:1052000010229A60E36BE363012384F839300023B2
:1052100084F83830FFF776FF70BD0000F0B590F8E5
:10522000382003460220012A2BD0012283F83900BE
:105230000E011C4F83F8382003EB0112D2E907401E
:10524000556A44EA0040093C012C96BF05F07F42B4
:1052500040EA056010431A68A1B9516A012C01EABD
:10526000070141EA000151629969916103D8596AC5
:1052700021F07F4191620122002083F8392083F8D8
:105280003800F0BDD169012C01EA070141EA0001B3
:10529000D16103EB060189691161ECD825F07F45E6
:1052A0001562E8E7F0FFFC002DE9F74F0023DFF877
:1052B000BC916C4A01240D689C4004EA0506AC438D
:1052C00040F0B7804D6803274FEA430E05F0030412
:1052D00007FA0EFC671E6FEA0C0C012F34D88768A2
:1052E00007EA0C08CF6807FA0EF747EA0807876055
:1052F000476827EA0608C5F300179F4047EA0807F2
:105300004760C768022C07EA0C088F6807FA0EF797
:1053100047EA0807C76019D14FEAD30803F0070A24
:105320004FF00F0B00EB88084FEA8A0AD8F820707C
:105330000BFA0AFB27EA0B0B0F6907FA0AF747EA91
:105340000B07C8F8207001E0032CDAD1076804FAD3
:105350000EF415F4403F07EA0C0744EA0704046022
:1053600067D0D9F8444023F0030703F0030C4FF053
:105370000F0E44F4804407F180474FEA8C0CC9F8C3
:10538000444007F59C37D9F844400EFA0CFE04F46B
:1053900080440194019CBC6824EA0E0E324CA04269
:1053A0004ED004F58064A0424CD004F58064A04245
:1053B0004AD004F58064A04248D004F58064A0423D
:1053C00046D004F58064A04244D004F58064A04235
:1053D00042D004F58064A04240D004F58064A0422D
:1053E0003ED004F58064A04214BF0A24092404FAC4
:1053F0000CF415F4801F44EA0E04BC606FEA060743
:1054000094680CBF3C40344315F4001F9460D4688A
:105410000CBF3C40344315F4003FD46054680CBFCB
:105420003C403443ED035460146854BF3C40344363
:1054300014600133102B7FF43DAF03B0BDE8F08F53
:105440000024D4E70124D2E70224D0E70324CEE7E6
:105450000424CCE70524CAE70624C8E70724C6E7E6
:105460000824C4E7003C014000000240003802402C
:105470002DE9F04F00224FF0010A4FF00F084FF0D6
:10548000030B464C0AFA02FC3CEA01030CEA010653
:105490006CD122F0030502F0030705F18045BF003F
:1054A00005F59C3508FA07F9AB6809EA030E3C4B91
:1054B000984260D003F5806398425ED003F5806324
:1054C00098425CD003F5806398425AD003F580631C
:1054D000984258D003F58063984256D003F5806314
:1054E000984254D003F58063984252D003F580630C
:1054F000984250D003F5806398420CBF09230A23D9
:10550000BB40734513D1236823EA06032360636815
:1055100023EA06036360E36823EA0603E360A36803
:1055200023EA0603A360AB6823EA0903AB605300D8
:105530000568D6080BFA03F300EB860625EA030597
:10554000056002F00705376AAD0008FA05F527EA9D
:1055500005073762C56825EA0305C560456825EA81
:105560000C054560856825EA030383600132102A33
:1055700088D1BDE8F08F0023C2E70123C0E70223F2
:10558000BEE70323BCE70423BAE70523B8E70623F5
:10559000B6E70723B4E70823B2E700BF003C0140A9
:1055A000000002400369194214BF01200020704727
:1055B0000AB1816170470904FBE7436901EA03020C
:1055C00021EA030141EA02418161704703689A6957
:1055D000910701D500229A629A69D20703D49A6989
:1055E00042F001029A61704730B5039DC1F3090191
:1055F00004682B43606843EA0243054A0B4342EACE
:10560000555223F0004320EA02000343636030BD9B
:10561000FF63FF0303682DE9F0419C6905460F46CF
:10562000164614F010046FD000241022A046DA6150
:105630002B689A69900661D4B8F1000F35D044F018
:10564000040401202E68B369D90505D54FF4807292
:1056500044F001040120F2615A0505D54FF480623F
:1056600044F008040120F2619B054FD54FF400730C
:1056700044F00204F3612846FFF7A8FF7368012095
:1056800023F0FF7323F48B3323F4FF7323F0010320
:1056900073606B6C23436B64202385F841300023D7
:1056A00085F8423085F8403032E07A1CC1D0FFF7EF
:1056B00087FB801BB84201D8002FB9D12B685968ED
:1056C00095F842209869D2B200040AD5490408D45A
:1056D000202A06D05A6842F480425A60FFF770FBD5
:1056E00006462B689B699B06A2D4FFF769FB801BCB
:1056F0001928F6D920244FF0010899E7B8F1000FD6
:105700009DD12022DA619AE720469BE70028B2D19A
:10571000BDE8F08170B504460D46164623689B69C6
:105720009B0701D500201BE0324629462046FFF7A3
:1057300071FFA0B96A1CF1D0FFF742FB801BA842A1
:1057400001D8002DEAD1636C43F020036364202369
:1057500084F84130002384F8423084F8403001203E
:1057600070BD70B504460D46164623689B699B06BE
:1057700001D5002019E0324629462046FFF74AFFAE
:1057800090B9FFF71DFB801BA84201D8002DECD17A
:10579000636C43F020036364202384F841300023CA
:1057A00084F8423084F84030012070BD2DE9F0418A
:1057B000069F0446884616461D462268936938EAC5
:1057C00003030CBF01230023B34201D0002015E0E6
:1057D0006B1CF3D0FFF7F4FAC01BA84201D8002DD0
:1057E000EBD1636C012043F020036364202384F831
:1057F0004130002384F8423084F84030BDE8F08125
:1058000010B5044600284AD090F8413003F0FF025A
:105810001BB980F84020FBF7D5FA242384F84130E7
:1058200023681A6822F001021A60626822F070622E
:105830001A619A6822F400429A60D4E9022101298F
:1058400024D142F400429A605A68002042F000726B
:1058500042F400425A60DA6822F40042DA60D4E985
:1058600004210A43A16942EA0122DA60D4E907214E
:105870000A431A601A6842F001021A602023606429
:1058800084F84130206384F8420010BD42F40442A1
:1058900002299A60D8D14FF400625A60D4E70120FF
:1058A000F3E710B5044698B10268242380F841302C
:1058B000136823F001031360FBF7C8FA002060644B
:1058C00084F8400084F84100206384F8420010BD51
:1058D0000120FCE72DE9F74F994690F84130044646
:1058E0000F46202B1646BDF834A0DDF8388040F076
:1058F000C6800C9B13B1BAF1000F06D14FF40073B0
:105900006364012003B0BDE8F08F90F84030012BB4
:1059100000F0B5804FF0010B80F840B0FFF750FA6F
:105920001923054600905A464FF400412046FFF7E0
:105930003DFF0028E5D1212360635FFA89F23946F3
:1059400084F84130402384F842300C9B6064204648
:1059500063624C4BA4F82AA000934FF08073FFF7CA
:1059600043FE2A4641462046FFF7D4FE18BBB9F154
:10597000010F236815D1F6B20022802120469E62D5
:1059800043460095FFF712FFA8B9638D9BB2FF2B2A
:1059900015D8628D4FF0007392B22285D2B200907A
:1059A00012E0320A414620469A622A46FFF7B2FECA
:1059B00008B92368DFE7002384F84030A1E7FF221D
:1059C0004FF080732285009039462046FFF70CFE89
:1059D0002A4641462046FFF79DFE002891D1636A82
:1059E000226813F8011B91626362638D228D013B73
:1059F000013A9BB292B26385638D22859BB2B3B1AB
:105A0000AAB94346802120460095FFF7CFFE002823
:105A10007FF477AF638D9BB2FF2B28D9FF224FF025
:105A200080732285009039462046FFF7DDFD638DA7
:105A30009BB2002BCCD12A4641462046FFF791FE6F
:105A400000287FF45EAF23682021D9615A6822F0D4
:105A5000FF7222F48B3222F4FF7222F001025A60AC
:105A600084F8411084F8400084F842004AE7628DCF
:105A70004FF0007392B22285D2B20090D3E7022099
:105A800040E700BF002000802DE9F74F994690F8CD
:105A9000413004460F46202B1646BDF834A0DDF8F1
:105AA000388040F0C9800C9B13B1BAF1000F06D1C9
:105AB0004FF400736364012003B0BDE8F08F90F8E9
:105AC0004030012B00F0B8804FF0010B80F840B05F
:105AD000FFF776F91923009005465A464FF4004126
