:020000040800F2
:1000000000000520ED130008091300080B13000879
:100010000D1300080F130008111300080000000062
:10002000000000000000000000000000118900082E
:100030001313000800000000B1890008158A0008A9
:100040003D1400083D1400083D1400083D1400084C
:100050003D1400083D1400083D1400083D1400083C
:100060003D1400083D1400083D1400083D1400082C
:100070003D1400083D1400083D1400083D1400081C
:100080003D1400083D1400083D1400083D1400080C
:100090003D1400083D1400083D1400083D140008FC
:1000A0003D1400083D1400083D1400083D140008EC
:1000B0003D1400083D1400083D1400083D140008DC
:1000C0003D1400083D1400083D1400083D140008CC
:1000D0003D1400083D1400083D1400083D140008BC
:1000E0003D1400083D1400083D1400083D140008AC
:1000F0003D1400083D1400083D1400083D1400089C
:100100003D1400083D1400083D1400083D1400088B
:100110003D1400083D140008151300083D140008A4
:100120003D1400083D1400083D1400083D1400086B
:100130003D1400083D1400083D1400083D1400085B
:100140003D1400083D1400083D1400083D1400084B
:100150003D1400083D1400083D1400083D1400083B
:100160003D1400083D1400083D1400083D1400082B
:100170003D1400083D1400083D1400080000000074
:100180003D1400083D140008B94800083D1400085B
:100190003D1400083D1400083D1400083D140008FB
:1001A000211300083D1400082D1300083D14000819
:1001B0003D1400083D1400083D1400083D140008DB
:0801C0003D1400083D14000885
:1001D00010B5054C237833B9044B13B10448AFF381
:1001E00000800123237010BD2401002000000000C6
:1001F000BCFA010808B5034B1BB103490348AFF330
:10020000008008BD0000000028010020BCFA0108A1
:1002100001F0FF01102A2BDB10F0070F08D010F8B7
:10022000013B013A8B422DD010F0070F42B3F6D1BB
:10023000F0B441EA012141EA014122F007047FF0D4
:1002400000070023F0E80256083C85EA010586EA2B
:10025000010685FA47F5A3FA87F586FA47F6A5FA67
:1002600087F68EB9EED1F0BC01F0FF0102F0070273
:1002700032B110F8013B013A83EA010313B1F8D11E
:100280000020704701387047002D06BF35460338FF
:10029000073815F0010F07D1013015F4807F02BF38
:1002A000013015F4C03F0130F0BC0138704700BF89
:1002B00053B94AB9002908BF00281CBF4FF0FF31CD
:1002C0004FF0FF3000F06AB9ADF1080C6DE904CED3
:1002D00000F006F8DDF804E0DDE9022304B0704721
:1002E0002DE9F047089D0C46002B4ED194468C45D5
:1002F0008646B2FA82F262D94AB1C2F12003914035
:1003000020FA03F30CFA02FC194300FA02FE4FEA4A
:100310001C471FFA8CF6B1FBF7F44FEA1E4307FBAC
:10032000141143EA014304FB06F199420AD91CEB7C
:10033000030304F1FF3080F01281994240F20F81F3
:10034000023C6344591A1FFA8EF3B1FBF7F007FB26
:10035000101143EA014300FB06F69E420AD91CEB4A
:10036000030300F1FF3180F0FC809E4240F2F980EF
:10037000634402389B1B40EA044000211DB1D34076
:100380000022C5E90032BDE8F0878B4205D90DB1E6
:10039000C5E9000100210846F5E7B3FA83F1002919
:1003A00046D1A34202D39042C0F0F080861A64EB9B
:1003B00003030120002DE6D0C5E90063E3E7002A2E
:1003C00040F09080A1EB0C044FEA1C481FFA8CF718
:1003D0000121B4FBF8F64FEA1E4308FB164443EA3A
:1003E000044307FB06F0984208D91CEB030306F10F
:1003F000FF3402D2984200F2CD8026461C1A1FFA22
:100400008EF3B4FBF8F008FB104443EA044300FB0E
:1004100007F79F4208D91CEB030300F1FF3402D217
:100420009F4200F2B0802046DB1B40EA0640A5E771
:10043000C1F120068B4022FA06F71F4320FA06FC82
:1004400004FA01F343EA0C03F44000FA01F8380C13
:100450004FEA1349B4FBF0FE1FFA87FC00FB1E4471
:1004600049EA04440EFB0CF9A14502FA01F20AD94B
:100470003C190EF1FF3A80F08480A14540F2818062
:10048000AEF1020E3C44A4EB09041FFA83F9B4FB5D
:10049000F0F300FB134449EA044403FB0CFCA445BD
:1004A00007D93C1903F1FF3067D2A44565D9023B57
:1004B0003C4443EA0E40A0FB0293A4EB0C049C4294
:1004C000CE469C4651D34ED055B1B8EB0E0364EBEB
:1004D0000C0404FA06F6CB401E43CC40C5E9006488
:1004E000002150E7C2F1200320FA03F10CFA02FCCC
:1004F00024FA03F394400C434FEA1C4800FA02FE2E
:100500001FFA8CF7B3FBF8F008FB1031230C43EA19
:10051000014300FB07F1994208D91CEB030300F1EA
:10052000FF362CD299422AD9023863445B1AA4B20E
:10053000B3FBF8F108FB113344EA034401FB07F372
:10054000A34208D91CEB040401F1FF3613D2A342E5
:1005500011D902396444E41A41EA004139E70446FA
:10056000F0E6084606E7C845AED2B9EB020E63EBEB
:10057000070C0138A8E73146EDE7034699E7304616
:10058000D4E7D6467FE7634402384DE70646234664
:1005900008460FE7023E634430E700BF704700BFE4
:1005A0000149002009F06EBBE918000808B5094BA5
:1005B0001A790AB91A7B1A710822074907481EF0EE
:1005C000EDFC4FF4807200210348BDE808401EF0A6
:1005D000CBBC00BFF41C0020F81C00204001002010
:1005E00008B5642007F0FEFDFBE700000A4C0B4D48
:1005F0000B4A0A49084808B50A4B04F003F9B4F855
:100600000411012228460431214407F0B5FC1920C9
:1006100007F0E8FDF3E700BFF41C0020940200207F
:10062000AD050008290600087047000010B594B019
:100630001022002102240AA81EF096FC1422002198
:1006400003A81EF091FC1D4B192108A81A6C42F05A
:1006500080521A641B6C03F080530193019B184B6A
:100660001A6842F440421A6001221B6803F44043B6
:100670000293029B4FF48033CDE908234FF48003AB
:10068000CDE90E434FF4D873CDE91244CDE91013F0
:1006900006F05AF805F0F6FC0F2300200721CDE9FB
:1006A00003344FF4A053CDE905034FF4805303A85E
:1006B000079306F031FA14B010BD00BF00380240B5
:1006C000007000402DE980489BB0102200210125D8
:1006D0000DA84FF0104A1EF047FC002404F026FC41
:1006E000C74B0DA8ADF834501094CDE90EA304F01B
:1006F0003BFC17230DA88DF835508DF83C308DF854
:10070000425004F031FC042004F01EFCBFF34F8F74
:10071000BFF36F8FBB4AC2F85042BFF34F8FBFF396
:100720006F8F536943F400335361BFF34F8FBFF3AF
:100730006F8FC2F88440BFF34F8FD2F8803043F6FA
:10074000E074C3F3C900C3F34E335B0103EA04064C
:10075000014646EA81750139C2F86052F9D2203B60
:1007600013F1200FF2D1BFF34F8F536943F480335D
:100770005361BFF34F8FBFF36F8F04F03DFB002435
:10078000FFF754FF142200210DA81EF0EDFB9E4B35
:1007900010219E481A6B01274FF010084FF0030BF1
:1007A00042F010024FF4805A994D4FF004091A6339
:1007B0001A6B984E02F010020292029A1A6B42F0E3
:1007C00002021A631A6B02F002020392039A1A6B76
:1007D00042F001021A631A6B02F001020492049AB9
:1007E0001A6B42F040021A631A6B02F04002059243
:1007F000059A1A6B42F400721A631A6B02F40072C3
:100800000692069A1A6B42F008021A631A6B02F0FB
:1008100008020792079A1A6B42F480621A631A6BF5
:1008200002F480620892089A1A6B42F020021A635E
:100830001A6B02F020020992099A1A6B42F4807234
:100840001A631A6B02F480720A920A9A1A6B42F0C7
:1008500080021A631A6B02F080020B920B9A1A6BD9
:1008600042F004021A6300221B6B03F004030C9392
:100870000C9B04F0D7FE01220821674804F0D2FE49
:1008800001224FF48051654804F0CCFE0022C021C3
:10089000634804F0C7FE00224021624804F0C2FE13
:1008A0000DA95A48CDE90D87CDE90F4B04F036FD6F
:1008B00008230DA95848CDE90D37CDE90F4404F0C0
:1008C0002DFD0DA95548CDE90DA7CDE90F4404F044
:1008D00025FDC0220DA95248CDE90D27CDE90F4BCA
:1008E00004F01CFD40220DA94E48CDE90D27CDE9AD
:1008F0000F4B04F013FD4C484C49848001600762A3
:10090000C0E9054404F05CFB49492846C5E90014E8
:10091000C5E90244C5E90A44C5E90C4404F0FFFBFB
:1009200039462846434D04F0B3FC40234FF4C072CF
:1009300041493046B460F461B462C6E905324FF40F
:100940000062C6E9082A4FF0020A0722C6E900142D
:100950000DA9CDF84CA0C6E90398CDE90F92CDE9D9
:100960000DA2CDE911BA06F03DFC29464FF6FF7203
:1009700030460194C5E90078C5E9027406F052FCDE
:10098000384604F05DFA29464FF6FF723046C5E955
:1009900000A8C5E9027406F045FC082329464FF675
:1009A000FF723046C5E900B8C5E9023406F03AFCEA
:1009B0004FF40C734FF6FF72294601933046019BAA
:1009C000AF60EB60C5E9009806F02CFC40F22B719B
:1009D00030461A4D06F045FC4FF0204343F2D20258
:1009E000642040F215261A6004F02AFA144B154AC6
:1009F00028462C62C5E90023C5E9024724E000BF70
:100A00001B00000300ED00E000380240000402403B
:100A10006404002060020020002802400020024000
:100A20000008024000180240A404002000300240E8
:100A300000B0024040020020400100A0100400204D
:100A400068474020005C0040C5E90444C5E906440D
:100A500004F010FF2146284605F02EF921462846CD
:100A60004A4D05F04FF9342221460DEB02001EF0ED
:100A70007BFA474B2821352040F2352C2C61AC867F
:100A800085F83640C5E900340923C5E905130B2371
:100A9000C5E9070340F21B132846C5E9096340F284
:100AA0001D13C5E90244C5E90BC305F0D7F9FF21C1
:100AB0004FF4806E4FF4F0724FF4887328460D9413
:100AC0001893ADF864408DF86640CDE91214052105
:100AD000CDE914E14FF04041CDE90E24CDE91612E5
:100AE00022460DA9CDE9103A05F083FA29482A4B90
:100AF0000462C0E90298C0E900374FF018084FF4CB
:100B0000A063DFF8C890C0E90483C0E9064405F09B
:100B1000D3FB03F0F1FF03F037FF5C2004F0F4F99E
:100B200000F062FC1D484FF4E13304614462C0E907
:100B300000930C23C0E90244C0E90534C0E907442E
:100B400007F092F900F07CFC00F079FC07F0BCFAA9
:100B5000134807F05FFB134B134A214618601348F4
:100B600007F0ECFA124B134A21461860124807F0BE
:100B7000E5FA124B124A21461860124807F0DEFAD5
:100B8000114B186007F0BAFAFEE700BF68030020B7
:100B9000006801401C030020001000A09402002007
:100BA00070FB010850020020C8FB0108E1050008A5
:100BB0005C020020A4FB01084F140008580200202A
:100BC00080FB0108ED050008540200200078004079
:100BD0000268064B9A4207D1054B012283F8062191
:100BE000D3F80C3103B11847704700BF00780040BC
:100BF000F41C00200268034B9A4202D1024803F021
:100C000033BE704700780040F41C0020084B07B545
:100C1000186869469A8800909B79ADF804200822EC
:100C200004488DF8063003F013FE03B05DF804FBB2
:100C300014FB0108F41C0020084B07B5186869462E
:100C40009A8800909B79ADF80420082204488DF81A
:100C5000063003F0FDFD03B05DF804FB1BFB01084B
:100C6000F41C0020084B07B5186869469A88009064
:100C70009B79ADF80420082204488DF8063003F073
:100C8000E7FD03B05DF804FB22FB0108F41C002023
:100C9000084B07B5186869469A8800909B79ADF8AB
:100CA0000420082204488DF8063003F0D1FD03B07B
:100CB0005DF804FB29FB0108F41C0020084B07B574
:100CC000186869469A8800909B79ADF8042008223C
:100CD00004488DF8063003F0BBFD03B05DF804FB5B
:100CE00030FB0108F41C0020084B07B51868694662
:100CF0009A8800909B79ADF80420082204488DF86A
:100D0000063003F0A5FD03B05DF804FB37FB0108D6
:100D1000F41C00200268034B9A4201D104F07EB813
:100D2000704700BF00100040704700000D4B82B0BC
:100D30000F216FF001001A6C42F080521A641A6C95
:100D400002F080520092009A5A6C42F480425A6437
:100D500000225B6C03F480430193019B02B004F01A
:100D600093B800BF00380240026882B0084B9A4234
:100D70000BD1D3F8302803F5006342F480521A6394
:100D80001B6B03F480530193019B02B0704700BFBB
:100D9000003002400E4B07B502689A4215D1A3F508
:100DA000F04305215A201A6B42F400021A63002214
:100DB0001B6B03F400030193019B04F065F85A20B8
:100DC00003B05DF804EB04F091B803B05DF804FBE8
:100DD00000B0024010B5A8B004461422002102A8B9
:100DE0001EF0C2F88422002107A81EF0BDF8226878
:100DF000174B9A422AD14FF4803307A8079305F086
:100E000067FF08B1FFF790FF124C4FF4C072012149
:100E10001148236B43F080032363236B03F08003AB
:100E20000093009B1223CDE902230323CDE9041391
:100E3000042302A9069304F071FA236C43F400031F
:100E40002364236C03F400030193019B28B010BDBD
:100E5000005C004000380240001C0240026808B5F7
:100E6000094B9A420FD1094A80210948136C23F497
:100E70000003136404F036FB4FF480710448BDE8AE
:100E8000084004F02FBB08BD005C00400038024061
:100E9000001C024070B5ACB004461422002106A824
:100EA0001EF062F8842200210BA81EF05DF8226873
:100EB000484B9A4240F08C800823052001240B9374
:100EC0004FF4C07310930223CDE911304FF4003377
:100ED0000BA8CDE9154305F0FBFE08B1FFF724FF91
:100EE0003D4B002402250E265A6C06A93B4842F0D1
:100EF00080625A645A6C02F080620092009A1A6B07
:100F000042F010021A631A6B02F010020192019A69
:100F10001A6B42F400721A631A6B02F400720292A6
:100F2000029A1A6B42F480621A631A6B02F48062AE
:100F30000392039A1A6B42F040021A631A6B02F092
:100F400040020492049A1A6B42F480721A631B6B7B
:100F500003F480730593059B1023CDE90635CDE995
:100F600008440A9604F0DAF94EF6FF7306A91C4805
:100F70000A96CDE90635CDE9084404F0CFF9F72308
:100F800006A918480A96CDE90635CDE9084404F0CB
:100F9000C5F94FF4805306A91348CDE90635092356
:100FA000CDE908440A9304F0B9F94FF4464306A981
:100FB0000E480A96CDE90635CDE9084404F0AEF9AD
:100FC00058202246052103F05FFF582003F08EFFD2
:100FD0002CB070BD00680140003802400010024093
:100FE0000024024000280240001802400020024075
:100FF000142200212DE9F0418AB004460DEB0200D5
:101000001DF0B2FF22682C4B9A4251D12B4B022586
:10101000032409269A6B4FF0040805A9284842F0DA
:10102000020200279A639A6B02F002020192019A6F
:101030001A6B42F010021A631A6B02F0100202924D
:10104000029A1A6B42F002021A631A6B02F0020251
:101050000392039A1A6B42F008021A631B6B03F0A7
:1010600008030493049BCDE90585CDE9084604F007
:1010700055F9402305A91348CDE905350A23CDE9E3
:101080000774099304F04AF905A90E480996CDE9B9
:101090000585CDE9077404F041F94FF4605305A9C3
:1010A00009480996CDE90535CDE9077404F036F90C
:1010B0000AB0BDE8F08100BF001000A00038024077
:1010C0000010024000040240000C0240026808B513
:1010D0000B4B9A4213D10B4A04210B48936B23F01C
:1010E0000203936304F0FEF94421084804F0FAF97E
:1010F0004FF460510648BDE8084004F0F3B908BD5C
:10110000001000A00038024000100240000402401D
:10111000000C024010B5A8B004461422002102A819
:101120001DF022FF8422002107A81DF01DFF226868
:10113000174B9A422AD14FF4805307A8079305F022
:10114000C7FD08B1FFF7F0FD124B002112481A6CE1
:1011500042F080421A641A6C02F080420092009AB7
:101160001A6B42F020021A63C0221B6B03F02003AB
:101170000193019B0223CDE902230323CDE904134C
:1011800008230DEB0301069304F0C8F828B010BD46
:10119000007800400038024000140240F0B50023FF
:1011A00087B00393294B1E68002E4DD101220227E0
:1011B00003250C241A6001A9254B26489A6B42F09E
:1011C00001029A639B6B03F001030093009B4FF6AF
:1011D0008373CDE90454CDE9013704F09FF848F258
:1011E000331301A91C480594CDE90137CDE9036506
:1011F00004F094F84CF2037301A918480594CDE962
:101200000137CDE9036504F089F84FF63F0301A9E2
:1012100013480594CDE90137CDE9036504F07EF864
:10122000282301A90F480594CDE90137CDE90365CD
:1012300004F074F8082301A90B480594CDE901379F
:10124000CDE9036504F06AF807B0F0BDC8040020DA
:10125000003802400010024000180240000C02401A
:1012600000140240001C024000080240214B1A6C8E
:1012700042F0100270B51A6488B01B6C054601A9D3
:1012800003A803F010030293029B05F003FD069BE5
:101290004BBB05F0DFFC184E184B336040F2E733D0
:1012A000F360174BB0FBF3F3013B30467360002350
:1012B0003361B360B36106F045F9044680B9304646
:1012C00005F0E8FF044658B9362003F00FFE0F2D55
:1012D0000DD822462946362003F0D6FD094B1D6065
:1012E000204608B070BD05F0B5FC4000D3E70124EE
:1012F000F6E700BF00380240CC0400200010004098
:1013000040420F003C0000207047FEE7FEE7FEE78A
:10131000FEE77047014805F0FFBF00BFCC04002086
:10132000014804F009BE00BF68030020014803F033
:1013300024BF00BF640400200120704708B51DF0E1
:10134000DBFE162303604FF0FF3008BD08B51DF02B
:10135000D3FE16230360FEE770B50D4614460E4615
:10136000731B9C4201DC204670BDAFF3008006F881
:10137000010BF5E770B50D4614460E46731B9C42F3
:1013800001DC204670BD16F8010BAFF30080F5E7D5
:101390004FF0FF3070474FF4005300204B60704710
:1013A00001207047002070470B4A0346116810B5B2
:1013B00009B90A491160106809490A4C0344091B1C
:1013C0008B4206D91DF098FE0C2303604FF0FF30CE
:1013D00010BD1360FCE700BF18050020E05C012091
:1013E00000000520000A000070470000DFF834D03C
:1013F000002103E00C4B5B58435004310B480C4B6D
:1014000042189A42F6D30B4A02E0002342F8043B0A
:10141000094B9A42F9D303F007FC1DF073FEFFF766
:1014200051F9704700000520181B02080000002039
:101430002401002024010020DC5C0120FEE770472D
:1014400008B500F05FFDBDE8084000F0EBBC00F01F
:101450005BBD406870474160704700004FF0E0227C
:10146000D2F8FC3D43F08073C2F8FC3D054B064AC0
:10147000D3F8B01F0A43C3F8B02F1A6842F0010234
:101480001A607047001000E055CEACC5521A02EB4E
:101490005302B2FBF3F07047014B5868704700BF2E
:1014A000001000E0704710B504460C211DF091FAC1
:1014B000204610BD036810B51B69044631B198473A
:1014C000A26863689B1A0344636010BD9847A060DC
:1014D000FBE70000024B7020024A1360DB681847EC
:1014E000100000201C050020704710B504460421A0
:1014F0001DF06FFA204610BD73B50E4E0D46144612
:10150000336813B9002002B070BD1B697020984782
:101510000028F7D03368702001AA0DF106015B693D
:101520009847BDF8043001202B60BDF806302360D9
:10153000E9E700BF1C0500207FB501238DF81720C7
:101540004FF47A72CDE901320DF1170200920A468A
:101550000146054804F0F8F910B1034804F0DBF93E
:1015600007B05DF804FB00BF100400207FB5002326
:101570000A464FF47A718DF817300123CDE9013115
:101580000DF1170100910146054804F0B7FA10B1BA
:10159000034804F0C0F99DF8170007B05DF804FB9C
:1015A00010040020032823D8DFE800F0020B131AF0
:1015B000104B102110481A68B2FA82F2520904F056
:1015C00031B80C4B40215A68B2FA82F252090B48EA
:1015D000F5E7084B80219A68B2FA82F25209F6E7E1
:1015E000044B40210648DA68B2FA82F25209E6E773
:1015F000704700BF200500200004024000080240A0
:1016000000180240032823D8DFE800F0020B131A69
:10161000104B102110481A68003A18BF012204F03C
:1016200001B80C4B40215A68003A18BF01220B4800
:10163000F5E7084B80219A68003A18BF0122F6E7C7
:10164000044B40210648DA68003A18BF0122E6E759
:10165000704700BF2005002000040240000802403F
:101660000018024003280FD8DFE800F00206090B3B
:101670001021064803F0DBBF40210548FAE780212E
:10168000FBE740210348F5E7704700BF0004024034
:10169000000802400018024008B5032813D8DFE80C
:1016A00000F0020A0D0F1021084803F0B5FF431E99
:1016B0005842584108BD40210548F6E78021FBE724
:1016C00040210448F1E70020F1E700BF0004024098
:1016D000000802400018024070B5084D00240126A1
:1016E000E0B2FFF7D9FF18B12B68012B18BF2E60AD
:1016F00001340435052CF3D170BD00BF2005002056
:10170000012380F8781080F8793070470020704706
:1017100041640039024B18BF01211970704700BFA6
:10172000AB50012000207047836B0BB1084618476F
:1017300070474FF6FF707047406803689B69184711
:101740007047000038B5044600F0A6FC084923683D
:101750002046084DD3F88C3098470023284684F85B
:101760004A30FFF77BFE0123256184F8703038BDD5
:10177000000000C03005002000F058BC00F05CBC48
:1017800070B500F0A7FC10490023C1F88430BFF306
:101790004F8FD1F8803043F6E074C3F3C900C3F330
:1017A0004E335B0103EA0406024646EA8275013ABB
:1017B000C1F87452F9D2203B13F1200FF2D1BFF3DC
:1017C0004F8FBFF36F8F70BD00ED00E000F084BC61
:1017D00000F008BC00F082BC00F08ABC00F00CBC39
:1017E00010B5044609F024FF23682046D3F8AC3036
:1017F000BDE81040184709F079B910B504467C21BE
:101800001DF0E7F8204610BD90F834100D4B10B5D0
:1018100090F878401A788C4209D03AB90A490B4AB4
:1018200008881488108001220C801A7010BD002ACC
:10183000FCD0064A0449148808880C8010800022D5
:10184000F3E700BFA4500120A2500120A0500120C6
:1018500070B50D46194635B9094B40F2D221094AF7
:1018600009481DF0E5F8C0E90F52003A074B18BFD0
:1018700001221A700368BDE87040D3F88C30184715
:101880002CFC010864FC0108B2FC0108AA500120EC
:1018900008B5094B1B888B4203D8084B1B88934221
:1018A00005D9074B9E21074A07481DF0C1F8074B91
:1018B0001980074B1A8008BDA0500120A2500120BA
:1018C000F7FC01085AFD0108B2FC0108A6500120EE
:1018D000A8500120034690F87A0018B158680368B0
:1018E0001B68184770470000014608B5034B18688D
:1018F00001B1012109F0B6FE012008BDAC50012064
:10190000034B00225A609A60024A1A60704700BF77
:1019100030050020F4FB01080121002208B508462B
:1019200006F0BAFC0A4B186028B90A4B28210A4A6B
:101930000A481DF07DF800220421012006F076FD02
:10194000074B186018B9074B2C21034AF0E708BD74
:101950004005002078FE0108C1FE0108F0FE0108E4
:101960003C0500203EFF0108024B4FF0FF31186894
:1019700006F0EABC40050020014B186806F020BDC7
:1019800040050020024B0021186806F0DDBC00BFB6
:1019900040050020FFF7F0BF0023034803491A4623
:1019A000006806F089BD00BF3C050020040000204F
:1019B00013B50023074C01A91A46206806F0BEFDA6
:1019C0004FF0FF33002201A9206806F0B7FD02B0F6
:1019D00010BD00BF3C05002003685B6C1847012068
:1019E000704703689B6A18470D4B82B01A6B42F42C
:1019F00000021A631A6B02F400020192019A1A693A
:101A000042F400021A611A6922F400021A61054BBD
:101A1000054A1A614FF08062044B9A6002B0704729
:101A20000038024064040020B91C000800E100E016
:101A300040F2EF3070470000054B4FF080620360CA
:101A4000044BC3F88820BFF34F8FBFF36F8F7047ED
:101A5000DC00020800E100E010B504464FF45A61D2
:101A6000FFF7EAFF20461CF0B4FF204610BD00003F
:101A700008B50A2809D8DFE800F006100E080808A3
:101A8000081010101000022008BD054B8621054AE1
:101A900005481CF0CDFF0020F6E70120F4E700BF69
:101AA00080FF01089BFF0108E6FF010838B50C46DE
:101AB000887FFFF7DDFF174BA58AE28A586342EA69
:101AC000054221695A64628BD963521B1A642568E6
:101AD000082D0ED19A611A6158620F4A207F42EA9E
:101AE0000062DA61E2681A620C4A5961D9601A60D0
:101AF00038BD0022D8611A61E1680A0A4809C1F3B9
:101B0000C40102F4784200F4FC6002430A439A6381
:101B1000034AECE700B002400900010001020200A4
:101B20000102030008B50B280BD8DFE800F006120D
:101B3000100A0A0A0A0808080808022008BD052039
:101B4000FCE7054B6521054A05481CF071FF0020A4
:101B5000F4E70120F2E700BF80FF0108320002082D
:101B6000E6FF01082DE9F04191F81D800C46404642
:101B7000FFF7D8FFA77F05463846FFF7D3FF064695
:101B80003846FFF775FFA18A628B434B521A1A64DD
:101B90009A61228B521A1A61E28A586342EA014220
:101BA00021695A646268D963DA602068802828D085
:101BB000227F0FD8202866D0402864D004281AD06D
:101BC00045EA0265344BB84545F40035DD6160D027
:101BD000324A44E0B0F5807F04D0B0F5007FEFD109
:101BE0002F4800E02F4840EA0262DA61E2681A6298
:101BF0005E62596132E045EA026242F40032DA6123
:101C0000F6E7A068021DDA62227F45EA026545F424
:101C10000035DD615E625961017841B1012921D051
:101C2000214B4FF48871214A21481CF001FFDA69E9
:101C3000418822F47F42013922F0100242EA012257
:101C40000121DA61144BDA6942F02002DA61DA69C3
:101C50009206FCD410229A600029B9D0154A1A6065
:101C6000BDE8F081B2F1FF01DA69408822F47F42D9
:101C700018BF0121013822F0100242EA002242F08E
:101C80001002DA61DEE745EA0262034B42F40032F9
:101C9000B5E740F20122E2E700B002400102010094
:101CA000090002000A0002007C00020896000208F7
:101CB000E6FF010801020200024B1B685868036836
:101CC0005B691847AC50012070B504460A4B0C30D4
:101CD00000262546602260602672667245F8203B29
:101CE000294609F0FBFD04F55A63EE6024359D4258
:101CF000FBD1204670BD00BFDC0002080120704708
:101D00000C2070470C2303FB0100083070470C23A4
:101D100003FB010008307047012070474FF4D56085
:101D200070474FF4D56303FB0100083070474FF450
:101D3000D56303FB01000830704701207047102075
:101D4000704700EB01100830704700EB01100830BD
:101D50007047084600F0CCBB034B10B50446036047
:101D600008F01DFC204610BD9401020810B5044681
:101D7000FFF7F2FF142120461CF02BFE204610BD79
:101D8000034B10B50446036008F009FC204610BD63
:101D90006001020810B50446FFF7F2FF4FF4D66168
:101DA00020461CF016FE204610BD0000034B10B567
:101DB0000446036008F0F3FB204610BD2C01020826
:101DC00010B50446FFF7F2FF182120461CF001FE73
:101DD000204610BD084B10B50446036000F2DC60DD
:101DE000FFF7BAFF04F12C00FFF7CAFF04F114005B
:101DF000FFF7DCFF204610BDC801020808B5024805
:101E0000FFF7E8FF08BD00BFF413002010B504463B
:101E1000FFF7E0FF4FF4056120461CF0DAFD204695
:101E200010BD00002DE9F34100F0C4F9002405467F
:101E300000F0C4F9234601462246284600940FF0DC
:101E400063F9254B254A2046254D1A6001F098F983
:101E500024480FF0C1F82B68BFF35B8FDB0735D444
:101E600028461CF0B8FD88B31F4C204B04F2F466E2
:101E700004F1140004F12C0804F2DC6723606060B4
:101E8000C4F80880E760266108F08AFB184B4046DA
:101E9000636108F085FB174B3846E36208F080FB6E
:101EA000154B04F5DE60C4F8DC3602F049FA224630
:101EB00004F5DE61304602F0E7F9304600F018FB29
:101EC0000E481CF0D3FD28461CF091FD0C4802B0D2
:101ED000BDE8F041FFF736BC08510120C0050020E5
:101EE000F013002008000020F4130020C8010208AD
:101EF0002C0102086001020894010208FD1D00087F
:101F00004405002070470000014808F058BE00BF9B
:101F10004405002070B5224E224B234C3046234D01
:101F20002360FFF7D1FE284613F0C8FB204B0022A8
:101F30004FF480711F481A8683F858205A6683F838
:101F400070205A67DC60C3E912121B49C3E91A12F8
:101F50001A4999671A490B604FF4F07101801948CA
:101F600001804FF488711848C3E90422C3E90622AE
:101F7000C3E90822C3E90A22C3E90E22C3E91022F9
:101F8000C3E91422C3E91722C3E9016501800F48A0
:101F900083F8342001800E490A700E4A1A6070BD21
:101FA0004C0600201CFC0108EC130020C405002096
:101FB00044050020A05001200100000100000101A3
:101FC000AC500120A6500120A2500120A8500120B1
:101FD000A4500120A8FD01080148FFF72DBD00BF56
:101FE0004C060020034B902283F85A2383F8582391
:101FF000704700BF00E100E0094A0A49D3680A4877
:10200000C3F30A03013B9BB20B801169C1F30A01C0
:10201000013901801364536B43F00103536370472C
:1020200000680140461C0020441C0020014BD3F8EE
:10203000AC00704700680140024B0122C3F8AC10AD
:102040005A62704700680140124A5369DB0370B559
:102050001ED50023C2F88430BFF34F8FD2F88030F2
:1020600043F6E074C3F3C900C3F34E335B0103EAE4
:102070000406014646EA81750139C2F87452F9D264
:10208000203B13F1200FF2D1BFF34F8FBFF36F8FBF
:1020900070BD00BF00ED00E070B5044608F07BFDA8
:1020A00023685D6E0BF0D4FF01462046A8472368E5
:1020B000054A2046D3F888500023A2F57F31AC466C
:1020C000BDE87040604700BF00F807C008F04ABD97
:1020D00008F054BD08F010BD08F07FBE034B4FF070
:1020E00080629A604FF080729A60704700E100E071
:1020F000084B4FF08062C3F88820BFF34F8FBFF3C7
:102100006F8F4FF08072C3F88820BFF34F8FBFF3FB
:102110006F8F704700E100E010B5144C236823B3C3
:10212000134B144A1B6C11888B4213D1124B198824
:1021300003F08CFF226892F86A30013382F86A302B
:10214000FFF72AFC206809F073FA0020BDE8104070
:10215000FFF728BA03F07AFF206803681B6A9847E4
:102160000020BDE81040FFF74DBA10BDAC50012073
:1021700000680140461C0020441C0020704710B538
:10218000044604211CF025FC204610BD012908B599
:1021900006D0022908D059B901F03EF8006808BD00
:1021A00001F03AF84068FAE701F036F88068F6E79F
:1021B0000020F4E700487047E80102080C2070474F
:1021C00013B5002451B1036801AA01948DF80340AE
:1021D0009C680DF10303A04702B010BD0846FBE761
:1021E000C0897047008A7047C088704780887047F0
:1021F000807A00F07F007047807AC0097047002025
:10220000704700009FED010A704700BF000000000A
:102210000020704781807047C180704701817047FE
:10222000418170477047704770477047704710B4DE
:10223000C4880368121B84885B6D091B12B25DF8A9
:10224000044B09B218474FF6FF7383814FF0FF33F9
:1022500003621368C36110607047806A70477047FB
:10226000704710B5044684211CF0B3FB204610BD16
:1022700090F8252012B103685B691847704790F801
:1022800025201AB190F8242002B118607047036825
:1022900070B504461B6B15469847236820462946AF
:1022A0005B6BBDE870401847002310B5C0E90133EF
:1022B000C0E90333C0E90733C0E905334FF4807345
:1022C00004468384054B03600B88C384FF2380F896
:1022D00028300AF06CF8204610BD00BF44150208F3
:1022E0004FF480732DE9F7430446002506468384A6
:1022F000244B04F158074FF6FF78856201A94FF08F
:102300000A09ADF80480C0E90155C0E90355C0E9E8
:102310000555C0E9075546F82C3B3046FFF7C4FF8A
:1023200001A93846ADF80480FFF7BEFF164B3622F0
:102330002946A36030464FF09608FFF7A8FF01A991
:102340003046ADF804900AF032F83146204684F861
:10235000548008F037F96FF0010229463846FFF73C
:1023600096FF01A93846ADF804900AF020F82046FF
:10237000394684F8808008F025F9204603B0BDE88E
:10238000F08300BFE002020882006E00704710B5C3
:10239000044608211CF01DFB204610BD7047704705
:1023A00000F598730868496803C370477047704721
:1023B0004160704770470000064BC0F84801C0F804
:1023C0004C310023C0F8503100F5A273C0F8403101
:1023D000704700BF512900080123037270477047FE
:1023E000704710B441680346C2689B68541001EB03
:1023F0006200D20748BF0A595DF8044B48BFD35862
:1024000018470346406830B19A681AB9D86800F096
:10241000010070470120704710B504460C211CF0E4
:10242000D8FA204610BD10B5044610211CF0D1FA90
:10243000204610BD10B504464FF4AE711CF0C9FA29
:10244000204610BD10B50BF003FE0368BDE8104038
:10245000DB6B184710B50446D0F8400158B103684B
:10246000DB68984738B1D4F8400103689B68984707
:102470000023C4F8403110BD044B1B6893F858206A
:102480000AB1D86C00B99868704700BFAC50012001
:10249000F8B5044617460E460BF0A0FE104B00257B
:1024A0001C6029460F4B23600F4BC4E951350F4B7D
:1024B0001868C4E953550368C4E94F559B68C4E9DB
:1024C00055769847284600F05BFEFFF7D5FF14F0DD
:1024D00026FFFFF7D1FF14F09DFF2046F8BD00BF97
:1024E000F8500120F4080208DC080208AC50012072
:1024F000064BC0F84801C0F84C310023C0F85031F9
:1025000000F5A273C0F84031704700BF51290008A0
:10251000064BC0F84801C0F84C310023C0F85031D8
:1025200000F5A273C0F84031704700BF09280008C9
:10253000064BC0F84801C0F84C310023C0F85031B8
:1025400000F5A273C0F84031704700BFC1260008F3
:10255000064BC0F84801C0F84C310023C0F8503198
:1025600000F5A273C0F84031704700BF792500081C
:1025700003685B6A184700002DE9F14FD0E9556AFE
:102580000746B06803681B6A9847DB2805D8444BA8
:10259000A321444A44481CF04BFA706803681B6A44
:1025A00098470F2803D8414BA4213E4AF2E7F06830
:1025B00003681B6A98470B2803D83D4BA521394A6D
:1025C000E8E7DFF8F4900BF043FD04300BF065FD15
:1025D000D9F8000010B10368DB689847D9F800000B
:1025E00010B103681B689847DFF8D080D8F8000066
:1025F00010B103685B699847D7F83C0110B10368D4
:102600005B689847D8F8000010B103681B689847CA
:10261000D7F83C0110B103689B6898470021F06827
:10262000FFF7A6FF4FF0000B224B0446C0F804B0A2
:10263000594680F808B00360B06803685B6A984741
:10264000054601F0BFFE7068594603685B6A98470B
:102650000646294601F096FE331DC7F83C61284620
:10266000C9F80040C8F80050CAF800302B68C6F816
:1026700008A0DB68EE639847336830461B689847CC
:10268000214628460DF0B0F9236820461B6998477B
:10269000236820465B6901B0BDE8F04F184700BFD2
:1026A0007C0302080A040208DA0402082105020871
:1026B000C405020848090208EC500120E850012036
:1026C0002DE9F14FD0E9556A0746B06803681B6AE7
:1026D0009847B0F5447F05D2434BA321434A444871
:1026E0001CF0A6F9706803681B6A98470F2803D886
:1026F000404BA4213D4AF2E7F06803681B6A984703
:102700000B2803D83C4BA521384AE8E7DFF8F090C6
:102710000BF09EFC04300BF0C0FCD9F8000010B1A7
:102720000368DB689847D9F8000010B103681B689C
:102730009847DFF8D080D8F8000010B103685B69D3
:102740009847D7F83C0110B103685B689847D8F800
:10275000000010B103681B689847D7F83C0110B11E
:1027600003689B6898470021F068FFF701FF4FF06E
:10277000000B224B0446C0F804B0594680F808B05C
:102780000360B06803685B6A9847054601F07CFE09
:102790007068594603685B6A98470646294601F007
:1027A0002FFE331DC7F83C612846C9F80040C8F821
:1027B0000050CAF800302B68C6F808A0DB68EE634A
:1027C0009847336830461B689847214628460DF0E5
:1027D0000BF9236820461B699847236820465B69EC
:1027E00001B0BDE8F04F18477C03020867060208F5
:1027F000DA04020821050208C40502084809020893
:10280000EC500120E85001202DE9F14FD0E9556A44
:102810000746B06803681B6A9847B0F5D56F05D2C4
:10282000434BA321434A44481CF002F970680368F3
:102830001B6A98470F2803D8404BA4213D4AF2E772
:10284000F06803681B6A98470B2803D83C4BA52106
:10285000384AE8E7DFF8F0900BF0FAFB04300BF0B1
:102860001CFCD9F8000010B10368DB689847D9F860
:10287000000010B103681B689847DFF8D080D8F8D3
:10288000000010B103685B699847D7F83C0110B1AC
:1028900003685B689847D8F8000010B103681B68AC
:1028A0009847D7F83C0110B103689B68984700210E
:1028B000F068FFF75DFE4FF0000B224B0446C0F8B6
:1028C00004B0594680F808B00360B06803685B6ADA
:1028D0009847054601F0CCFE7068594603685B6A6C
:1028E00098470646294601F099FE331DC7F83C611A
:1028F0002846C9F80040C8F80050CAF800302B68D4
:10290000C6F808A0DB68EE639847336830461B685A
:102910009847214628460DF067F8236820461B6932
:102920009847236820465B6901B0BDE8F04F18471F
:102930007C03020835070208DA04020821050208B0
:10294000C405020848090208EC500120E8500120A3
:102950002DE9F14FD0E9556A0746B06803681B6A54
:102960009847B0F5DC7F05D2434BA321434A444846
:102970001CF05EF8706803681B6A98470F2803D83C
:10298000404BA4213D4AF2E7F06803681B6A984770
:102990000B2803D83C4BA521384AE8E7DFF8F09034
:1029A0000BF056FB04300BF078FBD9F8000010B1A7
:1029B0000368DB689847D9F8000010B103681B680A
:1029C0009847DFF8D080D8F8000010B103685B6941
:1029D0009847D7F83C0110B103685B689847D8F86E
:1029E000000010B103681B689847D7F83C0110B18C
:1029F00003689B6898470021F068FFF7B9FD4FF026
:102A0000000B224B0446C0F804B0594680F808B0C9
:102A10000360B06803685B6A9847054601F080FC74
:102A20007068594603685B6A98470646294601F074
:102A300047FC331DC7F83C612846C9F80040C8F878
:102A40000050CAF800302B68C6F808A0DB68EE63B7
:102A50009847336830461B689847214628460CF053
:102A6000C3FF236820461B699847236820465B699B
:102A700001B0BDE8F04F18477C03020805080208C2
:102A8000DA04020821050208C40502084809020800
:102A9000EC500120E8500120406A7047806A70477E
:102AA00070478B88C069DB0A0A6850F8230010441D
:102AB000704710B50446BAB1107B68B1537BD27A27
:102AC0001B0203F4E0631A43236A03EB82031A88B0
:102AD0008A4202D193F9020010BD05D801380433AF
:102AE00080B20028F3D1F7E70020F5E710B50446DF
:102AF0002C211BF06EFF204610BD000030B58BB0BE
:102B00000446BDF860500895BDF85C5007959DF8E7
:102B1000505006959DF84C5005959DF848500495E9
:102B20009DF8445003959DF8405002959DF83C5007
:102B30000195BDF8385000950CF0B0FB064B2046CF
:102B40002360159BE361169B2362199B63621A9BAA
:102B5000A3620BB030BD00BF6C090208704770471C
:102B600070477047704770477047704730B444688B
:102B70000346C2689B68551004EB6200D20748BF49
:102B8000625930BC48BFD35818470346406830B13B
:102B90009A681AB9D86800F00100704701207047A0
:102BA00010B5044610211BF014FF204610BD10B5CF
:102BB00004464FF4DA711BF00CFF204610BD38B507
:102BC00000F5947304460D46994203D10BF040FA88
:102BD000FFF7AEFC04F1E0039D4203D10BF038FA9D
:102BE000FFF796FC04F5B874A54205D10BF030FA56
:102BF000BDE83840FFF7ACBC38BD00000022C0E99A
:102C00000122C0E90322C0E90522C0E907224FF4EE
:102C100080728284014A0260704700BF980A0208ED
:102C2000F8B5194B0646018F1B888B422AD9174BE2
:102C30001B682BB9164B6C21164A17481BF0F8FE7F
:102C400013F81120154B1B6853F82250144B1868C9
:102C500000F0D2FA2B68074628469B6B98472B68F2
:102C6000044639469B6C2846984714FB00F42B68B1
:102C70003946A4B228465B6A984723181BB2A6F8C7
:102C80004630F8BD0023FAE700510120FC50012036
:102C9000CC0902080E0A0208490A02080451012060
:102CA000085101202DE9F04F04468BB000250CF0AF
:102CB000EFFC26464FF02608924B29464246E56334
:102CC00046F8403B30461CF04FF93046FFF796FF80
:102CD0008D4B04F16C0AFF2723644FF6FF734246C5
:102CE000294684F866705046A56604F19809ADF847
:102CF00020301CF039F9504604F1E00BFFF77EFF5D
:102D0000824A08A95046E266BDF8202084F89470F3
:102D10004FF0FF37A4F8922009F049FB29464246BC
:102D200048461CF021F94846FFF768FF784A794B7E
:102D30005846C4F898204FF47F02C4F8C0304FF6CC
:102D4000FF73C4F8C850A4F8C430C4F8CC20A4F869
:102D5000D050C4F8D450C4E9367509F069FC04F5C4
:102D600094721046009209F063FC04F5B87229468B
:102D700001924246019804F104081CF0F5F801980C
:102D8000FFF73CFF4FF6FF7301222946A4F8A0315C
:102D9000304684F8A231604B84F894215F4AC4F82D
:102DA000985184F89C51C4F870212A46A4F89E7169
:102DB000C4E969345A4BC4E96B35FFF768FA304609
:102DC0004FF4F071FFF72AFA30464FF48871FFF79D
:102DD00027FA4FF07F4331464046A36604F5D2768A
:102DE00007F0F0FB2A4629465046FFF750FA08A99B
:102DF0005046ADF8205009F0DAFA514640464FF0FF
:102E00000A0A07F0DFFB572248465421FFF73FFA32
:102E1000A4F8CC5002AD4946C4F8C870284608F062
:102E2000A5FE04F1D40395E8070083E80700394BB9
:102E3000962508A9484608930323ADF8243009F0E5
:102E40003DF94946404684F8CE504FF0090907F055
:102E5000B9FB5846AF225A21FFF719FA08AA07A969
:102E60005846ADF81CA0ADF8209009F082F91A235D
:102E70005846A4F81831FFF7D3FE5946404684F867
:102E80001251C4F80861C4E9477707F09BFB00982A
:102E9000AF224FF48771FFF7FAF908AA07A9009843
:102EA000ADF81CA0ADF8209009F063F90423009858
:102EB000A4F86031FFF7B4FE0099404684F85A51F7
:102EC000C4F85061C4E9597707F07CFB01980522EA
:102ED00040F2A911FFF7DBF90B2308AA07A9019813
:102EE000ADF81C30ADF8203009F043F940460199A7
:102EF00084F8A251C4F8986107F064FB20460BB037
:102F0000BDE8F08F180B0208681402084415020887
:102F1000D813020874030208000B0208D014020838
:102F2000BF2B00087047000030B5164D8FB02C68DD
:102F3000BFF35B8F14F0010420D128461BF04BFD3A
:102F4000E0B13F23012210490993104B1048089328
:102F5000104B0A940594CDE906430423CDE90332CE
:102F60000C23CDE90B440093CDE90144FFF7C6FDE6
:102F700009481BF07BFD28461BF039FD04480FB0C3
:102F800030BD00BF481C002038220E90981A02085D
:102F90004C1C0020E41A0208252F0008704700008E
:102FA00030B5174D8FB02C68BFF35B8F14F0010460
:102FB00022D128461BF00FFDF0B13F2321221149F9
:102FC0000993114B11480893114B0A94079301235D
:102FD00001940493CDE905430423CDE90243122370
:102FE000CDE90B4400931623FFF788FD09481BF039
:102FF0003DFD28461BF0FBFC04480FB030BD00BF70
:10300000781C002048220E909C1A02087C1C00208C
:10301000E81A02089D2F00087047000030B5174DD0
:103020008FB02C68BFF35B8F14F0010422D12846C7
:103030001BF0D1FCF0B13F230B2211490993114B36
:1030400011480893114B0A940793012301940493A8
:10305000CDE905330423CDE902432823CDE90B4410
:1030600000932E23FFF74AFD09481BF0FFFC28467A
:103070001BF0BDFC04480FB030BD00BFA81C0020F1
:1030800018240E90D41A0208AC1C0020EC1A020876
:103090001930000800207047002070470EB403B5B7
:1030A00003AB002153F8042B01930BF01FFF02B078
:1030B0005DF804EB03B070470CB407B504AB53F8EC
:1030C000042B01930BF012FF03B05DF804EB02B088
:1030D00070470000436C10B5044673B3038F2BB9DF
:1030E000184BC521184A19481BF0A2FCC38E00EBEF
:1030F00043035B8C0BB30DF0A7F9238F012B03D88F
:10310000134BCB21134AEEE7E28E40F63F10531CDF
:103110009BB2092B194688BFA3F10A0104EB4101B8
:10312000498C814209D10A2B04EB420228BF0023BB
:10313000508C04EB4303588451842046BDE8104072
:103140000DF084B8440B02084D0B0208F80B02087E
:10315000420C0208500C02080DF041B810B586B0C0
:1031600002AC84E806001A460AAB21460593019397
:10317000099B0093089B0AF009FB06B010BD0000F4
:1031800038B518BB124B13481C681349B4B12268F8
:1031900022440260626822440A60A26814440F4B11
:1031A00000221A8000F038F8054600F033F80C4B86
:1031B0001C600C4B1D600C4B188007E00B4B036030
:1031C0000B4B0B600B4B1C68002CE8D138BD00BFCB
:1031D000E41C0020DC1C0020D81C0020E01C002087
:1031E000FC500120045101200051012020250E90A7
:1031F000B4240E9034260E90044B1B6853F8210023
:10320000034B1B6803EB4000704700BFD81C002035
:10321000DC1C00201B20704700487047E81C002081
:1032200010B5054CFFF780FE2060FFF7B9FE606027
:10323000FFF7F4FEA06010BDE81C00207047704747
:10324000704730B444680346C2689B68551004EB6D
:103250006200D20748BF625930BC48BFD3581847F4
:103260000346406830B19A681AB9D86800F0010086
:1032700070470120704710B5044610211BF0A9FBD0
:10328000204610BD10B50446DC211BF0A2FB2046F1
:1032900010BD9830884208B505D10AF0D9FEBDE8C6
:1032A0000840FFF725B908BD2DE9F347044600257E
:1032B0000CF0EEF94FF0260A26464A4B52462946B4
:1032C000E56304F16C0746F8403B30461BF04CFECA
:1032D0003046FFF793FC4FF0FF08434B4FF6FF7962
:1032E000524629462364384684F86680A566ADF8C0
:1032F00004901BF039FE3846FFF780FC3B4B84F806
:10330000948004F19808E36601A9BDF804303846BA
:10331000A4F8923009F04BF85246294640461BF07B
:1033200023FE4046FFF76AFC01232A46294684F81B
:10333000BC3030462E4BA4F8C690C4F898302D4BC4
:10334000A4F8C89084F8CA9004F10409C4F8C050E5
:1033500084F8C450C4E93334274BC4E93535FEF74B
:1033600096FF30464FF4F071FEF758FF30464FF4A9
:103370008871FEF755FF4FF07F4331464846A366FC
:1033800007F020F92A4629463846FEF780FF01A9B2
:103390003846ADF8045009F00AF83946484607F0B7
:1033A00011F94046052240F2A911FEF770FF0423EF
:1033B000694640460DEB0302ADF80030ADF804302D
:1033C00008F0D7FE96234846414684F8CA3004F1F7
:1033D000CC03C4F8C03007F0F5F8204602B0BDE8D1
:1033E000F08700BF440D0208681402084415020863
:1033F000D01402082C0D0208933200087047704761
:1034000070477047704730B444680346C2689B6891
:10341000551004EB6200D20748BF625930BC48BF68
:10342000D35818470346406830B19A681AB9D8682B
:1034300000F0010070470120704710B504461021CC
:103440001BF0C7FA204610BD10B504464FF4387182
:103450001BF0BFFA204610BD00F19803994270B5E9
:1034600004460D4603D10AF0F3FDFFF741F804F5D9
:1034700082739D4203D123682046DB6A984704F596
:103480009E739D4205D1236820461B6BBDE87040AA
:10349000184770BD10B50446262200211BF064FDBC
:1034A0002046FFF7ABFB054B204623600023A362B9
:1034B00084F82C30012384F8243010BDF412020863
:1034C00010B50446262200211BF04EFD2046FFF7D2
:1034D00095FB0A4B4FF47F0220462360084BA36202
:1034E0004FF6FF73A3850023C4E90C324FF0FF327F
:1034F0002387E363C4E9102310BD00BFD81302087B
:103500007403020810B50446FFF7C4FF4FF6FF73BB
:10351000044A2046E385238684F832302260A3865D
:1035200010BD00BF641302082DE9F04F044691B0AE
:1035300000260CF0ADF82746D04B26223146E66334
:1035400004F16C0B47F8403B38461BF00DFD384644
:10355000FFF754FBCA4B4FF6FF7504F1980823643C
:10356000FF230EA9584684F8663004F1CC0AA666FB
:1035700004F58279ADF83850FEF796FE4046FFF725
:1035800089FFC04BA4F8C6505046C4F89830A4F840
:10359000C85084F8CA50FFF7B5FF4846FFF7B2FF9E
:1035A00004F59E7318460393FFF7ACFF04F5BA7356
:1035B0000EA9ADF8385018460493FEF775FE04F5D1
:1035C000D0730EA9ADF8385018460593FEF76CFE7F
:1035D00004F5E6730EA9ADF8385018460693FEF7C9
:1035E00063FE04F5FC73251D18460093FFF768FF82
:1035F00004F5107318460193FFF762FF04F5227378
:1036000018460293FFF75CFF9F4B3246314638461F
:10361000C4E9B4349D4BC4E9B636FEF738FE3846EB
:103620004FF4F071FEF7FAFD38464FF48871FEF75B
:10363000F7FD4FF07F4339462846A366962706F0EC
:10364000C1FF324631465846FEF721FE4FF00103D6
:103650000EA95846ADF8383008F0A9FE594628465C
:1036600006F0B0FF4046052240F2A911FEF70FFE1A
:1036700004230EAA0DA94046ADF83430ADF8383019
:1036800008F077FD04F53473414628464FF00208F0
:10369000C4F8C0304FF0030B84F8CA70079306F0EB
:1036A00091FF50461C2240F21311FEF7F0FD0EAAC6
:1036B0000DA95046A4F80081ADF834B0ADF83880BB
:1036C00008F057FD5146284606F07CFF48466C221C
:1036D00040F21311FEF7DBFD0EAA0DA94846A4F82F
:1036E0003881ADF834B0ADF8388008F042FD079B62
:1036F000494628464FF00A09C4F82C3106F062FF0B
:103700000398BC2240F21311FEF7C1FD0EAA0DA9C9
:103710000398A4F87081ADF834B0ADF8388008F0A3
:1037200028FD079B28460399C4F8643106F04AFF38
:10373000192204985521FEF7AAFD0EA90498ADF8A8
:10374000389008F034FE0499284684F89C7106F0FD
:1037500039FF692205985521FEF799FD0EA90598B4
:10376000ADF8389008F023FE0599284684F8C87112
:1037700006F028FFB92206985521FEF788FD0EA90C
:103780000698ADF8389008F012FE0699284684F89D
:10379000F4710DF1200906F015FF009828226C2124
:1037A000FEF775FD4FF07F4200994846C4F8282285
:1037B000A4F82C6208F0DAF904F50D73DFF8D0A054
:1037C00099E8070083E807000EA90098CDF838A013
:1037D000ADF83C8008F072FC0099284684F82E72FF
:1037E00006F0F0FE0198CA228A21FEF750FD4FF044
:1037F0007F4201994846C4F87022A4F8746208F028
:10380000B5F904F51F7399E8070083E807004FF046
:1038100001030EA90198ADF83C30CDF838A008F0AE
:103820004DFC0199284684F8767206F0CBFE792289
:1038300002985E21FEF72BFD4FF07F430299484628
:10384000C4F8B832A4F8BC6208F090F904F53173FA
:1038500099E8070083E807000EA90298CDF838A080
:10386000ADF83C6008F02AFC2846029984F8BE7244
:1038700006F0A8FE204611B0BDE8F08F900D0208BA
:1038800068140208D0140208780D020859340008A0
:103890007403020830B585B00368044601816D46A3
:1038A0000146D3F884303C342846984795E8070011
:1038B00084E8070005B030BD30B585B00368044624
:1038C00041816D460146D3F884303C342846984700
:1038D00095E8070084E8070005B030BD00220280AB
:1038E00042808280C280704780F83610704703683B
:1038F00070B504461B6B1546984723682046294639
:103900005B6EBDE870401847806C7047C06C7047B4
:103910007047704730B444680346C2689B685510CE
:1039200004EB6200D20748BF625930BC48BFD3588D
:1039300018470346406830B19A681AB9D86800F051
:10394000010070470120704710B5044650211BF05C
:1039500040F8204610BD10B5044610211BF039F880
:10396000204610BD10B50446983000F077FC04F5F1
:103970008E7000F073FC04F5D07000F06FFC04F55D
:10398000097000F06BFC04F52A70BDE8104000F0EF
:1039900065BC08B5FEF76CFC08BD0000036870B597
:1039A0005E6B0446114B8DB21B682BB9104B6C211A
:1039B000104A11481BF03CF81049828D0988914249
:1039C00003D80F4B6D210B4AF3E713F812200D4B70
:1039D0001B6853F8220003681B6B9847291A33466B
:1039E000204609B2BDE87040184700BFFC500120D6
:1039F000CC0902080E0A0208490A020800510120F7
:103A0000C40D02080451012000F22460884208B568
:103A100005D10AF01DFBBDE80840FEF769BD08BDF1
:103A200000224FF0FF318260C0E90021704770B57D
:103A300004461D46BDF91060FEF729FC236829469F
:103A400020469B6B9847236831462046DB6BBDE8D8
:103A500070401847034B10B504460360FEF7FFFBA8
:103A6000204610BD340F02080C4B10B5044603600D
:103A700000F52A70FFF7EEFF04F50970FFF7EAFF83
:103A800004F5D070FFF7E6FF04F58E70FFF7E2FF54
:103A900004F19800FFF7DEFF204610BD000F02087A
:103AA00010B50446FFF7E0FF40F2A46120461AF08B
:103AB00090FF204610BD10B50446FFF7CBFF8421D0
:103AC00020461AF086FF204610BD000010B50446BF
:103AD000FFF7F6FC034B204623600023C4E91233B2
:103AE00010BD00BF580E02082DE9F04F044699B0F2
:103AF00000260BF0CDFD2746DD4B26223146E6633E
:103B000004F16C0547F8403B38461BF02DFA384667
:103B1000FFF774F84FF0FF08D64B4FF6FF7A2622D6
:103B200031462364284684F8668004F58E79A666BB
:103B300004F54B7BADF858A01BF016FA2846FFF7AA
:103B40005DF8CD4A16A92846E266BDF8582084F8EB
:103B5000948004F5D078A4F8922008F028FC04F1B1
:103B6000980318460D9300F06FFB484600F06CFB7D
:103B7000404600F069FB04F5097318460E9300F007
:103B800063FB04F52A7318460F9300F05DFB58465B
:103B9000FFF796FC04F55D7318460393FFF790FC5E
:103BA00004F56F7318460493FFF78AFC04F204438C
:103BB00018460593FFF784FC04F24C43184606931D
:103BC000FFF77EFC04F2944318460793FFF77EFF4D
:103BD00004F2E44318460893FFF778FF04F23453E5
:103BE00018460A93FFF772FF04F2845318460B93AA
:103BF000FFF76CFF04F2D45318460C93FFF766FFEF
:103C000004F2246326223146184609931BF0ACF9CE
:103C10000998FEF7F3FF994B01223846C4F8943611
:103C20003146974B84F84826C4F89C364FF4887385
:103C3000944AA4F852A6C4F824263246A4F854A6FE
:103C400084F856A604F1040AC4F84C6684F8506659
:103C5000C4F89846C4F8A06600934FF4F073FFF7D9
:103C6000E6FE4FF07F4339465046A366962706F09E
:103C7000A9FC324628463146FEF709FB284616A91C
:103C8000ADF8586008F093FB2946504610AD06F099
:103C900099FC0F2264210D98FEF7F9FA0D99504610
:103CA00006F090FC0F224846FA21FEF7F0FA49464A
:103CB00050464FF0FF3906F085FC9122404619210D
:103CC000FEF7E5FA414650464FF0280806F07AFC28
:103CD0009122AF210E98FEF7DAFA0E99504606F0BF
:103CE00071FC912240F245110F98FEF7D0FA0F991E
:103CF000504606F067FC782313226A215846CDF817
:103D00000080FFF794FE59462846C4F85C93A4F857
:103D1000606307F02BFF04F55A7395E8070083E80A
:103D20000700594B16A9584616931723ADF85C3077
:103D300008F0C4F95946504684F8627306F042FC14
:103D4000782313224FF480710398CDF80080FFF799
:103D50006EFE03992846C4F8A493A4F8A86307F05C
:103D600005FF04F56C7395E8070083E80700464BF0
:103D700016A9039816931623ADF85C3008F09EF947
:103D80000399504684F8AA7306F01CFC7823952208
:103D90001D210498CDF80080FFF749FE04992846BC
:103DA000C4F8EC93A4F8F06307F0E0FE04F57E732A
:103DB00095E8070083E80700334B16A9049816938B
:103DC0001523ADF85C3008F079F90499504684F871
:103DD000F27306F0F7FB78239522B5210598CDF80C
:103DE0000080FFF724FE05992846C4F83494A4F80F
:103DF000386407F0BBFE04F5886395E8070083E8A4
:103E00000700214B16A9059816931423ADF85C30D2
:103E100008F054F90599504684F83A7406F0D2FB3C
:103E20007823952240F24B110698CDF80080FFF7D9
:103E3000FEFD06992846C4F87C94A4F8806407F037
:103E400095FE04F59163DFF8448095E8070083E868
:103E500007000D4B16A9069816931323ADF85C3096
:103E600008F02CF90699504684F8827410E000BFDF
:103E7000000F02086814020844150208E80E020840
:103E8000093A0008D014020874030208FC5001200B
:103E900006F098FB192355228C21079800933223B2
:103EA000FFF7C5FDD4F8943407992846D3F8843039
:103EB000C4F8C494A4F8C864984704F59A6395E8D4
:103EC000070083E8070004F5CB630393D8F80030BC
:103ED0002BB9074B6021074A07481AF0A9FD074F85
:103EE0003B88092B0ED8064B6121024AF4E700BF3C
:103EF000CC090208020E0208490A020800510120FA
:103F0000C40D0208DFF83CB30921DBF80000FFF71D
:103F100073F9C84A0346032103980DF04FF8039B39
:103F2000C4F8DC3404F25E630393D8F80030002B4D
:103F3000CFD03B880A2BD6D90A21DBF80000FFF747
:103F40005BF9BC4A0346032103980DF037F8039B45
:103F50004FF0190216A9C4F8E034B74B079816932E
:103F6000ADF85C2008F0AAF80799504606F02AFB45
:103F7000192232234FF49171089800925522FFF7CD
:103F800056FDD4F8E43428460899D3F88430C4F8B0
:103F90001495A4F81865984704F5A46395E80700FC
:103FA00083E80700D8F8003004F26465002B90D055
:103FB0003B88082B97D90821DBF80000FFF71CF994
:103FC0009C4A0346032128460CF0F8FFD8F800303D
:103FD000C4F82C5504F26A65002B3FF47AAF3B8895
:103FE000112B80D91121DBF80000FFF705F9914A68
:103FF0000346032128460CF0E1FF8F4B16A90898D1
:1040000016931223C4F8305504F5CE65ADF85C3034
:1040100008F054F80899504606F0D4FA19223223D1
:1040200041210092D7220A98FFF701FDD8F800300D
:10403000C4F86495A4F86865C4F87065C4F874950C
:10404000C4F87865002B3FF444AF3B88072B7FF61C
:104050004AAF0721DBF80000784FFFF7CDF8754A2B
:104060000346032128460CF0A9FF3B68C4F87C55A1
:10407000D84604F27665002B3FF42BAF704E3388A0
:104080000F2B7FF630AF0F21DBF80000FFF7B4F8FD
:10409000684A0346032128464FF0FF390CF08EFF93
:1040A000654B16A90A9816931023C4F8805500256D
:1040B000ADF85C3008F002F80A99504606F082FA32
:1040C000192232230B980092D72204F27C6B1146FE
:1040D000FFF7ADFC3B68C4F8B495A4F8B855C4F834
:1040E000C055C4F8C495C4F8C855002B3FF4F1AED0
:1040F0003388062B7FF6F7AE0621D8F80000FFF7CD
:104100007BF84C4A0346032158460CF057FF3B68A6
:10411000C4F8CCB504F2826B002B3FF4DAAE3388DE
:104120000D2B7FF6E0AE0D21D8F80000FFF764F804
:10413000404A0346032158460CF040FF3E4B16A967
:104140000B9816930E23C4F8D0B5ADF85C3007F089
:10415000B5FF0B99504606F035FA1923D7224FF4D4
:10416000B771009332230C98FFF761FC3B68A4F809
:104170000856C4F81056C4F8185604F5D165C4F8AA
:104180000496C4F81496002B3FF4A3AE3388052B95
:104190007FF6A9AE0521D8F80000FFF72DF8254AD3
:1041A0000346032128460CF009FF3B68C4F81C565F
:1041B00004F28E65002B3FF48CAE33880B2B7FF618
:1041C00092AE0B21D8F80000FFF716F8194A034603
:1041D000032128460CF0F2FE174B16A90C981693F3
:1041E0000C23C4F82056ADF85C3007F067FF0C993B
:1041F000504606F0E7F90998052240F2A911FEF7AA
:1042000046F8042316AA15A90998ADF85430ADF85C
:10421000583007F0AEFF96235046099984F8563679
:1042200004F29463C4F84C3606F0CCF9204619B079
:10423000BDE8F08F4D0E020874030208FC50012007
:10424000005101200851012010B50446FEF748F83E
:10425000014B2046236010BD340F0208FEF700B862
:10426000704710B504464FF4AE711AF0B2FB204609
:1042700010BD10B50446D0F8580100F064F820468F
:10428000BDE8104009F066BF10B50446FEF700F91E
:10429000014B2046236010BDC80F02087047043848
:1042A0007047704710B5044610211AF092FB204663
:1042B00010BDA0F10400F5E7806800F045B80000EB
:1042C0000022C1608260024A026020324260704770
:1042D0001C1002087047D0F8B4310133C0F8B43173
:1042E000C06B03681B6918477047C06B03685B6944
:1042F00018470000034B10B504460360FEF733FC7B
:10430000204610BD4C10020810B50446FFF7F2FF1E
:104310004FF4DC7120461AF05CFB204610BD000013
:1043200010B50446FEF7BEFC034B20462360002375
:10433000C4F8B43110BD00BF4C100208FEF714BC25
:104340000022026070477047704708B5FCF75EFCBA
:10435000FCF772FCFCF786FCFCF79AFCFCF7AEFC61
:10436000BDE80840FCF7C0BC704704387047704790
:1043700010B5044610211AF02CFB204610BDA0F108
:104380000400F5E70022C1608260024A0260183230
:10439000426070478810020870470000034B10B558
:1043A00004460360FEF74AFF204610BDB010020825
:1043B00010B50446FFF7F2FFDC2120461AF009FB96
:1043C000204610BD10B50446FEF76EFF014B204697
:1043D000236010BDB0100208FEF731BF70470438EB
:1043E0007047704710B5044610211AF0F2FA2046C3
:1043F00010BDA0F10400F5E78068FFF7A6BF00003C
:104400000022C1608260024A02601C324260704732
:10441000E41002087047704730B444680346C2682D
:104420009B68551004EB6200D20748BF625930BC4C
:1044300048BFD35818470346406830B19A681AB944
:10444000D86800F0010070470120704710B504469D
:1044500010211AF0BEFA204610BD0000034B10B523
:1044600004460360FEF7CCFF204610BD2811020869
:1044700010B50446FFF7F2FF4FF4447120461AF0DE
:10448000A8FA204610BD000010B50446FFF74CF80E
:10449000094B0A4A204623600023C4F8E022C4F8EE
:1044A0000C33C4E9B933C4E9BB32C4E9BD33C4E950
:1044B000BF32C4E9C13310BD28110208101102082F
:1044C00010B50446FEF79DFF04F53873C4F8F430C8
:1044D00004F53C73C4F82C3104F54073C4F864311E
:1044E00010BD704704387047704710B5044610215E
:1044F0001AF06FFA204610BDA0F10400F5E70000A5
:1045000037B5404C054602223F4920461AF034FD9B
:1045100098B9A3780422E8688DF804300DEB020105
:10452000E3788DF8053023798DF8063063798DF8BE
:10453000073000F0ADF803B030BD02223349204609
:104540001AF01AFD90B9A3780422E8688DF80430B7
:104550000DEB0201E3788DF8053023798DF80630F4
:1045600063798DF8073000F0B8F8E4E702222849B3
:1045700020461AF001FD90B9A3780422E8688DF86E
:1045800004300DEB0201E3788DF8053023798DF8C6
:10459000063063798DF8073000F0C4F8CBE70222CB
:1045A0001C4920461AF0E8FC90B9A3780422E86878
:1045B0008DF804300DEB0201E3788DF80530237996
:1045C0008DF8063063798DF8073000F0D0F8B2E747
:1045D0000222114920461AF0CFFC0028ABD1A37863
:1045E0000422E8688DF804300DEB0201E3788DF8C1
:1045F000053023798DF8063063798DF8073000F0A7
:10460000DBF898E7400100205C1102085F11020806
:104610006211020865110208681102080022C160D7
:104620008260024A02601C324260704774110208C4
:10463000D0F8A4360133C0F8A436C06B03681B69F8
:1046400018477047034B10B504460360FFF70CFA98
:10465000204610BDA011020810B50446FFF7F2FF76
:104660004FF4D56120461AF0B4F9204610BD000081
:1046700010B50446FFF738FA034B204623600023A9
:10468000C4F8A43610BD00BFA0110208FFF76AB934
:1046900013B50B780446032200F5CB60ADF800306B
:1046A0004B78ADF802308B78ADF80430CB786946A2
:1046B000ADF806300CF011F9032201A904F25E6096
:1046C0000CF00BF9002304F29440A4F85C36A4F833
:1046D00062360AF036FD02B010BD13B50B78044601
:1046E000032200F26460ADF800304B78ADF8023080
:1046F0008B78ADF80430CB786946ADF806300CF015
:10470000ECF8032201A904F26A600CF0E6F8002339
:1047100004F2E440A4F86836A4F86E360AF011FDFD
:1047200002B010BD13B50B780446032200F5CE602D
:10473000ADF800304B78ADF802308B78ADF804302E
:10474000CB786946ADF806300CF0C7F8032201A912
:1047500004F276600CF0C1F8002304F23450A4F89F
:104760007436A4F87A360AF0ECFC02B010BD13B52A
:104770000B780446032200F27C60ADF800304B78E1
:10478000ADF802308B78ADF80430CB786946ADF8DF
:1047900006300CF0A2F8032201A904F282600CF0AA
:1047A0009CF8002304F28450A4F88036A4F88636DE
:1047B0000AF0C7FC02B010BD13B50B780446032203
:1047C00000F5D160ADF800304B78ADF802308B7851
:1047D000ADF80430CB786946ADF806300CF07DF8C2
:1047E000032201A904F28E600CF077F8002304F292
:1047F000D450A4F88C36A4F892360AF0A2FC02B089
:1048000010BD000070B50546002401260846296049
:10481000A5F8044185F80661C5E942230B4A4FF427
:1048200016530C61CC61C1E900230C23C1E9024499
:10483000C1E9053403F018FB32462146522000F04E
:1048400023FB5220BDE8704000F050BB00780040D0
:1048500008B5002380F806314FF0FF33006803F0FD
:1048600090FA00B1FEE708BDB0F804310122FF2B39
:1048700088BF002310B588BFA0F804310446B0F803
:104880000411013189B2A0F8041104310144006817
:1048900003F072FBB4F804116318DA780A2A0AD11B
:1048A0009B780D2B07D1D4F808310BB1201D984708
:1048B0000023A4F8043110BD014B186802F0AABE11
:1048C000F41C002000B54FF4807295B04FF0807159
:1048D00003460C9205220F910121069200220191BC
:1048E0000B92139200920B48CDE90312CDE90D22F1
:1048F000CDE91122102206A902924FF480020592FE
:104900006A4601F083FD003818BF012015B05DF83C
:1049100004FB00BF041E002000B54FF4807395B067
:1049200041F2883217480C93062306A90693002308
:10493000CDE90D330F930B931393CDE9113301F0B0
:1049400020FDE0B9022301224FF4800104900D48BC
:10495000CDE900331023CDE9023205236A46CDE9C3
:1049600005134FF0807306A90F9341F2883301F0CD
:104970004DFD003818BF012015B05DF804FB012083
:10498000FAE700BF041E002000B54FF4807391B019
:104990004FF040720E480893EB2302A902934FF4A4
:1049A000406309934FF4005305930023CDE90A3285
:1049B0000A220F9307926A46CDE90D33CDE9003301
:1049C00001F075FD003818BF012011B05DF804FB3F
:1049D000041E0020454B01219A6B42F00202F0B503
:1049E0009A638DB09A6B0924414D042702F00202AC
:1049F000002628460092009A9A6942F002029A61C3
:104A00009A6922F002029A611A6B42F002021A635A
:104A10001A6B02F002020192019A1A6B42F0020232
:104A20001A631A6B02F002020292029A1A6B42F0A7
:104A300008021A631A6B02F008020392039A1A6BB7
:104A400042F008021A631A6B02F008020492049AF8
:104A50001A6B42F010021A631A6B02F010020592F0
:104A6000059A1A6B42F008021A6340221B6B03F08E
:104A700008030693069B0223CDE907230323CDE910
:104A800009130A2307A90B9300F048FC07A928463D
:104A9000079709960B9400F041FC4FF4006307A9B7
:104AA0000B941D440793284600F038FC4FF48053C4
:104AB00007A9284607930B9400F030FC07A90D487E
:104AC00007970B9400F02AFC4FF4005307A92846DF
:104AD0000B94079300F022FC32460F215C2000F07B
:104AE000D3F95C2000F002FA0DB0F0BD00380240AE
:104AF0000004024000100240F0B5494C91B0494B0F
:104B00002046236001F02AFC054610B1012011B0B7
:104B1000F0BD01462046FFF75DFF012604234FF05C
:104B20008077C4E901631023E36097FAA7F3B3FA2F
:104B300083F32046013B23614FF4A063C4E907558A
:104B4000C4E9053501F0B8FB0028DFD14FF48075CA
:104B500066230B9041F28832079002A90F900895C6
:104B60000293CDE90900CDE90D00204601F009FCD2
:104B700008B10420CBE7992341F2883202A92046EC
:104B8000029301F0FEFB0028F3D141F28830FFF7D9
:104B900099FE0028EDD18523079041F2883202A9C1
:104BA000089502930B97CDE90900CDE90C60CDE99A
:104BB0000E00204601F0E5FB0028DAD141F28832F0
:104BC0000DF10701204601F05CFD0028D1D1FFF76F
:104BD000A3FE0028CDD18123F022029392FAA2F203
:104BE0000A219DF80730B2FA82F2204603F00F0343
:104BF00001FA02F202A9134341F288328DF807301C
:104C000001F0BFFB0028B4D141F288320DF1070159
:104C1000204601F0D7FC00283FF479AFA9E700BF98
:104C2000041E0020001000A00F490020D1F8883099
:104C300043F47003C1F888300C4B1A6842F001024B
:104C40001A6098601A6822F0847222F480321A6026
:104C5000074A5A601A6822F480221A60D8604FF01E
:104C600000638B60704700BF00ED00E00038024039
:104C7000103000247047002070470000002337B533
:104C80008DF807300C4B1A780AB901221A700324E8
:104C9000C5B2013CA8212846FCF768FC14F0FF04CB
:104CA0008DF807009DF80730DBB201D0512BF0D111
:104CB0009DF8070003B030BD521E002013B500243C
:104CC0000221C0B28DF80740FCF750FC8DF80700B8
:104CD0009DF8073003F00F038DF807309DF807307B
:104CE000052B01D98DF807409DF80720034B9DF84F
:104CF00007005A7000229A7002B010BD521E0020A8
:104D00002DE9F74F2F4C15464FF000080F46A378BA
:104D100062788DF807809A424DD9092B4ED803EB63
:104D200043035B00DBB2191D03F1030B03F1060A19
:104D30000533C9B25FFA8BFB5FFA8AFA5FFA83F830
:104D4000C6B2DFF884903046FCF710FC8DF80700FF
:104D50009DF8073059463046A9F80030FCF706FCAC
:104D60008DF8070051469DF807303046B9F800200D
:104D70001B0203F4706313433B80A9F80030FCF777
:104D8000F5FB8DF8070041469DF807303046A9F83D
:104D90000030FCF7EBFB8DF807009DF80730B9F801
:104DA00000201B0203F470631343A9F800302B802A
:104DB000A3780133A37003B0BDE8F08FC246C346A9
:104DC0004146BDE7521E0020501E00200122A421B2
:104DD000C0B2FCF7B1BB0022A421C0B2FCF7ACBB4F
:104DE000FFF7F9BF70470000024B1A780AB9012299
:104DF0001A707047521E0020074A032008B5136836
:104E000043F48073136000F02DF80020FCF72EFAB5
:104E1000FBF78CFF002008BD003C0240034A044B16
:104E200011681B780B441360704700BF581E0020A8
:104E300038000020014B1868704700BF581E002042
:104E400038B50446FFF7F6FF0546631C1EBF044B4A
:104E50001B78E418FFF7EEFF431BA342FAD338BDDB
:104E60003800002007490302CA6803F4E06322F413
:104E7000E0621204120C134343F0BF6343F40033A7
:104E8000CB60704700ED00E0164B30B5DC68C4F332
:104E90000224C4F10703251D042B28BF0423062D7B
:104EA0004FF0FF358CBF033C002405FA03F30028C4
:104EB00005FA04F521EA030322EA050203FA04F3E2
:104EC00043EA02034FEA0313DBB206DB00F1604062
:104ED00000F5614080F8003330BD00F00F00024A59
:104EE0001354F9E700ED00E014ED00E0002807DBC3
:104EF0004109012300F01F00024A834042F821309B
:104F0000704700BF00E100E000280CDB43090122EC
:104F100000F01F0004492033824041F82320BFF3F2
:104F20004F8FBFF36F8F704700E100E0BFF35F8FDB
:104F3000044B5A6A22F480325A620022C3F8942049
:104F4000704700BF00ED00E0064B40F00100C3F8E1
:104F500094005A6A42F480325A62BFF34F8FBFF313
:104F60006F8F704700ED00E04378144A10B5C2F827
:104F700098300178E9B14368C2F89C30C37A047B69
:104F80001B0643EA04730B43817A43EAC143417B26
:104F900043EA8143817B43EA4143C17B43EA0143C6
:104FA000417A43EA0123017A43EA4103C2F8A0307F
:104FB00010BDC2F89C10C2F8A010F9E700ED00E0A7
:104FC00010B5044608B9012010BD437F03F0FF026D
:104FD00013B90277FBF7C8FE022363772379E3B99D
:104FE0002368134A5A619A6822F018029A6062791B
:104FF0002368D2B94FF0FF321A6100209A686169C4
:1050000022F060020A43A1699A609A6822F0800245
:105010000A439A6001236377D6E7D4E90212204657
:1050200000F008F80028E2D0CDE72269E4E700BFED
:10503000B71DC1041F2310B5013B1DD321FA03F492
:10504000E407F9D5102A13D0102A04D83AB1082A57
:1050500010D001200BE0182AFBD1062BF9D80068EC
:105060004161836823F0180313438360002010BD5F
:10507000072BF3E70F2BF1E7102AE5D1E9E770B52D
:105080000446866DFFF7D6FE054694F83530022BB0
:1050900006D0802301206365002384F8343070BD7E
:1050A00023681A6822F016021A605A6922F08002F8
:1050B0005A61226C0AB9A26C1AB11A6822F008026D
:1050C0001A601A6822F001021A602368186810F04A
:1050D000010007D1E26D3F239340B360012384F8C0
:1050E0003530D9E7FFF7A6FE401B0528EDD9202370
:1050F0000320636584F83500CEE790F83530022B45
:1051000003D080234365012070470268052380F89F
:1051100035300020136823F001031360704710B589
:10512000044630B390F8393003F0FF021BB980F821
:105130003820FBF72FFE226802236168002084F8E4
:105140003930136823F440330B43A1681360536B69
:1051500023F007030B43E1685363136C23F47F537D
:1051600023F03F030B4313640123E06384F83930D9
:1051700010BD0120FCE770477047036870B55E689A
:1051800004461D68F20714D5E90512D51A6822F401
:1051900080721A60C26B42F00102C26301229A60FF
:1051A000042380F83930002380F83830436903B194
:1051B0009847B20616D5AB0414D523681A6822F4B2
:1051C00000521A6020229A60E36B43F00203E3630B
:1051D000042384F83930002384F8383063690BB134
:1051E00020469847300716D5290514D523681A6834
:1051F00022F400621A6008229A60E36B43F0040311
:10520000E363042384F83930002384F83830636979
:105210000BB12046984772070BD56B0509D523685B
:1052200020461A6822F480621A6004229A60FFF70E
:10523000A2FFB00714D5A90512D523681A6822F475
:1052400000721A6002229A60E36BE363012384F820
:105250003930002384F8383023690BB12046984751
:10526000F20613D5EB0411D5236820461A6822F400
:1052700080521A6010229A60E36BE363012384F882
:105280003930002384F83830FFF776FF70BD000016
:10529000F0B590F8382003460220012A2BD00122D5
:1052A00083F839000E011C4F83F8382003EB0112FC
:1052B000D2E90740556A44EA0040093C012C96BFF8
:1052C00005F07F4240EA056010431A68A1B9516AAF
:1052D000012C01EA070141EA0001516299699161DB
:1052E00003D8596A21F07F4191620122002083F89E
:1052F000392083F83800F0BDD169012C01EA07019B
:1053000041EA0001D16103EB060189691161ECD822
:1053100025F07F451562E8E7F0FFFC002DE9F74F27
:105320000023DFF8BC916C4A01240D689C4004EA1C
:105330000506AC4340F0B7804D6803274FEA430EA3
:1053400005F0030407FA0EFC671E6FEA0C0C012F30
:1053500034D8876807EA0C08CF6807FA0EF747EADF
:1053600008078760476827EA0608C5F300179F40CB
:1053700047EA08074760C768022C07EA0C088F68ED
:1053800007FA0EF747EA0807C76019D14FEAD308B2
:1053900003F0070A4FF00F0B00EB88084FEA8A0A68
:1053A000D8F820700BFA0AFB27EA0B0B0F6907FAF3
:1053B0000AF747EA0B07C8F8207001E0032CDAD19E
:1053C000076804FA0EF415F4403F07EA0C0744EAB4
:1053D0000704046067D0D9F8444023F0030703F0C2
:1053E000030C4FF00F0E44F4804407F180474FEA5E
:1053F0008C0CC9F8444007F59C37D9F844400EFAA4
:105400000CFE04F480440194019CBC6824EA0E0E56
:10541000324CA0424ED004F58064A0424CD004F53A
:105420008064A0424AD004F58064A04248D004F5CC
:105430008064A04246D004F58064A04244D004F5C4
:105440008064A04242D004F58064A04240D004F5BC
:105450008064A0423ED004F58064A04214BF0A24B8
:10546000092404FA0CF415F4801F44EA0E04BC600D
:105470006FEA060794680CBF3C40344315F4001FE4
:105480009460D4680CBF3C40344315F4003FD460B2
:1054900054680CBF3C403443ED035460146854BF5F
:1054A0003C40344314600133102B7FF43DAF03B014
:1054B000BDE8F08F0024D4E70124D2E70224D0E72E
:1054C0000324CEE70424CCE70524CAE70624C8E772
:1054D0000724C6E70824C4E7003C0140000002405E
:1054E000003802402DE9F04F00224FF0010A4FF042
:1054F0000F084FF0030B464C0AFA02FC3CEA01038A
:105500000CEA01066CD122F0030502F0030705F155
:105510008045BF0005F59C3508FA07F9AB6809EA34
:10552000030E3C4B984260D003F5806398425ED0F6
:1055300003F5806398425CD003F5806398425AD0AB
:1055400003F58063984258D003F58063984256D0A3
:1055500003F58063984254D003F58063984252D09B
:1055600003F58063984250D003F5806398420CBFE6
:1055700009230A23BB40734513D1236823EA06039A
:105580002360636823EA06036360E36823EA060393
:10559000E360A36823EA0603A360AB6823EA090378
:1055A000AB6053000568D6080BFA03F300EB8606E0
:1055B00025EA0305056002F00705376AAD0008FA21
:1055C00005F527EA05073762C56825EA0305C560C2
:1055D000456825EA0C054560856825EA0303836074
:1055E0000132102A88D1BDE8F08F0023C2E70123E1
:1055F000C0E70223BEE70323BCE70423BAE7052381
:10560000B8E70623B6E70723B4E70823B2E700BFED
:10561000003C0140000002400369194214BF012010
:10562000002070470AB1816170470904FBE74369B4
:1056300001EA030221EA030141EA02418161704764
:1056400003689A69910701D500229A629A69D20784
:1056500003D49A6942F001029A61704730B5039D04
:10566000C1F3090104682B43606843EA0243054A19
:105670000B4342EA555223F0004320EA0200034361
:10568000636030BDFF63FF0303682DE9F0419C694F
:1056900005460F46164614F010046FD00024102261
:1056A000A046DA612B689A69900661D4B8F1000FC0
:1056B00035D044F0040401202E68B369D90505D51E
:1056C0004FF4807244F001040120F2615A0505D5BF
:1056D0004FF4806244F008040120F2619B054FD52D
:1056E0004FF4007344F00204F3612846FFF7A8FF6B
:1056F0007368012023F0FF7323F48B3323F4FF73CB
:1057000023F0010373606B6C23436B64202385F8E3
:105710004130002385F8423085F8403032E07A1C71
:10572000C1D0FFF787FB801BB84201D8002FB9D149
:105730002B68596895F842209869D2B200040AD5BE
:10574000490408D4202A06D05A6842F480425A609C
:10575000FFF770FB06462B689B699B06A2D4FFF7F8
:1057600069FB801B1928F6D920244FF0010899E71E
:10577000B8F1000F9DD12022DA619AE720469BE71D
:105780000028B2D1BDE8F08170B504460D4616463A
:1057900023689B699B0701D500201BE03246294600
:1057A0002046FFF771FFA0B96A1CF1D0FFF742FB5A
:1057B000801BA84201D8002DEAD1636C43F020037E
:1057C0006364202384F84130002384F8423084F855
:1057D0004030012070BD70B504460D461646236862
:1057E0009B699B0601D5002019E0324629462046D8
:1057F000FFF74AFF90B9FFF71DFB801BA84201D8B5
:10580000002DECD1636C43F020036364202384F803
:105810004130002384F8423084F84030012070BDCC
:105820002DE9F041069F0446884616461D4622682B
:10583000936938EA03030CBF01230023B34201D06C
:10584000002015E06B1CF3D0FFF7F4FAC01BA84250
:1058500001D8002DEBD1636C012043F02003636479
:10586000202384F84130002384F8423084F840300B
:10587000BDE8F08110B5044600284AD090F84130C8
:1058800003F0FF021BB980F84020FBF7A3FA2423A2
:1058900084F8413023681A6822F001021A606268B5
:1058A00022F070621A619A6822F400429A60D4E988
:1058B0000221012924D142F400429A605A68002052
:1058C00042F0007242F400425A60DA6822F4004268
:1058D000DA60D4E904210A43A16942EA0122DA60CC
:1058E000D4E907210A431A601A6842F001021A60DB
:1058F0002023606484F84130206384F8420010BDA6
:1059000042F4044202299A60D8D14FF400625A60EE
:10591000D4E70120F3E710B5044698B102682423C8
:1059200080F84130136823F001031360FBF796FA07
:105930000020606484F8400084F84100206384F80B
:10594000420010BD0120FCE72DE9F74F994690F881
:10595000413004460F46202B1646BDF834A0DDF832
:10596000388040F0C6800C9B13B1BAF1000F06D10D
:105970004FF400736364012003B0BDE8F08F90F82A
:105980004030012B00F0B5804FF0010B80F840B0A3
:10599000FFF750FA1923054600905A464FF400418C
:1059A0002046FFF73DFF0028E5D1212360635FFA21
:1059B00089F2394684F84130402384F842300C9B08
:1059C0006064204663624C4BA4F82AA000934FF019
:1059D0008073FFF743FE2A4641462046FFF7D4FE78
:1059E00018BBB9F1010F236815D1F6B2002280214E
:1059F00020469E6243460095FFF712FFA8B9638DCB
:105A00009BB2FF2B15D8628D4FF0007392B22285A6
:105A1000D2B2009012E0320A414620469A622A46EB
:105A2000FFF7B2FE08B92368DFE7002384F84030AF
:105A3000A1E7FF224FF0807322850090394620466F
:105A4000FFF70CFE2A4641462046FFF79DFE002840
:105A500091D1636A226813F8011B91626362638DBE
:105A6000228D013B013A9BB292B26385638D228500
:105A70009BB2B3B1AAB94346802120460095FFF7F7
:105A8000CFFE00287FF477AF638D9BB2FF2B28D920
:105A9000FF224FF080732285009039462046FFF7A1
:105AA000DDFD638D9BB2002BCCD12A4641462046BA
:105AB000FFF791FE00287FF45EAF23682021D961B3
:105AC0005A6822F0FF7222F48B3222F4FF7222F025
:105AD00001025A6084F8411084F8400084F84200C2
