:020000040800F2
:1000000000000520251300084112000843120008D3
:1000100045120008471200084912000800000000BD
:10002000000000000000000000000000E181000866
:100030004B1200080000000081820008E5820008E1
:100040007513000875130008751300087513000870
:100050007513000875130008751300087513000860
:100060007513000875130008751300087513000850
:100070007513000875130008751300087513000840
:100080007513000875130008751300087513000830
:100090007513000875130008751300087513000820
:1000A0007513000875130008751300087513000810
:1000B0007513000875130008751300087513000800
:1000C00075130008751300087513000875130008F0
:1000D00075130008751300087513000875130008E0
:1000E00075130008751300087513000875130008D0
:1000F00075130008751300087513000875130008C0
:1001000075130008751300087513000875130008AF
:1001100075130008751300084D12000875130008C8
:10012000751300087513000875130008751300088F
:10013000751300087513000875130008751300087F
:10014000751300087513000875130008751300086F
:10015000751300087513000875130008751300085F
:10016000751300087513000875130008751300084F
:1001700075130008751300087513000800000000CF
:100180007513000875130008DD400008751300089A
:10019000751300087513000875130008751300081F
:1001A000591200087513000865120008751300083D
:1001B00075130008751300087513000875130008FF
:0801C000751300087513000817
:1001D00010B5054C237833B9044B13B10448AFF381
:1001E00000800123237010BD2401002000000000C6
:1001F0006C34020808B5034B1BB103490348AFF345
:10020000008008BD00000000280100206C340208B6
:1002100001F0FF01102A2BDB10F0070F08D010F8B7
:10022000013B013A8B422DD010F0070F42B3F6D1BB
:10023000F0B441EA012141EA014122F007047FF0D4
:1002400000070023F0E80256083C85EA010586EA2B
:10025000010685FA47F5A3FA87F586FA47F6A5FA67
:1002600087F68EB9EED1F0BC01F0FF0102F0070273
:1002700032B110F8013B013A83EA010313B1F8D11E
:100280000020704701387047002D06BF35460338FF
:10029000073815F0010F07D1013015F4807F02BF38
:1002A000013015F4C03F0130F0BC0138704700BF89
:1002B00053B94AB9002908BF00281CBF4FF0FF31CD
:1002C0004FF0FF3000F06AB9ADF1080C6DE904CED3
:1002D00000F006F8DDF804E0DDE9022304B0704721
:1002E0002DE9F047089D0C46002B4ED194468C45D5
:1002F0008646B2FA82F262D94AB1C2F12003914035
:1003000020FA03F30CFA02FC194300FA02FE4FEA4A
:100310001C471FFA8CF6B1FBF7F44FEA1E4307FBAC
:10032000141143EA014304FB06F199420AD91CEB7C
:10033000030304F1FF3080F01281994240F20F81F3
:10034000023C6344591A1FFA8EF3B1FBF7F007FB26
:10035000101143EA014300FB06F69E420AD91CEB4A
:10036000030300F1FF3180F0FC809E4240F2F980EF
:10037000634402389B1B40EA044000211DB1D34076
:100380000022C5E90032BDE8F0878B4205D90DB1E6
:10039000C5E9000100210846F5E7B3FA83F1002919
:1003A00046D1A34202D39042C0F0F080861A64EB9B
:1003B00003030120002DE6D0C5E90063E3E7002A2E
:1003C00040F09080A1EB0C044FEA1C481FFA8CF718
:1003D0000121B4FBF8F64FEA1E4308FB164443EA3A
:1003E000044307FB06F0984208D91CEB030306F10F
:1003F000FF3402D2984200F2CD8026461C1A1FFA22
:100400008EF3B4FBF8F008FB104443EA044300FB0E
:1004100007F79F4208D91CEB030300F1FF3402D217
:100420009F4200F2B0802046DB1B40EA0640A5E771
:10043000C1F120068B4022FA06F71F4320FA06FC82
:1004400004FA01F343EA0C03F44000FA01F8380C13
:100450004FEA1349B4FBF0FE1FFA87FC00FB1E4471
:1004600049EA04440EFB0CF9A14502FA01F20AD94B
:100470003C190EF1FF3A80F08480A14540F2818062
:10048000AEF1020E3C44A4EB09041FFA83F9B4FB5D
:10049000F0F300FB134449EA044403FB0CFCA445BD
:1004A00007D93C1903F1FF3067D2A44565D9023B57
:1004B0003C4443EA0E40A0FB0293A4EB0C049C4294
:1004C000CE469C4651D34ED055B1B8EB0E0364EBEB
:1004D0000C0404FA06F6CB401E43CC40C5E9006488
:1004E000002150E7C2F1200320FA03F10CFA02FCCC
:1004F00024FA03F394400C434FEA1C4800FA02FE2E
:100500001FFA8CF7B3FBF8F008FB1031230C43EA19
:10051000014300FB07F1994208D91CEB030300F1EA
:10052000FF362CD299422AD9023863445B1AA4B20E
:10053000B3FBF8F108FB113344EA034401FB07F372
:10054000A34208D91CEB040401F1FF3613D2A342E5
:1005500011D902396444E41A41EA004139E70446FA
:10056000F0E6084606E7C845AED2B9EB020E63EBEB
:10057000070C0138A8E73146EDE7034699E7304616
:10058000D4E7D6467FE7634402384DE70646234664
:1005900008460FE7023E634430E700BF704700BFE4
:1005A0000149002009F01AB82118000808B5094BC4
:1005B0001A790AB91A7B1A7108220749074822F0EA
:1005C000C5F94FF4807200210348BDE8084022F0CD
:1005D000A3B900BFD0380020D4380020400100204B
:1005E00008B5642007F010FAFBE700000A4C0B4D39
:1005F0000B4A0A49084808B50A4B03F015FDB4F840
:100600000411012228460431214407F0C7F81920BB
:1006100007F0FAF9F3E700BFD03800209402002079
:10062000AD050008290600087047000010B594B019
:100630001022002102240AA822F06EF914220021BF
:1006400003A822F069F91D4B192108A81A6C42F081
:1006500080521A641B6C03F080530193019B184B6A
:100660001A6842F440421A6001221B6803F44043B6
:100670000293029B4FF48033CDE908234FF48003AB
:10068000CDE90E434FF4D873CDE91244CDE91013F0
:1006900005F06CFC05F008F90F2300200721CDE9D7
:1006A00003344FF4A053CDE905034FF4805303A85E
:1006B000079305F043FE14B010BD00BF00380240A0
:1006C000007000402DE980489BB0102200210125D8
:1006D0000DA84FF0104A22F01FF9002404F038F85A
:1006E000C74B0DA8ADF834501094CDE90EA304F01B
:1006F0004DF817230DA88DF835508DF83C308DF846
:10070000425004F043F8042004F030F8BFF34F8F58
:10071000BFF36F8FBB4AC2F85042BFF34F8FBFF396
:100720006F8F536943F400335361BFF34F8FBFF3AF
:100730006F8FC2F88440BFF34F8FD2F8803043F6FA
:10074000E074C3F3C900C3F34E335B0103EA04064C
:10075000014646EA81750139C2F86052F9D2203B60
:1007600013F1200FF2D1BFF34F8F536943F480335D
:100770005361BFF34F8FBFF36F8F03F04FFF002420
:10078000FFF754FF142200210DA822F0C5F89E4B5C
:1007900010219E481A6B01274FF010084FF0030BF1
:1007A00042F010024FF4805A994D4FF004091A6339
:1007B0001A6B984E02F010020292029A1A6B42F0E3
:1007C00002021A631A6B02F002020392039A1A6B76
:1007D00042F001021A631A6B02F001020492049AB9
:1007E0001A6B42F040021A631A6B02F04002059243
:1007F000059A1A6B42F400721A631A6B02F40072C3
:100800000692069A1A6B42F008021A631A6B02F0FB
:1008100008020792079A1A6B42F480621A631A6BF5
:1008200002F480620892089A1A6B42F020021A635E
:100830001A6B02F020020992099A1A6B42F4807234
:100840001A631A6B02F480720A920A9A1A6B42F0C7
:1008500080021A631A6B02F080020B920B9A1A6BD9
:1008600042F004021A6300221B6B03F004030C9392
:100870000C9B04F0E9FA01220821674804F0E4FA2D
:1008800001224FF48051654804F0DEFA0022C021B5
:10089000634804F0D9FA00224021624804F0D4FAF7
:1008A0000DA95A48CDE90D87CDE90F4B04F048F961
:1008B00008230DA95848CDE90D37CDE90F4404F0C0
:1008C0003FF90DA95548CDE90DA7CDE90F4404F036
:1008D00037F9C0220DA95248CDE90D27CDE90F4BBC
:1008E00004F02EF940220DA94E48CDE90D27CDE99F
:1008F0000F4B04F025F94C484C4984800160076295
:10090000C0E9054403F06EFF49492846C5E90014D3
:10091000C5E90244C5E90A44C5E90C4404F011F8EC
:1009200039462846434D04F0C5F840234FF4C072C1
:1009300041493046B460F461B462C6E905324FF40F
:100940000062C6E9082A4FF0020A0722C6E900142D
:100950000DA9CDF84CA0C6E90398CDE90F92CDE9D9
:100960000DA2CDE911BA06F04FF829464FF6FF72F5
:1009700030460194C5E90078C5E9027406F064F8D0
:10098000384603F06FFE29464FF6FF723046C5E940
:1009900000A8C5E9027406F057F8082329464FF667
:1009A000FF723046C5E900B8C5E9023406F04CF8DC
:1009B0004FF40C734FF6FF72294601933046019BAA
:1009C000AF60EB60C5E9009806F03EF840F22B718D
:1009D00030461A4D06F057F84FF0204343F2D2024A
:1009E000642040F215261A6003F03CFE144B154AB1
:1009F00028462C62C5E90023C5E9024724E000BF70
:100A00001B00000300ED00E000380240000402403B
:100A10006404002060020020002802400020024000
:100A20000008024000180240A404002000300240E8
:100A300000B0024040020020400100A0100400204D
:100A400068474020005C0040C5E90444C5E906440D
:100A500004F022FB2146284604F040FD21462846AA
:100A60004A4D04F061FD342221460DEB020021F0D5
:100A700053FF474B2821352040F2352C2C61AC86A2
:100A800085F83640C5E900340923C5E905130B2371
:100A9000C5E9070340F21B132846C5E9096340F284
:100AA0001D13C5E90244C5E90BC304F0E9FDFF21AC
:100AB0004FF4806E4FF4F0724FF4887328460D9413
:100AC0001893ADF864408DF86640CDE91214052105
:100AD000CDE914E14FF04041CDE90E24CDE91612E5
:100AE00022460DA9CDE9103A04F095FE29482A4B7B
:100AF0000462C0E90298C0E900374FF018084FF4CB
:100B0000A063DFF8C890C0E90483C0E9064404F09C
:100B1000E5FF03F003FC03F049FB5C2003F006FE55
:100B200000F0FEFB1D484FF4E13304614462C0E96C
:100B300000930C23C0E90244C0E90534C0E907442E
:100B400006F0A4FD00F018FC00F015FC06F0CEFE47
:100B5000134806F071FF134B134A214618601348DF
:100B600006F0FEFE124B134A21461860124806F0AA
:100B7000F7FE124B124A21461860124806F0F0FEAA
:100B8000114B186006F0CCFEFEE700BF68030020A2
:100B9000006801401C030020001000A09402002007
:100BA000FC3402085002002054350208E105000818
:100BB0005C0200203035020887130008580200202C
:100BC0000C350208ED0500085402002000780040B2
:100BD0000268064B9A4207D1054B012283F8062191
:100BE000D3F80C3103B11847704700BF00780040BC
:100BF000D03800200268034B9A4202D1024803F029
:100C000045BA704700780040D038002013B50C4C2E
:100C10004FF0FF31206806F051FF50B9094B072211
:100C2000694618689B8800900748ADF8043003F0C7
:100C300021FA206802B0BDE8104006F06FBF00BF87
:100C400050020020C4340208D03800200268034B50
:100C50009A4201D103F0F4BC704700BF001000407D
:100C6000704700000D4B82B00F216FF001001A6C2D
:100C700042F080521A641A6C02F080520092009A7C
:100C80005A6C42F480425A6400225B6C03F4804345
:100C90000193019B02B003F009BD00BF0038024080
:100CA000026882B0084B9A420BD1D3F8302803F582
:100CB000006342F480521A631B6B03F48053019368
:100CC000019B02B0704700BF003002400E4B07B5D9
:100CD00002689A4215D1A3F5F04305215A201A6BF8
:100CE00042F400021A6300221B6B03F40003019319
:100CF000019B03F0DBFC5A2003B05DF804EB03F02A
:100D000007BD03B05DF804FB00B0024010B5A8B009
:100D100004461422002102A821F0FEFD84220021B5
:100D200007A821F0F9FD2268174B9A422AD14FF407
:100D3000803307A8079305F0DDFB08B1FFF790FFAC
:100D4000124C4FF4C07201211148236B43F0800311
:100D50002363236B03F080030093009B1223CDE9F0
:100D600002230323CDE90413042302A9069303F00D
:100D7000E7FE236C43F400032364236C03F40003B5
:100D80000193019B28B010BD005C00400038024078
:100D9000001C0240026808B5094B9A420FD1094A6B
:100DA00080210948136C23F40003136403F0ACFFA3
:100DB0004FF480710448BDE8084003F0A5BF08BDAA
:100DC000005C004000380240001C024070B5ACB02E
:100DD00004461422002106A821F09EFD8422002151
:100DE0000BA821F099FD2268484B9A4240F08C8074
:100DF0000823052001240B934FF4C07310930223A2
:100E0000CDE911304FF400330BA8CDE9154305F0BF
:100E100071FB08B1FFF724FF3D4B002402250E268D
:100E20005A6C06A93B4842F080625A645A6C02F040
:100E300080620092009A1A6B42F010021A631A6BD9
:100E400002F010020192019A1A6B42F400721A63C6
:100E50001A6B02F400720292029A1A6B42F48062D8
:100E60001A631A6B02F480620392039A1A6B42F0BF
:100E700040021A631A6B02F040020492049A1A6B41
:100E800042F480721A631B6B03F480730593059B15
:100E90001023CDE90635CDE908440A9603F050FE4B
:100EA0004EF6FF7306A91C480A96CDE90635CDE932
:100EB000084403F045FEF72306A918480A96CDE931
:100EC0000635CDE9084403F03BFE4FF4805306A9F4
:100ED0001348CDE906350923CDE908440A9303F008
:100EE0002FFE4FF4464306A90E480A96CDE9063573
:100EF000CDE9084403F024FE58202246052103F0E2
:100F0000D5FB582003F004FC2CB070BD00680140F4
:100F10000038024000100240002402400028024035
:100F20000018024000200240142200212DE9F04167
:100F30008AB004460DEB020021F0EEFC22682C4B37
:100F40009A4251D12B4B0225032409269A6B4FF06C
:100F5000040805A9284842F0020200279A639A6B08
:100F600002F002020192019A1A6B42F010021A6317
:100F70001A6B02F010020292029A1A6B42F00202FD
:100F80001A631A6B02F002020392039A1A6B42F080
:100F900008021A631B6B03F008030493049BCDE95A
:100FA0000585CDE9084603F0CBFD402305A913488C
:100FB000CDE905350A23CDE90774099303F0C0FD97
:100FC00005A90E480996CDE90585CDE9077403F01A
:100FD000B7FD4FF4605305A909480996CDE90535D9
:100FE000CDE9077403F0ACFD0AB0BDE8F08100BFA5
:100FF000001000A00038024000100240000402402F
:10100000000C0240026808B50B4B9A4213D10B4A00
:1010100004210B48936B23F00203936303F074FEE7
:101020004421084803F070FE4FF460510648BDE8C3
:10103000084003F069BE08BD001000A0003802405F
:101040000010024000040240000C024010B5A8B09D
:1010500004461422002102A821F05EFC8422002113
:1010600007A821F059FC2268174B9A422AD14FF465
:10107000805307A8079305F03DFA08B1FFF7F0FD8C
:10108000124B002112481A6C42F080421A641A6C0A
:1010900002F080420092009A1A6B42F020021A631A
:1010A000C0221B6B03F020030193019B0223CDE9B7
:1010B00002230323CDE9041308230DEB0301069358
:1010C00003F03EFD28B010BD00780040003802401B
:1010D00000140240F0B5002387B00393294B1E682B
:1010E000002E4DD10122022703250C241A6001A9EC
:1010F000254B26489A6B42F001029A639B6B03F0E2
:1011000001030093009B4FF68373CDE90454CDE9AE
:10111000013703F015FD48F2331301A91C4805946B
:10112000CDE90137CDE9036503F00AFD4CF2037305
:1011300001A918480594CDE90137CDE9036503F00D
:10114000FFFC4FF63F0301A913480594CDE9013791
:10115000CDE9036503F0F4FC282301A90F480594A9
:10116000CDE90137CDE9036503F0EAFC082301A9C5
:101170000B480594CDE90137CDE9036503F0E0FCA8
:1011800007B0F0BDC8040020003802400010024043
:1011900000180240000C024000140240001C0240F3
:1011A00000080240214B1A6C42F0100270B51A641C
:1011B00088B01B6C054601A903A803F01003029335
:1011C000029B05F079F9069B4BBB05F055F9184ECB
:1011D000184B336040F2E733F360174BB0FBF3F387
:1011E000013B3046736000233361B360B36105F0A7
:1011F000BBFD044680B9304605F05EFC044658B994
:10120000362003F085FA0F2D0DD8224629463620C8
:1012100003F04CFA094B1D60204608B070BD05F084
:101220002BF94000D3E70124F6E700BF0038024065
:10123000CC0400200010004040420F003C00002081
:101240007047FEE7FEE7FEE7FEE77047014805F05E
:1012500075BC00BFCC040020014804F07FBA00BF79
:1012600068030020014803F09ABB00BF640400201B
:101270000120704708B521F017FC162303604FF0DA
:10128000FF3008BD08B521F00FFC16230360FEE710
:1012900070B50D4614460E46731B9C4201DC204679
:1012A00070BDAFF3008006F8010BF5E770B50D4691
:1012B00014460E46731B9C4201DC204670BD16F896
:1012C000010BAFF30080F5E74FF0FF3070474FF4AC
:1012D000005300204B60704701207047002070478A
:1012E0000B4A0346116810B509B90A491160106824
:1012F00009490A4C0344091B8B4206D921F0D4FB4F
:101300000C2303604FF0FF3010BD1360FCE700BFFB
:1013100018050020C078012000000520000A000008
:1013200070470000DFF834D0002103E00C4B5B581D
:10133000435004310B480C4B42189A42F6D30B4AE7
:1013400002E0002342F8043B094B9A42F9D303F030
:101350007DF821F0AFFBFFF7B5F9704700000520DD
:10136000E45E020800000020240100202401002087
:10137000C0780120FEE7704708B500F097FDBDE892
:10138000084000F021BD00F093BD40687047416007
:10139000704700004FF0E022D2F8FC3D43F080732C
:1013A000C2F8FC3D054B064AD3F8B01F0A43C3F808
:1013B000B02F1A6842F001021A607047001000E076
:1013C00055CEACC5521A02EB5302B2FBF3F0704794
:1013D000014B5868704700BF001000E0704710B51F
:1013E00004460C2120F092FA204610BD036810B587
:1013F0001B69044631B19847A26863689B1A03448D
:10140000636010BD9847A060FBE70000024B7020AE
:10141000024A1360DB681847100000201C050020FA
:10142000704710B50446042120F070FA204610BD24
:1014300073B50E4E0D461446336813B9002002B042
:1014400070BD1B69702098470028F7D03368702062
:1014500001AA0DF106015B699847BDF8043001202F
:101460002B60BDF806302360E9E700BF1C050020B3
:101470007FB501238DF817204FF47A72CDE9013240
:101480000DF1170200920A460146054803F06EFE70
:1014900010B1034803F051FE07B05DF804FB00BF34
:1014A000100400207FB500230A464FF47A718DF8AE
:1014B00017300123CDE901310DF1170100910146EB
:1014C000054803F02DFF10B1034803F036FE9DF8E8
:1014D000170007B05DF804FB10040020032823D890
:1014E000DFE800F0020B131A104B102110481A68A5
:1014F000B2FA82F2520903F0A7BC0C4B40215A68A1
:10150000B2FA82F252090B48F5E7084B80219A683B
:10151000B2FA82F25209F6E7044B40210648DA6833
:10152000B2FA82F25209E6E7704700BF20050020B8
:10153000000402400008024000180240032823D89B
:10154000DFE800F0020B131A104B102110481A6844
:10155000003A18BF012203F077BC0C4B40215A68B7
:10156000003A18BF01220B48F5E7084B80219A6822
:10157000003A18BF0122F6E7044B40210648DA681A
:10158000003A18BF0122E6E7704700BF200500209F
:1015900000040240000802400018024003280FD84F
:1015A000DFE800F00206090B1021064803F051BCE9
:1015B00040210548FAE78021FBE740210348F5E791
:1015C000704700BF000402400008024000180240BB
:1015D00008B5032813D8DFE800F0020A0D0F102128
:1015E000084803F02BFC431E5842584108BD4021D7
:1015F0000548F6E78021FBE740210448F1E7002099
:10160000F1E700BF00040240000802400018024059
:1016100070B5084D00240126E0B2FFF7D9FF18B1DC
:101620002B68012B18BF2E6001340435052CF3D133
:1016300070BD00BF20050020012380F8781080F8DD
:10164000793070470020704741640039024B18BF61
:1016500001211970704700BF876C0120002070477E
:10166000836B0BB10846184770474FF6FF70704701
:10167000406803689B6918477047000038B5044606
:1016800000F0DEFC084923682046084DD3F88C3072
:1016900098470023284684F84A30FFF77BFE012351
:1016A000256184F8703038BD000000C0300500208E
:1016B00000F090BC00F094BC70B500F0DFFC104965
:1016C0000023C1F88430BFF34F8FD1F8803043F648
:1016D000E074C3F3C900C3F34E335B0103EA0406AD
:1016E000024646EA8275013AC1F87452F9D2203BAB
:1016F00013F1200FF2D1BFF34F8FBFF36F8F70BD87
:1017000000ED00E000F0BCBC00F040BC00F0BABC52
:1017100000F0C2BC00F044BC10B5044609F0F8FE6D
:1017200023682046D3F8AC30BDE81040184709F0D4
:101730004CB910B504467C2120F0E8F8204610BDD5
:1017400090F834100D4B10B590F878401A788C4210
:1017500009D03AB90A490B4A088814881080012236
:101760000C801A7010BD002AFCD0064A0449148867
:1017700008880C8010800022F3E700BF806C0120F5
:101780007E6C01207C6C012070B50D46194635B980
:10179000094B40F2D221094A094820F021FEC0E954
:1017A0000F52003A074B18BF01221A700368BDE8B8
:1017B0007040D3F88C301847B8350208F03502086D
:1017C0003E360208866C012008B5094B1B888B4207
:1017D00003D8084B1B88934205D9074B9E21074A23
:1017E000074820F0FDFD074B1980074B1A8008BD04
:1017F0007C6C01207E6C012083360208E6360208EC
:101800003E360208826C0120846C0120034690F869
:101810007A0018B1586803681B68184770470000C1
:10182000014608B5034B186801B1012109F08AFE91
:10183000012008BD886C0120034B00225A609A6089
:10184000024A1A60704700BF300500208035020848
:101850000121002208B5084606F08CF90A4B1860F1
:1018600028B90A4B28210A4A0A4820F0B9FD00226B
:101870000421012006F048FA074B186018B9074BFD
:101880002C21034AF0E708BD400500200438020877
:101890004D3802087C3802083C050020CA3802088E
:1018A000024B4FF0FF31186806F0BCB9400500202C
:1018B000014B186806F0F2B940050020024B0021E8
:1018C000186806F0AFB900BF40050020FFF7F0BF71
:1018D0000023034803491A46006806F05BBA00BFBC
:1018E0003C0500200400002013B50023074C01A98B
:1018F0001A46206806F090FA4FF0FF33002201A943
:10190000206806F089FA02B010BD00BF3C05002037
:1019100003685B6C18470120704703689B6A18478F
:101920000D4B82B01A6B42F400021A631A6B02F478
:1019300000020192019A1A6942F400021A611A69BE
:1019400022F400021A61054B054A1A614FF08062C9
:10195000044B9A6002B070470038024064040020D3
:10196000F11B000800E100E040F2EF30704700009A
:10197000054B4FF080620360044BC3F88820BFF32F
:101980004F8FBFF36F8F7047683A020800E100E0A5
:1019900010B504464FF45A61FFF7EAFF20461FF0E6
:1019A000B5FF204610BD000008B50A2809D8DFE8B9
:1019B00000F006100E080808081010101000022091
:1019C00008BD054B8621054A054820F009FD002089
:1019D000F6E70120F4E700BF0C39020827390208B6
:1019E0007239020838B50C46887FFFF7DDFF174BC8
:1019F000A58AE28A586342EA054221695A64628BE9
:101A0000D963521B1A642568082D0ED19A611A6198
:101A100058620F4A207F42EA0062DA61E2681A6285
:101A20000C4A5961D9601A6038BD0022D8611A6128
:101A3000E1680A0A4809C1F3C40102F4784200F4DB
:101A4000FC6002430A439A63034AECE700B0024099
:101A500009000100010202000102030008B50B2881
:101A60000BD8DFE800F00612100A0A0A0A08080874
:101A70000808022008BD0520FCE7054B6521054A42
:101A8000054820F0ADFC0020F4E70120F2E700BF9C
:101A90000C390208BE390208723902082DE9F041FA
:101AA00091F81D800C464046FFF7D8FFA77F0546FA
:101AB0003846FFF7D3FF06463846FFF775FFA18A81
:101AC000628B434B521A1A649A61228B521A1A6122
:101AD000E28A586342EA014221695A646268D96322
:101AE000DA602068802828D0227F0FD8202866D08E
:101AF000402864D004281AD045EA0265344BB84522
:101B000045F40035DD6160D0324A44E0B0F5807FB5
:101B100004D0B0F5007FEFD12F4800E02F4840EA15
:101B20000262DA61E2681A625E62596132E045EA95
:101B3000026242F40032DA61F6E7A068021DDA625E
:101B4000227F45EA026545F40035DD615E62596138
:101B5000017841B1012921D0214B4FF48871214AEC
:101B6000214820F03DFCDA69418822F47F420139A6
:101B700022F0100242EA01220121DA61144BDA69F3
:101B800042F02002DA61DA699206FCD410229A60EF
:101B90000029B9D0154A1A60BDE8F081B2F1FF0101
:101BA000DA69408822F47F4218BF0121013822F00F
:101BB000100242EA002242F01002DA61DEE745EA52
:101BC0000262034B42F40032B5E740F20122E2E741
:101BD00000B0024001020100090002000A000200F8
:101BE000083A0208223A0208723902080102020089
:101BF000024B1B68586803685B691847886C0120B2
:101C000070B504460A4B0C30002625466022606001
:101C10002672667245F8203B294609F0E9FD04F575
:101C20005A63EE6024359D42FBD1204670BD00BF53
:101C3000683A0208034B1A68D207FCD423229A6040
:101C4000704700BF00B0024030B5104C2568ED076A
:101C5000FCD423250904FF2BA56041F001014FF0BE
:101C6000020565636164E0630AD00949656241EA7F
:101C70000363E361074B22626061E060236030BD73
:101C8000E561039BA363044BF8E700BF00B002408B
:101C9000090001000100020001000300012070475B
:101CA0000C2070470C2303FB0100083070470C2305
:101CB00003FB0100083070470120704742F2B42056
:101CC000704742F2B42303FB01000830704742F230
:101CD000B42303FB01000830704701207047102037
:101CE000704700EB01100830704700EB011008301E
:101CF0007047084600F058BC034B10B5044603601B
:101D000008F0FFF8204610BD203B020810B504463D
:101D1000FFF7F2FF142120461FF0F8FD204610BD0A
:101D2000034B10B50446036008F0EBF8204610BDE5
:101D3000EC3A020810B50446FFF7F2FF42F2BC216C
:101D400020461FF0E3FD204610BD0000034B10B5F8
:101D50000446036008F0D5F8204610BDB83A0208E2
:101D600010B50446FFF7F2FF182120461FF0CEFD04
:101D7000204610BD094B10B50446036000F50B501A
:101D80002830FFF7B9FF04F12C00FFF7C9FF04F179
:101D90001400FFF7DBFF204610BD00BF543B0208D4
:101DA00008B50248FFF7E6FF08BD00BFF4130020A6
:101DB00010B50446FFF7DEFF42F25C4120461FF0FB
:101DC000A5FD204610BD00002DE9F34100F0C0F94B
:101DD0000024054600F0C0F9234601462246284665
:101DE000009411F01BFE254B254A2046254D1A6014
:101DF00001F0A8FD244811F079FD2B68BFF35B8F3B
:101E0000DB0735D428461FF083FD88B31F4C204BD9
:101E100004F50C5604F1140004F12C081D4F236046
:101E20006060C4F80880E760266108F06BF81A4B20
:101E30004046636108F066F8184B3846E36208F0E4
:101E400061F804F50053164A03F53F70C3F8E82221
:101E500002F054F82246311F304601F05BFF304655
:101E600000F0A2FB0F4820F0D9FA28461FF05CFDD5
:101E70000D4802B0BDE8F041FFF700BCEC6C01205A
:101E8000C0050020F013002008000020F4130020FB
:101E9000543B0208DC360020B83A0208EC3A02084B
:101EA000203B0208A11D00084405002070470000E7
:101EB000014808F0F4BD00BF4405002070B5224E73
:101EC000224B234C3046234D2360FFF799FE2846D2
:101ED00016F07EF8204B00224FF480711F481A86BE
:101EE00083F858205A6683F870205A67DC60C3E98B
:101EF00012121B49C3E91A121A4999671A490B6051
:101F00004FF4F0710180194801804FF4887118482E
:101F1000C3E90422C3E90622C3E90822C3E90A226D
:101F2000C3E90E22C3E91022C3E91422C3E9172230
:101F3000C3E9016501800F4883F8342001800E4910
:101F40000A700E4A1A6070BD4C060020A8350208BF
:101F5000EC130020C4050020440500207C6C012007
:101F60000100000100000101886C0120826C012049
:101F70007E6C0120846C0120806C012034370208C3
:101F80000148FFF7F5BC00BF4C060020034B902230
:101F900083F85A2383F85823704700BF00E100E01C
:101FA000094A0A49D3680A48C3F30A03013B9BB2B2
:101FB0000B801169C1F30A01013901801364536B6D
:101FC00043F001035363704700680140523800201A
:101FD00050380020014BD3F8AC0070470068014036
:101FE000024B0122C3F8AC105A62704700680140EE
:101FF000124A5369DB0370B51ED50023C2F8843042
:10200000BFF34F8FD2F8803043F6E074C3F3C900BA
:10201000C3F34E335B0103EA0406014646EA8175C9
:102020000139C2F87452F9D2203B13F1200FF2D1DA
:10203000BFF34F8FBFF36F8F70BD00BF00ED00E0A7
:1020400070B5044608F017FD23685D6E0EF0BCFB0A
:1020500001462046A8472368054A2046D3F8885001
:102060000023A2F57F31AC46BDE87040604700BF59
:1020700000F807C008F0E6BC08F0F0BC08F0ABBC04
:1020800008F01BBE034B4FF080629A604FF08072E5
:102090009A60704700E100E0084B4FF08062C3F89F
:1020A0008820BFF34F8FBFF36F8F4FF08072C3F85C
:1020B0008820BFF34F8FBFF36F8F704700E100E0C0
:1020C00010B5144C236823B3134B144A1B6C1188AE
:1020D0008B4213D1124B198803F0CAFB226892F885
:1020E0006A30013382F86A30FFF7F2FB206809F0AA
:1020F0000FFA0020BDE81040FFF7F0B903F0B8FB7D
:10210000206803681B6A98470020BDE81040FFF76D
:1021100015BA10BD886C01200068014052380020BB
:1021200050380020704710B5044604211FF0EEFB24
:10213000204610BD08B519B1012905D0002008BD01
:1021400001F04CFC0068FAE701F048FC4068F6E753
:1021500000487047743B02080920704713B50024FB
:1021600051B1036801AA01948DF803409C680DF1F8
:102170000303A04702B010BD0846FBE7C0897047C3
:10218000008A7047C088704780887047807A00F066
:102190007F007047807AC0097047002070470000B8
:1021A0009FED010A704700BF00000000704710B5A6
:1021B000044608211FF0AAFB204610BD7047704757
:1021C00000F598730868496803C370477047704703
:1021D0004160704770470000064BC0F84801C0F8E6
:1021E0004C310023C0F8503100F5A273C0F84031E3
:1021F000704700BFE5230008012303727047704752
:10220000704710B441680346C2689B68541001EBE4
:102210006200D20748BF0A595DF8044B48BFD35843
:1022200018470346406830B19A681AB9D86800F078
:10223000010070470120704710B504460C211FF0C3
:1022400065FB204610BD10B5044610211FF05EFB53
:10225000204610BD10B504464FF4AE711FF056FB7A
:10226000204610BD10B50EF0AFFA0368BDE810406F
:10227000DB6B184710B50446D0F8400158B103682D
:10228000DB68984738B1D4F8400103689B689847E9
:102290000023C4F8403110BD2DE9F14FD0E9556A53
:1022A0000746B06803681B6A9847B0F5CC7F05D233
:1022B000444BA321444A454820F092F870680368D3
:1022C0001B6A98470F2803D8414BA4213E4AF2E7E6
:1022D000F06803681B6A98470B2803D83D4BA5217B
:1022E000394AE8E7DFF8F4900EF06EFA04300EF0A9
:1022F00090FAD9F8000010B10368DB689847D9F864
:10230000000010B103681B689847DFF8D480D8F844
:10231000000010B103685B699847D7F83C0110B121
:1023200003685B689847D8F8000010B103681B6821
:102330009847D7F83C0110B103689B689847F0684C
:1023400000214FF0000B03685B6A9847224B04465C
:10235000C0F804B080F808B059460360B06803685C
:102360005B6A9847054601F029FE70685946036884
:102370005B6A98470646294601F0F6FD331DC7F80B
:102380003C612846C9F80040C8F80050CAF800303F
:102390002B68C6F808A0DB68EE63984733683046C0
:1023A0001B689847214628460FF0A8FF236820465F
:1023B0001B699847236820465B6901B0BDE8F04F70
:1023C000184700BF383C0208C63C0208963D020888
:1023D000DD3D0208803E020864400208D06C012006
:1023E000CC6C01202DE9F14FD0E9556A0746B06861
:1023F00003681B6A984742F2B323984205D8444BBE
:10240000A321444A44481FF0EBFF706803681B6A2D
:1024100098470F2803D8414BA4213E4AF2E7F068C1
:1024200003681B6A98470B2803D83D4BA521394AFE
:10243000E8E7DFF8F4900EF0C7F904300EF0E9F9A0
:10244000D9F8000010B10368DB689847D9F800009C
:1024500010B103681B689847DFF8D080D8F80000F7
:1024600010B103685B699847D7F83C0110B1036865
:102470005B689847D8F8000010B103681B6898475C
:10248000D7F83C0110B103689B689847F0680021B9
:102490004FF0000B03685B6A9847224B0446C0F874
:1024A00004B080F808B059460360B06803685B6AFE
:1024B0009847054601F0D4FC7068594603685B6A8A
:1024C00098470646294601F041FC331DC7F83C6198
:1024D0002846C9F80040C8F80050CAF800302B68F8
:1024E000C6F808A0DB68EE639847336830461B687F
:1024F0009847214628460FF001FF236820461B69B4
:102500009847236820465B6901B0BDE8F04F184743
:10251000383C0208233F0208963D0208DD3D0208D0
:10252000803E020864400208D06C0120CC6C01207F
:10253000044B1B6893F858200AB1D86C00B998680E
:10254000704700BF886C0120F8B5044617460E4658
:102550000EF000FA104B00251C6029460F4B23603B
:102560000F4BC4E951350F4B1868C4E95355036844
:10257000C4E94F559B68C4E955769847284601F051
:10258000E1F9FFF7D5FF17F054FBFFF7D1FF17F084
:10259000CBFB2046F8BD00BFDC6C012010400208D8
:1025A000F83F0208886C0120064BC0F84801C0F8CB
:1025B0004C310023C0F8503100F5A273C0F840310F
:1025C000704700BFE5230008064BC0F84801C0F87B
:1025D0004C310023C0F8503100F5A273C0F84031EF
:1025E000704700BF99220008406A7047806A7047B0
:1025F00070478B88C069DB0A0A6850F823001044D2
:10260000704710B50446BAB1107B68B1537BD27ADB
:102610001B0203F4E0631A43236A03EB82031A8864
:102620008A4202D193F9020010BD05D80138043363
:1026300080B20028F3D1F7E70020F5E710B5044693
:102640002C211FF063F9204610BD000030B58BB07F
:102650000446BDF860500895BDF85C5007959DF89C
:10266000505006959DF84C5005959DF8485004959E
:102670009DF8445003959DF8405002959DF83C50BC
:102680000195BDF8385000950FF0C4F9064B20466F
:102690002360159BE361169B2362199B63621A9B5F
:1026A000A3620BB030BD00BF884002080020704715
:1026B00081807047C18070470181704741817047B8
:1026C0007047704770477047704710B4C4880368FC
:1026D000121B84885B6D091B12B25DF8044B09B2B2
:1026E00018474FF6FF7383814FF0FF33036213687F
:1026F000C36110607047806A7047704770477047C9
:1027000070477047002070478B8883800120704796
:10271000704780F82C10704710B40368046BD3F82E
:10272000A430624361435DF8044B1847D0ED0C7A46
:102730000368F8EEE77A10B420EE270AD3F8A44035
:10274000B5EEC00AF1EE10FA1ADBB6EE007A30EE02
:10275000070ABDEEC07A17EE101A60EEA70AF5EE72
:10276000C00AF1EE10FA1EDBF6EE007A70EEA70A50
:10277000FDEEE07A17EE902A23465DF8044B1847E9
:10278000BDEEC07AF8EEC76A17EE103A013B30EEA4
:10279000660AF7EE086A30EE260ABDEEC00A10EEB1
:1027A000101A1944D9E7FDEEE07AB8EEE77A17EE91
:1027B000903A013B70EEC70AB7EE087A70EE870ACE
:1027C000FDEEE00A10EE902A1A44D5E710B4036833
:1027D000046BD3F8B03062435DF8044B1847D0ED7A
:1027E0000C7A0368F8EEE77A10B427EE800AD3F883
:1027F000B040B5EEC00AF1EE10FA0BDBF6EE007A4F
:1028000030EE270AFDEEC07A17EE902A23465DF8D7
:10281000044B1847FDEEC07AB8EEE77A17EE903A0F
:10282000013B30EE470AB7EE087A30EE070ABDEEFC
:10283000C00A10EE102A1A44E8E710B40368446B8B
:10284000D3F8BC30624361435DF8044B1847D0EDC8
:102850000D7A0368F8EEE77A10B420EE270AD3F871
:10286000BC40B5EEC00AF1EE10FA1ADBB6EE007A03
:1028700030EE070ABDEEC07A17EE101A60EEA70A16
:10288000F5EEC00AF1EE10FA1EDBF6EE007A70EEFD
:10289000A70AFDEEE07A17EE902A23465DF8044B76
:1028A0001847BDEEC07AF8EEC76A17EE103A013B42
:1028B00030EE660AF7EE086A30EE260ABDEEC00A70
:1028C00010EE101A1944D9E7FDEEE07AB8EEE77A77
:1028D00017EE903A013B70EEC70AB7EE087A70EE39
:1028E000870AFDEEE00A10EE902A1A44D5E710B4EC
:1028F0000368446BD3F8C03062435DF8044B18475B
:10290000D0ED0D7A0368F8EEE77A10B427EE800A6E
:10291000D3F8C040B5EEC00AF1EE10FA0BDBF6EECC
:10292000007A30EE270AFDEEC07A17EE902A234691
:102930005DF8044B1847FDEEC07AB8EEE77A17EE63
:10294000903A013B30EE470AB7EE087A30EE070ABC
:10295000BDEEC00A10EE102A1A44E8E7D0F82C3178
:10296000026B002B07DB02EB430090FBF2F000EB65
:10297000D070401070476FF0010101FB0320013857
:1029800090FBF2F000EBD070401040427047D0ED69
:102990004B7A90ED0C0AF8EEE77AB8EEC00A87EEB3
:1029A000800A7047D0F82C017047D0F83031026BA4
:1029B000002B07DB02EB430090FBF2F000EBD07042
:1029C000401070476FF0010101FB0320013890FBBC
:1029D000F2F000EBD070401040427047D0ED4C7ADE
:1029E00090ED0C0AF8EEE77AB8EEC00A87EE800A9E
:1029F0007047D0F830017047D0F83431426B002B6B
:102A000007DB02EB430090FBF2F000EBD0704010CC
:102A100070476FF0010101FB0320013890FBF2F0D9
:102A200000EBD070401040427047D0ED4D7A90EDF1
:102A30000D0AF8EEE77AB8EEC00A87EE800A704712
:102A4000D0F834017047D0F83831426B002B07DBE7
:102A500002EB430090FBF2F000EBD07040107047A7
:102A60006FF0010101FB0320013890FBF2F000EB55
:102A7000D070401040427047D0ED4E7A90ED0D0A74
:102A8000F8EEE77AB8EEC00A87EE800A7047D0F811
:102A900038017047036870B50446D3F888300D4696
:102AA000164698472368324629462046D3F8903088
:102AB000BDE8704018470368D3F89430184703689E
:102AC000D3F8D43018470368D3F8E03018470368C8
:102AD000002A10B4D3F8A430046B0EDB04EB4202DE
:102AE00092FBF4F101EBD1714910B0F91E215DF8B0
:102AF000044B013A0A44494218476FF0010101FBB7
:102B00000241013991FBF4F101EBD17149104942C5
:102B1000EBE70368D3F83C311847026B0368514375
:102B2000D3F8483118470368D3F844311847D0ED3B
:102B30000C7A0368F8EEE77AD3F8482127EE800A8A
:102B4000B5EEC00AF1EE10FA08DBF6EE007A30EED0
:102B5000270AFDEEC07A17EE901A1047FDEEC07AF4
:102B6000B8EEE77A17EE903A013B30EE470AB7EE3F
:102B7000087A30EE070ABDEEC00A10EE101A1944AA
:102B8000EBE7C0F83C1170470368D3F850311847A1
:102B9000036810B5D3F85C31044698470028236BCE
:102BA00007DB03EB400090FBF3F000EBD07040102C
:102BB00010BD6FF0010202FB0030013890FBF3F012
:102BC00000EBD07040104042F2E70368D3F8583170
:102BD0001847036810B50446D3F85C31984707EEF0
:102BE000900A94ED0C0AF8EEE77AB8EEC00A87EE88
:102BF000800A10BDD0F83C017047026B0368514356
:102C0000D3F868311847D0ED0C7A0368F8EEE77A0C
:102C1000D3F8682127EE800AB5EEC00AF1EE10FA6B
:102C200008DBF6EE007A30EE270AFDEEC07A17EEEA
:102C3000901A1047FDEEC07AB8EEE77A17EE903A98
:102C4000013B30EE470AB7EE087A30EE070ABDEED8
:102C5000C00A10EE101A1944EBE7C0F84011704793
:102C6000036810B5D3F87431044698470028236BE5
:102C700007DB03EB400090FBF3F000EBD07040105B
:102C800010BD6FF0010202FB0030013890FBF3F041
:102C900000EBD07040104042F2E7036810B50446E4
:102CA000D3F87431984707EE900A94ED0C0AF8EEC9
:102CB000E77AB8EEC00A87EE800A10BDD0F840016E
:102CC00070470846704703680029026BD3F88431C7
:102CD00010B504460EDB02EB410191FBF2F101EB72
:102CE000D171491009B220469847D4E94F2302FB1D
:102CF000003010BD6FF0010000FB0121013991FB94
:102D0000F2F101EBD17149104942EBE7006B7047DA
:102D1000406B70470368D3F8483118470368D3F80D
:102D20005C311847026B03685143D3F814311847DC
:102D3000036870B5D3F818510446D0F84461D3F84D
:102D4000803198472B4656F820102046BDE8704049
:102D50001847D0F84831B0F91E011944081A7047D5
:102D600080F82610704790F826007047002210B5B2
:102D7000B1F90840B1F90A10028042808480C18014
:102D800010BD0022028042808280C2807047C162F2
:102D90007047C06A70470120704770477047C06B2A
:102DA00018B10368D3F880301847704730B5B2F9CE
:102DB0001651B2F81841B2F840102C44B2F9422032
:102DC0000580091B0024C2804480818030BD0280C0
:102DD0008380BDF90020BDF904304280C380704774
:102DE0000B680846D3F8EC3018470B680846D3F850
:102DF000F8301847B1F916017047B1F81631B1F83B
:102E00001821B1F840001344C01A00B27047B1F95C
:102E100014017047B1F81431B1F81A21B1F8420029
:102E20001344C01A00B270470B6808461146D3F825
:102E30001831184730B585B00368044601816D46E6
:102E40000146D3F884303C342846984795E807007B
:102E500084E8070005B030BD30B585B0036804468E
:102E600041816D460146D3F884303C34284698476A
:102E700095E8070084E8070005B030BD0022028015
:102E800042808280C280704780F8361070470368A5
:102E900070B504461B6B15469847236820462946A3
:102EA0005B6EBDE87040184700207047806C70472B
:102EB00070477047704770477047704730B4446838
:102EC0000346C2689B68551004EB6200D20748BFF6
:102ED000625930BC48BFD35818470346406830B1E8
:102EE0009A681AB9D86800F001007047012070474D
:102EF00010B504464C211EF009FD204610BD10B54A
:102F0000044640211EF002FD204610BD10B50446C7
:102F10004FF437711EF0FAFC204610BD10B5044680
:102F200010211EF0F3FC204610BD38B503460846BC
:102F3000D3E90C540B68D3F89430984729460246DD
:102F40002046BDE8384009F05FB90000034B10B5DA
:102F5000044603600BF086FF204610BD8C47020834
:102F6000064B10B5044603600BF07CFF42F2B02123
:102F700020461EF0CBFC204610BD00BF8C47020847
:102F800090F8252012B103685B691847704708B5AF
:102F900090F82C300BB1FFF7F3FF08BD08B5FFF731
:102FA000EFFF08BD0A1E10B503DBB0F91E419442C5
:102FB00006DC084B40F23961074A08481FF010FA56
:102FC0000368D0F84441D3F88031984754F8200082
:102FD00010BD00BFE84002080B4102085A41020838
:102FE0000B1E10B5044603DBB0F91E219A4206DC25
:102FF000074B40F23361074A07481FF0F1F90368B5
:10300000D3F884319847D4E94F2302FB003010BD38
:10301000E8400208B74102085A41020890F825200A
:103020001AB190F8242002B118607047036870B597
:103030005E6B0446114B8DB21B682BB9104B6C2193
:10304000104A11481FF0CCF91049828D098891422D
:1030500003D80F4B6D210B4AF3E713F812200D4BE9
:103060001B6853F8220003681B6B9847291A3346E4
:10307000204609B2BDE87040184700BFE06C01204F
:10308000064202084842020883420208E46C01201A
:10309000CA420208E86C012038B500F5B76304465F
:1030A0000D46994202D10368DB6A984704F5C7646C
:1030B000A54205D10DF088FBBDE83840FFF784BA82
:1030C00038BD00224FF0FF318260C0E90021704717
:1030D000036870B504461B6B154698472368204665
:1030E00029465B6BBDE87040184770B504461D4625
:1030F000BDF91060FFF7ECFF2368294620469B6B63
:103100009847236831462046DB6BBDE8704018477E
:103110000022C0E90122C0E90322C0E90522C0E97A
:1031200007224FF480728284014A0260704700BF18
:103130000C44020810B50446262200211FF0ECFBC7
:103140002046FFF7E5FF044B20462360FF2384F869
:1031500026300023A36210BD2C54020837B501AB02
:1031600015460EF055FD00282A4601994FEA4014F5
:103170004FF0200004DB0EF06AFD204403B030BDA8
:103180000EF065FD201AF9E770B5B0F81A310E4659
:10319000B0F91441B0F842502344ED1A2DB22C443A
:1031A000691ED0E94D32013CD21AF01AFFF7D6FF62
:1031B000C0EB441070BD38B504460D46B4F8163166
:1031C000B4F818110B44B4F84010C91AD0E94B02F6
:1031D00009B2121A281A0139FFF7C0FFB4F91631E3
:1031E00000EB431038BD000010B5044608F0E4FBC6
:1031F0000A4A0023204622600122E36284F840301C
:10320000A4F84230A364C4E90C23054AA2634FF634
:10321000FF72A2872E22A4F8442010BDFC5202089F
:10322000303C0208002370B5124E05468380124BD5
:103230000360336893F858200AB1D86C00B99868D5
:103240000368DB6A98473368B0FA80F4D86C640985
:1032500030B10368DB6A9847002808BF44F00104D6
:103260002CB9064B2C21064A06481FF0B9F828460F
:1032700070BD00BF886C01202C450208084302087D
:10328000664302089F43020810B504462622002127
:103290001FF042FB2046FFF73BFF00232046A362BE
:1032A00084F82C30012384F82430044B23604FF63B
:1032B000FF73E385238684F8323010BD94540208EE
:1032C0002DE9F04F044695B000250EF06BFEA246A6
:1032D000E64BE56304F16C094AF8403B5046FFF7C2
:1032E00029FF26234FF6FF7829461A464846ADF8AF
:1032F00048801FF011FB484604F1CC07FFF708FF98
:10330000DB4A12A94846E2660126BDF8482004F2CD
:10331000C44B84F89480A4F892200AF09DFE04F136
:10332000980318460693FFF705FFD24A64213846F2
:10333000C4F89820C4F8C450A4F8C85008F000FF9E
:10334000CD4A29463846C4F8CC2004F50672C4E9B3
:103350008265C4E984256322FFF7DEF904F56A7308
:10336000C64A18460793C4F8CC2008F025FB0A2368
:10337000C34AC4F8DC3304F57A73C4F8A8231846AA
:1033800084F8E063C4F8E4530893C4E9F556FFF702
:103390002BFF04F23443BB4A18460993C4F8E823D0
:1033A000FFF722FF04F59063B74A18460A93C4F862
:1033B000342408F001FB4FF00203B44A84F8AC3423
:1033C00004F59663C4F8802418460B93FFF72AFF90
:1033D000AF4A5846C4F8BC54C4F8B0242432C4F8E8
:1033E000B82407F059FA04F5B76318460493FFF7B9
:1033F0004BFF04F2EC5329460393262303981A4605
:103400001FF08AFA0398FFF783FEA24B4FF0FF32BA
:10341000A4F81886C4F814364FF47F03C4F82C2699
:1034200004F5C762C4F8203604F104089A4B10462C
:10343000C4F81C56C4F8EC35A4F82456C4F8285631
:10344000C4F83056C4F834560592FFF71DFF04F552
:103450000053924A04F5D0604FF4E151C3E9A82427
:103460008F4AC3E9AA250BF0F3FC4FF488732A4670
:103470002946504600934FF4F073FFF736FE4FF0A5
:103480007F4251464046A2664FF0060A06F04CFDC8
:103490002A4629464846FFF71BFE4FF003014846DF
:1034A000ADF8481012A90AF0D7FD49464FF0E009DF
:1034B000404606F039FD0698CDF8009040F285139D
:1034C00018220F21FFF711FE4FF0FF334FF07F421C
:1034D00006994046A4F8C860C4E9303206F024FDDD
:1034E00040F285133846CDF8009018220F21FFF7DF
:1034F000FCFD2A4631463846FFF7CCFA29463846C5
:103500006422FFF709F9162338461C2200930A218A
:1035100013234FF0140908F0C4FD2B4652463846D9
:103520000221CDF800A008F0BFFC29463846B4229D
:10353000FFF783F9D4F8D8135A4B324609FB01F050
:10354000C4F8D433002884F8E063B8BF4042C4F81C
:10355000DC0308F059FE0799C4E9F660384608F024
:10356000AEFCD4F818144FF0050C4FF07F4209FB65
:1035700001F0A4F824C40028C4F814243246B8BFCB
:103580004042C4F81C0408F03FFE0899C4F81C042B
:103590003846C4F8186408F0B6FCD4F864144FF048
:1035A000040E4FF07F4209FB01F0A4F870E40028FC
:1035B000C4F860243246B8BF4042C4F8680408F03A
:1035C00023FE0999C4F868043846C4F8646408F016
:1035D00088FC0B9A334B3846C4F8A8244FF00202FB
:1035E000C4F8BC3441F2B84384F8AC24A4F8C03425
:1035F0000A9908F064FC394640467D2706F094FCA1
:1036000058462F224FF4D371FFF762FD12AA4FF0F4
:10361000050C4FF0040E134610A911AA5846ADF838
:1036200040C0ADF848E0ADF844A007F08FF92B4654
:10363000584603220721CDE9005707F0F0F8FA2297
:103640004946584606F03DFF04F50A595846B4214C
:1036500006F0FFFE594640464FF0020B06F064FCB0
:1036600009F120090498C9221EE000BF8C47020816
:103670007055020808550208744E0208DC4502081D
:1036800074440208BC5102085C5202083C51020812
:10369000C44D0208303C02084C4502087447020839
:1036A00099300008C59714FFC721FFF711FD12AA32
:1036B00011A90498ADF84460ADF848B00AF0FEFADC
:1036C00004994046C4F8E09506F02EFC1E233946C6
:1036D00003980093092297230CAFFFF706FD4FF0E4
:1036E0007F42D4F8EC3538460399C4F81C26D3F849
:1036F0008430A4F82056984704F5C56397E807007E
:1037000083E8070004F26C6312A90398C4F8343606
:10371000124BA4F86C561293ADF84CA00AF070FA54
:103720000399404606F000FC294605984FF0FF3209
:10373000FFF7CEFC12AA11A90598ADF84460ADF8C8
:1037400048B00AF0BBFA40460599C4F8609606F006
:10375000EBFB204615B0BDE8F08F00BF303C0208FF
:103760007047000030B5174D8FB02C68BFF35B8FEA
:1037700014F0010422D128461EF0CAF8F0B13F230C
:10378000012211490993114B11480893114B0A94D6
:103790000594CDE906430423CDE903320C230F221F
:1037A00000930E23CDE90B44CDE90144FEF74EFF13
:1037B00009481EF033FE28461EF0B6F804480FB044
:1037C00030BD00BF54380020B06F0A90AC5E0208D4
:1037D00058380020B45E02086137000870470000C6
:1037E00030B5174D8FB02C68BFF35B8F14F0010418
:1037F00022D128461EF08CF8F0B13F230122114956
:103800000993114B11480893114B0A940594CDE983
:1038100006430423CDE90332122318220093162312
:10382000CDE90B44CDE90144FEF710FF09481EF035
:10383000F5FD28461EF078F804480FB030BD00BFF3
:103840008438002084700A90B05E02088838002016
:10385000B85E0208DD37000800207047002070477E
:103860000EB403B503AB002153F8042B01930DF004
:10387000F9FE02B05DF804EB03B070470CB407B575
:1038800004AB53F8042B01930DF0ECFE03B05DF88C
:1038900004EB02B070470000436C10B5044673B3EC
:1038A000038F2BB9184BC521184A19481EF098FDF3
:1038B000C38E00EB43035B8C0BB30FF04FFA238FE7
:1038C000012B03D8134BCB21134AEEE7E28E40F6CF
:1038D0003F10531C9BB2092B194688BFA3F10A0164
:1038E00004EB4101498C814209D10A2B04EB4202CD
:1038F00028BF0023508C04EB430358845184204696
:10390000BDE810400FF02CB9BC470208C5470208BB
:1039100070480208BA480208C84802080FF0E9B81F
:1039200010B586B002AC84E806001A460AAB214600
:1039300005930193099B0093089B0CF029FB06B0AB
:1039400010BD000038B518BB124B13481C68134952
:10395000B4B1226822440260626822440A60A2680C
:1039600014440F4B00221A8000F038F8054600F08E
:1039700033F80C4B1C600C4B1D600C4B188007E09F
:103980000B4B03600B4B0B600B4B1C68002CE8D1FE
:1039900038BD00BFC0380020B8380020B43800203F
:1039A000BC380020E06C0120E86C0120E46C0120B0
:1039B000F0710A90D4710A902C720A90044B1B6823
:1039C00053F82100034B1B6803EB4000704700BF16
:1039D000B4380020B83800200720704700487047EE
:1039E000C438002010B5044CFFF7BCFE2060FFF780
:1039F000F7FE606010BD00BFC4380020806C7047C7
:103A0000C06C704770477047704710B5044650212E
:103A10001DF07CFF204610BD10B504464FF4CA715E
:103A20001DF074FF204610BD38B504460D46262211
:103A300000211EF071FF2046FFF76AFB064B20466F
:103A4000294623602B88E384FF2384F828300AF07A
:103A500003FB204638BD00BF7055020810B5044670
:103A6000262200211EF058FF2046FFF751FB0A4B8B
:103A70004FF47F0220462360084BA3624FF6FF738A
:103A8000A3850023C4E90C324FF0FF322387E363A0
:103A9000C4E9102310BD00BF9C530208303C02084B
:103AA0002DE9F04F04468BB000250EF07BFA274637
:103AB000824B26222946E56304F16C0B47F8403B14
:103AC00038461EF029FF3846FFF722FB7C4B04F1F5
:103AD000980A4FF6FF762364FF2304F1C40808A96F
:103AE00084F866305846A56604F58679ADF82060FE
:103AF000FFF79AFF08A95046ADF82060FFF794FF42
:103B00004046FFF7ABFF08A94846ADF82060FFF735
:103B10008BFF04F59C73261D18460393FFF79EFF49
:103B2000684B2A463846C4F838314FF48873294622
:103B3000C4E9605500934FF4F073FFF7D6FA4FF0E5
:103B40007F4339463046A36604AF06F0EDF92A46B6
:103B500058462946FFF7BCFA584608A9ADF8205048
:103B60000AF07AFA594630464FF0030B06F0DCF9BA
:103B7000222250463621FFF7ABFA0823504608A907
:103B8000ADF820300AF068FA5146304606F0CCF91C
:103B9000232236214046FFF79BFA4FF07F434146F0
:103BA0003846C4F8F43004F5C47AA4F8F85009F0A3
:103BB0008DFD04F5807C444B97E807008CE80700F6
:103BC00008A940460893ADF824B00AF019F8414618
:103BD000304606F0A9F98C2248463C21FFF778FAD6
:103BE0000823484608A9ADF820300AF035FA4946BE
:103BF000304606F099F92723952242210398009335
:103C00007623FFF772FA4FF07F4303993846C4F8E2
:103C10006831D4F83831A4F86C51D3F8843098471F
:103C2000DFF8C09004F5BA7397E8070083E807004F
:103C3000D9F800302BB9254B6021254A25481EF0C4
:103C4000CFFBDFF8A480B8F800301BB9224B61210C
:103C50001F4AF3E7214F294604F5C7753868FFF777
:103C6000ADFE1F4A0346594650460FF031FED9F8C3
:103C70000030C4F880A1002BDDD0B8F80030012B53
:103C8000E4D901213868FFF799FE154A03465946E1
:103C900028460FF01DFE0C4B08A903980893022339
:103CA000C4F88451ADF8243009F0AAFF30460399D6
:103CB00006F03AF920460BB0BDE8F08F804A0208C2
:103CC0002C540208F0490208303C0208064202085F
:103CD0009A49020883420208CA420208EC6C012099
:103CE000E5490208E06C0120E46C0120704710B542
:103CF00004464FF4AE711DF009FE204610BD10B50C
:103D00000446D0F8580100F0FCF82046BDE8104009
:103D10000CF0DCBD10B50446FEF716FC014B204646
:103D2000236010BDB44A02087047043870477047DA
:103D300010B5044610211DF0E9FD204610BDA0F18C
:103D40000400F5E7806800F0DDB800000022C160E3
:103D50008260024A0260203242607047084B0208CB
:103D60007047C06B03685B6918470000034B10B5D0
:103D700004460360FFF7EAF8204610BD384B0208FE
:103D800010B50446FFF7F2FF42F2B42120461DF0C1
:103D9000BDFD204610BD000070B500F5005504467D
:103DA000C06BD5F8B03201332DED028BC5F8B032BF
:103DB00003681B699847D5F8B052EB0747D4D4F88D
:103DC0000061D4ED817A07EE106AF8EEE77AB8EE7A
:103DD000C77A87EE878A07EE905AB8EEE70ADFEDDA
:103DE0001D7A20EE270A1DF0B9FDF7EE007A9FED4F
:103DF0001A7A4FF6FF72194930EE270A0B8803F240
:103E00003953C8EE077A6B43B2EE047A93FBF2F2B1
:103E1000C2EB02429B1A0B809BB220EE270AFDEEFA
:103E2000C07A17EE901AC8EE077ABDEC028BFDEE51
:103E3000E77A17EE902A93FBF2F002FB103304F1BD
:103E4000CC0019447143BDE8704008F036BABDECAF
:103E5000028B70BD0AD7A33CCDCC0C40CC380020DF
:103E600010B50446FFF72CFA044B002220462360CD
:103E700004F50053C3F8B02210BD00BF384B020850
:103E800010B50446FFF715F823682046B4F9F2147C
:103E90001B6BBDE81040184770B5D0F8002100F149
:103EA000CC0604460D464A433046002107F0F4FD97
:103EB00030460DF002FDC72DD4F86434D4F8D82371
:103EC00017DD32214B4304F23440002BB8BF5B4274
:103ED000C4F8683401FB02F3002BB8BF5B42C4F89E
:103EE000DC3307F04DFD04F56A70BDE8704007F063
:103EF00047BD642DCCBF14210A21E3E700220260F4
:103F000070477047FCF782BE7047043870477047AF
:103F100010B5044610211DF0F9FC204610BDA0F19B
:103F20000400F5E737B50E4C054602220D49204640
:103F30001EF0FAFC88B9A3780422E8688DF80430F2
:103F40000DEB0201E3788DF8053023798DF806300A
:103F500063798DF8073000F041F803B030BD00BF41
:103F6000400100206C4B02080022C1608260024ABE
:103F700002601C3242607047784B0208D0F89431DE
:103F80000133C0F89431C06B03681B691847704750
:103F9000034B10B504460360FFF734FD204610BD07
:103FA000A44B020810B50446FFF7F2FF4FF4CC71A2
:103FB00020461DF0ABFC204610BD000010B50446A5
:103FC000FFF76EFD034B204623600023C4F89431B5
:103FD00010BD00BFA44B0208FFF715BD13B50B7849
:103FE0000446032200F5C470ADF800304B78ADF8FC
:103FF00002308B78ADF80430CB786946ADF80630E6
:104000000FF0F5F8032201A904F5C7700FF0EFF8DF
:10401000002304F59C70A4F88C31A4F892310DF0C3
:104020004CFC02B010BD000070B50546002401260E
:1040300008462960A5F8044185F80661C5E94223D0
:104040000B4A4FF416530C61CC61C1E900230C23D9
:10405000C1E90244C1E9053403F018FB32462146A8
:10406000522000F023FB5220BDE8704000F050BB0E
:104070000078004008B5002380F806314FF0FF3388
:10408000006803F090FA00B1FEE708BDB0F8043113
:104090000122FF2B88BF002310B588BFA0F8043190
:1040A0000446B0F80411013189B2A0F804110431BA
:1040B0000144006803F072FBB4F804116318DA7865
:1040C0000A2A0AD19B780D2B07D1D4F808310BB1FD
:1040D000201D98470023A4F8043110BD014B186837
:1040E00002F0AABED038002000B54FF4807295B01F
:1040F0004FF0807103460C9205220F910121069228
:10410000002201910B92139200920B48CDE9031209
:10411000CDE90D22CDE91122102206A902924FF419
:10412000800205926A4601F083FD003818BF012025
:1041300015B05DF804FB00BFE039002000B54FF476
:10414000807395B041F2883217480C93062306A974
:1041500006930023CDE90D330F930B931393CDE911
:10416000113301F020FDE0B9022301224FF4800158
:1041700004900D48CDE900331023CDE90232052328
:104180006A46CDE905134FF0807306A90F9341F2FB
:10419000883301F04DFD003818BF012015B05DF8DF
:1041A00004FB0120FAE700BFE039002000B54FF41E
:1041B000807391B04FF040720E480893EB2302A930
:1041C00002934FF4406309934FF400530593002387
:1041D000CDE90A320A220F9307926A46CDE90D33E0
:1041E000CDE9003301F075FD003818BF012011B092
:1041F0005DF804FBE0390020454B01219A6B42F049
:104200000202F0B59A638DB09A6B0924414D0427E0
:1042100002F00202002628460092009A9A6942F0B3
:1042200002029A619A6922F002029A611A6B42F0C4
:1042300002021A631A6B02F002020192019A1A6BCF
:1042400042F002021A631A6B02F002020292029A10
:104250001A6B42F008021A631A6B02F0080203920A
:10426000039A1A6B42F008021A631A6B02F00802F2
:104270000492049A1A6B42F010021A631A6B02F04D
:1042800010020592059A1A6B42F008021A63402246
:104290001B6B03F008030693069B0223CDE907235B
:1042A0000323CDE909130A2307A90B9300F048FC67
:1042B00007A92846079709960B9400F041FC4FF494
:1042C000006307A90B941D440793284600F038FCAF
:1042D0004FF4805307A9284607930B9400F030FC55
:1042E00007A90D4807970B9400F02AFC4FF40053E0
:1042F00007A928460B94079300F022FC32460F21B1
:104300005C2000F0D3F95C2000F002FA0DB0F0BDA3
:10431000003802400004024000100240F0B5494C51
:1043200091B0494B2046236001F02AFC054610B1AC
:10433000012011B0F0BD01462046FFF75DFF0126C8
:1043400004234FF08077C4E901631023E36097FAF8
:10435000A7F3B3FA83F32046013B23614FF4A06334
:10436000C4E90755C4E9053501F0B8FB0028DFD1E1
:104370004FF4807566230B9041F28832079002A9B2
:104380000F9008950293CDE90900CDE90D00204674
:1043900001F009FC08B10420CBE7992341F28832EF
:1043A00002A92046029301F0FEFB0028F3D141F25E
:1043B0008830FFF799FE0028EDD18523079041F260
:1043C000883202A9089502930B97CDE90900CDE93F
:1043D0000C60CDE90E00204601F0E5FB0028DAD1A3
:1043E00041F288320DF10701204601F05CFD002802
:1043F000D1D1FFF7A3FE0028CDD18123F022029373
:1044000092FAA2F20A219DF80730B2FA82F220460F
:1044100003F00F0301FA02F202A9134341F28832BA
:104420008DF8073001F0BFFB0028B4D141F288328B
:104430000DF10701204601F0D7FC00283FF479AFC9
:10444000A9E700BFE0390020001000A00F490020BC
:10445000D1F8883043F47003C1F888300C4B1A68E7
:1044600042F001021A6098601A6822F0847222F405
:1044700080321A60074A5A601A6822F480221A6051
:10448000D8604FF000638B60704700BF00ED00E024
:1044900000380240103000247047002070470000B0
:1044A000002337B58DF807300C4B1A780AB9012272
:1044B0001A700324C5B2013CA8212846FCF7F2FF7C
:1044C00014F0FF048DF807009DF80730DBB201D02F
:1044D000512BF0D19DF8070003B030BD2E3A0020DB
:1044E00013B500240221C0B28DF80740FCF7DAFFB3
:1044F0008DF807009DF8073003F00F038DF80730A3
:104500009DF80730052B01D98DF807409DF807204D
:10451000034B9DF807005A7000229A7002B010BD3C
:104520002E3A00202DE9F74F2F4C15464FF000088A
:104530000F46A37862788DF807809A424DD9092BEF
:104540004ED803EB43035B00DBB2191D03F1030BF1
:1045500003F1060A0533C9B25FFA8BFB5FFA8AFAE8
:104560005FFA83F8C6B2DFF884903046FCF79AFF12
:104570008DF807009DF8073059463046A9F80030FD
:10458000FCF790FF8DF8070051469DF80730304644
:10459000B9F800201B0203F4706313433B80A9F8B1
:1045A0000030FCF77FFF8DF8070041469DF807308B
:1045B0003046A9F80030FCF775FF8DF807009DF82C
:1045C0000730B9F800201B0203F470631343A9F805
:1045D00000302B80A3780133A37003B0BDE8F08FC7
:1045E000C246C3464146BDE72E3A00202C3A002081
:1045F0000122A421C0B2FCF73BBF0022A421C0B21B
:10460000FCF736BFFFF7F9BF70470000024B1A787E
:104610000AB901221A7070472E3A0020074A032077
:1046200008B5136843F48073136000F02DF8002080
:10463000FCF7B8FDFCF716FB002008BD003C02406B
:10464000034A044B11681B780B441360704700BF8A
:10465000343A002038000020014B1868704700BF32
:10466000343A002038B50446FFF7F6FF0546631CD0
:104670001EBF044B1B78E418FFF7EEFF431BA34259
:10468000FAD338BD3800002007490302CA6803F492
:10469000E06322F4E0621204120C134343F0BF63A0
:1046A00043F40033CB60704700ED00E0164B30B5AB
:1046B000DC68C4F30224C4F10703251D042B28BFC2
:1046C0000423062D4FF0FF358CBF033C002405FA70
:1046D00003F3002805FA04F521EA030322EA0502A0
:1046E00003FA04F343EA02034FEA0313DBB206DBE7
:1046F00000F1604000F5614080F8003330BD00F00B
:104700000F00024A1354F9E700ED00E014ED00E059
:10471000002807DB4109012300F01F00024A834003
:1047200042F82130704700BF00E100E000280CDBB8
:104730004309012200F01F0004492033824041F860
:104740002320BFF34F8FBFF36F8F704700E100E06E
:10475000BFF35F8F044B5A6A22F480325A62002200
:10476000C3F89420704700BF00ED00E0064B40F016
:104770000100C3F894005A6A42F480325A62BFF3CF
:104780004F8FBFF36F8F704700ED00E04378144AFE
:1047900010B5C2F898300178E9B14368C2F89C308E
:1047A000C37A047B1B0643EA04730B43817A43EA12
:1047B000C143417B43EA8143817B43EA4143C17B5F
:1047C00043EA0143417A43EA0123017A43EA410380
:1047D000C2F8A03010BDC2F89C10C2F8A010F9E7D2
:1047E00000ED00E010B5044608B9012010BD437F7C
:1047F00003F0FF0213B90277FCF752FA0223637742
:104800002379E3B92368134A5A619A6822F018029F
:104810009A6062792368D2B94FF0FF321A610020A2
:104820009A68616922F060020A43A1699A609A68F5
:1048300022F080020A439A6001236377D6E7D4E925
:104840000212204600F008F80028E2D0CDE72269E5
:10485000E4E700BFB71DC1041F2310B5013B1DD302
:1048600021FA03F4E407F9D5102A13D0102A04D84A
:104870003AB1082A10D001200BE0182AFBD1062BF0
:10488000F9D800684161836823F0180313438360FB
:10489000002010BD072BF3E70F2BF1E7102AE5D11D
:1048A000E9E770B50446866DFFF7D6FE054694F835
:1048B0003530022B06D0802301206365002384F865
:1048C000343070BD23681A6822F016021A605A69E3
:1048D00022F080025A61226C0AB9A26C1AB11A68DD
:1048E00022F008021A601A6822F001021A60236896
:1048F000186810F0010007D1E26D3F239340B360C8
:10490000012384F83530D9E7FFF7A6FE401B0528C0
:10491000EDD920230320636584F83500CEE790F8B5
:104920003530022B03D08023436501207047026895
:10493000052380F835300020136823F0010313604D
:10494000704710B5044630B390F8393003F0FF02D9
:104950001BB980F83820FCF7B9F922680223616896
:10496000002084F83930136823F440330B43A168E6
:104970001360536B23F007030B43E1685363136C1D
:1049800023F47F5323F03F030B4313640123E063BD
:1049900084F8393010BD0120FCE770477047036888
:1049A00070B55E6804461D68F20714D5E90512D596
:1049B0001A6822F480721A60C26B42F00102C2636C
:1049C00001229A60042380F83930002380F83830BF
:1049D000436903B19847B20616D5AB0414D52368D2
:1049E0001A6822F400521A6020229A60E36B43F0A6
:1049F0000203E363042384F83930002384F8383059
:104A000063690BB120469847300716D5290514D5A0
:104A100023681A6822F400621A6008229A60E36B25
:104A200043F00403E363042384F83930002384F85B
:104A3000383063690BB12046984772070BD56B0578
:104A400009D5236820461A6822F480621A6004227D
:104A50009A60FFF7A2FFB00714D5A90512D5236805
:104A60001A6822F400721A6002229A60E36BE36310
:104A7000012384F83930002384F8383023690BB1DE
:104A800020469847F20613D5EB0411D5236820463B
:104A90001A6822F480521A6010229A60E36BE36372
:104AA000012384F83930002384F83830FFF776FF8B
:104AB00070BD0000F0B590F8382003460220012AAE
:104AC0002BD0012283F839000E011C4F83F83820C7
:104AD00003EB0112D2E90740556A44EA0040093C61
:104AE000012C96BF05F07F4240EA056010431A682A
:104AF000A1B9516A012C01EA070141EA00015162A2
:104B00009969916103D8596A21F07F41916201222C
:104B1000002083F8392083F83800F0BDD169012CDA
:104B200001EA070141EA0001D16103EB060189694D
:104B30001161ECD825F07F451562E8E7F0FFFC0035
:104B40002DE9F74F0023DFF8BC916C4A01240D6872
:104B50009C4004EA0506AC4340F0B7804D6803274B
:104B60004FEA430E05F0030407FA0EFC671E6FEAD6
:104B70000C0C012F34D8876807EA0C08CF6807FAB5
:104B80000EF747EA08078760476827EA0608C5F373
:104B900000179F4047EA08074760C768022C07EAEA
:104BA0000C088F6807FA0EF747EA0807C76019D1A3
:104BB0004FEAD30803F0070A4FF00F0B00EB880809
:104BC0004FEA8A0AD8F820700BFA0AFB27EA0B0B87
:104BD0000F6907FA0AF747EA0B07C8F8207001E0E7
:104BE000032CDAD1076804FA0EF415F4403F07EA03
:104BF0000C0744EA0704046067D0D9F8444023F066
:104C0000030703F0030C4FF00F0E44F4804407F148
:104C100080474FEA8C0CC9F8444007F59C37D9F817
:104C200044400EFA0CFE04F480440194019CBC68DC
:104C300024EA0E0E324CA0424ED004F58064A0420D
:104C40004CD004F58064A0424AD004F58064A042B0
:104C500048D004F58064A04246D004F58064A042A8
:104C600044D004F58064A04242D004F58064A042A0
:104C700040D004F58064A0423ED004F58064A04298
:104C800014BF0A24092404FA0CF415F4801F44EA22
:104C90000E04BC606FEA060794680CBF3C403443C6
:104CA00015F4001F9460D4680CBF3C40344315F4E5
:104CB000003FD46054680CBF3C403443ED03546063
:104CC000146854BF3C40344314600133102B7FF40C
:104CD0003DAF03B0BDE8F08F0024D4E70124D2E754
:104CE0000224D0E70324CEE70424CCE70524CAE756
:104CF0000624C8E70724C6E70824C4E7003C0140AF
:104D000000000240003802402DE9F04F00224FF031
:104D1000010A4FF00F084FF0030B464C0AFA02FC51
:104D20003CEA01030CEA01066CD122F0030502F013
:104D3000030705F18045BF0005F59C3508FA07F922
:104D4000AB6809EA030E3C4B984260D003F58063E0
:104D500098425ED003F5806398425CD003F580638F
:104D600098425AD003F58063984258D003F5806387
:104D7000984256D003F58063984254D003F580637F
:104D8000984252D003F58063984250D003F5806377
:104D900098420CBF09230A23BB40734513D12368F3
:104DA00023EA06032360636823EA06036360E3687B
:104DB00023EA0603E360A36823EA0603A360AB6863
:104DC00023EA0903AB6053000568D6080BFA03F326
:104DD00000EB860625EA0305056002F00705376A41
:104DE000AD0008FA05F527EA05073762C56825EA28
:104DF0000305C560456825EA0C054560856825EA18
:104E0000030383600132102A88D1BDE8F08F0023AC
:104E1000C2E70123C0E70223BEE70323BCE7042364
:104E2000BAE70523B8E70623B6E70723B4E7082364
:104E3000B2E700BF003C0140000002400369194294
:104E400014BF0120002070470AB181617047090436
:104E5000FBE7436901EA030221EA030141EA024157
:104E60008161704703689A69910701D500229A62AF
:104E70009A69D20703D49A6942F001029A61704795
:104E800030B5039DC1F3090104682B43606843EA10
:104E90000243054A0B4342EA555223F0004320EAFD
:104EA00002000343636030BDFF63FF0303682DE925
:104EB000F0419C6905460F46164614F010046FD069
:104EC00000241022A046DA612B689A69900661D40A
:104ED000B8F1000F35D044F0040401202E68B36906
:104EE000D90505D54FF4807244F001040120F26128
:104EF0005A0505D54FF4806244F008040120F261A0
:104F00009B054FD54FF4007344F00204F36128462B
:104F1000FFF7A8FF7368012023F0FF7323F48B339E
:104F200023F4FF7323F0010373606B6C23436B6402
:104F3000202385F84130002385F8423085F8403041
:104F400032E07A1CC1D0FFF787FB801BB84201D842
:104F5000002FB9D12B68596895F842209869D2B2D0
:104F600000040AD5490408D4202A06D05A6842F41D
:104F700080425A60FFF770FB06462B689B699B06D0
:104F8000A2D4FFF769FB801B1928F6D920244FF023
:104F9000010899E7B8F1000F9DD12022DA619AE764
:104FA00020469BE70028B2D1BDE8F08170B50446E9
:104FB0000D46164623689B699B0701D500201BE020
:104FC000324629462046FFF771FFA0B96A1CF1D08E
:104FD000FFF742FB801BA84201D8002DEAD1636C89
:104FE00043F020036364202384F84130002384F8D5
:104FF000423084F84030012070BD70B504460D4643
:10500000164623689B699B0601D5002019E03246AD
:1050100029462046FFF74AFF90B9FFF71DFB801B8A
:10502000A84201D8002DECD1636C43F020036364E7
:10503000202384F84130002384F8423084F8403043
:10504000012070BD2DE9F041069F044688461646B2
:105050001D462268936938EA03030CBF012300232D
:10506000B34201D0002015E06B1CF3D0FFF7F4FA37
:10507000C01BA84201D8002DEBD1636C012043F086
:1050800020036364202384F84130002384F84230F5
:1050900084F84030BDE8F08110B5044600284AD0BD
:1050A00090F8413003F0FF021BB980F84020FBF775
:1050B0002DFE242384F8413023681A6822F001026F
:1050C0001A60626822F070621A619A6822F40042E3
:1050D0009A60D4E90221012924D142F400429A6065
:1050E0005A68002042F0007242F400425A60DA68C6
:1050F00022F40042DA60D4E904210A43A16942EAB9
:105100000122DA60D4E907210A431A601A6842F0E2
:1051100001021A602023606484F84130206384F81F
:10512000420010BD42F4044202299A60D8D14FF4E3
:1051300000625A60D4E70120F3E710B5044698B145
:105140000268242380F84130136823F001031360C0
:10515000FBF720FE0020606484F8400084F84100E2
:10516000206384F8420010BD0120FCE72DE9F74FD1
:10517000994690F8413004460F46202B1646BDF85C
:1051800034A0DDF8388040F0C6800C9B13B1BAF132
:10519000000F06D14FF400736364012003B0BDE833
:1051A000F08F90F84030012B00F0B5804FF0010BEC
:1051B00080F840B0FFF750FA1923054600905A4690
:1051C0004FF400412046FFF73DFF0028E5D12123A1
:1051D00060635FFA89F2394684F84130402384F8ED
:1051E00042300C9B6064204663624C4BA4F82AA0BA
:1051F00000934FF08073FFF743FE2A464146204656
:10520000FFF7D4FE18BBB9F1010F236815D1F6B230
:105210000022802120469E6243460095FFF712FF40
:10522000A8B9638D9BB2FF2B15D8628D4FF0007328
:1052300092B22285D2B2009012E0320A4146204654
:105240009A622A46FFF7B2FE08B92368DFE7002317
:1052500084F84030A1E7FF224FF080732285009050
:1052600039462046FFF70CFE2A4641462046FFF706
:105270009DFE002891D1636A226813F8011B916298
:105280006362638D228D013B013A9BB292B26385CA
:10529000638D22859BB2B3B1AAB9434680212046D3
:1052A0000095FFF7CFFE00287FF477AF638D9BB2A8
:1052B000FF2B28D9FF224FF08073228500903946BA
:1052C0002046FFF7DDFD638D9BB2002BCCD12A4633
:1052D00041462046FFF791FE00287FF45EAF236829
:1052E0002021D9615A6822F0FF7222F48B3222F415
:1052F000FF7222F001025A6084F8411084F84000E5
:1053000084F842004AE7628D4FF0007392B2228522
:10531000D2B20090D3E7022040E700BF0020008017
:105320002DE9F74F994690F8413004460F46202B5F
:105330001646BDF834A0DDF8388040F0C9800C9BDB
:1053400013B1BAF1000F06D14FF40073636401206A
:1053500003B0BDE8F08F90F84030012B00F0B8802A
:105360004FF0010B80F840B0FFF776F91923009059
:1053700005465A464FF400412046FFF763FE0346B8
:105380000028E4D122226063394684F8412040227B
:1053900084F842200C9A6064204662624D4AA4F868
:1053A0002AA000925FFA89F2FFF76AFD2A46414679
:1053B0002046FFF7FBFD20BBB9F1010F236816D192
:1053C000F6B20022402120469E6243460095FFF738
:1053D00039FEB0B9638D9BB2FF2B3F4B15D8628D60
:1053E00092B22285D2B200934FF0007312E0320ADB
:1053F000414620469A622A46FFF7D8FD08B923683D
:10540000DEE7002384F84030A1E7FF2222850093E5
:105410004FF0807339462046FFF732FD43460022A5
:10542000042120460095FFF70DFE00288FD1236848
:105430005A6A636A1A70636A228D0133013A6362A1
:10544000638D92B2013B22859BB26385638D9BB2D3
:10545000B3B1AAB94346802120460095FFF7F2FD7B
:1054600000287FF474AF638D9BB2FF2B28D9FF22F5
:105470004FF080732285009039462046FFF700FDEB
:10548000638D9BB2002BC9D12A4641462046FFF7C7
:10549000B4FD00287FF45BAF23682021D9615A68EE
:1054A00022F0FF7222F48B3222F4FF7222F001020A
:1054B0005A6084F8411084F8400084F8420047E7BD
:1054C000628D4FF0007392B22285D2B20090D3E782
:1054D00002203DE7002000800024008010B590F8F5
:1054E00041200346202AD4B21CD190F84020012A42
:1054F00018D0242280F841200268106820F00100B2
:105500001060106820F48050106010680143002083
:105510001160116841F00101116083F8414083F886
:10552000400010BD0220FCE710B590F84120034672
:10553000202AD4B21BD190F84020012A17D024226F
:1055400080F841200268106820F0010010601068A7
:1055500020F4706040EA012100201160116841F0E0
:105560000101116083F8414083F8400010BD022022
:10557000FCE7D2010068D1F800C0843283182DE91D
:10558000F043C6680CF101075D684FF0000E4C68EF
:10559000C6F30B4605F47045D1F8189026445D60BB
:1055A000C568C5F30B453D4445EA06455D60C668E0
:1055B000CD68C6F30A062E449D6805F470459D60CB
:1055C0008D68C7680135C7F30A073D4445EA0645BB
:1055D0000E699D601D6925F007051D611E619D69AD
:1055E00091F8327091F83180C3F818E091F830509A
:1055F00045EA096545EA082545EA07459D615D6973
:1056000025F0FF055D614D695D61DD6925F4E065AB
:1056100025F00705DD61D1E907573D43DD619D6A4E
:105620004D6AC3F828E09D621EB3012E23D0B51E3B
:10563000022D22D9072E14BF01250225DE6AA4EB14
:105640000C0406F0E0266C43DE6203348E6AC96AFD
:105650006E4344EA0644DC621C6B24F4FF6424F0CD
:1056600007041C631963835843F001038350BDE8AA
:10567000F0830425E2E70325E0E70225DEE70000EA
:1056800038B50446002863D090F8A13003F0FF023B
:105690001BB980F8A020FBF799FB022384F8A13006
:1056A00023689A6922F070429A619969D4E90120CD
:1056B0000243E06802432069024360690A432549C6
:1056C0009A619A680A409A609A6842EA0042A06920
:1056D0000243E0699A60DA680A40DA60DA6842EA0E
:1056E0000042206A0243606ADA601A690A401A615D
:1056F0001A6942EA0042A06A02431A615A690A40E2
:10570000E16A5A615A6942EA0142216B0A435A61CD
:10571000DA6A94F8350002F07F4294F83610DA62C3
:10572000DD6A94F834202A4342EA0022002042EA4B
:105730000142DA625A6B42F006025A639A6942F0F9
:1057400001029A610123C4F8A40084F8A13038BD95
:105750000120FCE700F800F070477047036870B55F
:105760009E6B04465D6B720714D5690712D55A6BA0
:1057700022F004025A630422DA63D0F8A43043F022
:105780000103C0F8A430002380F8A12080F8A030E5
:10579000FFF7E2FFB20716D5AB0714D52368204602
:1057A0005A6B22F002025A630222DA63D4F8A43060
:1057B0001343C4F8A430042384F8A130002384F8F0
:1057C000A030FFF7C9FFF00710D5E9070ED5236811
:1057D00020465A6B22F001025A630122DA63002349
:1057E00084F8A12084F8A030FCF76AFC320711D5B8
:1057F0002B070FD5236820465A6B22F008025A6304
:105800000822DA63012384F8A130002384F8A03051
:10581000FFF7A3FF70BD2DE9F04190F8A0300646D8
:105820000F469446012B4FF002001FD034244FF056
:1058300001080D4686F8A10004FB026486F8A080EA
:1058400038340FCD0FC40FCD0FC40FCD0FC42B684C
:105850003046624639462360FFF78BFE33680020EE
:10586000C3F8248086F8A18086F8A000BDE8F08106
:1058700090F8A02003460220012A12D01A6883F86B
:10588000A100506B20F00100506306480164002025
:10589000516B41F001015163012283F8A00083F8AC
:1058A000A120704700680140194B37B51A6C194C9C
:1058B00042F080521A641B6C03F080530193019BE9
:1058C000236843F480332360FEF7C6FE0546636811
:1058D000DA030CD523680F4D43F400332360FEF741
:1058E000BBFE04466B689B030AD5002006E0FEF76A
:1058F000B3FE401BB0F57A7FE9D9032003B030BD79
:10590000FEF7AAFE001BB0F57A7FEBD9F5E700BFE2
:1059100000380240007000402DE9F0474E6A36B171
:10592000B2F1406F03D08B6A0468013B2361D1F868
:1059300018A0D1E9077EBAF1000F4CD04C69056878
:105940004FEA844C4AEA06040B68D1F8348044EAF2
:10595000020AD1E90B09BEF1000F24D08E684AEA91
:105960000E04EE610E699FB13B430343C86843EAEE
:10597000090343EA08033343034343EA0C03234385
:10598000B2F1406F6B6101D04B68AB61BDE8F0874D
:10599000034343EA090343EA0803334343EA0C039E
:1059A00023436B61F2E767B13B430343C86843EAB3
:1059B000090343EA0803034343EA0C0343EA0A03E7
:1059C000DEE7034343EA090343EA080444EA0C031D
:1059D00043EA0A03E5E7BEF1000F2CD046EA0E05C4
:1059E0008B6804684E691543E361D1F834C0B6048E
:1059F0000B69D1E90B8EA7B13B43C868B2F1406F88
:105A000043EA080343EA0E0343EA0C0343EA0003B4
:105A100043EA060343EA05036361B7D04B68A36119
:105A2000B4E743EA080343EA0E0343EA0C033343B3
:105A30002B436361AAE7D7B146EA0703CC6A006843
:105A4000B2F1406F43EA020343EA04030C6B43EAFA
:105A500004034C6B43EA0403CC6843EA04034C6937
:105A600043EA8443436191D04B6883618EE7002E03
:105A70008CD0CB6A0068334313430A6B13434A6BE1
:105A800013434A6943EA824343617FE72DE9F041CA
:105A9000DDF8188004460E4615461F4622689368B6
:105AA000334214BF01230023AB4201D1002012E096
:105AB000B8F1FF3FF3D0FEF7CFFDC01B404502D841
:105AC000B8F1000FEAD10423012084F84130636C5F
:105AD00043F001036364BDE8F081000037B504467C
